{
	"src/Raffle.sol": {
		"Raffle": {
			"abi": [
				{
					"inputs": [
						{
							"internalType": "contract ERC721i",
							"name": "_contract",
							"type": "address"
						},
						{
							"internalType": "uint256",
							"name": "_firstRaffleEndTime",
							"type": "uint256"
						}
					],
					"stateMutability": "nonpayable",
					"type": "constructor"
				},
				{
					"anonymous": false,
					"inputs": [
						{
							"indexed": false,
							"internalType": "address",
							"name": "useraddress",
							"type": "address"
						},
						{
							"indexed": false,
							"internalType": "bool",
							"name": "successful",
							"type": "bool"
						}
					],
					"name": "enteredRaffle",
					"type": "event"
				},
				{
					"anonymous": false,
					"inputs": [
						{
							"indexed": false,
							"internalType": "address",
							"name": "winnerAddress",
							"type": "address"
						},
						{
							"indexed": false,
							"internalType": "uint256",
							"name": "prize",
							"type": "uint256"
						},
						{
							"indexed": false,
							"internalType": "bool",
							"name": "successful",
							"type": "bool"
						}
					],
					"name": "revealWinner",
					"type": "event"
				},
				{
					"inputs": [],
					"name": "currentRaffleId",
					"outputs": [
						{
							"internalType": "uint256",
							"name": "",
							"type": "uint256"
						}
					],
					"stateMutability": "view",
					"type": "function"
				},
				{
					"inputs": [],
					"name": "enterRaffle",
					"outputs": [],
					"stateMutability": "payable",
					"type": "function"
				},
				{
					"inputs": [],
					"name": "fundPrizePool",
					"outputs": [],
					"stateMutability": "payable",
					"type": "function"
				},
				{
					"inputs": [],
					"name": "getContractBalance",
					"outputs": [
						{
							"internalType": "uint256",
							"name": "",
							"type": "uint256"
						}
					],
					"stateMutability": "view",
					"type": "function"
				},
				{
					"inputs": [],
					"name": "getTotalEntries",
					"outputs": [
						{
							"internalType": "uint256",
							"name": "",
							"type": "uint256"
						}
					],
					"stateMutability": "view",
					"type": "function"
				},
				{
					"inputs": [
						{
							"internalType": "uint256",
							"name": "raffleId",
							"type": "uint256"
						}
					],
					"name": "getWinner",
					"outputs": [
						{
							"internalType": "address",
							"name": "",
							"type": "address"
						}
					],
					"stateMutability": "view",
					"type": "function"
				},
				{
					"inputs": [
						{
							"internalType": "uint256",
							"name": "",
							"type": "uint256"
						},
						{
							"internalType": "address",
							"name": "",
							"type": "address"
						}
					],
					"name": "hasEntered",
					"outputs": [
						{
							"internalType": "bool",
							"name": "",
							"type": "bool"
						}
					],
					"stateMutability": "view",
					"type": "function"
				},
				{
					"inputs": [
						{
							"internalType": "address",
							"name": "user",
							"type": "address"
						}
					],
					"name": "hasUserEntered",
					"outputs": [
						{
							"internalType": "bool",
							"name": "",
							"type": "bool"
						}
					],
					"stateMutability": "view",
					"type": "function"
				},
				{
					"inputs": [
						{
							"internalType": "address",
							"name": "user",
							"type": "address"
						}
					],
					"name": "isEligible",
					"outputs": [
						{
							"internalType": "bool",
							"name": "",
							"type": "bool"
						}
					],
					"stateMutability": "view",
					"type": "function"
				},
				{
					"inputs": [],
					"name": "nftContract",
					"outputs": [
						{
							"internalType": "contract ERC721i",
							"name": "",
							"type": "address"
						}
					],
					"stateMutability": "view",
					"type": "function"
				},
				{
					"inputs": [],
					"name": "owner",
					"outputs": [
						{
							"internalType": "address",
							"name": "",
							"type": "address"
						}
					],
					"stateMutability": "view",
					"type": "function"
				},
				{
					"inputs": [
						{
							"internalType": "uint256",
							"name": "_amount",
							"type": "uint256"
						}
					],
					"name": "ownerWithdraw",
					"outputs": [],
					"stateMutability": "nonpayable",
					"type": "function"
				},
				{
					"inputs": [],
					"name": "prizePool",
					"outputs": [
						{
							"internalType": "uint256",
							"name": "",
							"type": "uint256"
						}
					],
					"stateMutability": "view",
					"type": "function"
				},
				{
					"inputs": [
						{
							"internalType": "uint256",
							"name": "",
							"type": "uint256"
						}
					],
					"name": "raffleAddress",
					"outputs": [
						{
							"internalType": "address",
							"name": "",
							"type": "address"
						}
					],
					"stateMutability": "view",
					"type": "function"
				},
				{
					"inputs": [],
					"name": "raffleEndTime",
					"outputs": [
						{
							"internalType": "uint256",
							"name": "",
							"type": "uint256"
						}
					],
					"stateMutability": "view",
					"type": "function"
				},
				{
					"inputs": [
						{
							"internalType": "uint256",
							"name": "",
							"type": "uint256"
						},
						{
							"internalType": "uint256",
							"name": "",
							"type": "uint256"
						}
					],
					"name": "raffleEntries",
					"outputs": [
						{
							"internalType": "address",
							"name": "",
							"type": "address"
						}
					],
					"stateMutability": "view",
					"type": "function"
				},
				{
					"inputs": [
						{
							"internalType": "uint256",
							"name": "",
							"type": "uint256"
						}
					],
					"name": "raffleWinners",
					"outputs": [
						{
							"internalType": "address",
							"name": "",
							"type": "address"
						}
					],
					"stateMutability": "view",
					"type": "function"
				},
				{
					"inputs": [],
					"name": "selectWinner",
					"outputs": [],
					"stateMutability": "nonpayable",
					"type": "function"
				}
			],
			"devdoc": {
				"kind": "dev",
				"methods": {},
				"version": 1
			},
			"evm": {
				"assembly": "    /* \"src/Raffle.sol\":160:4299  contract Raffle {... */\n  mstore(0x40, 0x80)\n    /* \"src/Raffle.sol\":937:1181  constructor(ERC721i _contract, uint _firstRaffleEndTime)... */\n  callvalue\n  dup1\n  iszero\n  tag_1\n  jumpi\n  revert(0x00, 0x00)\ntag_1:\n  pop\n  mload(0x40)\n  sub(codesize, bytecodeSize)\n  dup1\n  bytecodeSize\n  dup4\n  codecopy\n  dup2\n  dup2\n  add\n  0x40\n  mstore\n  dup2\n  add\n  swap1\n  tag_2\n  swap2\n  swap1\n  tag_3\n  jump\t// in\ntag_2:\n    /* \"src/Raffle.sol\":1024:1033  _contract */\n  dup2\n    /* \"src/Raffle.sol\":1010:1021  nftContract */\n  0x00\n  0x00\n    /* \"src/Raffle.sol\":1010:1033  nftContract = _contract */\n  0x0100\n  exp\n  dup2\n  sload\n  dup2\n  0xffffffffffffffffffffffffffffffffffffffff\n  mul\n  not\n  and\n  swap1\n  dup4\n  0xffffffffffffffffffffffffffffffffffffffff\n  and\n  mul\n  or\n  swap1\n  sstore\n  pop\n    /* \"src/Raffle.sol\":1052:1062  msg.sender */\n  caller\n    /* \"src/Raffle.sol\":1044:1049  owner */\n  0x01\n  0x00\n    /* \"src/Raffle.sol\":1044:1062  owner = msg.sender */\n  0x0100\n  exp\n  dup2\n  sload\n  dup2\n  0xffffffffffffffffffffffffffffffffffffffff\n  mul\n  not\n  and\n  swap1\n  dup4\n  0xffffffffffffffffffffffffffffffffffffffff\n  and\n  mul\n  or\n  swap1\n  sstore\n  pop\n    /* \"src/Raffle.sol\":1085:1097  50 * 1 ether */\n  0x02b5e3af16b1880000\n    /* \"src/Raffle.sol\":1073:1082  prizePool */\n  0x03\n    /* \"src/Raffle.sol\":1073:1097  prizePool = 50 * 1 ether */\n  dup2\n  swap1\n  sstore\n  pop\n    /* \"src/Raffle.sol\":1124:1143  _firstRaffleEndTime */\n  dup1\n    /* \"src/Raffle.sol\":1108:1121  raffleEndTime */\n  0x04\n    /* \"src/Raffle.sol\":1108:1143  raffleEndTime = _firstRaffleEndTime */\n  dup2\n  swap1\n  sstore\n  pop\n    /* \"src/Raffle.sol\":1172:1173  1 */\n  0x01\n    /* \"src/Raffle.sol\":1154:1169  currentRaffleId */\n  0x02\n    /* \"src/Raffle.sol\":1154:1173  currentRaffleId = 1 */\n  dup2\n  swap1\n  sstore\n  pop\n    /* \"src/Raffle.sol\":937:1181  constructor(ERC721i _contract, uint _firstRaffleEndTime)... */\n  pop\n  pop\n    /* \"src/Raffle.sol\":160:4299  contract Raffle {... */\n  jump(tag_6)\n    /* \"#utility.yul\":88:205   */\ntag_8:\n    /* \"#utility.yul\":197:198   */\n  0x00\n    /* \"#utility.yul\":194:195   */\n  0x00\n    /* \"#utility.yul\":187:199   */\n  revert\n    /* \"#utility.yul\":334:460   */\ntag_10:\n    /* \"#utility.yul\":371:378   */\n  0x00\n    /* \"#utility.yul\":411:453   */\n  0xffffffffffffffffffffffffffffffffffffffff\n    /* \"#utility.yul\":404:409   */\n  dup3\n    /* \"#utility.yul\":400:454   */\n  and\n    /* \"#utility.yul\":389:454   */\n  swap1\n  pop\n    /* \"#utility.yul\":334:460   */\n  swap2\n  swap1\n  pop\n  jump\t// out\n    /* \"#utility.yul\":466:562   */\ntag_11:\n    /* \"#utility.yul\":503:510   */\n  0x00\n    /* \"#utility.yul\":532:556   */\n  tag_24\n    /* \"#utility.yul\":550:555   */\n  dup3\n    /* \"#utility.yul\":532:556   */\n  tag_10\n  jump\t// in\ntag_24:\n    /* \"#utility.yul\":521:556   */\n  swap1\n  pop\n    /* \"#utility.yul\":466:562   */\n  swap2\n  swap1\n  pop\n  jump\t// out\n    /* \"#utility.yul\":568:677   */\ntag_12:\n    /* \"#utility.yul\":618:625   */\n  0x00\n    /* \"#utility.yul\":647:671   */\n  tag_26\n    /* \"#utility.yul\":665:670   */\n  dup3\n    /* \"#utility.yul\":647:671   */\n  tag_11\n  jump\t// in\ntag_26:\n    /* \"#utility.yul\":636:671   */\n  swap1\n  pop\n    /* \"#utility.yul\":568:677   */\n  swap2\n  swap1\n  pop\n  jump\t// out\n    /* \"#utility.yul\":683:831   */\ntag_13:\n    /* \"#utility.yul\":769:806   */\n  tag_28\n    /* \"#utility.yul\":800:805   */\n  dup2\n    /* \"#utility.yul\":769:806   */\n  tag_12\n  jump\t// in\ntag_28:\n    /* \"#utility.yul\":762:767   */\n  dup2\n    /* \"#utility.yul\":759:807   */\n  eq\n    /* \"#utility.yul\":749:825   */\n  tag_29\n  jumpi\n    /* \"#utility.yul\":821:822   */\n  0x00\n    /* \"#utility.yul\":818:819   */\n  0x00\n    /* \"#utility.yul\":811:823   */\n  revert\n    /* \"#utility.yul\":749:825   */\ntag_29:\n    /* \"#utility.yul\":683:831   */\n  pop\n  jump\t// out\n    /* \"#utility.yul\":837:1006   */\ntag_14:\n    /* \"#utility.yul\":907:912   */\n  0x00\n    /* \"#utility.yul\":938:944   */\n  dup2\n    /* \"#utility.yul\":932:945   */\n  mload\n    /* \"#utility.yul\":923:945   */\n  swap1\n  pop\n    /* \"#utility.yul\":954:1000   */\n  tag_31\n    /* \"#utility.yul\":994:999   */\n  dup2\n    /* \"#utility.yul\":954:1000   */\n  tag_13\n  jump\t// in\ntag_31:\n    /* \"#utility.yul\":837:1006   */\n  swap3\n  swap2\n  pop\n  pop\n  jump\t// out\n    /* \"#utility.yul\":1012:1089   */\ntag_15:\n    /* \"#utility.yul\":1049:1056   */\n  0x00\n    /* \"#utility.yul\":1078:1083   */\n  dup2\n    /* \"#utility.yul\":1067:1083   */\n  swap1\n  pop\n    /* \"#utility.yul\":1012:1089   */\n  swap2\n  swap1\n  pop\n  jump\t// out\n    /* \"#utility.yul\":1095:1217   */\ntag_16:\n    /* \"#utility.yul\":1168:1192   */\n  tag_34\n    /* \"#utility.yul\":1186:1191   */\n  dup2\n    /* \"#utility.yul\":1168:1192   */\n  tag_15\n  jump\t// in\ntag_34:\n    /* \"#utility.yul\":1161:1166   */\n  dup2\n    /* \"#utility.yul\":1158:1193   */\n  eq\n    /* \"#utility.yul\":1148:1211   */\n  tag_35\n  jumpi\n    /* \"#utility.yul\":1207:1208   */\n  0x00\n    /* \"#utility.yul\":1204:1205   */\n  0x00\n    /* \"#utility.yul\":1197:1209   */\n  revert\n    /* \"#utility.yul\":1148:1211   */\ntag_35:\n    /* \"#utility.yul\":1095:1217   */\n  pop\n  jump\t// out\n    /* \"#utility.yul\":1223:1366   */\ntag_17:\n    /* \"#utility.yul\":1280:1285   */\n  0x00\n    /* \"#utility.yul\":1311:1317   */\n  dup2\n    /* \"#utility.yul\":1305:1318   */\n  mload\n    /* \"#utility.yul\":1296:1318   */\n  swap1\n  pop\n    /* \"#utility.yul\":1327:1360   */\n  tag_37\n    /* \"#utility.yul\":1354:1359   */\n  dup2\n    /* \"#utility.yul\":1327:1360   */\n  tag_16\n  jump\t// in\ntag_37:\n    /* \"#utility.yul\":1223:1366   */\n  swap3\n  swap2\n  pop\n  pop\n  jump\t// out\n    /* \"#utility.yul\":1372:1905   */\ntag_3:\n    /* \"#utility.yul\":1464:1470   */\n  0x00\n    /* \"#utility.yul\":1472:1478   */\n  0x00\n    /* \"#utility.yul\":1521:1523   */\n  0x40\n    /* \"#utility.yul\":1509:1518   */\n  dup4\n    /* \"#utility.yul\":1500:1507   */\n  dup6\n    /* \"#utility.yul\":1496:1519   */\n  sub\n    /* \"#utility.yul\":1492:1524   */\n  slt\n    /* \"#utility.yul\":1489:1608   */\n  iszero\n  tag_39\n  jumpi\n    /* \"#utility.yul\":1527:1606   */\n  tag_40\n  tag_8\n  jump\t// in\ntag_40:\n    /* \"#utility.yul\":1489:1608   */\ntag_39:\n    /* \"#utility.yul\":1647:1648   */\n  0x00\n    /* \"#utility.yul\":1672:1749   */\n  tag_41\n    /* \"#utility.yul\":1741:1748   */\n  dup6\n    /* \"#utility.yul\":1732:1738   */\n  dup3\n    /* \"#utility.yul\":1721:1730   */\n  dup7\n    /* \"#utility.yul\":1717:1739   */\n  add\n    /* \"#utility.yul\":1672:1749   */\n  tag_14\n  jump\t// in\ntag_41:\n    /* \"#utility.yul\":1662:1749   */\n  swap3\n  pop\n    /* \"#utility.yul\":1618:1759   */\n  pop\n    /* \"#utility.yul\":1798:1800   */\n  0x20\n    /* \"#utility.yul\":1824:1888   */\n  tag_42\n    /* \"#utility.yul\":1880:1887   */\n  dup6\n    /* \"#utility.yul\":1871:1877   */\n  dup3\n    /* \"#utility.yul\":1860:1869   */\n  dup7\n    /* \"#utility.yul\":1856:1878   */\n  add\n    /* \"#utility.yul\":1824:1888   */\n  tag_17\n  jump\t// in\ntag_42:\n    /* \"#utility.yul\":1814:1888   */\n  swap2\n  pop\n    /* \"#utility.yul\":1769:1898   */\n  pop\n    /* \"#utility.yul\":1372:1905   */\n  swap3\n  pop\n  swap3\n  swap1\n  pop\n  jump\t// out\n    /* \"src/Raffle.sol\":160:4299  contract Raffle {... */\ntag_6:\n  dataSize(sub_0)\n  dup1\n  dataOffset(sub_0)\n  0x00\n  codecopy\n  0x00\n  return\nstop\n\nsub_0: assembly {\n        /* \"src/Raffle.sol\":160:4299  contract Raffle {... */\n      mstore(0x40, 0x80)\n      jumpi(tag_1, lt(calldatasize, 0x04))\n      shr(0xe0, calldataload(0x00))\n      dup1\n      0x65df169e\n      gt\n      tag_20\n      jumpi\n      dup1\n      0x719ce73e\n      gt\n      tag_21\n      jumpi\n      dup1\n      0x719ce73e\n      eq\n      tag_15\n      jumpi\n      dup1\n      0x88b2f7c3\n      eq\n      tag_16\n      jumpi\n      dup1\n      0x8da5cb5b\n      eq\n      tag_17\n      jumpi\n      dup1\n      0x8e36b513\n      eq\n      tag_18\n      jumpi\n      dup1\n      0xd56d229d\n      eq\n      tag_19\n      jumpi\n      jump(tag_1)\n    tag_21:\n      dup1\n      0x65df169e\n      eq\n      tag_11\n      jumpi\n      dup1\n      0x66e305fd\n      eq\n      tag_12\n      jumpi\n      dup1\n      0x6e60e3c6\n      eq\n      tag_13\n      jumpi\n      dup1\n      0x6f9fb98a\n      eq\n      tag_14\n      jumpi\n      jump(tag_1)\n    tag_20:\n      dup1\n      0x18a32e70\n      gt\n      tag_22\n      jumpi\n      dup1\n      0x18a32e70\n      eq\n      tag_6\n      jumpi\n      dup1\n      0x2cfcc539\n      eq\n      tag_7\n      jumpi\n      dup1\n      0x33a99e04\n      eq\n      tag_8\n      jumpi\n      dup1\n      0x33f707d1\n      eq\n      tag_9\n      jumpi\n      dup1\n      0x4129b2c9\n      eq\n      tag_10\n      jumpi\n      jump(tag_1)\n    tag_22:\n      dup1\n      0x073c74f3\n      eq\n      tag_2\n      jumpi\n      dup1\n      0x0e27b8b3\n      eq\n      tag_3\n      jumpi\n      dup1\n      0x11e5b16a\n      eq\n      tag_4\n      jumpi\n      dup1\n      0x12d491c9\n      eq\n      tag_5\n      jumpi\n    tag_1:\n      revert(0x00, 0x00)\n        /* \"src/Raffle.sol\":747:809  mapping(uint256 => mapping(address => bool)) public hasEntered */\n    tag_2:\n      callvalue\n      dup1\n      iszero\n      tag_23\n      jumpi\n      revert(0x00, 0x00)\n    tag_23:\n      pop\n      tag_24\n      0x04\n      dup1\n      calldatasize\n      sub\n      dup2\n      add\n      swap1\n      tag_25\n      swap2\n      swap1\n      tag_26\n      jump\t// in\n    tag_25:\n      tag_27\n      jump\t// in\n    tag_24:\n      mload(0x40)\n      tag_28\n      swap2\n      swap1\n      tag_29\n      jump\t// in\n    tag_28:\n      mload(0x40)\n      dup1\n      swap2\n      sub\n      swap1\n      return\n        /* \"src/Raffle.sol\":1934:2066  function hasUserEntered(address user) external view returns (bool) ... */\n    tag_3:\n      callvalue\n      dup1\n      iszero\n      tag_30\n      jumpi\n      revert(0x00, 0x00)\n    tag_30:\n      pop\n      tag_31\n      0x04\n      dup1\n      calldatasize\n      sub\n      dup2\n      add\n      swap1\n      tag_32\n      swap2\n      swap1\n      tag_33\n      jump\t// in\n    tag_32:\n      tag_34\n      jump\t// in\n    tag_31:\n      mload(0x40)\n      tag_35\n      swap2\n      swap1\n      tag_29\n      jump\t// in\n    tag_35:\n      mload(0x40)\n      dup1\n      swap2\n      sub\n      swap1\n      return\n        /* \"src/Raffle.sol\":849:897  mapping(uint256 => address) public raffleWinners */\n    tag_4:\n      callvalue\n      dup1\n      iszero\n      tag_36\n      jumpi\n      revert(0x00, 0x00)\n    tag_36:\n      pop\n      tag_37\n      0x04\n      dup1\n      calldatasize\n      sub\n      dup2\n      add\n      swap1\n      tag_38\n      swap2\n      swap1\n      tag_39\n      jump\t// in\n    tag_38:\n      tag_40\n      jump\t// in\n    tag_37:\n      mload(0x40)\n      tag_41\n      swap2\n      swap1\n      tag_42\n      jump\t// in\n    tag_41:\n      mload(0x40)\n      dup1\n      swap2\n      sub\n      swap1\n      return\n        /* \"src/Raffle.sol\":2311:2439  function getTotalEntries() external view returns (uint256) ... */\n    tag_5:\n      callvalue\n      dup1\n      iszero\n      tag_43\n      jumpi\n      revert(0x00, 0x00)\n    tag_43:\n      pop\n      tag_44\n      tag_45\n      jump\t// in\n    tag_44:\n      mload(0x40)\n      tag_46\n      swap2\n      swap1\n      tag_47\n      jump\t// in\n    tag_46:\n      mload(0x40)\n      dup1\n      swap2\n      sub\n      swap1\n      return\n        /* \"src/Raffle.sol\":400:428  uint256 public raffleEndTime */\n    tag_6:\n      callvalue\n      dup1\n      iszero\n      tag_48\n      jumpi\n      revert(0x00, 0x00)\n    tag_48:\n      pop\n      tag_49\n      tag_50\n      jump\t// in\n    tag_49:\n      mload(0x40)\n      tag_51\n      swap2\n      swap1\n      tag_47\n      jump\t// in\n    tag_51:\n      mload(0x40)\n      dup1\n      swap2\n      sub\n      swap1\n      return\n        /* \"src/Raffle.sol\":1193:1922  function enterRaffle() external payable... */\n    tag_7:\n      tag_52\n      tag_53\n      jump\t// in\n    tag_52:\n      stop\n        /* \"src/Raffle.sol\":2626:3711  function selectWinner() external /*onlyOwner*/ {... */\n    tag_8:\n      callvalue\n      dup1\n      iszero\n      tag_54\n      jumpi\n      revert(0x00, 0x00)\n    tag_54:\n      pop\n      tag_55\n      tag_56\n      jump\t// in\n    tag_55:\n      stop\n        /* \"src/Raffle.sol\":3992:4294  function ownerWithdraw(uint _amount) public ... */\n    tag_9:\n      callvalue\n      dup1\n      iszero\n      tag_57\n      jumpi\n      revert(0x00, 0x00)\n    tag_57:\n      pop\n      tag_58\n      0x04\n      dup1\n      calldatasize\n      sub\n      dup2\n      add\n      swap1\n      tag_59\n      swap2\n      swap1\n      tag_39\n      jump\t// in\n    tag_59:\n      tag_60\n      jump\t// in\n    tag_58:\n      stop\n        /* \"src/Raffle.sol\":2127:2251  function getWinner(uint256 raffleId) external view returns (address) ... */\n    tag_10:\n      callvalue\n      dup1\n      iszero\n      tag_61\n      jumpi\n      revert(0x00, 0x00)\n    tag_61:\n      pop\n      tag_62\n      0x04\n      dup1\n      calldatasize\n      sub\n      dup2\n      add\n      swap1\n      tag_63\n      swap2\n      swap1\n      tag_39\n      jump\t// in\n    tag_63:\n      tag_64\n      jump\t// in\n    tag_62:\n      mload(0x40)\n      tag_65\n      swap2\n      swap1\n      tag_42\n      jump\t// in\n    tag_65:\n      mload(0x40)\n      dup1\n      swap2\n      sub\n      swap1\n      return\n        /* \"src/Raffle.sol\":332:362  uint256 public currentRaffleId */\n    tag_11:\n      callvalue\n      dup1\n      iszero\n      tag_66\n      jumpi\n      revert(0x00, 0x00)\n    tag_66:\n      pop\n      tag_67\n      tag_68\n      jump\t// in\n    tag_67:\n      mload(0x40)\n      tag_69\n      swap2\n      swap1\n      tag_47\n      jump\t// in\n    tag_69:\n      mload(0x40)\n      dup1\n      swap2\n      sub\n      swap1\n      return\n        /* \"src/Raffle.sol\":2447:2575  function isEligible(address user) external view returns (bool) ... */\n    tag_12:\n      callvalue\n      dup1\n      iszero\n      tag_70\n      jumpi\n      revert(0x00, 0x00)\n    tag_70:\n      pop\n      tag_71\n      0x04\n      dup1\n      calldatasize\n      sub\n      dup2\n      add\n      swap1\n      tag_72\n      swap2\n      swap1\n      tag_33\n      jump\t// in\n    tag_72:\n      tag_73\n      jump\t// in\n    tag_71:\n      mload(0x40)\n      tag_74\n      swap2\n      swap1\n      tag_29\n      jump\t// in\n    tag_74:\n      mload(0x40)\n      dup1\n      swap2\n      sub\n      swap1\n      return\n        /* \"src/Raffle.sol\":465:495  address[] public raffleAddress */\n    tag_13:\n      callvalue\n      dup1\n      iszero\n      tag_75\n      jumpi\n      revert(0x00, 0x00)\n    tag_75:\n      pop\n      tag_76\n      0x04\n      dup1\n      calldatasize\n      sub\n      dup2\n      add\n      swap1\n      tag_77\n      swap2\n      swap1\n      tag_39\n      jump\t// in\n    tag_77:\n      tag_78\n      jump\t// in\n    tag_76:\n      mload(0x40)\n      tag_79\n      swap2\n      swap1\n      tag_42\n      jump\t// in\n    tag_79:\n      mload(0x40)\n      dup1\n      swap2\n      sub\n      swap1\n      return\n        /* \"src/Raffle.sol\":3719:3869  function getContractBalance() public view returns (uint256) ... */\n    tag_14:\n      callvalue\n      dup1\n      iszero\n      tag_80\n      jumpi\n      revert(0x00, 0x00)\n    tag_80:\n      pop\n      tag_81\n      tag_82\n      jump\t// in\n    tag_81:\n      mload(0x40)\n      tag_83\n      swap2\n      swap1\n      tag_47\n      jump\t// in\n    tag_83:\n      mload(0x40)\n      dup1\n      swap2\n      sub\n      swap1\n      return\n        /* \"src/Raffle.sol\":369:393  uint256 public prizePool */\n    tag_15:\n      callvalue\n      dup1\n      iszero\n      tag_84\n      jumpi\n      revert(0x00, 0x00)\n    tag_84:\n      pop\n      tag_85\n      tag_86\n      jump\t// in\n    tag_85:\n      mload(0x40)\n      tag_87\n      swap2\n      swap1\n      tag_47\n      jump\t// in\n    tag_87:\n      mload(0x40)\n      dup1\n      swap2\n      sub\n      swap1\n      return\n        /* \"src/Raffle.sol\":3881:3984  function fundPrizePool() external payable /*onlyOwner*/ ... */\n    tag_16:\n      tag_88\n      tag_89\n      jump\t// in\n    tag_88:\n      stop\n        /* \"src/Raffle.sol\":305:325  address public owner */\n    tag_17:\n      callvalue\n      dup1\n      iszero\n      tag_90\n      jumpi\n      revert(0x00, 0x00)\n    tag_90:\n      pop\n      tag_91\n      tag_92\n      jump\t// in\n    tag_91:\n      mload(0x40)\n      tag_93\n      swap2\n      swap1\n      tag_42\n      jump\t// in\n    tag_93:\n      mload(0x40)\n      dup1\n      swap2\n      sub\n      swap1\n      return\n        /* \"src/Raffle.sol\":652:702  mapping(uint256 => address[]) public raffleEntries */\n    tag_18:\n      callvalue\n      dup1\n      iszero\n      tag_94\n      jumpi\n      revert(0x00, 0x00)\n    tag_94:\n      pop\n      tag_95\n      0x04\n      dup1\n      calldatasize\n      sub\n      dup2\n      add\n      swap1\n      tag_96\n      swap2\n      swap1\n      tag_97\n      jump\t// in\n    tag_96:\n      tag_98\n      jump\t// in\n    tag_95:\n      mload(0x40)\n      tag_99\n      swap2\n      swap1\n      tag_42\n      jump\t// in\n    tag_99:\n      mload(0x40)\n      dup1\n      swap2\n      sub\n      swap1\n      return\n        /* \"src/Raffle.sol\":225:251  ERC721i public nftContract */\n    tag_19:\n      callvalue\n      dup1\n      iszero\n      tag_100\n      jumpi\n      revert(0x00, 0x00)\n    tag_100:\n      pop\n      tag_101\n      tag_102\n      jump\t// in\n    tag_101:\n      mload(0x40)\n      tag_103\n      swap2\n      swap1\n      tag_104\n      jump\t// in\n    tag_103:\n      mload(0x40)\n      dup1\n      swap2\n      sub\n      swap1\n      return\n        /* \"src/Raffle.sol\":747:809  mapping(uint256 => mapping(address => bool)) public hasEntered */\n    tag_27:\n      mstore(0x20, 0x07)\n      dup2\n      0x00\n      mstore\n      mstore(0x20, keccak256(0x00, 0x40))\n      dup1\n      0x00\n      mstore\n      keccak256(0x00, 0x40)\n      0x00\n      swap2\n      pop\n      swap2\n      pop\n      swap1\n      sload\n      swap1\n      0x0100\n      exp\n      swap1\n      div\n      0xff\n      and\n      dup2\n      jump\t// out\n        /* \"src/Raffle.sol\":1934:2066  function hasUserEntered(address user) external view returns (bool) ... */\n    tag_34:\n        /* \"src/Raffle.sol\":1995:1999  bool */\n      0x00\n        /* \"src/Raffle.sol\":2025:2035  hasEntered */\n      0x07\n        /* \"src/Raffle.sol\":2025:2052  hasEntered[currentRaffleId] */\n      0x00\n        /* \"src/Raffle.sol\":2036:2051  currentRaffleId */\n      sload(0x02)\n        /* \"src/Raffle.sol\":2025:2052  hasEntered[currentRaffleId] */\n      dup2\n      mstore\n      0x20\n      add\n      swap1\n      dup2\n      mstore\n      0x20\n      add\n      0x00\n      keccak256\n        /* \"src/Raffle.sol\":2025:2058  hasEntered[currentRaffleId][user] */\n      0x00\n        /* \"src/Raffle.sol\":2053:2057  user */\n      dup4\n        /* \"src/Raffle.sol\":2025:2058  hasEntered[currentRaffleId][user] */\n      0xffffffffffffffffffffffffffffffffffffffff\n      and\n      0xffffffffffffffffffffffffffffffffffffffff\n      and\n      dup2\n      mstore\n      0x20\n      add\n      swap1\n      dup2\n      mstore\n      0x20\n      add\n      0x00\n      keccak256\n      0x00\n      swap1\n      sload\n      swap1\n      0x0100\n      exp\n      swap1\n      div\n      0xff\n      and\n        /* \"src/Raffle.sol\":2018:2058  return hasEntered[currentRaffleId][user] */\n      swap1\n      pop\n        /* \"src/Raffle.sol\":1934:2066  function hasUserEntered(address user) external view returns (bool) ... */\n      swap2\n      swap1\n      pop\n      jump\t// out\n        /* \"src/Raffle.sol\":849:897  mapping(uint256 => address) public raffleWinners */\n    tag_40:\n      mstore(0x20, 0x08)\n      dup1\n      0x00\n      mstore\n      keccak256(0x00, 0x40)\n      0x00\n      swap2\n      pop\n      sload\n      swap1\n      0x0100\n      exp\n      swap1\n      div\n      0xffffffffffffffffffffffffffffffffffffffff\n      and\n      dup2\n      jump\t// out\n        /* \"src/Raffle.sol\":2311:2439  function getTotalEntries() external view returns (uint256) ... */\n    tag_45:\n        /* \"src/Raffle.sol\":2361:2368  uint256 */\n      0x00\n        /* \"src/Raffle.sol\":2394:2407  raffleEntries */\n      0x06\n        /* \"src/Raffle.sol\":2394:2424  raffleEntries[currentRaffleId] */\n      0x00\n        /* \"src/Raffle.sol\":2408:2423  currentRaffleId */\n      sload(0x02)\n        /* \"src/Raffle.sol\":2394:2424  raffleEntries[currentRaffleId] */\n      dup2\n      mstore\n      0x20\n      add\n      swap1\n      dup2\n      mstore\n      0x20\n      add\n      0x00\n      keccak256\n        /* \"src/Raffle.sol\":2394:2431  raffleEntries[currentRaffleId].length */\n      dup1\n      sload\n      swap1\n      pop\n        /* \"src/Raffle.sol\":2387:2431  return raffleEntries[currentRaffleId].length */\n      swap1\n      pop\n        /* \"src/Raffle.sol\":2311:2439  function getTotalEntries() external view returns (uint256) ... */\n      swap1\n      jump\t// out\n        /* \"src/Raffle.sol\":400:428  uint256 public raffleEndTime */\n    tag_50:\n      sload(0x04)\n      dup2\n      jump\t// out\n        /* \"src/Raffle.sol\":1193:1922  function enterRaffle() external payable... */\n    tag_53:\n        /* \"src/Raffle.sol\":1329:1330  0 */\n      0x00\n        /* \"src/Raffle.sol\":1293:1304  nftContract */\n      0x00\n      0x00\n      swap1\n      sload\n      swap1\n      0x0100\n      exp\n      swap1\n      div\n      0xffffffffffffffffffffffffffffffffffffffff\n      and\n        /* \"src/Raffle.sol\":1293:1314  nftContract.balanceOf */\n      0xffffffffffffffffffffffffffffffffffffffff\n      and\n      0x70a08231\n        /* \"src/Raffle.sol\":1315:1325  msg.sender */\n      caller\n        /* \"src/Raffle.sol\":1293:1326  nftContract.balanceOf(msg.sender) */\n      mload(0x40)\n      dup3\n      0xffffffff\n      and\n      0xe0\n      shl\n      dup2\n      mstore\n      0x04\n      add\n      tag_108\n      swap2\n      swap1\n      tag_42\n      jump\t// in\n    tag_108:\n      0x20\n      mload(0x40)\n      dup1\n      dup4\n      sub\n      dup2\n      dup7\n      gas\n      staticcall\n      iszero\n      dup1\n      iszero\n      tag_110\n      jumpi\n      returndatacopy(0x00, 0x00, returndatasize)\n      revert(0x00, returndatasize)\n    tag_110:\n      pop\n      pop\n      pop\n      pop\n      mload(0x40)\n      returndatasize\n      not(0x1f)\n      0x1f\n      dup3\n      add\n      and\n      dup3\n      add\n      dup1\n      0x40\n      mstore\n      pop\n      dup2\n      add\n      swap1\n      tag_111\n      swap2\n      swap1\n      tag_112\n      jump\t// in\n    tag_111:\n        /* \"src/Raffle.sol\":1293:1330  nftContract.balanceOf(msg.sender) > 0 */\n      gt\n        /* \"src/Raffle.sol\":1285:1355  require(nftContract.balanceOf(msg.sender) > 0, \"Not eligible: No NFT\") */\n      tag_113\n      jumpi\n      mload(0x40)\n      0x08c379a000000000000000000000000000000000000000000000000000000000\n      dup2\n      mstore\n      0x04\n      add\n      tag_114\n      swap1\n      tag_115\n      jump\t// in\n    tag_114:\n      mload(0x40)\n      dup1\n      swap2\n      sub\n      swap1\n      revert\n    tag_113:\n        /* \"src/Raffle.sol\":1436:1449  raffleEndTime */\n      sload(0x04)\n        /* \"src/Raffle.sol\":1418:1433  block.timestamp */\n      timestamp\n        /* \"src/Raffle.sol\":1418:1449  block.timestamp < raffleEndTime */\n      lt\n        /* \"src/Raffle.sol\":1410:1470  require(block.timestamp < raffleEndTime, \"Raffle has ended\") */\n      tag_116\n      jumpi\n      mload(0x40)\n      0x08c379a000000000000000000000000000000000000000000000000000000000\n      dup2\n      mstore\n      0x04\n      add\n      tag_117\n      swap1\n      tag_118\n      jump\t// in\n    tag_117:\n      mload(0x40)\n      dup1\n      swap2\n      sub\n      swap1\n      revert\n    tag_116:\n        /* \"src/Raffle.sol\":1537:1547  hasEntered */\n      0x07\n        /* \"src/Raffle.sol\":1537:1564  hasEntered[currentRaffleId] */\n      0x00\n        /* \"src/Raffle.sol\":1548:1563  currentRaffleId */\n      sload(0x02)\n        /* \"src/Raffle.sol\":1537:1564  hasEntered[currentRaffleId] */\n      dup2\n      mstore\n      0x20\n      add\n      swap1\n      dup2\n      mstore\n      0x20\n      add\n      0x00\n      keccak256\n        /* \"src/Raffle.sol\":1537:1576  hasEntered[currentRaffleId][msg.sender] */\n      0x00\n        /* \"src/Raffle.sol\":1565:1575  msg.sender */\n      caller\n        /* \"src/Raffle.sol\":1537:1576  hasEntered[currentRaffleId][msg.sender] */\n      0xffffffffffffffffffffffffffffffffffffffff\n      and\n      0xffffffffffffffffffffffffffffffffffffffff\n      and\n      dup2\n      mstore\n      0x20\n      add\n      swap1\n      dup2\n      mstore\n      0x20\n      add\n      0x00\n      keccak256\n      0x00\n      swap1\n      sload\n      swap1\n      0x0100\n      exp\n      swap1\n      div\n      0xff\n      and\n        /* \"src/Raffle.sol\":1536:1576  !hasEntered[currentRaffleId][msg.sender] */\n      iszero\n        /* \"src/Raffle.sol\":1528:1601  require(!hasEntered[currentRaffleId][msg.sender], \"user already in draw\") */\n      tag_119\n      jumpi\n      mload(0x40)\n      0x08c379a000000000000000000000000000000000000000000000000000000000\n      dup2\n      mstore\n      0x04\n      add\n      tag_120\n      swap1\n      tag_121\n      jump\t// in\n    tag_120:\n      mload(0x40)\n      dup1\n      swap2\n      sub\n      swap1\n      revert\n    tag_119:\n        /* \"src/Raffle.sol\":1646:1659  raffleEntries */\n      0x06\n        /* \"src/Raffle.sol\":1646:1676  raffleEntries[currentRaffleId] */\n      0x00\n        /* \"src/Raffle.sol\":1660:1675  currentRaffleId */\n      sload(0x02)\n        /* \"src/Raffle.sol\":1646:1676  raffleEntries[currentRaffleId] */\n      dup2\n      mstore\n      0x20\n      add\n      swap1\n      dup2\n      mstore\n      0x20\n      add\n      0x00\n      keccak256\n        /* \"src/Raffle.sol\":1682:1692  msg.sender */\n      caller\n        /* \"src/Raffle.sol\":1646:1693  raffleEntries[currentRaffleId].push(msg.sender) */\n      swap1\n      dup1\n      0x01\n      dup2\n      sload\n      add\n      dup1\n      dup3\n      sstore\n      dup1\n      swap2\n      pop\n      pop\n      0x01\n      swap1\n      sub\n      swap1\n      0x00\n      mstore\n      keccak256(0x00, 0x20)\n      add\n      0x00\n      swap1\n      swap2\n      swap1\n      swap2\n      swap1\n      swap2\n      0x0100\n      exp\n      dup2\n      sload\n      dup2\n      0xffffffffffffffffffffffffffffffffffffffff\n      mul\n      not\n      and\n      swap1\n      dup4\n      0xffffffffffffffffffffffffffffffffffffffff\n      and\n      mul\n      or\n      swap1\n      sstore\n      pop\n        /* \"src/Raffle.sol\":1746:1750  true */\n      0x01\n        /* \"src/Raffle.sol\":1704:1714  hasEntered */\n      0x07\n        /* \"src/Raffle.sol\":1704:1731  hasEntered[currentRaffleId] */\n      0x00\n        /* \"src/Raffle.sol\":1715:1730  currentRaffleId */\n      sload(0x02)\n        /* \"src/Raffle.sol\":1704:1731  hasEntered[currentRaffleId] */\n      dup2\n      mstore\n      0x20\n      add\n      swap1\n      dup2\n      mstore\n      0x20\n      add\n      0x00\n      keccak256\n        /* \"src/Raffle.sol\":1704:1743  hasEntered[currentRaffleId][msg.sender] */\n      0x00\n        /* \"src/Raffle.sol\":1732:1742  msg.sender */\n      caller\n        /* \"src/Raffle.sol\":1704:1743  hasEntered[currentRaffleId][msg.sender] */\n      0xffffffffffffffffffffffffffffffffffffffff\n      and\n      0xffffffffffffffffffffffffffffffffffffffff\n      and\n      dup2\n      mstore\n      0x20\n      add\n      swap1\n      dup2\n      mstore\n      0x20\n      add\n      0x00\n      keccak256\n      0x00\n        /* \"src/Raffle.sol\":1704:1750  hasEntered[currentRaffleId][msg.sender] = true */\n      0x0100\n      exp\n      dup2\n      sload\n      dup2\n      0xff\n      mul\n      not\n      and\n      swap1\n      dup4\n      iszero\n      iszero\n      mul\n      or\n      swap1\n      sstore\n      pop\n        /* \"src/Raffle.sol\":1764:1776  bool success */\n      0x00\n        /* \"src/Raffle.sol\":1783:1793  msg.sender */\n      caller\n        /* \"src/Raffle.sol\":1782:1799  (msg.sender).call */\n      0xffffffffffffffffffffffffffffffffffffffff\n      and\n        /* \"src/Raffle.sol\":1818:1825  1 ether */\n      0x0de0b6b3a7640000\n        /* \"src/Raffle.sol\":1806:1815  msg.value */\n      callvalue\n        /* \"src/Raffle.sol\":1806:1825  msg.value - 1 ether */\n      tag_123\n      swap2\n      swap1\n      tag_124\n      jump\t// in\n    tag_123:\n        /* \"src/Raffle.sol\":1782:1830  (msg.sender).call{value:msg.value - 1 ether}(\"\") */\n      mload(0x40)\n      tag_125\n      swap1\n      tag_126\n      jump\t// in\n    tag_125:\n      0x00\n      mload(0x40)\n      dup1\n      dup4\n      sub\n      dup2\n      dup6\n      dup8\n      gas\n      call\n      swap3\n      pop\n      pop\n      pop\n      returndatasize\n      dup1\n      0x00\n      dup2\n      eq\n      tag_129\n      jumpi\n      mload(0x40)\n      swap2\n      pop\n      and(add(returndatasize, 0x3f), not(0x1f))\n      dup3\n      add\n      0x40\n      mstore\n      returndatasize\n      dup3\n      mstore\n      returndatasize\n      0x00\n      0x20\n      dup5\n      add\n      returndatacopy\n      jump(tag_128)\n    tag_129:\n      0x60\n      swap2\n      pop\n    tag_128:\n      pop\n        /* \"src/Raffle.sol\":1763:1830  (bool success, ) = (msg.sender).call{value:msg.value - 1 ether}(\"\") */\n      pop\n      swap1\n      pop\n        /* \"src/Raffle.sol\":1849:1856  success */\n      dup1\n        /* \"src/Raffle.sol\":1841:1857  require(success) */\n      tag_130\n      jumpi\n      revert(0x00, 0x00)\n    tag_130:\n        /* \"src/Raffle.sol\":1879:1913  enteredRaffle(msg.sender, success) */\n      0xd2400605f6b772a1b4c8438056ebafa69635fbc0c93642619ea3a1536070a1\n        /* \"src/Raffle.sol\":1893:1903  msg.sender */\n      caller\n        /* \"src/Raffle.sol\":1905:1912  success */\n      dup3\n        /* \"src/Raffle.sol\":1879:1913  enteredRaffle(msg.sender, success) */\n      mload(0x40)\n      tag_131\n      swap3\n      swap2\n      swap1\n      tag_132\n      jump\t// in\n    tag_131:\n      mload(0x40)\n      dup1\n      swap2\n      sub\n      swap1\n      log1\n        /* \"src/Raffle.sol\":1238:1922  {... */\n      pop\n        /* \"src/Raffle.sol\":1193:1922  function enterRaffle() external payable... */\n      jump\t// out\n        /* \"src/Raffle.sol\":2626:3711  function selectWinner() external /*onlyOwner*/ {... */\n    tag_56:\n        /* \"src/Raffle.sol\":2706:2711  owner */\n      0x01\n      0x00\n      swap1\n      sload\n      swap1\n      0x0100\n      exp\n      swap1\n      div\n      0xffffffffffffffffffffffffffffffffffffffff\n      and\n        /* \"src/Raffle.sol\":2692:2711  msg.sender == owner */\n      0xffffffffffffffffffffffffffffffffffffffff\n      and\n        /* \"src/Raffle.sol\":2692:2702  msg.sender */\n      caller\n        /* \"src/Raffle.sol\":2692:2711  msg.sender == owner */\n      0xffffffffffffffffffffffffffffffffffffffff\n      and\n      eq\n        /* \"src/Raffle.sol\":2684:2749  require(msg.sender == owner, \"only owner can call this function\") */\n      tag_134\n      jumpi\n      mload(0x40)\n      0x08c379a000000000000000000000000000000000000000000000000000000000\n      dup2\n      mstore\n      0x04\n      add\n      tag_135\n      swap1\n      tag_136\n      jump\t// in\n    tag_135:\n      mload(0x40)\n      dup1\n      swap2\n      sub\n      swap1\n      revert\n    tag_134:\n        /* \"src/Raffle.sol\":2792:2801  prizePool */\n      sload(0x03)\n        /* \"src/Raffle.sol\":2768:2789  address(this).balance */\n      selfbalance\n        /* \"src/Raffle.sol\":2768:2801  address(this).balance > prizePool */\n      gt\n        /* \"src/Raffle.sol\":2760:2823  require(address(this).balance > prizePool, \"not enough liquid\") */\n      tag_137\n      jumpi\n      mload(0x40)\n      0x08c379a000000000000000000000000000000000000000000000000000000000\n      dup2\n      mstore\n      0x04\n      add\n      tag_138\n      swap1\n      tag_139\n      jump\t// in\n    tag_138:\n      mload(0x40)\n      dup1\n      swap2\n      sub\n      swap1\n      revert\n    tag_137:\n        /* \"src/Raffle.sol\":2882:2883  0 */\n      0x00\n        /* \"src/Raffle.sol\":2842:2855  raffleEntries */\n      0x06\n        /* \"src/Raffle.sol\":2842:2872  raffleEntries[currentRaffleId] */\n      0x00\n        /* \"src/Raffle.sol\":2856:2871  currentRaffleId */\n      sload(0x02)\n        /* \"src/Raffle.sol\":2842:2872  raffleEntries[currentRaffleId] */\n      dup2\n      mstore\n      0x20\n      add\n      swap1\n      dup2\n      mstore\n      0x20\n      add\n      0x00\n      keccak256\n        /* \"src/Raffle.sol\":2842:2879  raffleEntries[currentRaffleId].length */\n      dup1\n      sload\n      swap1\n      pop\n        /* \"src/Raffle.sol\":2842:2883  raffleEntries[currentRaffleId].length > 0 */\n      gt\n        /* \"src/Raffle.sol\":2834:2898  require(raffleEntries[currentRaffleId].length > 0, \"No entries\") */\n      tag_140\n      jumpi\n      mload(0x40)\n      0x08c379a000000000000000000000000000000000000000000000000000000000\n      dup2\n      mstore\n      0x04\n      add\n      tag_141\n      swap1\n      tag_142\n      jump\t// in\n    tag_141:\n      mload(0x40)\n      dup1\n      swap2\n      sub\n      swap1\n      revert\n    tag_140:\n        /* \"src/Raffle.sol\":2951:2970  uint256 randomIndex */\n      0x00\n        /* \"src/Raffle.sol\":3109:3122  raffleEntries */\n      0x06\n        /* \"src/Raffle.sol\":3109:3139  raffleEntries[currentRaffleId] */\n      0x00\n        /* \"src/Raffle.sol\":3123:3138  currentRaffleId */\n      sload(0x02)\n        /* \"src/Raffle.sol\":3109:3139  raffleEntries[currentRaffleId] */\n      dup2\n      mstore\n      0x20\n      add\n      swap1\n      dup2\n      mstore\n      0x20\n      add\n      0x00\n      keccak256\n        /* \"src/Raffle.sol\":3109:3146  raffleEntries[currentRaffleId].length */\n      dup1\n      sload\n      swap1\n      pop\n        /* \"src/Raffle.sol\":3022:3037  block.timestamp */\n      timestamp\n        /* \"src/Raffle.sol\":3052:3068  block.prevrandao */\n      prevrandao\n        /* \"src/Raffle.sol\":3083:3093  msg.sender */\n      caller\n        /* \"src/Raffle.sol\":2991:3104  abi.encodePacked(... */\n      add(0x20, mload(0x40))\n      tag_143\n      swap4\n      swap3\n      swap2\n      swap1\n      tag_144\n      jump\t// in\n    tag_143:\n      mload(0x40)\n      0x20\n      dup2\n      dup4\n      sub\n      sub\n      dup2\n      mstore\n      swap1\n      0x40\n      mstore\n        /* \"src/Raffle.sol\":2981:3105  keccak256(abi.encodePacked(... */\n      dup1\n      mload\n      swap1\n      0x20\n      add\n      keccak256\n        /* \"src/Raffle.sol\":2973:3106  uint256(keccak256(abi.encodePacked(... */\n      0x00\n      shr\n        /* \"src/Raffle.sol\":2973:3146  uint256(keccak256(abi.encodePacked(... */\n      tag_145\n      swap2\n      swap1\n      tag_146\n      jump\t// in\n    tag_145:\n        /* \"src/Raffle.sol\":2951:3146  uint256 randomIndex = uint256(keccak256(abi.encodePacked(... */\n      swap1\n      pop\n        /* \"src/Raffle.sol\":3186:3200  address winner */\n      0x00\n        /* \"src/Raffle.sol\":3203:3216  raffleEntries */\n      0x06\n        /* \"src/Raffle.sol\":3203:3233  raffleEntries[currentRaffleId] */\n      0x00\n        /* \"src/Raffle.sol\":3217:3232  currentRaffleId */\n      sload(0x02)\n        /* \"src/Raffle.sol\":3203:3233  raffleEntries[currentRaffleId] */\n      dup2\n      mstore\n      0x20\n      add\n      swap1\n      dup2\n      mstore\n      0x20\n      add\n      0x00\n      keccak256\n        /* \"src/Raffle.sol\":3234:3245  randomIndex */\n      dup3\n        /* \"src/Raffle.sol\":3203:3246  raffleEntries[currentRaffleId][randomIndex] */\n      dup2\n      sload\n      dup2\n      lt\n      tag_147\n      jumpi\n      tag_148\n      tag_149\n      jump\t// in\n    tag_148:\n    tag_147:\n      swap1\n      0x00\n      mstore\n      keccak256(0x00, 0x20)\n      add\n      0x00\n      swap1\n      sload\n      swap1\n      0x0100\n      exp\n      swap1\n      div\n      0xffffffffffffffffffffffffffffffffffffffff\n      and\n        /* \"src/Raffle.sol\":3186:3246  address winner = raffleEntries[currentRaffleId][randomIndex] */\n      swap1\n      pop\n        /* \"src/Raffle.sol\":3292:3298  winner */\n      dup1\n        /* \"src/Raffle.sol\":3259:3272  raffleWinners */\n      0x08\n        /* \"src/Raffle.sol\":3259:3289  raffleWinners[currentRaffleId] */\n      0x00\n        /* \"src/Raffle.sol\":3273:3288  currentRaffleId */\n      sload(0x02)\n        /* \"src/Raffle.sol\":3259:3289  raffleWinners[currentRaffleId] */\n      dup2\n      mstore\n      0x20\n      add\n      swap1\n      dup2\n      mstore\n      0x20\n      add\n      0x00\n      keccak256\n      0x00\n        /* \"src/Raffle.sol\":3259:3298  raffleWinners[currentRaffleId] = winner */\n      0x0100\n      exp\n      dup2\n      sload\n      dup2\n      0xffffffffffffffffffffffffffffffffffffffff\n      mul\n      not\n      and\n      swap1\n      dup4\n      0xffffffffffffffffffffffffffffffffffffffff\n      and\n      mul\n      or\n      swap1\n      sstore\n      pop\n        /* \"src/Raffle.sol\":3328:3329  1 */\n      0x01\n        /* \"src/Raffle.sol\":3309:3324  currentRaffleId */\n      0x02\n      0x00\n        /* \"src/Raffle.sol\":3309:3329  currentRaffleId += 1 */\n      dup3\n      dup3\n      sload\n      tag_151\n      swap2\n      swap1\n      tag_152\n      jump\t// in\n    tag_151:\n      swap3\n      pop\n      pop\n      dup2\n      swap1\n      sstore\n      pop\n        /* \"src/Raffle.sol\":3357:3363  6 days */\n      0x07e900\n        /* \"src/Raffle.sol\":3340:3353  raffleEndTime */\n      0x04\n      0x00\n        /* \"src/Raffle.sol\":3340:3363  raffleEndTime += 6 days */\n      dup3\n      dup3\n      sload\n      tag_153\n      swap2\n      swap1\n      tag_152\n      jump\t// in\n    tag_153:\n      swap3\n      pop\n      pop\n      dup2\n      swap1\n      sstore\n      pop\n        /* \"src/Raffle.sol\":3380:3392  bool success */\n      0x00\n        /* \"src/Raffle.sol\":3398:3404  winner */\n      dup2\n        /* \"src/Raffle.sol\":3398:3409  winner.call */\n      0xffffffffffffffffffffffffffffffffffffffff\n      and\n        /* \"src/Raffle.sol\":3417:3426  prizePool */\n      sload(0x03)\n        /* \"src/Raffle.sol\":3398:3431  winner.call{value: prizePool}(\"\") */\n      mload(0x40)\n      tag_154\n      swap1\n      tag_126\n      jump\t// in\n    tag_154:\n      0x00\n      mload(0x40)\n      dup1\n      dup4\n      sub\n      dup2\n      dup6\n      dup8\n      gas\n      call\n      swap3\n      pop\n      pop\n      pop\n      returndatasize\n      dup1\n      0x00\n      dup2\n      eq\n      tag_157\n      jumpi\n      mload(0x40)\n      swap2\n      pop\n      and(add(returndatasize, 0x3f), not(0x1f))\n      dup3\n      add\n      0x40\n      mstore\n      returndatasize\n      dup3\n      mstore\n      returndatasize\n      0x00\n      0x20\n      dup5\n      add\n      returndatacopy\n      jump(tag_156)\n    tag_157:\n      0x60\n      swap2\n      pop\n    tag_156:\n      pop\n        /* \"src/Raffle.sol\":3379:3431  (bool success, ) = winner.call{value: prizePool}(\"\") */\n      pop\n      swap1\n      pop\n        /* \"src/Raffle.sol\":3450:3457  success */\n      dup1\n        /* \"src/Raffle.sol\":3442:3458  require(success) */\n      tag_158\n      jumpi\n      revert(0x00, 0x00)\n    tag_158:\n        /* \"src/Raffle.sol\":3484:3528  revealWinner(msg.sender, prizePool, success) */\n      0x254f902775251643f42f8545a648671262ff011946ac3f4f17e6b3675b0e3f07\n        /* \"src/Raffle.sol\":3497:3507  msg.sender */\n      caller\n        /* \"src/Raffle.sol\":3509:3518  prizePool */\n      sload(0x03)\n        /* \"src/Raffle.sol\":3520:3527  success */\n      dup4\n        /* \"src/Raffle.sol\":3484:3528  revealWinner(msg.sender, prizePool, success) */\n      mload(0x40)\n      tag_159\n      swap4\n      swap3\n      swap2\n      swap1\n      tag_160\n      jump\t// in\n    tag_159:\n      mload(0x40)\n      dup1\n      swap2\n      sub\n      swap1\n      log1\n        /* \"src/Raffle.sol\":2673:3711  {... */\n      pop\n      pop\n      pop\n        /* \"src/Raffle.sol\":2626:3711  function selectWinner() external /*onlyOwner*/ {... */\n      jump\t// out\n        /* \"src/Raffle.sol\":3992:4294  function ownerWithdraw(uint _amount) public ... */\n    tag_60:\n        /* \"src/Raffle.sol\":4075:4080  owner */\n      0x01\n      0x00\n      swap1\n      sload\n      swap1\n      0x0100\n      exp\n      swap1\n      div\n      0xffffffffffffffffffffffffffffffffffffffff\n      and\n        /* \"src/Raffle.sol\":4061:4080  msg.sender == owner */\n      0xffffffffffffffffffffffffffffffffffffffff\n      and\n        /* \"src/Raffle.sol\":4061:4071  msg.sender */\n      caller\n        /* \"src/Raffle.sol\":4061:4080  msg.sender == owner */\n      0xffffffffffffffffffffffffffffffffffffffff\n      and\n      eq\n        /* \"src/Raffle.sol\":4053:4132  require(msg.sender == owner, \"only owners are allowed to withdraw this amount\") */\n      tag_162\n      jumpi\n      mload(0x40)\n      0x08c379a000000000000000000000000000000000000000000000000000000000\n      dup2\n      mstore\n      0x04\n      add\n      tag_163\n      swap1\n      tag_164\n      jump\t// in\n    tag_163:\n      mload(0x40)\n      dup1\n      swap2\n      sub\n      swap1\n      revert\n    tag_162:\n        /* \"src/Raffle.sol\":4143:4153  uint value */\n      0x00\n        /* \"src/Raffle.sol\":4166:4173  1 ether */\n      0x0de0b6b3a7640000\n        /* \"src/Raffle.sol\":4156:4163  _amount */\n      dup3\n        /* \"src/Raffle.sol\":4156:4173  _amount * 1 ether */\n      tag_165\n      swap2\n      swap1\n      tag_166\n      jump\t// in\n    tag_165:\n        /* \"src/Raffle.sol\":4143:4173  uint value = _amount * 1 ether */\n      swap1\n      pop\n        /* \"src/Raffle.sol\":4185:4197  bool success */\n      0x00\n        /* \"src/Raffle.sol\":4203:4208  owner */\n      0x01\n      0x00\n      swap1\n      sload\n      swap1\n      0x0100\n      exp\n      swap1\n      div\n      0xffffffffffffffffffffffffffffffffffffffff\n      and\n        /* \"src/Raffle.sol\":4203:4213  owner.call */\n      0xffffffffffffffffffffffffffffffffffffffff\n      and\n        /* \"src/Raffle.sol\":4221:4226  value */\n      dup3\n        /* \"src/Raffle.sol\":4203:4231  owner.call{value: value}('') */\n      mload(0x40)\n      tag_167\n      swap1\n      tag_126\n      jump\t// in\n    tag_167:\n      0x00\n      mload(0x40)\n      dup1\n      dup4\n      sub\n      dup2\n      dup6\n      dup8\n      gas\n      call\n      swap3\n      pop\n      pop\n      pop\n      returndatasize\n      dup1\n      0x00\n      dup2\n      eq\n      tag_170\n      jumpi\n      mload(0x40)\n      swap2\n      pop\n      and(add(returndatasize, 0x3f), not(0x1f))\n      dup3\n      add\n      0x40\n      mstore\n      returndatasize\n      dup3\n      mstore\n      returndatasize\n      0x00\n      0x20\n      dup5\n      add\n      returndatacopy\n      jump(tag_169)\n    tag_170:\n      0x60\n      swap2\n      pop\n    tag_169:\n      pop\n        /* \"src/Raffle.sol\":4184:4231  (bool success, ) = owner.call{value: value}('') */\n      pop\n      swap1\n      pop\n        /* \"src/Raffle.sol\":4250:4257  success */\n      dup1\n        /* \"src/Raffle.sol\":4242:4284  require(success, \"fail to withdraw funds\") */\n      tag_171\n      jumpi\n      mload(0x40)\n      0x08c379a000000000000000000000000000000000000000000000000000000000\n      dup2\n      mstore\n      0x04\n      add\n      tag_172\n      swap1\n      tag_173\n      jump\t// in\n    tag_172:\n      mload(0x40)\n      dup1\n      swap2\n      sub\n      swap1\n      revert\n    tag_171:\n        /* \"src/Raffle.sol\":4042:4294  {... */\n      pop\n      pop\n        /* \"src/Raffle.sol\":3992:4294  function ownerWithdraw(uint _amount) public ... */\n      pop\n      jump\t// out\n        /* \"src/Raffle.sol\":2127:2251  function getWinner(uint256 raffleId) external view returns (address) ... */\n    tag_64:\n        /* \"src/Raffle.sol\":2187:2194  address */\n      0x00\n        /* \"src/Raffle.sol\":2220:2233  raffleWinners */\n      0x08\n        /* \"src/Raffle.sol\":2220:2243  raffleWinners[raffleId] */\n      0x00\n        /* \"src/Raffle.sol\":2234:2242  raffleId */\n      dup4\n        /* \"src/Raffle.sol\":2220:2243  raffleWinners[raffleId] */\n      dup2\n      mstore\n      0x20\n      add\n      swap1\n      dup2\n      mstore\n      0x20\n      add\n      0x00\n      keccak256\n      0x00\n      swap1\n      sload\n      swap1\n      0x0100\n      exp\n      swap1\n      div\n      0xffffffffffffffffffffffffffffffffffffffff\n      and\n        /* \"src/Raffle.sol\":2213:2243  return raffleWinners[raffleId] */\n      swap1\n      pop\n        /* \"src/Raffle.sol\":2127:2251  function getWinner(uint256 raffleId) external view returns (address) ... */\n      swap2\n      swap1\n      pop\n      jump\t// out\n        /* \"src/Raffle.sol\":332:362  uint256 public currentRaffleId */\n    tag_68:\n      sload(0x02)\n      dup2\n      jump\t// out\n        /* \"src/Raffle.sol\":2447:2575  function isEligible(address user) external view returns (bool) ... */\n    tag_73:\n        /* \"src/Raffle.sol\":2504:2508  bool */\n      0x00\n        /* \"src/Raffle.sol\":2447:2575  function isEligible(address user) external view returns (bool) ... */\n      swap2\n      swap1\n      pop\n      jump\t// out\n        /* \"src/Raffle.sol\":465:495  address[] public raffleAddress */\n    tag_78:\n      0x05\n      dup2\n      dup2\n      sload\n      dup2\n      lt\n      tag_176\n      jumpi\n      0x00\n      dup1\n      revert\n    tag_176:\n      swap1\n      0x00\n      mstore\n      keccak256(0x00, 0x20)\n      add\n      0x00\n      swap2\n      pop\n      sload\n      swap1\n      0x0100\n      exp\n      swap1\n      div\n      0xffffffffffffffffffffffffffffffffffffffff\n      and\n      dup2\n      jump\t// out\n        /* \"src/Raffle.sol\":3719:3869  function getContractBalance() public view returns (uint256) ... */\n    tag_82:\n        /* \"src/Raffle.sol\":3770:3777  uint256 */\n      0x00\n        /* \"src/Raffle.sol\":3816:3821  owner */\n      0x01\n      0x00\n      swap1\n      sload\n      swap1\n      0x0100\n      exp\n      swap1\n      div\n      0xffffffffffffffffffffffffffffffffffffffff\n      and\n        /* \"src/Raffle.sol\":3804:3821  msg.sender==owner */\n      0xffffffffffffffffffffffffffffffffffffffff\n      and\n        /* \"src/Raffle.sol\":3804:3814  msg.sender */\n      caller\n        /* \"src/Raffle.sol\":3804:3821  msg.sender==owner */\n      0xffffffffffffffffffffffffffffffffffffffff\n      and\n      eq\n        /* \"src/Raffle.sol\":3796:3822  require(msg.sender==owner) */\n      tag_179\n      jumpi\n      revert(0x00, 0x00)\n    tag_179:\n        /* \"src/Raffle.sol\":3840:3861  address(this).balance */\n      selfbalance\n        /* \"src/Raffle.sol\":3833:3861  return address(this).balance */\n      swap1\n      pop\n        /* \"src/Raffle.sol\":3719:3869  function getContractBalance() public view returns (uint256) ... */\n      swap1\n      jump\t// out\n        /* \"src/Raffle.sol\":369:393  uint256 public prizePool */\n    tag_86:\n      sload(0x03)\n      dup2\n      jump\t// out\n        /* \"src/Raffle.sol\":3881:3984  function fundPrizePool() external payable /*onlyOwner*/ ... */\n    tag_89:\n        /* \"src/Raffle.sol\":3967:3976  msg.value */\n      callvalue\n        /* \"src/Raffle.sol\":3954:3963  prizePool */\n      0x03\n      0x00\n        /* \"src/Raffle.sol\":3954:3976  prizePool += msg.value */\n      dup3\n      dup3\n      sload\n      tag_181\n      swap2\n      swap1\n      tag_152\n      jump\t// in\n    tag_181:\n      swap3\n      pop\n      pop\n      dup2\n      swap1\n      sstore\n      pop\n        /* \"src/Raffle.sol\":3881:3984  function fundPrizePool() external payable /*onlyOwner*/ ... */\n      jump\t// out\n        /* \"src/Raffle.sol\":305:325  address public owner */\n    tag_92:\n      0x01\n      0x00\n      swap1\n      sload\n      swap1\n      0x0100\n      exp\n      swap1\n      div\n      0xffffffffffffffffffffffffffffffffffffffff\n      and\n      dup2\n      jump\t// out\n        /* \"src/Raffle.sol\":652:702  mapping(uint256 => address[]) public raffleEntries */\n    tag_98:\n      mstore(0x20, 0x06)\n      dup2\n      0x00\n      mstore\n      keccak256(0x00, 0x40)\n      dup2\n      dup2\n      sload\n      dup2\n      lt\n      tag_182\n      jumpi\n      0x00\n      dup1\n      revert\n    tag_182:\n      swap1\n      0x00\n      mstore\n      keccak256(0x00, 0x20)\n      add\n      0x00\n      swap2\n      pop\n      swap2\n      pop\n      swap1\n      sload\n      swap1\n      0x0100\n      exp\n      swap1\n      div\n      0xffffffffffffffffffffffffffffffffffffffff\n      and\n      dup2\n      jump\t// out\n        /* \"src/Raffle.sol\":225:251  ERC721i public nftContract */\n    tag_102:\n      0x00\n      0x00\n      swap1\n      sload\n      swap1\n      0x0100\n      exp\n      swap1\n      div\n      0xffffffffffffffffffffffffffffffffffffffff\n      and\n      dup2\n      jump\t// out\n        /* \"#utility.yul\":88:205   */\n    tag_185:\n        /* \"#utility.yul\":197:198   */\n      0x00\n        /* \"#utility.yul\":194:195   */\n      0x00\n        /* \"#utility.yul\":187:199   */\n      revert\n        /* \"#utility.yul\":334:411   */\n    tag_187:\n        /* \"#utility.yul\":371:378   */\n      0x00\n        /* \"#utility.yul\":400:405   */\n      dup2\n        /* \"#utility.yul\":389:405   */\n      swap1\n      pop\n        /* \"#utility.yul\":334:411   */\n      swap2\n      swap1\n      pop\n      jump\t// out\n        /* \"#utility.yul\":417:539   */\n    tag_188:\n        /* \"#utility.yul\":490:514   */\n      tag_238\n        /* \"#utility.yul\":508:513   */\n      dup2\n        /* \"#utility.yul\":490:514   */\n      tag_187\n      jump\t// in\n    tag_238:\n        /* \"#utility.yul\":483:488   */\n      dup2\n        /* \"#utility.yul\":480:515   */\n      eq\n        /* \"#utility.yul\":470:533   */\n      tag_239\n      jumpi\n        /* \"#utility.yul\":529:530   */\n      0x00\n        /* \"#utility.yul\":526:527   */\n      0x00\n        /* \"#utility.yul\":519:531   */\n      revert\n        /* \"#utility.yul\":470:533   */\n    tag_239:\n        /* \"#utility.yul\":417:539   */\n      pop\n      jump\t// out\n        /* \"#utility.yul\":545:684   */\n    tag_189:\n        /* \"#utility.yul\":591:596   */\n      0x00\n        /* \"#utility.yul\":629:635   */\n      dup2\n        /* \"#utility.yul\":616:636   */\n      calldataload\n        /* \"#utility.yul\":607:636   */\n      swap1\n      pop\n        /* \"#utility.yul\":645:678   */\n      tag_241\n        /* \"#utility.yul\":672:677   */\n      dup2\n        /* \"#utility.yul\":645:678   */\n      tag_188\n      jump\t// in\n    tag_241:\n        /* \"#utility.yul\":545:684   */\n      swap3\n      swap2\n      pop\n      pop\n      jump\t// out\n        /* \"#utility.yul\":690:816   */\n    tag_190:\n        /* \"#utility.yul\":727:734   */\n      0x00\n        /* \"#utility.yul\":767:809   */\n      0xffffffffffffffffffffffffffffffffffffffff\n        /* \"#utility.yul\":760:765   */\n      dup3\n        /* \"#utility.yul\":756:810   */\n      and\n        /* \"#utility.yul\":745:810   */\n      swap1\n      pop\n        /* \"#utility.yul\":690:816   */\n      swap2\n      swap1\n      pop\n      jump\t// out\n        /* \"#utility.yul\":822:918   */\n    tag_191:\n        /* \"#utility.yul\":859:866   */\n      0x00\n        /* \"#utility.yul\":888:912   */\n      tag_244\n        /* \"#utility.yul\":906:911   */\n      dup3\n        /* \"#utility.yul\":888:912   */\n      tag_190\n      jump\t// in\n    tag_244:\n        /* \"#utility.yul\":877:912   */\n      swap1\n      pop\n        /* \"#utility.yul\":822:918   */\n      swap2\n      swap1\n      pop\n      jump\t// out\n        /* \"#utility.yul\":924:1046   */\n    tag_192:\n        /* \"#utility.yul\":997:1021   */\n      tag_246\n        /* \"#utility.yul\":1015:1020   */\n      dup2\n        /* \"#utility.yul\":997:1021   */\n      tag_191\n      jump\t// in\n    tag_246:\n        /* \"#utility.yul\":990:995   */\n      dup2\n        /* \"#utility.yul\":987:1022   */\n      eq\n        /* \"#utility.yul\":977:1040   */\n      tag_247\n      jumpi\n        /* \"#utility.yul\":1036:1037   */\n      0x00\n        /* \"#utility.yul\":1033:1034   */\n      0x00\n        /* \"#utility.yul\":1026:1038   */\n      revert\n        /* \"#utility.yul\":977:1040   */\n    tag_247:\n        /* \"#utility.yul\":924:1046   */\n      pop\n      jump\t// out\n        /* \"#utility.yul\":1052:1191   */\n    tag_193:\n        /* \"#utility.yul\":1098:1103   */\n      0x00\n        /* \"#utility.yul\":1136:1142   */\n      dup2\n        /* \"#utility.yul\":1123:1143   */\n      calldataload\n        /* \"#utility.yul\":1114:1143   */\n      swap1\n      pop\n        /* \"#utility.yul\":1152:1185   */\n      tag_249\n        /* \"#utility.yul\":1179:1184   */\n      dup2\n        /* \"#utility.yul\":1152:1185   */\n      tag_192\n      jump\t// in\n    tag_249:\n        /* \"#utility.yul\":1052:1191   */\n      swap3\n      swap2\n      pop\n      pop\n      jump\t// out\n        /* \"#utility.yul\":1197:1671   */\n    tag_26:\n        /* \"#utility.yul\":1265:1271   */\n      0x00\n        /* \"#utility.yul\":1273:1279   */\n      0x00\n        /* \"#utility.yul\":1322:1324   */\n      0x40\n        /* \"#utility.yul\":1310:1319   */\n      dup4\n        /* \"#utility.yul\":1301:1308   */\n      dup6\n        /* \"#utility.yul\":1297:1320   */\n      sub\n        /* \"#utility.yul\":1293:1325   */\n      slt\n        /* \"#utility.yul\":1290:1409   */\n      iszero\n      tag_251\n      jumpi\n        /* \"#utility.yul\":1328:1407   */\n      tag_252\n      tag_185\n      jump\t// in\n    tag_252:\n        /* \"#utility.yul\":1290:1409   */\n    tag_251:\n        /* \"#utility.yul\":1448:1449   */\n      0x00\n        /* \"#utility.yul\":1473:1526   */\n      tag_253\n        /* \"#utility.yul\":1518:1525   */\n      dup6\n        /* \"#utility.yul\":1509:1515   */\n      dup3\n        /* \"#utility.yul\":1498:1507   */\n      dup7\n        /* \"#utility.yul\":1494:1516   */\n      add\n        /* \"#utility.yul\":1473:1526   */\n      tag_189\n      jump\t// in\n    tag_253:\n        /* \"#utility.yul\":1463:1526   */\n      swap3\n      pop\n        /* \"#utility.yul\":1419:1536   */\n      pop\n        /* \"#utility.yul\":1575:1577   */\n      0x20\n        /* \"#utility.yul\":1601:1654   */\n      tag_254\n        /* \"#utility.yul\":1646:1653   */\n      dup6\n        /* \"#utility.yul\":1637:1643   */\n      dup3\n        /* \"#utility.yul\":1626:1635   */\n      dup7\n        /* \"#utility.yul\":1622:1644   */\n      add\n        /* \"#utility.yul\":1601:1654   */\n      tag_193\n      jump\t// in\n    tag_254:\n        /* \"#utility.yul\":1591:1654   */\n      swap2\n      pop\n        /* \"#utility.yul\":1546:1664   */\n      pop\n        /* \"#utility.yul\":1197:1671   */\n      swap3\n      pop\n      swap3\n      swap1\n      pop\n      jump\t// out\n        /* \"#utility.yul\":1677:1767   */\n    tag_194:\n        /* \"#utility.yul\":1711:1718   */\n      0x00\n        /* \"#utility.yul\":1754:1759   */\n      dup2\n        /* \"#utility.yul\":1747:1760   */\n      iszero\n        /* \"#utility.yul\":1740:1761   */\n      iszero\n        /* \"#utility.yul\":1729:1761   */\n      swap1\n      pop\n        /* \"#utility.yul\":1677:1767   */\n      swap2\n      swap1\n      pop\n      jump\t// out\n        /* \"#utility.yul\":1773:1882   */\n    tag_195:\n        /* \"#utility.yul\":1854:1875   */\n      tag_257\n        /* \"#utility.yul\":1869:1874   */\n      dup2\n        /* \"#utility.yul\":1854:1875   */\n      tag_194\n      jump\t// in\n    tag_257:\n        /* \"#utility.yul\":1849:1852   */\n      dup3\n        /* \"#utility.yul\":1842:1876   */\n      mstore\n        /* \"#utility.yul\":1773:1882   */\n      pop\n      pop\n      jump\t// out\n        /* \"#utility.yul\":1888:2098   */\n    tag_29:\n        /* \"#utility.yul\":1975:1979   */\n      0x00\n        /* \"#utility.yul\":2013:2015   */\n      0x20\n        /* \"#utility.yul\":2002:2011   */\n      dup3\n        /* \"#utility.yul\":1998:2016   */\n      add\n        /* \"#utility.yul\":1990:2016   */\n      swap1\n      pop\n        /* \"#utility.yul\":2026:2091   */\n      tag_259\n        /* \"#utility.yul\":2088:2089   */\n      0x00\n        /* \"#utility.yul\":2077:2086   */\n      dup4\n        /* \"#utility.yul\":2073:2090   */\n      add\n        /* \"#utility.yul\":2064:2070   */\n      dup5\n        /* \"#utility.yul\":2026:2091   */\n      tag_195\n      jump\t// in\n    tag_259:\n        /* \"#utility.yul\":1888:2098   */\n      swap3\n      swap2\n      pop\n      pop\n      jump\t// out\n        /* \"#utility.yul\":2104:2433   */\n    tag_33:\n        /* \"#utility.yul\":2163:2169   */\n      0x00\n        /* \"#utility.yul\":2212:2214   */\n      0x20\n        /* \"#utility.yul\":2200:2209   */\n      dup3\n        /* \"#utility.yul\":2191:2198   */\n      dup5\n        /* \"#utility.yul\":2187:2210   */\n      sub\n        /* \"#utility.yul\":2183:2215   */\n      slt\n        /* \"#utility.yul\":2180:2299   */\n      iszero\n      tag_261\n      jumpi\n        /* \"#utility.yul\":2218:2297   */\n      tag_262\n      tag_185\n      jump\t// in\n    tag_262:\n        /* \"#utility.yul\":2180:2299   */\n    tag_261:\n        /* \"#utility.yul\":2338:2339   */\n      0x00\n        /* \"#utility.yul\":2363:2416   */\n      tag_263\n        /* \"#utility.yul\":2408:2415   */\n      dup5\n        /* \"#utility.yul\":2399:2405   */\n      dup3\n        /* \"#utility.yul\":2388:2397   */\n      dup6\n        /* \"#utility.yul\":2384:2406   */\n      add\n        /* \"#utility.yul\":2363:2416   */\n      tag_193\n      jump\t// in\n    tag_263:\n        /* \"#utility.yul\":2353:2416   */\n      swap2\n      pop\n        /* \"#utility.yul\":2309:2426   */\n      pop\n        /* \"#utility.yul\":2104:2433   */\n      swap3\n      swap2\n      pop\n      pop\n      jump\t// out\n        /* \"#utility.yul\":2439:2768   */\n    tag_39:\n        /* \"#utility.yul\":2498:2504   */\n      0x00\n        /* \"#utility.yul\":2547:2549   */\n      0x20\n        /* \"#utility.yul\":2535:2544   */\n      dup3\n        /* \"#utility.yul\":2526:2533   */\n      dup5\n        /* \"#utility.yul\":2522:2545   */\n      sub\n        /* \"#utility.yul\":2518:2550   */\n      slt\n        /* \"#utility.yul\":2515:2634   */\n      iszero\n      tag_265\n      jumpi\n        /* \"#utility.yul\":2553:2632   */\n      tag_266\n      tag_185\n      jump\t// in\n    tag_266:\n        /* \"#utility.yul\":2515:2634   */\n    tag_265:\n        /* \"#utility.yul\":2673:2674   */\n      0x00\n        /* \"#utility.yul\":2698:2751   */\n      tag_267\n        /* \"#utility.yul\":2743:2750   */\n      dup5\n        /* \"#utility.yul\":2734:2740   */\n      dup3\n        /* \"#utility.yul\":2723:2732   */\n      dup6\n        /* \"#utility.yul\":2719:2741   */\n      add\n        /* \"#utility.yul\":2698:2751   */\n      tag_189\n      jump\t// in\n    tag_267:\n        /* \"#utility.yul\":2688:2751   */\n      swap2\n      pop\n        /* \"#utility.yul\":2644:2761   */\n      pop\n        /* \"#utility.yul\":2439:2768   */\n      swap3\n      swap2\n      pop\n      pop\n      jump\t// out\n        /* \"#utility.yul\":2774:2892   */\n    tag_196:\n        /* \"#utility.yul\":2861:2885   */\n      tag_269\n        /* \"#utility.yul\":2879:2884   */\n      dup2\n        /* \"#utility.yul\":2861:2885   */\n      tag_191\n      jump\t// in\n    tag_269:\n        /* \"#utility.yul\":2856:2859   */\n      dup3\n        /* \"#utility.yul\":2849:2886   */\n      mstore\n        /* \"#utility.yul\":2774:2892   */\n      pop\n      pop\n      jump\t// out\n        /* \"#utility.yul\":2898:3120   */\n    tag_42:\n        /* \"#utility.yul\":2991:2995   */\n      0x00\n        /* \"#utility.yul\":3029:3031   */\n      0x20\n        /* \"#utility.yul\":3018:3027   */\n      dup3\n        /* \"#utility.yul\":3014:3032   */\n      add\n        /* \"#utility.yul\":3006:3032   */\n      swap1\n      pop\n        /* \"#utility.yul\":3042:3113   */\n      tag_271\n        /* \"#utility.yul\":3110:3111   */\n      0x00\n        /* \"#utility.yul\":3099:3108   */\n      dup4\n        /* \"#utility.yul\":3095:3112   */\n      add\n        /* \"#utility.yul\":3086:3092   */\n      dup5\n        /* \"#utility.yul\":3042:3113   */\n      tag_196\n      jump\t// in\n    tag_271:\n        /* \"#utility.yul\":2898:3120   */\n      swap3\n      swap2\n      pop\n      pop\n      jump\t// out\n        /* \"#utility.yul\":3126:3244   */\n    tag_197:\n        /* \"#utility.yul\":3213:3237   */\n      tag_273\n        /* \"#utility.yul\":3231:3236   */\n      dup2\n        /* \"#utility.yul\":3213:3237   */\n      tag_187\n      jump\t// in\n    tag_273:\n        /* \"#utility.yul\":3208:3211   */\n      dup3\n        /* \"#utility.yul\":3201:3238   */\n      mstore\n        /* \"#utility.yul\":3126:3244   */\n      pop\n      pop\n      jump\t// out\n        /* \"#utility.yul\":3250:3472   */\n    tag_47:\n        /* \"#utility.yul\":3343:3347   */\n      0x00\n        /* \"#utility.yul\":3381:3383   */\n      0x20\n        /* \"#utility.yul\":3370:3379   */\n      dup3\n        /* \"#utility.yul\":3366:3384   */\n      add\n        /* \"#utility.yul\":3358:3384   */\n      swap1\n      pop\n        /* \"#utility.yul\":3394:3465   */\n      tag_275\n        /* \"#utility.yul\":3462:3463   */\n      0x00\n        /* \"#utility.yul\":3451:3460   */\n      dup4\n        /* \"#utility.yul\":3447:3464   */\n      add\n        /* \"#utility.yul\":3438:3444   */\n      dup5\n        /* \"#utility.yul\":3394:3465   */\n      tag_197\n      jump\t// in\n    tag_275:\n        /* \"#utility.yul\":3250:3472   */\n      swap3\n      swap2\n      pop\n      pop\n      jump\t// out\n        /* \"#utility.yul\":3478:3952   */\n    tag_97:\n        /* \"#utility.yul\":3546:3552   */\n      0x00\n        /* \"#utility.yul\":3554:3560   */\n      0x00\n        /* \"#utility.yul\":3603:3605   */\n      0x40\n        /* \"#utility.yul\":3591:3600   */\n      dup4\n        /* \"#utility.yul\":3582:3589   */\n      dup6\n        /* \"#utility.yul\":3578:3601   */\n      sub\n        /* \"#utility.yul\":3574:3606   */\n      slt\n        /* \"#utility.yul\":3571:3690   */\n      iszero\n      tag_277\n      jumpi\n        /* \"#utility.yul\":3609:3688   */\n      tag_278\n      tag_185\n      jump\t// in\n    tag_278:\n        /* \"#utility.yul\":3571:3690   */\n    tag_277:\n        /* \"#utility.yul\":3729:3730   */\n      0x00\n        /* \"#utility.yul\":3754:3807   */\n      tag_279\n        /* \"#utility.yul\":3799:3806   */\n      dup6\n        /* \"#utility.yul\":3790:3796   */\n      dup3\n        /* \"#utility.yul\":3779:3788   */\n      dup7\n        /* \"#utility.yul\":3775:3797   */\n      add\n        /* \"#utility.yul\":3754:3807   */\n      tag_189\n      jump\t// in\n    tag_279:\n        /* \"#utility.yul\":3744:3807   */\n      swap3\n      pop\n        /* \"#utility.yul\":3700:3817   */\n      pop\n        /* \"#utility.yul\":3856:3858   */\n      0x20\n        /* \"#utility.yul\":3882:3935   */\n      tag_280\n        /* \"#utility.yul\":3927:3934   */\n      dup6\n        /* \"#utility.yul\":3918:3924   */\n      dup3\n        /* \"#utility.yul\":3907:3916   */\n      dup7\n        /* \"#utility.yul\":3903:3925   */\n      add\n        /* \"#utility.yul\":3882:3935   */\n      tag_189\n      jump\t// in\n    tag_280:\n        /* \"#utility.yul\":3872:3935   */\n      swap2\n      pop\n        /* \"#utility.yul\":3827:3945   */\n      pop\n        /* \"#utility.yul\":3478:3952   */\n      swap3\n      pop\n      swap3\n      swap1\n      pop\n      jump\t// out\n        /* \"#utility.yul\":3958:4018   */\n    tag_198:\n        /* \"#utility.yul\":3986:3989   */\n      0x00\n        /* \"#utility.yul\":4007:4012   */\n      dup2\n        /* \"#utility.yul\":4000:4012   */\n      swap1\n      pop\n        /* \"#utility.yul\":3958:4018   */\n      swap2\n      swap1\n      pop\n      jump\t// out\n        /* \"#utility.yul\":4024:4166   */\n    tag_199:\n        /* \"#utility.yul\":4074:4083   */\n      0x00\n        /* \"#utility.yul\":4107:4160   */\n      tag_283\n        /* \"#utility.yul\":4125:4159   */\n      tag_284\n        /* \"#utility.yul\":4134:4158   */\n      tag_285\n        /* \"#utility.yul\":4152:4157   */\n      dup5\n        /* \"#utility.yul\":4134:4158   */\n      tag_190\n      jump\t// in\n    tag_285:\n        /* \"#utility.yul\":4125:4159   */\n      tag_198\n      jump\t// in\n    tag_284:\n        /* \"#utility.yul\":4107:4160   */\n      tag_190\n      jump\t// in\n    tag_283:\n        /* \"#utility.yul\":4094:4160   */\n      swap1\n      pop\n        /* \"#utility.yul\":4024:4166   */\n      swap2\n      swap1\n      pop\n      jump\t// out\n        /* \"#utility.yul\":4172:4298   */\n    tag_200:\n        /* \"#utility.yul\":4222:4231   */\n      0x00\n        /* \"#utility.yul\":4255:4292   */\n      tag_287\n        /* \"#utility.yul\":4286:4291   */\n      dup3\n        /* \"#utility.yul\":4255:4292   */\n      tag_199\n      jump\t// in\n    tag_287:\n        /* \"#utility.yul\":4242:4292   */\n      swap1\n      pop\n        /* \"#utility.yul\":4172:4298   */\n      swap2\n      swap1\n      pop\n      jump\t// out\n        /* \"#utility.yul\":4304:4443   */\n    tag_201:\n        /* \"#utility.yul\":4367:4376   */\n      0x00\n        /* \"#utility.yul\":4400:4437   */\n      tag_289\n        /* \"#utility.yul\":4431:4436   */\n      dup3\n        /* \"#utility.yul\":4400:4437   */\n      tag_200\n      jump\t// in\n    tag_289:\n        /* \"#utility.yul\":4387:4437   */\n      swap1\n      pop\n        /* \"#utility.yul\":4304:4443   */\n      swap2\n      swap1\n      pop\n      jump\t// out\n        /* \"#utility.yul\":4449:4606   */\n    tag_202:\n        /* \"#utility.yul\":4549:4599   */\n      tag_291\n        /* \"#utility.yul\":4593:4598   */\n      dup2\n        /* \"#utility.yul\":4549:4599   */\n      tag_201\n      jump\t// in\n    tag_291:\n        /* \"#utility.yul\":4544:4547   */\n      dup3\n        /* \"#utility.yul\":4537:4600   */\n      mstore\n        /* \"#utility.yul\":4449:4606   */\n      pop\n      pop\n      jump\t// out\n        /* \"#utility.yul\":4612:4860   */\n    tag_104:\n        /* \"#utility.yul\":4718:4722   */\n      0x00\n        /* \"#utility.yul\":4756:4758   */\n      0x20\n        /* \"#utility.yul\":4745:4754   */\n      dup3\n        /* \"#utility.yul\":4741:4759   */\n      add\n        /* \"#utility.yul\":4733:4759   */\n      swap1\n      pop\n        /* \"#utility.yul\":4769:4853   */\n      tag_293\n        /* \"#utility.yul\":4850:4851   */\n      0x00\n        /* \"#utility.yul\":4839:4848   */\n      dup4\n        /* \"#utility.yul\":4835:4852   */\n      add\n        /* \"#utility.yul\":4826:4832   */\n      dup5\n        /* \"#utility.yul\":4769:4853   */\n      tag_202\n      jump\t// in\n    tag_293:\n        /* \"#utility.yul\":4612:4860   */\n      swap3\n      swap2\n      pop\n      pop\n      jump\t// out\n        /* \"#utility.yul\":4866:5009   */\n    tag_203:\n        /* \"#utility.yul\":4923:4928   */\n      0x00\n        /* \"#utility.yul\":4954:4960   */\n      dup2\n        /* \"#utility.yul\":4948:4961   */\n      mload\n        /* \"#utility.yul\":4939:4961   */\n      swap1\n      pop\n        /* \"#utility.yul\":4970:5003   */\n      tag_295\n        /* \"#utility.yul\":4997:5002   */\n      dup2\n        /* \"#utility.yul\":4970:5003   */\n      tag_188\n      jump\t// in\n    tag_295:\n        /* \"#utility.yul\":4866:5009   */\n      swap3\n      swap2\n      pop\n      pop\n      jump\t// out\n        /* \"#utility.yul\":5015:5366   */\n    tag_112:\n        /* \"#utility.yul\":5085:5091   */\n      0x00\n        /* \"#utility.yul\":5134:5136   */\n      0x20\n        /* \"#utility.yul\":5122:5131   */\n      dup3\n        /* \"#utility.yul\":5113:5120   */\n      dup5\n        /* \"#utility.yul\":5109:5132   */\n      sub\n        /* \"#utility.yul\":5105:5137   */\n      slt\n        /* \"#utility.yul\":5102:5221   */\n      iszero\n      tag_297\n      jumpi\n        /* \"#utility.yul\":5140:5219   */\n      tag_298\n      tag_185\n      jump\t// in\n    tag_298:\n        /* \"#utility.yul\":5102:5221   */\n    tag_297:\n        /* \"#utility.yul\":5260:5261   */\n      0x00\n        /* \"#utility.yul\":5285:5349   */\n      tag_299\n        /* \"#utility.yul\":5341:5348   */\n      dup5\n        /* \"#utility.yul\":5332:5338   */\n      dup3\n        /* \"#utility.yul\":5321:5330   */\n      dup6\n        /* \"#utility.yul\":5317:5339   */\n      add\n        /* \"#utility.yul\":5285:5349   */\n      tag_203\n      jump\t// in\n    tag_299:\n        /* \"#utility.yul\":5275:5349   */\n      swap2\n      pop\n        /* \"#utility.yul\":5231:5359   */\n      pop\n        /* \"#utility.yul\":5015:5366   */\n      swap3\n      swap2\n      pop\n      pop\n      jump\t// out\n        /* \"#utility.yul\":5372:5541   */\n    tag_204:\n        /* \"#utility.yul\":5456:5467   */\n      0x00\n        /* \"#utility.yul\":5490:5496   */\n      dup3\n        /* \"#utility.yul\":5485:5488   */\n      dup3\n        /* \"#utility.yul\":5478:5497   */\n      mstore\n        /* \"#utility.yul\":5530:5534   */\n      0x20\n        /* \"#utility.yul\":5525:5528   */\n      dup3\n        /* \"#utility.yul\":5521:5535   */\n      add\n        /* \"#utility.yul\":5506:5535   */\n      swap1\n      pop\n        /* \"#utility.yul\":5372:5541   */\n      swap3\n      swap2\n      pop\n      pop\n      jump\t// out\n        /* \"#utility.yul\":5547:5717   */\n    tag_205:\n        /* \"#utility.yul\":5687:5709   */\n      0x4e6f7420656c696769626c653a204e6f204e4654000000000000000000000000\n        /* \"#utility.yul\":5683:5684   */\n      0x00\n        /* \"#utility.yul\":5675:5681   */\n      dup3\n        /* \"#utility.yul\":5671:5685   */\n      add\n        /* \"#utility.yul\":5664:5710   */\n      mstore\n        /* \"#utility.yul\":5547:5717   */\n      pop\n      jump\t// out\n        /* \"#utility.yul\":5723:6089   */\n    tag_206:\n        /* \"#utility.yul\":5865:5868   */\n      0x00\n        /* \"#utility.yul\":5886:5953   */\n      tag_303\n        /* \"#utility.yul\":5950:5952   */\n      0x14\n        /* \"#utility.yul\":5945:5948   */\n      dup4\n        /* \"#utility.yul\":5886:5953   */\n      tag_204\n      jump\t// in\n    tag_303:\n        /* \"#utility.yul\":5879:5953   */\n      swap2\n      pop\n        /* \"#utility.yul\":5962:6055   */\n      tag_304\n        /* \"#utility.yul\":6051:6054   */\n      dup3\n        /* \"#utility.yul\":5962:6055   */\n      tag_205\n      jump\t// in\n    tag_304:\n        /* \"#utility.yul\":6080:6082   */\n      0x20\n        /* \"#utility.yul\":6075:6078   */\n      dup3\n        /* \"#utility.yul\":6071:6083   */\n      add\n        /* \"#utility.yul\":6064:6083   */\n      swap1\n      pop\n        /* \"#utility.yul\":5723:6089   */\n      swap2\n      swap1\n      pop\n      jump\t// out\n        /* \"#utility.yul\":6095:6514   */\n    tag_115:\n        /* \"#utility.yul\":6261:6265   */\n      0x00\n        /* \"#utility.yul\":6299:6301   */\n      0x20\n        /* \"#utility.yul\":6288:6297   */\n      dup3\n        /* \"#utility.yul\":6284:6302   */\n      add\n        /* \"#utility.yul\":6276:6302   */\n      swap1\n      pop\n        /* \"#utility.yul\":6348:6357   */\n      dup2\n        /* \"#utility.yul\":6342:6346   */\n      dup2\n        /* \"#utility.yul\":6338:6358   */\n      sub\n        /* \"#utility.yul\":6334:6335   */\n      0x00\n        /* \"#utility.yul\":6323:6332   */\n      dup4\n        /* \"#utility.yul\":6319:6336   */\n      add\n        /* \"#utility.yul\":6312:6359   */\n      mstore\n        /* \"#utility.yul\":6376:6507   */\n      tag_306\n        /* \"#utility.yul\":6502:6506   */\n      dup2\n        /* \"#utility.yul\":6376:6507   */\n      tag_206\n      jump\t// in\n    tag_306:\n        /* \"#utility.yul\":6368:6507   */\n      swap1\n      pop\n        /* \"#utility.yul\":6095:6514   */\n      swap2\n      swap1\n      pop\n      jump\t// out\n        /* \"#utility.yul\":6520:6686   */\n    tag_207:\n        /* \"#utility.yul\":6660:6678   */\n      0x526166666c652068617320656e64656400000000000000000000000000000000\n        /* \"#utility.yul\":6656:6657   */\n      0x00\n        /* \"#utility.yul\":6648:6654   */\n      dup3\n        /* \"#utility.yul\":6644:6658   */\n      add\n        /* \"#utility.yul\":6637:6679   */\n      mstore\n        /* \"#utility.yul\":6520:6686   */\n      pop\n      jump\t// out\n        /* \"#utility.yul\":6692:7058   */\n    tag_208:\n        /* \"#utility.yul\":6834:6837   */\n      0x00\n        /* \"#utility.yul\":6855:6922   */\n      tag_309\n        /* \"#utility.yul\":6919:6921   */\n      0x10\n        /* \"#utility.yul\":6914:6917   */\n      dup4\n        /* \"#utility.yul\":6855:6922   */\n      tag_204\n      jump\t// in\n    tag_309:\n        /* \"#utility.yul\":6848:6922   */\n      swap2\n      pop\n        /* \"#utility.yul\":6931:7024   */\n      tag_310\n        /* \"#utility.yul\":7020:7023   */\n      dup3\n        /* \"#utility.yul\":6931:7024   */\n      tag_207\n      jump\t// in\n    tag_310:\n        /* \"#utility.yul\":7049:7051   */\n      0x20\n        /* \"#utility.yul\":7044:7047   */\n      dup3\n        /* \"#utility.yul\":7040:7052   */\n      add\n        /* \"#utility.yul\":7033:7052   */\n      swap1\n      pop\n        /* \"#utility.yul\":6692:7058   */\n      swap2\n      swap1\n      pop\n      jump\t// out\n        /* \"#utility.yul\":7064:7483   */\n    tag_118:\n        /* \"#utility.yul\":7230:7234   */\n      0x00\n        /* \"#utility.yul\":7268:7270   */\n      0x20\n        /* \"#utility.yul\":7257:7266   */\n      dup3\n        /* \"#utility.yul\":7253:7271   */\n      add\n        /* \"#utility.yul\":7245:7271   */\n      swap1\n      pop\n        /* \"#utility.yul\":7317:7326   */\n      dup2\n        /* \"#utility.yul\":7311:7315   */\n      dup2\n        /* \"#utility.yul\":7307:7327   */\n      sub\n        /* \"#utility.yul\":7303:7304   */\n      0x00\n        /* \"#utility.yul\":7292:7301   */\n      dup4\n        /* \"#utility.yul\":7288:7305   */\n      add\n        /* \"#utility.yul\":7281:7328   */\n      mstore\n        /* \"#utility.yul\":7345:7476   */\n      tag_312\n        /* \"#utility.yul\":7471:7475   */\n      dup2\n        /* \"#utility.yul\":7345:7476   */\n      tag_208\n      jump\t// in\n    tag_312:\n        /* \"#utility.yul\":7337:7476   */\n      swap1\n      pop\n        /* \"#utility.yul\":7064:7483   */\n      swap2\n      swap1\n      pop\n      jump\t// out\n        /* \"#utility.yul\":7489:7659   */\n    tag_209:\n        /* \"#utility.yul\":7629:7651   */\n      0x7573657220616c726561647920696e2064726177000000000000000000000000\n        /* \"#utility.yul\":7625:7626   */\n      0x00\n        /* \"#utility.yul\":7617:7623   */\n      dup3\n        /* \"#utility.yul\":7613:7627   */\n      add\n        /* \"#utility.yul\":7606:7652   */\n      mstore\n        /* \"#utility.yul\":7489:7659   */\n      pop\n      jump\t// out\n        /* \"#utility.yul\":7665:8031   */\n    tag_210:\n        /* \"#utility.yul\":7807:7810   */\n      0x00\n        /* \"#utility.yul\":7828:7895   */\n      tag_315\n        /* \"#utility.yul\":7892:7894   */\n      0x14\n        /* \"#utility.yul\":7887:7890   */\n      dup4\n        /* \"#utility.yul\":7828:7895   */\n      tag_204\n      jump\t// in\n    tag_315:\n        /* \"#utility.yul\":7821:7895   */\n      swap2\n      pop\n        /* \"#utility.yul\":7904:7997   */\n      tag_316\n        /* \"#utility.yul\":7993:7996   */\n      dup3\n        /* \"#utility.yul\":7904:7997   */\n      tag_209\n      jump\t// in\n    tag_316:\n        /* \"#utility.yul\":8022:8024   */\n      0x20\n        /* \"#utility.yul\":8017:8020   */\n      dup3\n        /* \"#utility.yul\":8013:8025   */\n      add\n        /* \"#utility.yul\":8006:8025   */\n      swap1\n      pop\n        /* \"#utility.yul\":7665:8031   */\n      swap2\n      swap1\n      pop\n      jump\t// out\n        /* \"#utility.yul\":8037:8456   */\n    tag_121:\n        /* \"#utility.yul\":8203:8207   */\n      0x00\n        /* \"#utility.yul\":8241:8243   */\n      0x20\n        /* \"#utility.yul\":8230:8239   */\n      dup3\n        /* \"#utility.yul\":8226:8244   */\n      add\n        /* \"#utility.yul\":8218:8244   */\n      swap1\n      pop\n        /* \"#utility.yul\":8290:8299   */\n      dup2\n        /* \"#utility.yul\":8284:8288   */\n      dup2\n        /* \"#utility.yul\":8280:8300   */\n      sub\n        /* \"#utility.yul\":8276:8277   */\n      0x00\n        /* \"#utility.yul\":8265:8274   */\n      dup4\n        /* \"#utility.yul\":8261:8278   */\n      add\n        /* \"#utility.yul\":8254:8301   */\n      mstore\n        /* \"#utility.yul\":8318:8449   */\n      tag_318\n        /* \"#utility.yul\":8444:8448   */\n      dup2\n        /* \"#utility.yul\":8318:8449   */\n      tag_210\n      jump\t// in\n    tag_318:\n        /* \"#utility.yul\":8310:8449   */\n      swap1\n      pop\n        /* \"#utility.yul\":8037:8456   */\n      swap2\n      swap1\n      pop\n      jump\t// out\n        /* \"#utility.yul\":8462:8642   */\n    tag_211:\n        /* \"#utility.yul\":8510:8587   */\n      0x4e487b7100000000000000000000000000000000000000000000000000000000\n        /* \"#utility.yul\":8507:8508   */\n      0x00\n        /* \"#utility.yul\":8500:8588   */\n      mstore\n        /* \"#utility.yul\":8607:8611   */\n      0x11\n        /* \"#utility.yul\":8604:8605   */\n      0x04\n        /* \"#utility.yul\":8597:8612   */\n      mstore\n        /* \"#utility.yul\":8631:8635   */\n      0x24\n        /* \"#utility.yul\":8628:8629   */\n      0x00\n        /* \"#utility.yul\":8621:8636   */\n      revert\n        /* \"#utility.yul\":8648:8842   */\n    tag_124:\n        /* \"#utility.yul\":8688:8692   */\n      0x00\n        /* \"#utility.yul\":8708:8728   */\n      tag_321\n        /* \"#utility.yul\":8726:8727   */\n      dup3\n        /* \"#utility.yul\":8708:8728   */\n      tag_187\n      jump\t// in\n    tag_321:\n        /* \"#utility.yul\":8703:8728   */\n      swap2\n      pop\n        /* \"#utility.yul\":8742:8762   */\n      tag_322\n        /* \"#utility.yul\":8760:8761   */\n      dup4\n        /* \"#utility.yul\":8742:8762   */\n      tag_187\n      jump\t// in\n    tag_322:\n        /* \"#utility.yul\":8737:8762   */\n      swap3\n      pop\n        /* \"#utility.yul\":8786:8787   */\n      dup3\n        /* \"#utility.yul\":8783:8784   */\n      dup3\n        /* \"#utility.yul\":8779:8788   */\n      sub\n        /* \"#utility.yul\":8771:8788   */\n      swap1\n      pop\n        /* \"#utility.yul\":8810:8811   */\n      dup2\n        /* \"#utility.yul\":8804:8808   */\n      dup2\n        /* \"#utility.yul\":8801:8812   */\n      gt\n        /* \"#utility.yul\":8798:8835   */\n      iszero\n      tag_323\n      jumpi\n        /* \"#utility.yul\":8815:8833   */\n      tag_324\n      tag_211\n      jump\t// in\n    tag_324:\n        /* \"#utility.yul\":8798:8835   */\n    tag_323:\n        /* \"#utility.yul\":8648:8842   */\n      swap3\n      swap2\n      pop\n      pop\n      jump\t// out\n        /* \"#utility.yul\":8848:8995   */\n    tag_212:\n        /* \"#utility.yul\":8949:8960   */\n      0x00\n        /* \"#utility.yul\":8986:8989   */\n      dup2\n        /* \"#utility.yul\":8971:8989   */\n      swap1\n      pop\n        /* \"#utility.yul\":8848:8995   */\n      swap3\n      swap2\n      pop\n      pop\n      jump\t// out\n        /* \"#utility.yul\":9001:9115   */\n    tag_213:\n      pop\n      jump\t// out\n        /* \"#utility.yul\":9121:9519   */\n    tag_214:\n        /* \"#utility.yul\":9280:9283   */\n      0x00\n        /* \"#utility.yul\":9301:9384   */\n      tag_328\n        /* \"#utility.yul\":9382:9383   */\n      0x00\n        /* \"#utility.yul\":9377:9380   */\n      dup4\n        /* \"#utility.yul\":9301:9384   */\n      tag_212\n      jump\t// in\n    tag_328:\n        /* \"#utility.yul\":9294:9384   */\n      swap2\n      pop\n        /* \"#utility.yul\":9393:9486   */\n      tag_329\n        /* \"#utility.yul\":9482:9485   */\n      dup3\n        /* \"#utility.yul\":9393:9486   */\n      tag_213\n      jump\t// in\n    tag_329:\n        /* \"#utility.yul\":9511:9512   */\n      0x00\n        /* \"#utility.yul\":9506:9509   */\n      dup3\n        /* \"#utility.yul\":9502:9513   */\n      add\n        /* \"#utility.yul\":9495:9513   */\n      swap1\n      pop\n        /* \"#utility.yul\":9121:9519   */\n      swap2\n      swap1\n      pop\n      jump\t// out\n        /* \"#utility.yul\":9525:9904   */\n    tag_126:\n        /* \"#utility.yul\":9709:9712   */\n      0x00\n        /* \"#utility.yul\":9731:9878   */\n      tag_331\n        /* \"#utility.yul\":9874:9877   */\n      dup3\n        /* \"#utility.yul\":9731:9878   */\n      tag_214\n      jump\t// in\n    tag_331:\n        /* \"#utility.yul\":9724:9878   */\n      swap2\n      pop\n        /* \"#utility.yul\":9895:9898   */\n      dup2\n        /* \"#utility.yul\":9888:9898   */\n      swap1\n      pop\n        /* \"#utility.yul\":9525:9904   */\n      swap2\n      swap1\n      pop\n      jump\t// out\n        /* \"#utility.yul\":9910:10230   */\n    tag_132:\n        /* \"#utility.yul\":10025:10029   */\n      0x00\n        /* \"#utility.yul\":10063:10065   */\n      0x40\n        /* \"#utility.yul\":10052:10061   */\n      dup3\n        /* \"#utility.yul\":10048:10066   */\n      add\n        /* \"#utility.yul\":10040:10066   */\n      swap1\n      pop\n        /* \"#utility.yul\":10076:10147   */\n      tag_333\n        /* \"#utility.yul\":10144:10145   */\n      0x00\n        /* \"#utility.yul\":10133:10142   */\n      dup4\n        /* \"#utility.yul\":10129:10146   */\n      add\n        /* \"#utility.yul\":10120:10126   */\n      dup6\n        /* \"#utility.yul\":10076:10147   */\n      tag_196\n      jump\t// in\n    tag_333:\n        /* \"#utility.yul\":10157:10223   */\n      tag_334\n        /* \"#utility.yul\":10219:10221   */\n      0x20\n        /* \"#utility.yul\":10208:10217   */\n      dup4\n        /* \"#utility.yul\":10204:10222   */\n      add\n        /* \"#utility.yul\":10195:10201   */\n      dup5\n        /* \"#utility.yul\":10157:10223   */\n      tag_195\n      jump\t// in\n    tag_334:\n        /* \"#utility.yul\":9910:10230   */\n      swap4\n      swap3\n      pop\n      pop\n      pop\n      jump\t// out\n        /* \"#utility.yul\":10236:10456   */\n    tag_215:\n        /* \"#utility.yul\":10376:10410   */\n      0x6f6e6c79206f776e65722063616e2063616c6c20746869732066756e6374696f\n        /* \"#utility.yul\":10372:10373   */\n      0x00\n        /* \"#utility.yul\":10364:10370   */\n      dup3\n        /* \"#utility.yul\":10360:10374   */\n      add\n        /* \"#utility.yul\":10353:10411   */\n      mstore\n        /* \"#utility.yul\":10445:10448   */\n      0x6e00000000000000000000000000000000000000000000000000000000000000\n        /* \"#utility.yul\":10440:10442   */\n      0x20\n        /* \"#utility.yul\":10432:10438   */\n      dup3\n        /* \"#utility.yul\":10428:10443   */\n      add\n        /* \"#utility.yul\":10421:10449   */\n      mstore\n        /* \"#utility.yul\":10236:10456   */\n      pop\n      jump\t// out\n        /* \"#utility.yul\":10462:10828   */\n    tag_216:\n        /* \"#utility.yul\":10604:10607   */\n      0x00\n        /* \"#utility.yul\":10625:10692   */\n      tag_337\n        /* \"#utility.yul\":10689:10691   */\n      0x21\n        /* \"#utility.yul\":10684:10687   */\n      dup4\n        /* \"#utility.yul\":10625:10692   */\n      tag_204\n      jump\t// in\n    tag_337:\n        /* \"#utility.yul\":10618:10692   */\n      swap2\n      pop\n        /* \"#utility.yul\":10701:10794   */\n      tag_338\n        /* \"#utility.yul\":10790:10793   */\n      dup3\n        /* \"#utility.yul\":10701:10794   */\n      tag_215\n      jump\t// in\n    tag_338:\n        /* \"#utility.yul\":10819:10821   */\n      0x40\n        /* \"#utility.yul\":10814:10817   */\n      dup3\n        /* \"#utility.yul\":10810:10822   */\n      add\n        /* \"#utility.yul\":10803:10822   */\n      swap1\n      pop\n        /* \"#utility.yul\":10462:10828   */\n      swap2\n      swap1\n      pop\n      jump\t// out\n        /* \"#utility.yul\":10834:11253   */\n    tag_136:\n        /* \"#utility.yul\":11000:11004   */\n      0x00\n        /* \"#utility.yul\":11038:11040   */\n      0x20\n        /* \"#utility.yul\":11027:11036   */\n      dup3\n        /* \"#utility.yul\":11023:11041   */\n      add\n        /* \"#utility.yul\":11015:11041   */\n      swap1\n      pop\n        /* \"#utility.yul\":11087:11096   */\n      dup2\n        /* \"#utility.yul\":11081:11085   */\n      dup2\n        /* \"#utility.yul\":11077:11097   */\n      sub\n        /* \"#utility.yul\":11073:11074   */\n      0x00\n        /* \"#utility.yul\":11062:11071   */\n      dup4\n        /* \"#utility.yul\":11058:11075   */\n      add\n        /* \"#utility.yul\":11051:11098   */\n      mstore\n        /* \"#utility.yul\":11115:11246   */\n      tag_340\n        /* \"#utility.yul\":11241:11245   */\n      dup2\n        /* \"#utility.yul\":11115:11246   */\n      tag_216\n      jump\t// in\n    tag_340:\n        /* \"#utility.yul\":11107:11246   */\n      swap1\n      pop\n        /* \"#utility.yul\":10834:11253   */\n      swap2\n      swap1\n      pop\n      jump\t// out\n        /* \"#utility.yul\":11259:11426   */\n    tag_217:\n        /* \"#utility.yul\":11399:11418   */\n      0x6e6f7420656e6f756768206c6971756964000000000000000000000000000000\n        /* \"#utility.yul\":11395:11396   */\n      0x00\n        /* \"#utility.yul\":11387:11393   */\n      dup3\n        /* \"#utility.yul\":11383:11397   */\n      add\n        /* \"#utility.yul\":11376:11419   */\n      mstore\n        /* \"#utility.yul\":11259:11426   */\n      pop\n      jump\t// out\n        /* \"#utility.yul\":11432:11798   */\n    tag_218:\n        /* \"#utility.yul\":11574:11577   */\n      0x00\n        /* \"#utility.yul\":11595:11662   */\n      tag_343\n        /* \"#utility.yul\":11659:11661   */\n      0x11\n        /* \"#utility.yul\":11654:11657   */\n      dup4\n        /* \"#utility.yul\":11595:11662   */\n      tag_204\n      jump\t// in\n    tag_343:\n        /* \"#utility.yul\":11588:11662   */\n      swap2\n      pop\n        /* \"#utility.yul\":11671:11764   */\n      tag_344\n        /* \"#utility.yul\":11760:11763   */\n      dup3\n        /* \"#utility.yul\":11671:11764   */\n      tag_217\n      jump\t// in\n    tag_344:\n        /* \"#utility.yul\":11789:11791   */\n      0x20\n        /* \"#utility.yul\":11784:11787   */\n      dup3\n        /* \"#utility.yul\":11780:11792   */\n      add\n        /* \"#utility.yul\":11773:11792   */\n      swap1\n      pop\n        /* \"#utility.yul\":11432:11798   */\n      swap2\n      swap1\n      pop\n      jump\t// out\n        /* \"#utility.yul\":11804:12223   */\n    tag_139:\n        /* \"#utility.yul\":11970:11974   */\n      0x00\n        /* \"#utility.yul\":12008:12010   */\n      0x20\n        /* \"#utility.yul\":11997:12006   */\n      dup3\n        /* \"#utility.yul\":11993:12011   */\n      add\n        /* \"#utility.yul\":11985:12011   */\n      swap1\n      pop\n        /* \"#utility.yul\":12057:12066   */\n      dup2\n        /* \"#utility.yul\":12051:12055   */\n      dup2\n        /* \"#utility.yul\":12047:12067   */\n      sub\n        /* \"#utility.yul\":12043:12044   */\n      0x00\n        /* \"#utility.yul\":12032:12041   */\n      dup4\n        /* \"#utility.yul\":12028:12045   */\n      add\n        /* \"#utility.yul\":12021:12068   */\n      mstore\n        /* \"#utility.yul\":12085:12216   */\n      tag_346\n        /* \"#utility.yul\":12211:12215   */\n      dup2\n        /* \"#utility.yul\":12085:12216   */\n      tag_218\n      jump\t// in\n    tag_346:\n        /* \"#utility.yul\":12077:12216   */\n      swap1\n      pop\n        /* \"#utility.yul\":11804:12223   */\n      swap2\n      swap1\n      pop\n      jump\t// out\n        /* \"#utility.yul\":12229:12389   */\n    tag_219:\n        /* \"#utility.yul\":12369:12381   */\n      0x4e6f20656e747269657300000000000000000000000000000000000000000000\n        /* \"#utility.yul\":12365:12366   */\n      0x00\n        /* \"#utility.yul\":12357:12363   */\n      dup3\n        /* \"#utility.yul\":12353:12367   */\n      add\n        /* \"#utility.yul\":12346:12382   */\n      mstore\n        /* \"#utility.yul\":12229:12389   */\n      pop\n      jump\t// out\n        /* \"#utility.yul\":12395:12761   */\n    tag_220:\n        /* \"#utility.yul\":12537:12540   */\n      0x00\n        /* \"#utility.yul\":12558:12625   */\n      tag_349\n        /* \"#utility.yul\":12622:12624   */\n      0x0a\n        /* \"#utility.yul\":12617:12620   */\n      dup4\n        /* \"#utility.yul\":12558:12625   */\n      tag_204\n      jump\t// in\n    tag_349:\n        /* \"#utility.yul\":12551:12625   */\n      swap2\n      pop\n        /* \"#utility.yul\":12634:12727   */\n      tag_350\n        /* \"#utility.yul\":12723:12726   */\n      dup3\n        /* \"#utility.yul\":12634:12727   */\n      tag_219\n      jump\t// in\n    tag_350:\n        /* \"#utility.yul\":12752:12754   */\n      0x20\n        /* \"#utility.yul\":12747:12750   */\n      dup3\n        /* \"#utility.yul\":12743:12755   */\n      add\n        /* \"#utility.yul\":12736:12755   */\n      swap1\n      pop\n        /* \"#utility.yul\":12395:12761   */\n      swap2\n      swap1\n      pop\n      jump\t// out\n        /* \"#utility.yul\":12767:13186   */\n    tag_142:\n        /* \"#utility.yul\":12933:12937   */\n      0x00\n        /* \"#utility.yul\":12971:12973   */\n      0x20\n        /* \"#utility.yul\":12960:12969   */\n      dup3\n        /* \"#utility.yul\":12956:12974   */\n      add\n        /* \"#utility.yul\":12948:12974   */\n      swap1\n      pop\n        /* \"#utility.yul\":13020:13029   */\n      dup2\n        /* \"#utility.yul\":13014:13018   */\n      dup2\n        /* \"#utility.yul\":13010:13030   */\n      sub\n        /* \"#utility.yul\":13006:13007   */\n      0x00\n        /* \"#utility.yul\":12995:13004   */\n      dup4\n        /* \"#utility.yul\":12991:13008   */\n      add\n        /* \"#utility.yul\":12984:13031   */\n      mstore\n        /* \"#utility.yul\":13048:13179   */\n      tag_352\n        /* \"#utility.yul\":13174:13178   */\n      dup2\n        /* \"#utility.yul\":13048:13179   */\n      tag_220\n      jump\t// in\n    tag_352:\n        /* \"#utility.yul\":13040:13179   */\n      swap1\n      pop\n        /* \"#utility.yul\":12767:13186   */\n      swap2\n      swap1\n      pop\n      jump\t// out\n        /* \"#utility.yul\":13192:13271   */\n    tag_221:\n        /* \"#utility.yul\":13231:13238   */\n      0x00\n        /* \"#utility.yul\":13260:13265   */\n      dup2\n        /* \"#utility.yul\":13249:13265   */\n      swap1\n      pop\n        /* \"#utility.yul\":13192:13271   */\n      swap2\n      swap1\n      pop\n      jump\t// out\n        /* \"#utility.yul\":13277:13434   */\n    tag_222:\n        /* \"#utility.yul\":13382:13427   */\n      tag_355\n        /* \"#utility.yul\":13402:13426   */\n      tag_356\n        /* \"#utility.yul\":13420:13425   */\n      dup3\n        /* \"#utility.yul\":13402:13426   */\n      tag_187\n      jump\t// in\n    tag_356:\n        /* \"#utility.yul\":13382:13427   */\n      tag_221\n      jump\t// in\n    tag_355:\n        /* \"#utility.yul\":13377:13380   */\n      dup3\n        /* \"#utility.yul\":13370:13428   */\n      mstore\n        /* \"#utility.yul\":13277:13434   */\n      pop\n      pop\n      jump\t// out\n        /* \"#utility.yul\":13440:13534   */\n    tag_223:\n        /* \"#utility.yul\":13473:13481   */\n      0x00\n        /* \"#utility.yul\":13521:13526   */\n      dup2\n        /* \"#utility.yul\":13517:13519   */\n      0x60\n        /* \"#utility.yul\":13513:13527   */\n      shl\n        /* \"#utility.yul\":13492:13527   */\n      swap1\n      pop\n        /* \"#utility.yul\":13440:13534   */\n      swap2\n      swap1\n      pop\n      jump\t// out\n        /* \"#utility.yul\":13540:13634   */\n    tag_224:\n        /* \"#utility.yul\":13579:13586   */\n      0x00\n        /* \"#utility.yul\":13608:13628   */\n      tag_359\n        /* \"#utility.yul\":13622:13627   */\n      dup3\n        /* \"#utility.yul\":13608:13628   */\n      tag_223\n      jump\t// in\n    tag_359:\n        /* \"#utility.yul\":13597:13628   */\n      swap1\n      pop\n        /* \"#utility.yul\":13540:13634   */\n      swap2\n      swap1\n      pop\n      jump\t// out\n        /* \"#utility.yul\":13640:13740   */\n    tag_225:\n        /* \"#utility.yul\":13679:13686   */\n      0x00\n        /* \"#utility.yul\":13708:13734   */\n      tag_361\n        /* \"#utility.yul\":13728:13733   */\n      dup3\n        /* \"#utility.yul\":13708:13734   */\n      tag_224\n      jump\t// in\n    tag_361:\n        /* \"#utility.yul\":13697:13734   */\n      swap1\n      pop\n        /* \"#utility.yul\":13640:13740   */\n      swap2\n      swap1\n      pop\n      jump\t// out\n        /* \"#utility.yul\":13746:13903   */\n    tag_226:\n        /* \"#utility.yul\":13851:13896   */\n      tag_363\n        /* \"#utility.yul\":13871:13895   */\n      tag_364\n        /* \"#utility.yul\":13889:13894   */\n      dup3\n        /* \"#utility.yul\":13871:13895   */\n      tag_191\n      jump\t// in\n    tag_364:\n        /* \"#utility.yul\":13851:13896   */\n      tag_225\n      jump\t// in\n    tag_363:\n        /* \"#utility.yul\":13846:13849   */\n      dup3\n        /* \"#utility.yul\":13839:13897   */\n      mstore\n        /* \"#utility.yul\":13746:13903   */\n      pop\n      pop\n      jump\t// out\n        /* \"#utility.yul\":13909:14447   */\n    tag_144:\n        /* \"#utility.yul\":14077:14080   */\n      0x00\n        /* \"#utility.yul\":14092:14167   */\n      tag_366\n        /* \"#utility.yul\":14163:14166   */\n      dup3\n        /* \"#utility.yul\":14154:14160   */\n      dup7\n        /* \"#utility.yul\":14092:14167   */\n      tag_222\n      jump\t// in\n    tag_366:\n        /* \"#utility.yul\":14192:14194   */\n      0x20\n        /* \"#utility.yul\":14187:14190   */\n      dup3\n        /* \"#utility.yul\":14183:14195   */\n      add\n        /* \"#utility.yul\":14176:14195   */\n      swap2\n      pop\n        /* \"#utility.yul\":14205:14280   */\n      tag_367\n        /* \"#utility.yul\":14276:14279   */\n      dup3\n        /* \"#utility.yul\":14267:14273   */\n      dup6\n        /* \"#utility.yul\":14205:14280   */\n      tag_222\n      jump\t// in\n    tag_367:\n        /* \"#utility.yul\":14305:14307   */\n      0x20\n        /* \"#utility.yul\":14300:14303   */\n      dup3\n        /* \"#utility.yul\":14296:14308   */\n      add\n        /* \"#utility.yul\":14289:14308   */\n      swap2\n      pop\n        /* \"#utility.yul\":14318:14393   */\n      tag_368\n        /* \"#utility.yul\":14389:14392   */\n      dup3\n        /* \"#utility.yul\":14380:14386   */\n      dup5\n        /* \"#utility.yul\":14318:14393   */\n      tag_226\n      jump\t// in\n    tag_368:\n        /* \"#utility.yul\":14418:14420   */\n      0x14\n        /* \"#utility.yul\":14413:14416   */\n      dup3\n        /* \"#utility.yul\":14409:14421   */\n      add\n        /* \"#utility.yul\":14402:14421   */\n      swap2\n      pop\n        /* \"#utility.yul\":14438:14441   */\n      dup2\n        /* \"#utility.yul\":14431:14441   */\n      swap1\n      pop\n        /* \"#utility.yul\":13909:14447   */\n      swap5\n      swap4\n      pop\n      pop\n      pop\n      pop\n      jump\t// out\n        /* \"#utility.yul\":14453:14633   */\n    tag_227:\n        /* \"#utility.yul\":14501:14578   */\n      0x4e487b7100000000000000000000000000000000000000000000000000000000\n        /* \"#utility.yul\":14498:14499   */\n      0x00\n        /* \"#utility.yul\":14491:14579   */\n      mstore\n        /* \"#utility.yul\":14598:14602   */\n      0x12\n        /* \"#utility.yul\":14595:14596   */\n      0x04\n        /* \"#utility.yul\":14588:14603   */\n      mstore\n        /* \"#utility.yul\":14622:14626   */\n      0x24\n        /* \"#utility.yul\":14619:14620   */\n      0x00\n        /* \"#utility.yul\":14612:14627   */\n      revert\n        /* \"#utility.yul\":14639:14815   */\n    tag_146:\n        /* \"#utility.yul\":14671:14672   */\n      0x00\n        /* \"#utility.yul\":14688:14708   */\n      tag_371\n        /* \"#utility.yul\":14706:14707   */\n      dup3\n        /* \"#utility.yul\":14688:14708   */\n      tag_187\n      jump\t// in\n    tag_371:\n        /* \"#utility.yul\":14683:14708   */\n      swap2\n      pop\n        /* \"#utility.yul\":14722:14742   */\n      tag_372\n        /* \"#utility.yul\":14740:14741   */\n      dup4\n        /* \"#utility.yul\":14722:14742   */\n      tag_187\n      jump\t// in\n    tag_372:\n        /* \"#utility.yul\":14717:14742   */\n      swap3\n      pop\n        /* \"#utility.yul\":14761:14762   */\n      dup3\n        /* \"#utility.yul\":14751:14786   */\n      tag_373\n      jumpi\n        /* \"#utility.yul\":14766:14784   */\n      tag_374\n      tag_227\n      jump\t// in\n    tag_374:\n        /* \"#utility.yul\":14751:14786   */\n    tag_373:\n        /* \"#utility.yul\":14807:14808   */\n      dup3\n        /* \"#utility.yul\":14804:14805   */\n      dup3\n        /* \"#utility.yul\":14800:14809   */\n      mod\n        /* \"#utility.yul\":14795:14809   */\n      swap1\n      pop\n        /* \"#utility.yul\":14639:14815   */\n      swap3\n      swap2\n      pop\n      pop\n      jump\t// out\n        /* \"#utility.yul\":14821:15001   */\n    tag_149:\n        /* \"#utility.yul\":14869:14946   */\n      0x4e487b7100000000000000000000000000000000000000000000000000000000\n        /* \"#utility.yul\":14866:14867   */\n      0x00\n        /* \"#utility.yul\":14859:14947   */\n      mstore\n        /* \"#utility.yul\":14966:14970   */\n      0x32\n        /* \"#utility.yul\":14963:14964   */\n      0x04\n        /* \"#utility.yul\":14956:14971   */\n      mstore\n        /* \"#utility.yul\":14990:14994   */\n      0x24\n        /* \"#utility.yul\":14987:14988   */\n      0x00\n        /* \"#utility.yul\":14980:14995   */\n      revert\n        /* \"#utility.yul\":15007:15198   */\n    tag_152:\n        /* \"#utility.yul\":15047:15050   */\n      0x00\n        /* \"#utility.yul\":15066:15086   */\n      tag_377\n        /* \"#utility.yul\":15084:15085   */\n      dup3\n        /* \"#utility.yul\":15066:15086   */\n      tag_187\n      jump\t// in\n    tag_377:\n        /* \"#utility.yul\":15061:15086   */\n      swap2\n      pop\n        /* \"#utility.yul\":15100:15120   */\n      tag_378\n        /* \"#utility.yul\":15118:15119   */\n      dup4\n        /* \"#utility.yul\":15100:15120   */\n      tag_187\n      jump\t// in\n    tag_378:\n        /* \"#utility.yul\":15095:15120   */\n      swap3\n      pop\n        /* \"#utility.yul\":15143:15144   */\n      dup3\n        /* \"#utility.yul\":15140:15141   */\n      dup3\n        /* \"#utility.yul\":15136:15145   */\n      add\n        /* \"#utility.yul\":15129:15145   */\n      swap1\n      pop\n        /* \"#utility.yul\":15164:15167   */\n      dup1\n        /* \"#utility.yul\":15161:15162   */\n      dup3\n        /* \"#utility.yul\":15158:15168   */\n      gt\n        /* \"#utility.yul\":15155:15191   */\n      iszero\n      tag_379\n      jumpi\n        /* \"#utility.yul\":15171:15189   */\n      tag_380\n      tag_211\n      jump\t// in\n    tag_380:\n        /* \"#utility.yul\":15155:15191   */\n    tag_379:\n        /* \"#utility.yul\":15007:15198   */\n      swap3\n      swap2\n      pop\n      pop\n      jump\t// out\n        /* \"#utility.yul\":15204:15634   */\n    tag_160:\n        /* \"#utility.yul\":15347:15351   */\n      0x00\n        /* \"#utility.yul\":15385:15387   */\n      0x60\n        /* \"#utility.yul\":15374:15383   */\n      dup3\n        /* \"#utility.yul\":15370:15388   */\n      add\n        /* \"#utility.yul\":15362:15388   */\n      swap1\n      pop\n        /* \"#utility.yul\":15398:15469   */\n      tag_382\n        /* \"#utility.yul\":15466:15467   */\n      0x00\n        /* \"#utility.yul\":15455:15464   */\n      dup4\n        /* \"#utility.yul\":15451:15468   */\n      add\n        /* \"#utility.yul\":15442:15448   */\n      dup7\n        /* \"#utility.yul\":15398:15469   */\n      tag_196\n      jump\t// in\n    tag_382:\n        /* \"#utility.yul\":15479:15551   */\n      tag_383\n        /* \"#utility.yul\":15547:15549   */\n      0x20\n        /* \"#utility.yul\":15536:15545   */\n      dup4\n        /* \"#utility.yul\":15532:15550   */\n      add\n        /* \"#utility.yul\":15523:15529   */\n      dup6\n        /* \"#utility.yul\":15479:15551   */\n      tag_197\n      jump\t// in\n    tag_383:\n        /* \"#utility.yul\":15561:15627   */\n      tag_384\n        /* \"#utility.yul\":15623:15625   */\n      0x40\n        /* \"#utility.yul\":15612:15621   */\n      dup4\n        /* \"#utility.yul\":15608:15626   */\n      add\n        /* \"#utility.yul\":15599:15605   */\n      dup5\n        /* \"#utility.yul\":15561:15627   */\n      tag_195\n      jump\t// in\n    tag_384:\n        /* \"#utility.yul\":15204:15634   */\n      swap5\n      swap4\n      pop\n      pop\n      pop\n      pop\n      jump\t// out\n        /* \"#utility.yul\":15640:15874   */\n    tag_228:\n        /* \"#utility.yul\":15780:15814   */\n      0x6f6e6c79206f776e6572732061726520616c6c6f77656420746f207769746864\n        /* \"#utility.yul\":15776:15777   */\n      0x00\n        /* \"#utility.yul\":15768:15774   */\n      dup3\n        /* \"#utility.yul\":15764:15778   */\n      add\n        /* \"#utility.yul\":15757:15815   */\n      mstore\n        /* \"#utility.yul\":15849:15866   */\n      0x726177207468697320616d6f756e740000000000000000000000000000000000\n        /* \"#utility.yul\":15844:15846   */\n      0x20\n        /* \"#utility.yul\":15836:15842   */\n      dup3\n        /* \"#utility.yul\":15832:15847   */\n      add\n        /* \"#utility.yul\":15825:15867   */\n      mstore\n        /* \"#utility.yul\":15640:15874   */\n      pop\n      jump\t// out\n        /* \"#utility.yul\":15880:16246   */\n    tag_229:\n        /* \"#utility.yul\":16022:16025   */\n      0x00\n        /* \"#utility.yul\":16043:16110   */\n      tag_387\n        /* \"#utility.yul\":16107:16109   */\n      0x2f\n        /* \"#utility.yul\":16102:16105   */\n      dup4\n        /* \"#utility.yul\":16043:16110   */\n      tag_204\n      jump\t// in\n    tag_387:\n        /* \"#utility.yul\":16036:16110   */\n      swap2\n      pop\n        /* \"#utility.yul\":16119:16212   */\n      tag_388\n        /* \"#utility.yul\":16208:16211   */\n      dup3\n        /* \"#utility.yul\":16119:16212   */\n      tag_228\n      jump\t// in\n    tag_388:\n        /* \"#utility.yul\":16237:16239   */\n      0x40\n        /* \"#utility.yul\":16232:16235   */\n      dup3\n        /* \"#utility.yul\":16228:16240   */\n      add\n        /* \"#utility.yul\":16221:16240   */\n      swap1\n      pop\n        /* \"#utility.yul\":15880:16246   */\n      swap2\n      swap1\n      pop\n      jump\t// out\n        /* \"#utility.yul\":16252:16671   */\n    tag_164:\n        /* \"#utility.yul\":16418:16422   */\n      0x00\n        /* \"#utility.yul\":16456:16458   */\n      0x20\n        /* \"#utility.yul\":16445:16454   */\n      dup3\n        /* \"#utility.yul\":16441:16459   */\n      add\n        /* \"#utility.yul\":16433:16459   */\n      swap1\n      pop\n        /* \"#utility.yul\":16505:16514   */\n      dup2\n        /* \"#utility.yul\":16499:16503   */\n      dup2\n        /* \"#utility.yul\":16495:16515   */\n      sub\n        /* \"#utility.yul\":16491:16492   */\n      0x00\n        /* \"#utility.yul\":16480:16489   */\n      dup4\n        /* \"#utility.yul\":16476:16493   */\n      add\n        /* \"#utility.yul\":16469:16516   */\n      mstore\n        /* \"#utility.yul\":16533:16664   */\n      tag_390\n        /* \"#utility.yul\":16659:16663   */\n      dup2\n        /* \"#utility.yul\":16533:16664   */\n      tag_229\n      jump\t// in\n    tag_390:\n        /* \"#utility.yul\":16525:16664   */\n      swap1\n      pop\n        /* \"#utility.yul\":16252:16671   */\n      swap2\n      swap1\n      pop\n      jump\t// out\n        /* \"#utility.yul\":16677:17087   */\n    tag_166:\n        /* \"#utility.yul\":16717:16724   */\n      0x00\n        /* \"#utility.yul\":16740:16760   */\n      tag_392\n        /* \"#utility.yul\":16758:16759   */\n      dup3\n        /* \"#utility.yul\":16740:16760   */\n      tag_187\n      jump\t// in\n    tag_392:\n        /* \"#utility.yul\":16735:16760   */\n      swap2\n      pop\n        /* \"#utility.yul\":16774:16794   */\n      tag_393\n        /* \"#utility.yul\":16792:16793   */\n      dup4\n        /* \"#utility.yul\":16774:16794   */\n      tag_187\n      jump\t// in\n    tag_393:\n        /* \"#utility.yul\":16769:16794   */\n      swap3\n      pop\n        /* \"#utility.yul\":16829:16830   */\n      dup3\n        /* \"#utility.yul\":16826:16827   */\n      dup3\n        /* \"#utility.yul\":16822:16831   */\n      mul\n        /* \"#utility.yul\":16851:16881   */\n      tag_394\n        /* \"#utility.yul\":16869:16880   */\n      dup2\n        /* \"#utility.yul\":16851:16881   */\n      tag_187\n      jump\t// in\n    tag_394:\n        /* \"#utility.yul\":16840:16881   */\n      swap2\n      pop\n        /* \"#utility.yul\":17030:17031   */\n      dup3\n        /* \"#utility.yul\":17021:17028   */\n      dup3\n        /* \"#utility.yul\":17017:17032   */\n      div\n        /* \"#utility.yul\":17014:17015   */\n      dup5\n        /* \"#utility.yul\":17011:17033   */\n      eq\n        /* \"#utility.yul\":16991:16992   */\n      dup4\n        /* \"#utility.yul\":16984:16993   */\n      iszero\n        /* \"#utility.yul\":16964:17047   */\n      or\n        /* \"#utility.yul\":16941:17080   */\n      tag_395\n      jumpi\n        /* \"#utility.yul\":17060:17078   */\n      tag_396\n      tag_211\n      jump\t// in\n    tag_396:\n        /* \"#utility.yul\":16941:17080   */\n    tag_395:\n        /* \"#utility.yul\":16725:17087   */\n      pop\n        /* \"#utility.yul\":16677:17087   */\n      swap3\n      swap2\n      pop\n      pop\n      jump\t// out\n        /* \"#utility.yul\":17093:17265   */\n    tag_230:\n        /* \"#utility.yul\":17233:17257   */\n      0x6661696c20746f2077697468647261772066756e647300000000000000000000\n        /* \"#utility.yul\":17229:17230   */\n      0x00\n        /* \"#utility.yul\":17221:17227   */\n      dup3\n        /* \"#utility.yul\":17217:17231   */\n      add\n        /* \"#utility.yul\":17210:17258   */\n      mstore\n        /* \"#utility.yul\":17093:17265   */\n      pop\n      jump\t// out\n        /* \"#utility.yul\":17271:17637   */\n    tag_231:\n        /* \"#utility.yul\":17413:17416   */\n      0x00\n        /* \"#utility.yul\":17434:17501   */\n      tag_399\n        /* \"#utility.yul\":17498:17500   */\n      0x16\n        /* \"#utility.yul\":17493:17496   */\n      dup4\n        /* \"#utility.yul\":17434:17501   */\n      tag_204\n      jump\t// in\n    tag_399:\n        /* \"#utility.yul\":17427:17501   */\n      swap2\n      pop\n        /* \"#utility.yul\":17510:17603   */\n      tag_400\n        /* \"#utility.yul\":17599:17602   */\n      dup3\n        /* \"#utility.yul\":17510:17603   */\n      tag_230\n      jump\t// in\n    tag_400:\n        /* \"#utility.yul\":17628:17630   */\n      0x20\n        /* \"#utility.yul\":17623:17626   */\n      dup3\n        /* \"#utility.yul\":17619:17631   */\n      add\n        /* \"#utility.yul\":17612:17631   */\n      swap1\n      pop\n        /* \"#utility.yul\":17271:17637   */\n      swap2\n      swap1\n      pop\n      jump\t// out\n        /* \"#utility.yul\":17643:18062   */\n    tag_173:\n        /* \"#utility.yul\":17809:17813   */\n      0x00\n        /* \"#utility.yul\":17847:17849   */\n      0x20\n        /* \"#utility.yul\":17836:17845   */\n      dup3\n        /* \"#utility.yul\":17832:17850   */\n      add\n        /* \"#utility.yul\":17824:17850   */\n      swap1\n      pop\n        /* \"#utility.yul\":17896:17905   */\n      dup2\n        /* \"#utility.yul\":17890:17894   */\n      dup2\n        /* \"#utility.yul\":17886:17906   */\n      sub\n        /* \"#utility.yul\":17882:17883   */\n      0x00\n        /* \"#utility.yul\":17871:17880   */\n      dup4\n        /* \"#utility.yul\":17867:17884   */\n      add\n        /* \"#utility.yul\":17860:17907   */\n      mstore\n        /* \"#utility.yul\":17924:18055   */\n      tag_402\n        /* \"#utility.yul\":18050:18054   */\n      dup2\n        /* \"#utility.yul\":17924:18055   */\n      tag_231\n      jump\t// in\n    tag_402:\n        /* \"#utility.yul\":17916:18055   */\n      swap1\n      pop\n        /* \"#utility.yul\":17643:18062   */\n      swap2\n      swap1\n      pop\n      jump\t// out\n\n    auxdata: 0xa264697066735822122022414dbbd94eda657e7c256b1fa30d7a85371cc8598b2a58b9cffeba1206518664736f6c634300081e0033\n}\n",
				"bytecode": {
					"linkReferences": {},
					"object": "608060405234801561000f575f5ffd5b5060405161192a38038061192a83398181016040528101906100319190610178565b815f5f6101000a81548173ffffffffffffffffffffffffffffffffffffffff021916908373ffffffffffffffffffffffffffffffffffffffff1602179055503360015f6101000a81548173ffffffffffffffffffffffffffffffffffffffff021916908373ffffffffffffffffffffffffffffffffffffffff1602179055506802b5e3af16b188000060038190555080600481905550600160028190555050506101b6565b5f5ffd5b5f73ffffffffffffffffffffffffffffffffffffffff82169050919050565b5f610103826100da565b9050919050565b5f610114826100f9565b9050919050565b6101248161010a565b811461012e575f5ffd5b50565b5f8151905061013f8161011b565b92915050565b5f819050919050565b61015781610145565b8114610161575f5ffd5b50565b5f815190506101728161014e565b92915050565b5f5f6040838503121561018e5761018d6100d6565b5b5f61019b85828601610131565b92505060206101ac85828601610164565b9150509250929050565b611767806101c35f395ff3fe608060405260043610610108575f3560e01c806365df169e11610094578063719ce73e11610063578063719ce73e1461036457806388b2f7c31461038e5780638da5cb5b146103985780638e36b513146103c2578063d56d229d146103fe57610108565b806365df169e1461029857806366e305fd146102c25780636e60e3c6146102fe5780636f9fb98a1461033a57610108565b806318a32e70116100db57806318a32e70146101ea5780632cfcc5391461021457806333a99e041461021e57806333f707d1146102345780634129b2c91461025c57610108565b8063073c74f31461010c5780630e27b8b31461014857806311e5b16a1461018457806312d491c9146101c0575b5f5ffd5b348015610117575f5ffd5b50610132600480360381019061012d9190610ef1565b610428565b60405161013f9190610f49565b60405180910390f35b348015610153575f5ffd5b5061016e60048036038101906101699190610f62565b610452565b60405161017b9190610f49565b60405180910390f35b34801561018f575f5ffd5b506101aa60048036038101906101a59190610f8d565b6104b5565b6040516101b79190610fc7565b60405180910390f35b3480156101cb575f5ffd5b506101d46104e5565b6040516101e19190610fef565b60405180910390f35b3480156101f5575f5ffd5b506101fe610502565b60405161020b9190610fef565b60405180910390f35b61021c610508565b005b348015610229575f5ffd5b50610232610856565b005b34801561023f575f5ffd5b5061025a60048036038101906102559190610f8d565b610b5c565b005b348015610267575f5ffd5b50610282600480360381019061027d9190610f8d565b610cd0565b60405161028f9190610fc7565b60405180910390f35b3480156102a3575f5ffd5b506102ac610d09565b6040516102b99190610fef565b60405180910390f35b3480156102cd575f5ffd5b506102e860048036038101906102e39190610f62565b610d0f565b6040516102f59190610f49565b60405180910390f35b348015610309575f5ffd5b50610324600480360381019061031f9190610f8d565b610d15565b6040516103319190610fc7565b60405180910390f35b348015610345575f5ffd5b5061034e610d50565b60405161035b9190610fef565b60405180910390f35b34801561036f575f5ffd5b50610378610daf565b6040516103859190610fef565b60405180910390f35b610396610db5565b005b3480156103a3575f5ffd5b506103ac610dcf565b6040516103b99190610fc7565b60405180910390f35b3480156103cd575f5ffd5b506103e860048036038101906103e39190611008565b610df4565b6040516103f59190610fc7565b60405180910390f35b348015610409575f5ffd5b50610412610e3c565b60405161041f91906110a1565b60405180910390f35b6007602052815f5260405f20602052805f5260405f205f915091509054906101000a900460ff1681565b5f60075f60025481526020019081526020015f205f8373ffffffffffffffffffffffffffffffffffffffff1673ffffffffffffffffffffffffffffffffffffffff1681526020019081526020015f205f9054906101000a900460ff169050919050565b6008602052805f5260405f205f915054906101000a900473ffffffffffffffffffffffffffffffffffffffff1681565b5f60065f60025481526020019081526020015f2080549050905090565b60045481565b5f5f5f9054906101000a900473ffffffffffffffffffffffffffffffffffffffff1673ffffffffffffffffffffffffffffffffffffffff166370a08231336040518263ffffffff1660e01b81526004016105629190610fc7565b602060405180830381865afa15801561057d573d5f5f3e3d5ffd5b505050506040513d601f19601f820116820180604052508101906105a191906110ce565b116105e1576040517f08c379a00000000000000000000000000000000000000000000000000000000081526004016105d890611153565b60405180910390fd5b6004544210610625576040517f08c379a000000000000000000000000000000000000000000000000000000000815260040161061c906111bb565b60405180910390fd5b60075f60025481526020019081526020015f205f3373ffffffffffffffffffffffffffffffffffffffff1673ffffffffffffffffffffffffffffffffffffffff1681526020019081526020015f205f9054906101000a900460ff16156106c0576040517f08c379a00000000000000000000000000000000000000000000000000000000081526004016106b790611223565b60405180910390fd5b60065f60025481526020019081526020015f2033908060018154018082558091505060019003905f5260205f20015f9091909190916101000a81548173ffffffffffffffffffffffffffffffffffffffff021916908373ffffffffffffffffffffffffffffffffffffffff160217905550600160075f60025481526020019081526020015f205f3373ffffffffffffffffffffffffffffffffffffffff1673ffffffffffffffffffffffffffffffffffffffff1681526020019081526020015f205f6101000a81548160ff0219169083151502179055505f3373ffffffffffffffffffffffffffffffffffffffff16670de0b6b3a7640000346107c3919061126e565b6040516107cf906112ce565b5f6040518083038185875af1925050503d805f8114610809576040519150601f19603f3d011682016040523d82523d5f602084013e61080e565b606091505b505090508061081b575f5ffd5b7ed2400605f6b772a1b4c8438056ebafa69635fbc0c93642619ea3a1536070a1338260405161084b9291906112e2565b60405180910390a150565b60015f9054906101000a900473ffffffffffffffffffffffffffffffffffffffff1673ffffffffffffffffffffffffffffffffffffffff163373ffffffffffffffffffffffffffffffffffffffff16146108e5576040517f08c379a00000000000000000000000000000000000000000000000000000000081526004016108dc90611379565b60405180910390fd5b6003544711610929576040517f08c379a0000000000000000000000000000000000000000000000000000000008152600401610920906113e1565b60405180910390fd5b5f60065f60025481526020019081526020015f208054905011610981576040517f08c379a000000000000000000000000000000000000000000000000000000000815260040161097890611449565b60405180910390fd5b5f60065f60025481526020019081526020015f20805490504244336040516020016109ae939291906114cc565b604051602081830303815290604052805190602001205f1c6109d09190611535565b90505f60065f60025481526020019081526020015f2082815481106109f8576109f7611565565b5b905f5260205f20015f9054906101000a900473ffffffffffffffffffffffffffffffffffffffff1690508060085f60025481526020019081526020015f205f6101000a81548173ffffffffffffffffffffffffffffffffffffffff021916908373ffffffffffffffffffffffffffffffffffffffff160217905550600160025f828254610a859190611592565b925050819055506207e90060045f828254610aa09190611592565b925050819055505f8173ffffffffffffffffffffffffffffffffffffffff16600354604051610ace906112ce565b5f6040518083038185875af1925050503d805f8114610b08576040519150601f19603f3d011682016040523d82523d5f602084013e610b0d565b606091505b5050905080610b1a575f5ffd5b7f254f902775251643f42f8545a648671262ff011946ac3f4f17e6b3675b0e3f073360035483604051610b4f939291906115c5565b60405180910390a1505050565b60015f9054906101000a900473ffffffffffffffffffffffffffffffffffffffff1673ffffffffffffffffffffffffffffffffffffffff163373ffffffffffffffffffffffffffffffffffffffff1614610beb576040517f08c379a0000000000000000000000000000000000000000000000000000000008152600401610be29061166a565b60405180910390fd5b5f670de0b6b3a764000082610c009190611688565b90505f60015f9054906101000a900473ffffffffffffffffffffffffffffffffffffffff1673ffffffffffffffffffffffffffffffffffffffff1682604051610c48906112ce565b5f6040518083038185875af1925050503d805f8114610c82576040519150601f19603f3d011682016040523d82523d5f602084013e610c87565b606091505b5050905080610ccb576040517f08c379a0000000000000000000000000000000000000000000000000000000008152600401610cc290611713565b60405180910390fd5b505050565b5f60085f8381526020019081526020015f205f9054906101000a900473ffffffffffffffffffffffffffffffffffffffff169050919050565b60025481565b5f919050565b60058181548110610d24575f80fd5b905f5260205f20015f915054906101000a900473ffffffffffffffffffffffffffffffffffffffff1681565b5f60015f9054906101000a900473ffffffffffffffffffffffffffffffffffffffff1673ffffffffffffffffffffffffffffffffffffffff163373ffffffffffffffffffffffffffffffffffffffff1614610da9575f5ffd5b47905090565b60035481565b3460035f828254610dc69190611592565b92505081905550565b60015f9054906101000a900473ffffffffffffffffffffffffffffffffffffffff1681565b6006602052815f5260405f208181548110610e0d575f80fd5b905f5260205f20015f915091509054906101000a900473ffffffffffffffffffffffffffffffffffffffff1681565b5f5f9054906101000a900473ffffffffffffffffffffffffffffffffffffffff1681565b5f5ffd5b5f819050919050565b610e7681610e64565b8114610e80575f5ffd5b50565b5f81359050610e9181610e6d565b92915050565b5f73ffffffffffffffffffffffffffffffffffffffff82169050919050565b5f610ec082610e97565b9050919050565b610ed081610eb6565b8114610eda575f5ffd5b50565b5f81359050610eeb81610ec7565b92915050565b5f5f60408385031215610f0757610f06610e60565b5b5f610f1485828601610e83565b9250506020610f2585828601610edd565b9150509250929050565b5f8115159050919050565b610f4381610f2f565b82525050565b5f602082019050610f5c5f830184610f3a565b92915050565b5f60208284031215610f7757610f76610e60565b5b5f610f8484828501610edd565b91505092915050565b5f60208284031215610fa257610fa1610e60565b5b5f610faf84828501610e83565b91505092915050565b610fc181610eb6565b82525050565b5f602082019050610fda5f830184610fb8565b92915050565b610fe981610e64565b82525050565b5f6020820190506110025f830184610fe0565b92915050565b5f5f6040838503121561101e5761101d610e60565b5b5f61102b85828601610e83565b925050602061103c85828601610e83565b9150509250929050565b5f819050919050565b5f61106961106461105f84610e97565b611046565b610e97565b9050919050565b5f61107a8261104f565b9050919050565b5f61108b82611070565b9050919050565b61109b81611081565b82525050565b5f6020820190506110b45f830184611092565b92915050565b5f815190506110c881610e6d565b92915050565b5f602082840312156110e3576110e2610e60565b5b5f6110f0848285016110ba565b91505092915050565b5f82825260208201905092915050565b7f4e6f7420656c696769626c653a204e6f204e46540000000000000000000000005f82015250565b5f61113d6014836110f9565b915061114882611109565b602082019050919050565b5f6020820190508181035f83015261116a81611131565b9050919050565b7f526166666c652068617320656e646564000000000000000000000000000000005f82015250565b5f6111a56010836110f9565b91506111b082611171565b602082019050919050565b5f6020820190508181035f8301526111d281611199565b9050919050565b7f7573657220616c726561647920696e20647261770000000000000000000000005f82015250565b5f61120d6014836110f9565b9150611218826111d9565b602082019050919050565b5f6020820190508181035f83015261123a81611201565b9050919050565b7f4e487b71000000000000000000000000000000000000000000000000000000005f52601160045260245ffd5b5f61127882610e64565b915061128383610e64565b925082820390508181111561129b5761129a611241565b5b92915050565b5f81905092915050565b50565b5f6112b95f836112a1565b91506112c4826112ab565b5f82019050919050565b5f6112d8826112ae565b9150819050919050565b5f6040820190506112f55f830185610fb8565b6113026020830184610f3a565b9392505050565b7f6f6e6c79206f776e65722063616e2063616c6c20746869732066756e6374696f5f8201527f6e00000000000000000000000000000000000000000000000000000000000000602082015250565b5f6113636021836110f9565b915061136e82611309565b604082019050919050565b5f6020820190508181035f83015261139081611357565b9050919050565b7f6e6f7420656e6f756768206c69717569640000000000000000000000000000005f82015250565b5f6113cb6011836110f9565b91506113d682611397565b602082019050919050565b5f6020820190508181035f8301526113f8816113bf565b9050919050565b7f4e6f20656e7472696573000000000000000000000000000000000000000000005f82015250565b5f611433600a836110f9565b915061143e826113ff565b602082019050919050565b5f6020820190508181035f83015261146081611427565b9050919050565b5f819050919050565b61148161147c82610e64565b611467565b82525050565b5f8160601b9050919050565b5f61149d82611487565b9050919050565b5f6114ae82611493565b9050919050565b6114c66114c182610eb6565b6114a4565b82525050565b5f6114d78286611470565b6020820191506114e78285611470565b6020820191506114f782846114b5565b601482019150819050949350505050565b7f4e487b71000000000000000000000000000000000000000000000000000000005f52601260045260245ffd5b5f61153f82610e64565b915061154a83610e64565b92508261155a57611559611508565b5b828206905092915050565b7f4e487b71000000000000000000000000000000000000000000000000000000005f52603260045260245ffd5b5f61159c82610e64565b91506115a783610e64565b92508282019050808211156115bf576115be611241565b5b92915050565b5f6060820190506115d85f830186610fb8565b6115e56020830185610fe0565b6115f26040830184610f3a565b949350505050565b7f6f6e6c79206f776e6572732061726520616c6c6f77656420746f2077697468645f8201527f726177207468697320616d6f756e740000000000000000000000000000000000602082015250565b5f611654602f836110f9565b915061165f826115fa565b604082019050919050565b5f6020820190508181035f83015261168181611648565b9050919050565b5f61169282610e64565b915061169d83610e64565b92508282026116ab81610e64565b915082820484148315176116c2576116c1611241565b5b5092915050565b7f6661696c20746f2077697468647261772066756e6473000000000000000000005f82015250565b5f6116fd6016836110f9565b9150611708826116c9565b602082019050919050565b5f6020820190508181035f83015261172a816116f1565b905091905056fea264697066735822122022414dbbd94eda657e7c256b1fa30d7a85371cc8598b2a58b9cffeba1206518664736f6c634300081e0033",
					"opcodes": "PUSH1 0x80 PUSH1 0x40 MSTORE CALLVALUE DUP1 ISZERO PUSH2 0xF JUMPI PUSH0 PUSH0 REVERT JUMPDEST POP PUSH1 0x40 MLOAD PUSH2 0x192A CODESIZE SUB DUP1 PUSH2 0x192A DUP4 CODECOPY DUP2 DUP2 ADD PUSH1 0x40 MSTORE DUP2 ADD SWAP1 PUSH2 0x31 SWAP2 SWAP1 PUSH2 0x178 JUMP JUMPDEST DUP2 PUSH0 PUSH0 PUSH2 0x100 EXP DUP2 SLOAD DUP2 PUSH20 0xFFFFFFFFFFFFFFFFFFFFFFFFFFFFFFFFFFFFFFFF MUL NOT AND SWAP1 DUP4 PUSH20 0xFFFFFFFFFFFFFFFFFFFFFFFFFFFFFFFFFFFFFFFF AND MUL OR SWAP1 SSTORE POP CALLER PUSH1 0x1 PUSH0 PUSH2 0x100 EXP DUP2 SLOAD DUP2 PUSH20 0xFFFFFFFFFFFFFFFFFFFFFFFFFFFFFFFFFFFFFFFF MUL NOT AND SWAP1 DUP4 PUSH20 0xFFFFFFFFFFFFFFFFFFFFFFFFFFFFFFFFFFFFFFFF AND MUL OR SWAP1 SSTORE POP PUSH9 0x2B5E3AF16B1880000 PUSH1 0x3 DUP2 SWAP1 SSTORE POP DUP1 PUSH1 0x4 DUP2 SWAP1 SSTORE POP PUSH1 0x1 PUSH1 0x2 DUP2 SWAP1 SSTORE POP POP POP PUSH2 0x1B6 JUMP JUMPDEST PUSH0 PUSH0 REVERT JUMPDEST PUSH0 PUSH20 0xFFFFFFFFFFFFFFFFFFFFFFFFFFFFFFFFFFFFFFFF DUP3 AND SWAP1 POP SWAP2 SWAP1 POP JUMP JUMPDEST PUSH0 PUSH2 0x103 DUP3 PUSH2 0xDA JUMP JUMPDEST SWAP1 POP SWAP2 SWAP1 POP JUMP JUMPDEST PUSH0 PUSH2 0x114 DUP3 PUSH2 0xF9 JUMP JUMPDEST SWAP1 POP SWAP2 SWAP1 POP JUMP JUMPDEST PUSH2 0x124 DUP2 PUSH2 0x10A JUMP JUMPDEST DUP2 EQ PUSH2 0x12E JUMPI PUSH0 PUSH0 REVERT JUMPDEST POP JUMP JUMPDEST PUSH0 DUP2 MLOAD SWAP1 POP PUSH2 0x13F DUP2 PUSH2 0x11B JUMP JUMPDEST SWAP3 SWAP2 POP POP JUMP JUMPDEST PUSH0 DUP2 SWAP1 POP SWAP2 SWAP1 POP JUMP JUMPDEST PUSH2 0x157 DUP2 PUSH2 0x145 JUMP JUMPDEST DUP2 EQ PUSH2 0x161 JUMPI PUSH0 PUSH0 REVERT JUMPDEST POP JUMP JUMPDEST PUSH0 DUP2 MLOAD SWAP1 POP PUSH2 0x172 DUP2 PUSH2 0x14E JUMP JUMPDEST SWAP3 SWAP2 POP POP JUMP JUMPDEST PUSH0 PUSH0 PUSH1 0x40 DUP4 DUP6 SUB SLT ISZERO PUSH2 0x18E JUMPI PUSH2 0x18D PUSH2 0xD6 JUMP JUMPDEST JUMPDEST PUSH0 PUSH2 0x19B DUP6 DUP3 DUP7 ADD PUSH2 0x131 JUMP JUMPDEST SWAP3 POP POP PUSH1 0x20 PUSH2 0x1AC DUP6 DUP3 DUP7 ADD PUSH2 0x164 JUMP JUMPDEST SWAP2 POP POP SWAP3 POP SWAP3 SWAP1 POP JUMP JUMPDEST PUSH2 0x1767 DUP1 PUSH2 0x1C3 PUSH0 CODECOPY PUSH0 RETURN INVALID PUSH1 0x80 PUSH1 0x40 MSTORE PUSH1 0x4 CALLDATASIZE LT PUSH2 0x108 JUMPI PUSH0 CALLDATALOAD PUSH1 0xE0 SHR DUP1 PUSH4 0x65DF169E GT PUSH2 0x94 JUMPI DUP1 PUSH4 0x719CE73E GT PUSH2 0x63 JUMPI DUP1 PUSH4 0x719CE73E EQ PUSH2 0x364 JUMPI DUP1 PUSH4 0x88B2F7C3 EQ PUSH2 0x38E JUMPI DUP1 PUSH4 0x8DA5CB5B EQ PUSH2 0x398 JUMPI DUP1 PUSH4 0x8E36B513 EQ PUSH2 0x3C2 JUMPI DUP1 PUSH4 0xD56D229D EQ PUSH2 0x3FE JUMPI PUSH2 0x108 JUMP JUMPDEST DUP1 PUSH4 0x65DF169E EQ PUSH2 0x298 JUMPI DUP1 PUSH4 0x66E305FD EQ PUSH2 0x2C2 JUMPI DUP1 PUSH4 0x6E60E3C6 EQ PUSH2 0x2FE JUMPI DUP1 PUSH4 0x6F9FB98A EQ PUSH2 0x33A JUMPI PUSH2 0x108 JUMP JUMPDEST DUP1 PUSH4 0x18A32E70 GT PUSH2 0xDB JUMPI DUP1 PUSH4 0x18A32E70 EQ PUSH2 0x1EA JUMPI DUP1 PUSH4 0x2CFCC539 EQ PUSH2 0x214 JUMPI DUP1 PUSH4 0x33A99E04 EQ PUSH2 0x21E JUMPI DUP1 PUSH4 0x33F707D1 EQ PUSH2 0x234 JUMPI DUP1 PUSH4 0x4129B2C9 EQ PUSH2 0x25C JUMPI PUSH2 0x108 JUMP JUMPDEST DUP1 PUSH4 0x73C74F3 EQ PUSH2 0x10C JUMPI DUP1 PUSH4 0xE27B8B3 EQ PUSH2 0x148 JUMPI DUP1 PUSH4 0x11E5B16A EQ PUSH2 0x184 JUMPI DUP1 PUSH4 0x12D491C9 EQ PUSH2 0x1C0 JUMPI JUMPDEST PUSH0 PUSH0 REVERT JUMPDEST CALLVALUE DUP1 ISZERO PUSH2 0x117 JUMPI PUSH0 PUSH0 REVERT JUMPDEST POP PUSH2 0x132 PUSH1 0x4 DUP1 CALLDATASIZE SUB DUP2 ADD SWAP1 PUSH2 0x12D SWAP2 SWAP1 PUSH2 0xEF1 JUMP JUMPDEST PUSH2 0x428 JUMP JUMPDEST PUSH1 0x40 MLOAD PUSH2 0x13F SWAP2 SWAP1 PUSH2 0xF49 JUMP JUMPDEST PUSH1 0x40 MLOAD DUP1 SWAP2 SUB SWAP1 RETURN JUMPDEST CALLVALUE DUP1 ISZERO PUSH2 0x153 JUMPI PUSH0 PUSH0 REVERT JUMPDEST POP PUSH2 0x16E PUSH1 0x4 DUP1 CALLDATASIZE SUB DUP2 ADD SWAP1 PUSH2 0x169 SWAP2 SWAP1 PUSH2 0xF62 JUMP JUMPDEST PUSH2 0x452 JUMP JUMPDEST PUSH1 0x40 MLOAD PUSH2 0x17B SWAP2 SWAP1 PUSH2 0xF49 JUMP JUMPDEST PUSH1 0x40 MLOAD DUP1 SWAP2 SUB SWAP1 RETURN JUMPDEST CALLVALUE DUP1 ISZERO PUSH2 0x18F JUMPI PUSH0 PUSH0 REVERT JUMPDEST POP PUSH2 0x1AA PUSH1 0x4 DUP1 CALLDATASIZE SUB DUP2 ADD SWAP1 PUSH2 0x1A5 SWAP2 SWAP1 PUSH2 0xF8D JUMP JUMPDEST PUSH2 0x4B5 JUMP JUMPDEST PUSH1 0x40 MLOAD PUSH2 0x1B7 SWAP2 SWAP1 PUSH2 0xFC7 JUMP JUMPDEST PUSH1 0x40 MLOAD DUP1 SWAP2 SUB SWAP1 RETURN JUMPDEST CALLVALUE DUP1 ISZERO PUSH2 0x1CB JUMPI PUSH0 PUSH0 REVERT JUMPDEST POP PUSH2 0x1D4 PUSH2 0x4E5 JUMP JUMPDEST PUSH1 0x40 MLOAD PUSH2 0x1E1 SWAP2 SWAP1 PUSH2 0xFEF JUMP JUMPDEST PUSH1 0x40 MLOAD DUP1 SWAP2 SUB SWAP1 RETURN JUMPDEST CALLVALUE DUP1 ISZERO PUSH2 0x1F5 JUMPI PUSH0 PUSH0 REVERT JUMPDEST POP PUSH2 0x1FE PUSH2 0x502 JUMP JUMPDEST PUSH1 0x40 MLOAD PUSH2 0x20B SWAP2 SWAP1 PUSH2 0xFEF JUMP JUMPDEST PUSH1 0x40 MLOAD DUP1 SWAP2 SUB SWAP1 RETURN JUMPDEST PUSH2 0x21C PUSH2 0x508 JUMP JUMPDEST STOP JUMPDEST CALLVALUE DUP1 ISZERO PUSH2 0x229 JUMPI PUSH0 PUSH0 REVERT JUMPDEST POP PUSH2 0x232 PUSH2 0x856 JUMP JUMPDEST STOP JUMPDEST CALLVALUE DUP1 ISZERO PUSH2 0x23F JUMPI PUSH0 PUSH0 REVERT JUMPDEST POP PUSH2 0x25A PUSH1 0x4 DUP1 CALLDATASIZE SUB DUP2 ADD SWAP1 PUSH2 0x255 SWAP2 SWAP1 PUSH2 0xF8D JUMP JUMPDEST PUSH2 0xB5C JUMP JUMPDEST STOP JUMPDEST CALLVALUE DUP1 ISZERO PUSH2 0x267 JUMPI PUSH0 PUSH0 REVERT JUMPDEST POP PUSH2 0x282 PUSH1 0x4 DUP1 CALLDATASIZE SUB DUP2 ADD SWAP1 PUSH2 0x27D SWAP2 SWAP1 PUSH2 0xF8D JUMP JUMPDEST PUSH2 0xCD0 JUMP JUMPDEST PUSH1 0x40 MLOAD PUSH2 0x28F SWAP2 SWAP1 PUSH2 0xFC7 JUMP JUMPDEST PUSH1 0x40 MLOAD DUP1 SWAP2 SUB SWAP1 RETURN JUMPDEST CALLVALUE DUP1 ISZERO PUSH2 0x2A3 JUMPI PUSH0 PUSH0 REVERT JUMPDEST POP PUSH2 0x2AC PUSH2 0xD09 JUMP JUMPDEST PUSH1 0x40 MLOAD PUSH2 0x2B9 SWAP2 SWAP1 PUSH2 0xFEF JUMP JUMPDEST PUSH1 0x40 MLOAD DUP1 SWAP2 SUB SWAP1 RETURN JUMPDEST CALLVALUE DUP1 ISZERO PUSH2 0x2CD JUMPI PUSH0 PUSH0 REVERT JUMPDEST POP PUSH2 0x2E8 PUSH1 0x4 DUP1 CALLDATASIZE SUB DUP2 ADD SWAP1 PUSH2 0x2E3 SWAP2 SWAP1 PUSH2 0xF62 JUMP JUMPDEST PUSH2 0xD0F JUMP JUMPDEST PUSH1 0x40 MLOAD PUSH2 0x2F5 SWAP2 SWAP1 PUSH2 0xF49 JUMP JUMPDEST PUSH1 0x40 MLOAD DUP1 SWAP2 SUB SWAP1 RETURN JUMPDEST CALLVALUE DUP1 ISZERO PUSH2 0x309 JUMPI PUSH0 PUSH0 REVERT JUMPDEST POP PUSH2 0x324 PUSH1 0x4 DUP1 CALLDATASIZE SUB DUP2 ADD SWAP1 PUSH2 0x31F SWAP2 SWAP1 PUSH2 0xF8D JUMP JUMPDEST PUSH2 0xD15 JUMP JUMPDEST PUSH1 0x40 MLOAD PUSH2 0x331 SWAP2 SWAP1 PUSH2 0xFC7 JUMP JUMPDEST PUSH1 0x40 MLOAD DUP1 SWAP2 SUB SWAP1 RETURN JUMPDEST CALLVALUE DUP1 ISZERO PUSH2 0x345 JUMPI PUSH0 PUSH0 REVERT JUMPDEST POP PUSH2 0x34E PUSH2 0xD50 JUMP JUMPDEST PUSH1 0x40 MLOAD PUSH2 0x35B SWAP2 SWAP1 PUSH2 0xFEF JUMP JUMPDEST PUSH1 0x40 MLOAD DUP1 SWAP2 SUB SWAP1 RETURN JUMPDEST CALLVALUE DUP1 ISZERO PUSH2 0x36F JUMPI PUSH0 PUSH0 REVERT JUMPDEST POP PUSH2 0x378 PUSH2 0xDAF JUMP JUMPDEST PUSH1 0x40 MLOAD PUSH2 0x385 SWAP2 SWAP1 PUSH2 0xFEF JUMP JUMPDEST PUSH1 0x40 MLOAD DUP1 SWAP2 SUB SWAP1 RETURN JUMPDEST PUSH2 0x396 PUSH2 0xDB5 JUMP JUMPDEST STOP JUMPDEST CALLVALUE DUP1 ISZERO PUSH2 0x3A3 JUMPI PUSH0 PUSH0 REVERT JUMPDEST POP PUSH2 0x3AC PUSH2 0xDCF JUMP JUMPDEST PUSH1 0x40 MLOAD PUSH2 0x3B9 SWAP2 SWAP1 PUSH2 0xFC7 JUMP JUMPDEST PUSH1 0x40 MLOAD DUP1 SWAP2 SUB SWAP1 RETURN JUMPDEST CALLVALUE DUP1 ISZERO PUSH2 0x3CD JUMPI PUSH0 PUSH0 REVERT JUMPDEST POP PUSH2 0x3E8 PUSH1 0x4 DUP1 CALLDATASIZE SUB DUP2 ADD SWAP1 PUSH2 0x3E3 SWAP2 SWAP1 PUSH2 0x1008 JUMP JUMPDEST PUSH2 0xDF4 JUMP JUMPDEST PUSH1 0x40 MLOAD PUSH2 0x3F5 SWAP2 SWAP1 PUSH2 0xFC7 JUMP JUMPDEST PUSH1 0x40 MLOAD DUP1 SWAP2 SUB SWAP1 RETURN JUMPDEST CALLVALUE DUP1 ISZERO PUSH2 0x409 JUMPI PUSH0 PUSH0 REVERT JUMPDEST POP PUSH2 0x412 PUSH2 0xE3C JUMP JUMPDEST PUSH1 0x40 MLOAD PUSH2 0x41F SWAP2 SWAP1 PUSH2 0x10A1 JUMP JUMPDEST PUSH1 0x40 MLOAD DUP1 SWAP2 SUB SWAP1 RETURN JUMPDEST PUSH1 0x7 PUSH1 0x20 MSTORE DUP2 PUSH0 MSTORE PUSH1 0x40 PUSH0 KECCAK256 PUSH1 0x20 MSTORE DUP1 PUSH0 MSTORE PUSH1 0x40 PUSH0 KECCAK256 PUSH0 SWAP2 POP SWAP2 POP SWAP1 SLOAD SWAP1 PUSH2 0x100 EXP SWAP1 DIV PUSH1 0xFF AND DUP2 JUMP JUMPDEST PUSH0 PUSH1 0x7 PUSH0 PUSH1 0x2 SLOAD DUP2 MSTORE PUSH1 0x20 ADD SWAP1 DUP2 MSTORE PUSH1 0x20 ADD PUSH0 KECCAK256 PUSH0 DUP4 PUSH20 0xFFFFFFFFFFFFFFFFFFFFFFFFFFFFFFFFFFFFFFFF AND PUSH20 0xFFFFFFFFFFFFFFFFFFFFFFFFFFFFFFFFFFFFFFFF AND DUP2 MSTORE PUSH1 0x20 ADD SWAP1 DUP2 MSTORE PUSH1 0x20 ADD PUSH0 KECCAK256 PUSH0 SWAP1 SLOAD SWAP1 PUSH2 0x100 EXP SWAP1 DIV PUSH1 0xFF AND SWAP1 POP SWAP2 SWAP1 POP JUMP JUMPDEST PUSH1 0x8 PUSH1 0x20 MSTORE DUP1 PUSH0 MSTORE PUSH1 0x40 PUSH0 KECCAK256 PUSH0 SWAP2 POP SLOAD SWAP1 PUSH2 0x100 EXP SWAP1 DIV PUSH20 0xFFFFFFFFFFFFFFFFFFFFFFFFFFFFFFFFFFFFFFFF AND DUP2 JUMP JUMPDEST PUSH0 PUSH1 0x6 PUSH0 PUSH1 0x2 SLOAD DUP2 MSTORE PUSH1 0x20 ADD SWAP1 DUP2 MSTORE PUSH1 0x20 ADD PUSH0 KECCAK256 DUP1 SLOAD SWAP1 POP SWAP1 POP SWAP1 JUMP JUMPDEST PUSH1 0x4 SLOAD DUP2 JUMP JUMPDEST PUSH0 PUSH0 PUSH0 SWAP1 SLOAD SWAP1 PUSH2 0x100 EXP SWAP1 DIV PUSH20 0xFFFFFFFFFFFFFFFFFFFFFFFFFFFFFFFFFFFFFFFF AND PUSH20 0xFFFFFFFFFFFFFFFFFFFFFFFFFFFFFFFFFFFFFFFF AND PUSH4 0x70A08231 CALLER PUSH1 0x40 MLOAD DUP3 PUSH4 0xFFFFFFFF AND PUSH1 0xE0 SHL DUP2 MSTORE PUSH1 0x4 ADD PUSH2 0x562 SWAP2 SWAP1 PUSH2 0xFC7 JUMP JUMPDEST PUSH1 0x20 PUSH1 0x40 MLOAD DUP1 DUP4 SUB DUP2 DUP7 GAS STATICCALL ISZERO DUP1 ISZERO PUSH2 0x57D JUMPI RETURNDATASIZE PUSH0 PUSH0 RETURNDATACOPY RETURNDATASIZE PUSH0 REVERT JUMPDEST POP POP POP POP PUSH1 0x40 MLOAD RETURNDATASIZE PUSH1 0x1F NOT PUSH1 0x1F DUP3 ADD AND DUP3 ADD DUP1 PUSH1 0x40 MSTORE POP DUP2 ADD SWAP1 PUSH2 0x5A1 SWAP2 SWAP1 PUSH2 0x10CE JUMP JUMPDEST GT PUSH2 0x5E1 JUMPI PUSH1 0x40 MLOAD PUSH32 0x8C379A000000000000000000000000000000000000000000000000000000000 DUP2 MSTORE PUSH1 0x4 ADD PUSH2 0x5D8 SWAP1 PUSH2 0x1153 JUMP JUMPDEST PUSH1 0x40 MLOAD DUP1 SWAP2 SUB SWAP1 REVERT JUMPDEST PUSH1 0x4 SLOAD TIMESTAMP LT PUSH2 0x625 JUMPI PUSH1 0x40 MLOAD PUSH32 0x8C379A000000000000000000000000000000000000000000000000000000000 DUP2 MSTORE PUSH1 0x4 ADD PUSH2 0x61C SWAP1 PUSH2 0x11BB JUMP JUMPDEST PUSH1 0x40 MLOAD DUP1 SWAP2 SUB SWAP1 REVERT JUMPDEST PUSH1 0x7 PUSH0 PUSH1 0x2 SLOAD DUP2 MSTORE PUSH1 0x20 ADD SWAP1 DUP2 MSTORE PUSH1 0x20 ADD PUSH0 KECCAK256 PUSH0 CALLER PUSH20 0xFFFFFFFFFFFFFFFFFFFFFFFFFFFFFFFFFFFFFFFF AND PUSH20 0xFFFFFFFFFFFFFFFFFFFFFFFFFFFFFFFFFFFFFFFF AND DUP2 MSTORE PUSH1 0x20 ADD SWAP1 DUP2 MSTORE PUSH1 0x20 ADD PUSH0 KECCAK256 PUSH0 SWAP1 SLOAD SWAP1 PUSH2 0x100 EXP SWAP1 DIV PUSH1 0xFF AND ISZERO PUSH2 0x6C0 JUMPI PUSH1 0x40 MLOAD PUSH32 0x8C379A000000000000000000000000000000000000000000000000000000000 DUP2 MSTORE PUSH1 0x4 ADD PUSH2 0x6B7 SWAP1 PUSH2 0x1223 JUMP JUMPDEST PUSH1 0x40 MLOAD DUP1 SWAP2 SUB SWAP1 REVERT JUMPDEST PUSH1 0x6 PUSH0 PUSH1 0x2 SLOAD DUP2 MSTORE PUSH1 0x20 ADD SWAP1 DUP2 MSTORE PUSH1 0x20 ADD PUSH0 KECCAK256 CALLER SWAP1 DUP1 PUSH1 0x1 DUP2 SLOAD ADD DUP1 DUP3 SSTORE DUP1 SWAP2 POP POP PUSH1 0x1 SWAP1 SUB SWAP1 PUSH0 MSTORE PUSH1 0x20 PUSH0 KECCAK256 ADD PUSH0 SWAP1 SWAP2 SWAP1 SWAP2 SWAP1 SWAP2 PUSH2 0x100 EXP DUP2 SLOAD DUP2 PUSH20 0xFFFFFFFFFFFFFFFFFFFFFFFFFFFFFFFFFFFFFFFF MUL NOT AND SWAP1 DUP4 PUSH20 0xFFFFFFFFFFFFFFFFFFFFFFFFFFFFFFFFFFFFFFFF AND MUL OR SWAP1 SSTORE POP PUSH1 0x1 PUSH1 0x7 PUSH0 PUSH1 0x2 SLOAD DUP2 MSTORE PUSH1 0x20 ADD SWAP1 DUP2 MSTORE PUSH1 0x20 ADD PUSH0 KECCAK256 PUSH0 CALLER PUSH20 0xFFFFFFFFFFFFFFFFFFFFFFFFFFFFFFFFFFFFFFFF AND PUSH20 0xFFFFFFFFFFFFFFFFFFFFFFFFFFFFFFFFFFFFFFFF AND DUP2 MSTORE PUSH1 0x20 ADD SWAP1 DUP2 MSTORE PUSH1 0x20 ADD PUSH0 KECCAK256 PUSH0 PUSH2 0x100 EXP DUP2 SLOAD DUP2 PUSH1 0xFF MUL NOT AND SWAP1 DUP4 ISZERO ISZERO MUL OR SWAP1 SSTORE POP PUSH0 CALLER PUSH20 0xFFFFFFFFFFFFFFFFFFFFFFFFFFFFFFFFFFFFFFFF AND PUSH8 0xDE0B6B3A7640000 CALLVALUE PUSH2 0x7C3 SWAP2 SWAP1 PUSH2 0x126E JUMP JUMPDEST PUSH1 0x40 MLOAD PUSH2 0x7CF SWAP1 PUSH2 0x12CE JUMP JUMPDEST PUSH0 PUSH1 0x40 MLOAD DUP1 DUP4 SUB DUP2 DUP6 DUP8 GAS CALL SWAP3 POP POP POP RETURNDATASIZE DUP1 PUSH0 DUP2 EQ PUSH2 0x809 JUMPI PUSH1 0x40 MLOAD SWAP2 POP PUSH1 0x1F NOT PUSH1 0x3F RETURNDATASIZE ADD AND DUP3 ADD PUSH1 0x40 MSTORE RETURNDATASIZE DUP3 MSTORE RETURNDATASIZE PUSH0 PUSH1 0x20 DUP5 ADD RETURNDATACOPY PUSH2 0x80E JUMP JUMPDEST PUSH1 0x60 SWAP2 POP JUMPDEST POP POP SWAP1 POP DUP1 PUSH2 0x81B JUMPI PUSH0 PUSH0 REVERT JUMPDEST PUSH31 0xD2400605F6B772A1B4C8438056EBAFA69635FBC0C93642619EA3A1536070A1 CALLER DUP3 PUSH1 0x40 MLOAD PUSH2 0x84B SWAP3 SWAP2 SWAP1 PUSH2 0x12E2 JUMP JUMPDEST PUSH1 0x40 MLOAD DUP1 SWAP2 SUB SWAP1 LOG1 POP JUMP JUMPDEST PUSH1 0x1 PUSH0 SWAP1 SLOAD SWAP1 PUSH2 0x100 EXP SWAP1 DIV PUSH20 0xFFFFFFFFFFFFFFFFFFFFFFFFFFFFFFFFFFFFFFFF AND PUSH20 0xFFFFFFFFFFFFFFFFFFFFFFFFFFFFFFFFFFFFFFFF AND CALLER PUSH20 0xFFFFFFFFFFFFFFFFFFFFFFFFFFFFFFFFFFFFFFFF AND EQ PUSH2 0x8E5 JUMPI PUSH1 0x40 MLOAD PUSH32 0x8C379A000000000000000000000000000000000000000000000000000000000 DUP2 MSTORE PUSH1 0x4 ADD PUSH2 0x8DC SWAP1 PUSH2 0x1379 JUMP JUMPDEST PUSH1 0x40 MLOAD DUP1 SWAP2 SUB SWAP1 REVERT JUMPDEST PUSH1 0x3 SLOAD SELFBALANCE GT PUSH2 0x929 JUMPI PUSH1 0x40 MLOAD PUSH32 0x8C379A000000000000000000000000000000000000000000000000000000000 DUP2 MSTORE PUSH1 0x4 ADD PUSH2 0x920 SWAP1 PUSH2 0x13E1 JUMP JUMPDEST PUSH1 0x40 MLOAD DUP1 SWAP2 SUB SWAP1 REVERT JUMPDEST PUSH0 PUSH1 0x6 PUSH0 PUSH1 0x2 SLOAD DUP2 MSTORE PUSH1 0x20 ADD SWAP1 DUP2 MSTORE PUSH1 0x20 ADD PUSH0 KECCAK256 DUP1 SLOAD SWAP1 POP GT PUSH2 0x981 JUMPI PUSH1 0x40 MLOAD PUSH32 0x8C379A000000000000000000000000000000000000000000000000000000000 DUP2 MSTORE PUSH1 0x4 ADD PUSH2 0x978 SWAP1 PUSH2 0x1449 JUMP JUMPDEST PUSH1 0x40 MLOAD DUP1 SWAP2 SUB SWAP1 REVERT JUMPDEST PUSH0 PUSH1 0x6 PUSH0 PUSH1 0x2 SLOAD DUP2 MSTORE PUSH1 0x20 ADD SWAP1 DUP2 MSTORE PUSH1 0x20 ADD PUSH0 KECCAK256 DUP1 SLOAD SWAP1 POP TIMESTAMP PREVRANDAO CALLER PUSH1 0x40 MLOAD PUSH1 0x20 ADD PUSH2 0x9AE SWAP4 SWAP3 SWAP2 SWAP1 PUSH2 0x14CC JUMP JUMPDEST PUSH1 0x40 MLOAD PUSH1 0x20 DUP2 DUP4 SUB SUB DUP2 MSTORE SWAP1 PUSH1 0x40 MSTORE DUP1 MLOAD SWAP1 PUSH1 0x20 ADD KECCAK256 PUSH0 SHR PUSH2 0x9D0 SWAP2 SWAP1 PUSH2 0x1535 JUMP JUMPDEST SWAP1 POP PUSH0 PUSH1 0x6 PUSH0 PUSH1 0x2 SLOAD DUP2 MSTORE PUSH1 0x20 ADD SWAP1 DUP2 MSTORE PUSH1 0x20 ADD PUSH0 KECCAK256 DUP3 DUP2 SLOAD DUP2 LT PUSH2 0x9F8 JUMPI PUSH2 0x9F7 PUSH2 0x1565 JUMP JUMPDEST JUMPDEST SWAP1 PUSH0 MSTORE PUSH1 0x20 PUSH0 KECCAK256 ADD PUSH0 SWAP1 SLOAD SWAP1 PUSH2 0x100 EXP SWAP1 DIV PUSH20 0xFFFFFFFFFFFFFFFFFFFFFFFFFFFFFFFFFFFFFFFF AND SWAP1 POP DUP1 PUSH1 0x8 PUSH0 PUSH1 0x2 SLOAD DUP2 MSTORE PUSH1 0x20 ADD SWAP1 DUP2 MSTORE PUSH1 0x20 ADD PUSH0 KECCAK256 PUSH0 PUSH2 0x100 EXP DUP2 SLOAD DUP2 PUSH20 0xFFFFFFFFFFFFFFFFFFFFFFFFFFFFFFFFFFFFFFFF MUL NOT AND SWAP1 DUP4 PUSH20 0xFFFFFFFFFFFFFFFFFFFFFFFFFFFFFFFFFFFFFFFF AND MUL OR SWAP1 SSTORE POP PUSH1 0x1 PUSH1 0x2 PUSH0 DUP3 DUP3 SLOAD PUSH2 0xA85 SWAP2 SWAP1 PUSH2 0x1592 JUMP JUMPDEST SWAP3 POP POP DUP2 SWAP1 SSTORE POP PUSH3 0x7E900 PUSH1 0x4 PUSH0 DUP3 DUP3 SLOAD PUSH2 0xAA0 SWAP2 SWAP1 PUSH2 0x1592 JUMP JUMPDEST SWAP3 POP POP DUP2 SWAP1 SSTORE POP PUSH0 DUP2 PUSH20 0xFFFFFFFFFFFFFFFFFFFFFFFFFFFFFFFFFFFFFFFF AND PUSH1 0x3 SLOAD PUSH1 0x40 MLOAD PUSH2 0xACE SWAP1 PUSH2 0x12CE JUMP JUMPDEST PUSH0 PUSH1 0x40 MLOAD DUP1 DUP4 SUB DUP2 DUP6 DUP8 GAS CALL SWAP3 POP POP POP RETURNDATASIZE DUP1 PUSH0 DUP2 EQ PUSH2 0xB08 JUMPI PUSH1 0x40 MLOAD SWAP2 POP PUSH1 0x1F NOT PUSH1 0x3F RETURNDATASIZE ADD AND DUP3 ADD PUSH1 0x40 MSTORE RETURNDATASIZE DUP3 MSTORE RETURNDATASIZE PUSH0 PUSH1 0x20 DUP5 ADD RETURNDATACOPY PUSH2 0xB0D JUMP JUMPDEST PUSH1 0x60 SWAP2 POP JUMPDEST POP POP SWAP1 POP DUP1 PUSH2 0xB1A JUMPI PUSH0 PUSH0 REVERT JUMPDEST PUSH32 0x254F902775251643F42F8545A648671262FF011946AC3F4F17E6B3675B0E3F07 CALLER PUSH1 0x3 SLOAD DUP4 PUSH1 0x40 MLOAD PUSH2 0xB4F SWAP4 SWAP3 SWAP2 SWAP1 PUSH2 0x15C5 JUMP JUMPDEST PUSH1 0x40 MLOAD DUP1 SWAP2 SUB SWAP1 LOG1 POP POP POP JUMP JUMPDEST PUSH1 0x1 PUSH0 SWAP1 SLOAD SWAP1 PUSH2 0x100 EXP SWAP1 DIV PUSH20 0xFFFFFFFFFFFFFFFFFFFFFFFFFFFFFFFFFFFFFFFF AND PUSH20 0xFFFFFFFFFFFFFFFFFFFFFFFFFFFFFFFFFFFFFFFF AND CALLER PUSH20 0xFFFFFFFFFFFFFFFFFFFFFFFFFFFFFFFFFFFFFFFF AND EQ PUSH2 0xBEB JUMPI PUSH1 0x40 MLOAD PUSH32 0x8C379A000000000000000000000000000000000000000000000000000000000 DUP2 MSTORE PUSH1 0x4 ADD PUSH2 0xBE2 SWAP1 PUSH2 0x166A JUMP JUMPDEST PUSH1 0x40 MLOAD DUP1 SWAP2 SUB SWAP1 REVERT JUMPDEST PUSH0 PUSH8 0xDE0B6B3A7640000 DUP3 PUSH2 0xC00 SWAP2 SWAP1 PUSH2 0x1688 JUMP JUMPDEST SWAP1 POP PUSH0 PUSH1 0x1 PUSH0 SWAP1 SLOAD SWAP1 PUSH2 0x100 EXP SWAP1 DIV PUSH20 0xFFFFFFFFFFFFFFFFFFFFFFFFFFFFFFFFFFFFFFFF AND PUSH20 0xFFFFFFFFFFFFFFFFFFFFFFFFFFFFFFFFFFFFFFFF AND DUP3 PUSH1 0x40 MLOAD PUSH2 0xC48 SWAP1 PUSH2 0x12CE JUMP JUMPDEST PUSH0 PUSH1 0x40 MLOAD DUP1 DUP4 SUB DUP2 DUP6 DUP8 GAS CALL SWAP3 POP POP POP RETURNDATASIZE DUP1 PUSH0 DUP2 EQ PUSH2 0xC82 JUMPI PUSH1 0x40 MLOAD SWAP2 POP PUSH1 0x1F NOT PUSH1 0x3F RETURNDATASIZE ADD AND DUP3 ADD PUSH1 0x40 MSTORE RETURNDATASIZE DUP3 MSTORE RETURNDATASIZE PUSH0 PUSH1 0x20 DUP5 ADD RETURNDATACOPY PUSH2 0xC87 JUMP JUMPDEST PUSH1 0x60 SWAP2 POP JUMPDEST POP POP SWAP1 POP DUP1 PUSH2 0xCCB JUMPI PUSH1 0x40 MLOAD PUSH32 0x8C379A000000000000000000000000000000000000000000000000000000000 DUP2 MSTORE PUSH1 0x4 ADD PUSH2 0xCC2 SWAP1 PUSH2 0x1713 JUMP JUMPDEST PUSH1 0x40 MLOAD DUP1 SWAP2 SUB SWAP1 REVERT JUMPDEST POP POP POP JUMP JUMPDEST PUSH0 PUSH1 0x8 PUSH0 DUP4 DUP2 MSTORE PUSH1 0x20 ADD SWAP1 DUP2 MSTORE PUSH1 0x20 ADD PUSH0 KECCAK256 PUSH0 SWAP1 SLOAD SWAP1 PUSH2 0x100 EXP SWAP1 DIV PUSH20 0xFFFFFFFFFFFFFFFFFFFFFFFFFFFFFFFFFFFFFFFF AND SWAP1 POP SWAP2 SWAP1 POP JUMP JUMPDEST PUSH1 0x2 SLOAD DUP2 JUMP JUMPDEST PUSH0 SWAP2 SWAP1 POP JUMP JUMPDEST PUSH1 0x5 DUP2 DUP2 SLOAD DUP2 LT PUSH2 0xD24 JUMPI PUSH0 DUP1 REVERT JUMPDEST SWAP1 PUSH0 MSTORE PUSH1 0x20 PUSH0 KECCAK256 ADD PUSH0 SWAP2 POP SLOAD SWAP1 PUSH2 0x100 EXP SWAP1 DIV PUSH20 0xFFFFFFFFFFFFFFFFFFFFFFFFFFFFFFFFFFFFFFFF AND DUP2 JUMP JUMPDEST PUSH0 PUSH1 0x1 PUSH0 SWAP1 SLOAD SWAP1 PUSH2 0x100 EXP SWAP1 DIV PUSH20 0xFFFFFFFFFFFFFFFFFFFFFFFFFFFFFFFFFFFFFFFF AND PUSH20 0xFFFFFFFFFFFFFFFFFFFFFFFFFFFFFFFFFFFFFFFF AND CALLER PUSH20 0xFFFFFFFFFFFFFFFFFFFFFFFFFFFFFFFFFFFFFFFF AND EQ PUSH2 0xDA9 JUMPI PUSH0 PUSH0 REVERT JUMPDEST SELFBALANCE SWAP1 POP SWAP1 JUMP JUMPDEST PUSH1 0x3 SLOAD DUP2 JUMP JUMPDEST CALLVALUE PUSH1 0x3 PUSH0 DUP3 DUP3 SLOAD PUSH2 0xDC6 SWAP2 SWAP1 PUSH2 0x1592 JUMP JUMPDEST SWAP3 POP POP DUP2 SWAP1 SSTORE POP JUMP JUMPDEST PUSH1 0x1 PUSH0 SWAP1 SLOAD SWAP1 PUSH2 0x100 EXP SWAP1 DIV PUSH20 0xFFFFFFFFFFFFFFFFFFFFFFFFFFFFFFFFFFFFFFFF AND DUP2 JUMP JUMPDEST PUSH1 0x6 PUSH1 0x20 MSTORE DUP2 PUSH0 MSTORE PUSH1 0x40 PUSH0 KECCAK256 DUP2 DUP2 SLOAD DUP2 LT PUSH2 0xE0D JUMPI PUSH0 DUP1 REVERT JUMPDEST SWAP1 PUSH0 MSTORE PUSH1 0x20 PUSH0 KECCAK256 ADD PUSH0 SWAP2 POP SWAP2 POP SWAP1 SLOAD SWAP1 PUSH2 0x100 EXP SWAP1 DIV PUSH20 0xFFFFFFFFFFFFFFFFFFFFFFFFFFFFFFFFFFFFFFFF AND DUP2 JUMP JUMPDEST PUSH0 PUSH0 SWAP1 SLOAD SWAP1 PUSH2 0x100 EXP SWAP1 DIV PUSH20 0xFFFFFFFFFFFFFFFFFFFFFFFFFFFFFFFFFFFFFFFF AND DUP2 JUMP JUMPDEST PUSH0 PUSH0 REVERT JUMPDEST PUSH0 DUP2 SWAP1 POP SWAP2 SWAP1 POP JUMP JUMPDEST PUSH2 0xE76 DUP2 PUSH2 0xE64 JUMP JUMPDEST DUP2 EQ PUSH2 0xE80 JUMPI PUSH0 PUSH0 REVERT JUMPDEST POP JUMP JUMPDEST PUSH0 DUP2 CALLDATALOAD SWAP1 POP PUSH2 0xE91 DUP2 PUSH2 0xE6D JUMP JUMPDEST SWAP3 SWAP2 POP POP JUMP JUMPDEST PUSH0 PUSH20 0xFFFFFFFFFFFFFFFFFFFFFFFFFFFFFFFFFFFFFFFF DUP3 AND SWAP1 POP SWAP2 SWAP1 POP JUMP JUMPDEST PUSH0 PUSH2 0xEC0 DUP3 PUSH2 0xE97 JUMP JUMPDEST SWAP1 POP SWAP2 SWAP1 POP JUMP JUMPDEST PUSH2 0xED0 DUP2 PUSH2 0xEB6 JUMP JUMPDEST DUP2 EQ PUSH2 0xEDA JUMPI PUSH0 PUSH0 REVERT JUMPDEST POP JUMP JUMPDEST PUSH0 DUP2 CALLDATALOAD SWAP1 POP PUSH2 0xEEB DUP2 PUSH2 0xEC7 JUMP JUMPDEST SWAP3 SWAP2 POP POP JUMP JUMPDEST PUSH0 PUSH0 PUSH1 0x40 DUP4 DUP6 SUB SLT ISZERO PUSH2 0xF07 JUMPI PUSH2 0xF06 PUSH2 0xE60 JUMP JUMPDEST JUMPDEST PUSH0 PUSH2 0xF14 DUP6 DUP3 DUP7 ADD PUSH2 0xE83 JUMP JUMPDEST SWAP3 POP POP PUSH1 0x20 PUSH2 0xF25 DUP6 DUP3 DUP7 ADD PUSH2 0xEDD JUMP JUMPDEST SWAP2 POP POP SWAP3 POP SWAP3 SWAP1 POP JUMP JUMPDEST PUSH0 DUP2 ISZERO ISZERO SWAP1 POP SWAP2 SWAP1 POP JUMP JUMPDEST PUSH2 0xF43 DUP2 PUSH2 0xF2F JUMP JUMPDEST DUP3 MSTORE POP POP JUMP JUMPDEST PUSH0 PUSH1 0x20 DUP3 ADD SWAP1 POP PUSH2 0xF5C PUSH0 DUP4 ADD DUP5 PUSH2 0xF3A JUMP JUMPDEST SWAP3 SWAP2 POP POP JUMP JUMPDEST PUSH0 PUSH1 0x20 DUP3 DUP5 SUB SLT ISZERO PUSH2 0xF77 JUMPI PUSH2 0xF76 PUSH2 0xE60 JUMP JUMPDEST JUMPDEST PUSH0 PUSH2 0xF84 DUP5 DUP3 DUP6 ADD PUSH2 0xEDD JUMP JUMPDEST SWAP2 POP POP SWAP3 SWAP2 POP POP JUMP JUMPDEST PUSH0 PUSH1 0x20 DUP3 DUP5 SUB SLT ISZERO PUSH2 0xFA2 JUMPI PUSH2 0xFA1 PUSH2 0xE60 JUMP JUMPDEST JUMPDEST PUSH0 PUSH2 0xFAF DUP5 DUP3 DUP6 ADD PUSH2 0xE83 JUMP JUMPDEST SWAP2 POP POP SWAP3 SWAP2 POP POP JUMP JUMPDEST PUSH2 0xFC1 DUP2 PUSH2 0xEB6 JUMP JUMPDEST DUP3 MSTORE POP POP JUMP JUMPDEST PUSH0 PUSH1 0x20 DUP3 ADD SWAP1 POP PUSH2 0xFDA PUSH0 DUP4 ADD DUP5 PUSH2 0xFB8 JUMP JUMPDEST SWAP3 SWAP2 POP POP JUMP JUMPDEST PUSH2 0xFE9 DUP2 PUSH2 0xE64 JUMP JUMPDEST DUP3 MSTORE POP POP JUMP JUMPDEST PUSH0 PUSH1 0x20 DUP3 ADD SWAP1 POP PUSH2 0x1002 PUSH0 DUP4 ADD DUP5 PUSH2 0xFE0 JUMP JUMPDEST SWAP3 SWAP2 POP POP JUMP JUMPDEST PUSH0 PUSH0 PUSH1 0x40 DUP4 DUP6 SUB SLT ISZERO PUSH2 0x101E JUMPI PUSH2 0x101D PUSH2 0xE60 JUMP JUMPDEST JUMPDEST PUSH0 PUSH2 0x102B DUP6 DUP3 DUP7 ADD PUSH2 0xE83 JUMP JUMPDEST SWAP3 POP POP PUSH1 0x20 PUSH2 0x103C DUP6 DUP3 DUP7 ADD PUSH2 0xE83 JUMP JUMPDEST SWAP2 POP POP SWAP3 POP SWAP3 SWAP1 POP JUMP JUMPDEST PUSH0 DUP2 SWAP1 POP SWAP2 SWAP1 POP JUMP JUMPDEST PUSH0 PUSH2 0x1069 PUSH2 0x1064 PUSH2 0x105F DUP5 PUSH2 0xE97 JUMP JUMPDEST PUSH2 0x1046 JUMP JUMPDEST PUSH2 0xE97 JUMP JUMPDEST SWAP1 POP SWAP2 SWAP1 POP JUMP JUMPDEST PUSH0 PUSH2 0x107A DUP3 PUSH2 0x104F JUMP JUMPDEST SWAP1 POP SWAP2 SWAP1 POP JUMP JUMPDEST PUSH0 PUSH2 0x108B DUP3 PUSH2 0x1070 JUMP JUMPDEST SWAP1 POP SWAP2 SWAP1 POP JUMP JUMPDEST PUSH2 0x109B DUP2 PUSH2 0x1081 JUMP JUMPDEST DUP3 MSTORE POP POP JUMP JUMPDEST PUSH0 PUSH1 0x20 DUP3 ADD SWAP1 POP PUSH2 0x10B4 PUSH0 DUP4 ADD DUP5 PUSH2 0x1092 JUMP JUMPDEST SWAP3 SWAP2 POP POP JUMP JUMPDEST PUSH0 DUP2 MLOAD SWAP1 POP PUSH2 0x10C8 DUP2 PUSH2 0xE6D JUMP JUMPDEST SWAP3 SWAP2 POP POP JUMP JUMPDEST PUSH0 PUSH1 0x20 DUP3 DUP5 SUB SLT ISZERO PUSH2 0x10E3 JUMPI PUSH2 0x10E2 PUSH2 0xE60 JUMP JUMPDEST JUMPDEST PUSH0 PUSH2 0x10F0 DUP5 DUP3 DUP6 ADD PUSH2 0x10BA JUMP JUMPDEST SWAP2 POP POP SWAP3 SWAP2 POP POP JUMP JUMPDEST PUSH0 DUP3 DUP3 MSTORE PUSH1 0x20 DUP3 ADD SWAP1 POP SWAP3 SWAP2 POP POP JUMP JUMPDEST PUSH32 0x4E6F7420656C696769626C653A204E6F204E4654000000000000000000000000 PUSH0 DUP3 ADD MSTORE POP JUMP JUMPDEST PUSH0 PUSH2 0x113D PUSH1 0x14 DUP4 PUSH2 0x10F9 JUMP JUMPDEST SWAP2 POP PUSH2 0x1148 DUP3 PUSH2 0x1109 JUMP JUMPDEST PUSH1 0x20 DUP3 ADD SWAP1 POP SWAP2 SWAP1 POP JUMP JUMPDEST PUSH0 PUSH1 0x20 DUP3 ADD SWAP1 POP DUP2 DUP2 SUB PUSH0 DUP4 ADD MSTORE PUSH2 0x116A DUP2 PUSH2 0x1131 JUMP JUMPDEST SWAP1 POP SWAP2 SWAP1 POP JUMP JUMPDEST PUSH32 0x526166666C652068617320656E64656400000000000000000000000000000000 PUSH0 DUP3 ADD MSTORE POP JUMP JUMPDEST PUSH0 PUSH2 0x11A5 PUSH1 0x10 DUP4 PUSH2 0x10F9 JUMP JUMPDEST SWAP2 POP PUSH2 0x11B0 DUP3 PUSH2 0x1171 JUMP JUMPDEST PUSH1 0x20 DUP3 ADD SWAP1 POP SWAP2 SWAP1 POP JUMP JUMPDEST PUSH0 PUSH1 0x20 DUP3 ADD SWAP1 POP DUP2 DUP2 SUB PUSH0 DUP4 ADD MSTORE PUSH2 0x11D2 DUP2 PUSH2 0x1199 JUMP JUMPDEST SWAP1 POP SWAP2 SWAP1 POP JUMP JUMPDEST PUSH32 0x7573657220616C726561647920696E2064726177000000000000000000000000 PUSH0 DUP3 ADD MSTORE POP JUMP JUMPDEST PUSH0 PUSH2 0x120D PUSH1 0x14 DUP4 PUSH2 0x10F9 JUMP JUMPDEST SWAP2 POP PUSH2 0x1218 DUP3 PUSH2 0x11D9 JUMP JUMPDEST PUSH1 0x20 DUP3 ADD SWAP1 POP SWAP2 SWAP1 POP JUMP JUMPDEST PUSH0 PUSH1 0x20 DUP3 ADD SWAP1 POP DUP2 DUP2 SUB PUSH0 DUP4 ADD MSTORE PUSH2 0x123A DUP2 PUSH2 0x1201 JUMP JUMPDEST SWAP1 POP SWAP2 SWAP1 POP JUMP JUMPDEST PUSH32 0x4E487B7100000000000000000000000000000000000000000000000000000000 PUSH0 MSTORE PUSH1 0x11 PUSH1 0x4 MSTORE PUSH1 0x24 PUSH0 REVERT JUMPDEST PUSH0 PUSH2 0x1278 DUP3 PUSH2 0xE64 JUMP JUMPDEST SWAP2 POP PUSH2 0x1283 DUP4 PUSH2 0xE64 JUMP JUMPDEST SWAP3 POP DUP3 DUP3 SUB SWAP1 POP DUP2 DUP2 GT ISZERO PUSH2 0x129B JUMPI PUSH2 0x129A PUSH2 0x1241 JUMP JUMPDEST JUMPDEST SWAP3 SWAP2 POP POP JUMP JUMPDEST PUSH0 DUP2 SWAP1 POP SWAP3 SWAP2 POP POP JUMP JUMPDEST POP JUMP JUMPDEST PUSH0 PUSH2 0x12B9 PUSH0 DUP4 PUSH2 0x12A1 JUMP JUMPDEST SWAP2 POP PUSH2 0x12C4 DUP3 PUSH2 0x12AB JUMP JUMPDEST PUSH0 DUP3 ADD SWAP1 POP SWAP2 SWAP1 POP JUMP JUMPDEST PUSH0 PUSH2 0x12D8 DUP3 PUSH2 0x12AE JUMP JUMPDEST SWAP2 POP DUP2 SWAP1 POP SWAP2 SWAP1 POP JUMP JUMPDEST PUSH0 PUSH1 0x40 DUP3 ADD SWAP1 POP PUSH2 0x12F5 PUSH0 DUP4 ADD DUP6 PUSH2 0xFB8 JUMP JUMPDEST PUSH2 0x1302 PUSH1 0x20 DUP4 ADD DUP5 PUSH2 0xF3A JUMP JUMPDEST SWAP4 SWAP3 POP POP POP JUMP JUMPDEST PUSH32 0x6F6E6C79206F776E65722063616E2063616C6C20746869732066756E6374696F PUSH0 DUP3 ADD MSTORE PUSH32 0x6E00000000000000000000000000000000000000000000000000000000000000 PUSH1 0x20 DUP3 ADD MSTORE POP JUMP JUMPDEST PUSH0 PUSH2 0x1363 PUSH1 0x21 DUP4 PUSH2 0x10F9 JUMP JUMPDEST SWAP2 POP PUSH2 0x136E DUP3 PUSH2 0x1309 JUMP JUMPDEST PUSH1 0x40 DUP3 ADD SWAP1 POP SWAP2 SWAP1 POP JUMP JUMPDEST PUSH0 PUSH1 0x20 DUP3 ADD SWAP1 POP DUP2 DUP2 SUB PUSH0 DUP4 ADD MSTORE PUSH2 0x1390 DUP2 PUSH2 0x1357 JUMP JUMPDEST SWAP1 POP SWAP2 SWAP1 POP JUMP JUMPDEST PUSH32 0x6E6F7420656E6F756768206C6971756964000000000000000000000000000000 PUSH0 DUP3 ADD MSTORE POP JUMP JUMPDEST PUSH0 PUSH2 0x13CB PUSH1 0x11 DUP4 PUSH2 0x10F9 JUMP JUMPDEST SWAP2 POP PUSH2 0x13D6 DUP3 PUSH2 0x1397 JUMP JUMPDEST PUSH1 0x20 DUP3 ADD SWAP1 POP SWAP2 SWAP1 POP JUMP JUMPDEST PUSH0 PUSH1 0x20 DUP3 ADD SWAP1 POP DUP2 DUP2 SUB PUSH0 DUP4 ADD MSTORE PUSH2 0x13F8 DUP2 PUSH2 0x13BF JUMP JUMPDEST SWAP1 POP SWAP2 SWAP1 POP JUMP JUMPDEST PUSH32 0x4E6F20656E747269657300000000000000000000000000000000000000000000 PUSH0 DUP3 ADD MSTORE POP JUMP JUMPDEST PUSH0 PUSH2 0x1433 PUSH1 0xA DUP4 PUSH2 0x10F9 JUMP JUMPDEST SWAP2 POP PUSH2 0x143E DUP3 PUSH2 0x13FF JUMP JUMPDEST PUSH1 0x20 DUP3 ADD SWAP1 POP SWAP2 SWAP1 POP JUMP JUMPDEST PUSH0 PUSH1 0x20 DUP3 ADD SWAP1 POP DUP2 DUP2 SUB PUSH0 DUP4 ADD MSTORE PUSH2 0x1460 DUP2 PUSH2 0x1427 JUMP JUMPDEST SWAP1 POP SWAP2 SWAP1 POP JUMP JUMPDEST PUSH0 DUP2 SWAP1 POP SWAP2 SWAP1 POP JUMP JUMPDEST PUSH2 0x1481 PUSH2 0x147C DUP3 PUSH2 0xE64 JUMP JUMPDEST PUSH2 0x1467 JUMP JUMPDEST DUP3 MSTORE POP POP JUMP JUMPDEST PUSH0 DUP2 PUSH1 0x60 SHL SWAP1 POP SWAP2 SWAP1 POP JUMP JUMPDEST PUSH0 PUSH2 0x149D DUP3 PUSH2 0x1487 JUMP JUMPDEST SWAP1 POP SWAP2 SWAP1 POP JUMP JUMPDEST PUSH0 PUSH2 0x14AE DUP3 PUSH2 0x1493 JUMP JUMPDEST SWAP1 POP SWAP2 SWAP1 POP JUMP JUMPDEST PUSH2 0x14C6 PUSH2 0x14C1 DUP3 PUSH2 0xEB6 JUMP JUMPDEST PUSH2 0x14A4 JUMP JUMPDEST DUP3 MSTORE POP POP JUMP JUMPDEST PUSH0 PUSH2 0x14D7 DUP3 DUP7 PUSH2 0x1470 JUMP JUMPDEST PUSH1 0x20 DUP3 ADD SWAP2 POP PUSH2 0x14E7 DUP3 DUP6 PUSH2 0x1470 JUMP JUMPDEST PUSH1 0x20 DUP3 ADD SWAP2 POP PUSH2 0x14F7 DUP3 DUP5 PUSH2 0x14B5 JUMP JUMPDEST PUSH1 0x14 DUP3 ADD SWAP2 POP DUP2 SWAP1 POP SWAP5 SWAP4 POP POP POP POP JUMP JUMPDEST PUSH32 0x4E487B7100000000000000000000000000000000000000000000000000000000 PUSH0 MSTORE PUSH1 0x12 PUSH1 0x4 MSTORE PUSH1 0x24 PUSH0 REVERT JUMPDEST PUSH0 PUSH2 0x153F DUP3 PUSH2 0xE64 JUMP JUMPDEST SWAP2 POP PUSH2 0x154A DUP4 PUSH2 0xE64 JUMP JUMPDEST SWAP3 POP DUP3 PUSH2 0x155A JUMPI PUSH2 0x1559 PUSH2 0x1508 JUMP JUMPDEST JUMPDEST DUP3 DUP3 MOD SWAP1 POP SWAP3 SWAP2 POP POP JUMP JUMPDEST PUSH32 0x4E487B7100000000000000000000000000000000000000000000000000000000 PUSH0 MSTORE PUSH1 0x32 PUSH1 0x4 MSTORE PUSH1 0x24 PUSH0 REVERT JUMPDEST PUSH0 PUSH2 0x159C DUP3 PUSH2 0xE64 JUMP JUMPDEST SWAP2 POP PUSH2 0x15A7 DUP4 PUSH2 0xE64 JUMP JUMPDEST SWAP3 POP DUP3 DUP3 ADD SWAP1 POP DUP1 DUP3 GT ISZERO PUSH2 0x15BF JUMPI PUSH2 0x15BE PUSH2 0x1241 JUMP JUMPDEST JUMPDEST SWAP3 SWAP2 POP POP JUMP JUMPDEST PUSH0 PUSH1 0x60 DUP3 ADD SWAP1 POP PUSH2 0x15D8 PUSH0 DUP4 ADD DUP7 PUSH2 0xFB8 JUMP JUMPDEST PUSH2 0x15E5 PUSH1 0x20 DUP4 ADD DUP6 PUSH2 0xFE0 JUMP JUMPDEST PUSH2 0x15F2 PUSH1 0x40 DUP4 ADD DUP5 PUSH2 0xF3A JUMP JUMPDEST SWAP5 SWAP4 POP POP POP POP JUMP JUMPDEST PUSH32 0x6F6E6C79206F776E6572732061726520616C6C6F77656420746F207769746864 PUSH0 DUP3 ADD MSTORE PUSH32 0x726177207468697320616D6F756E740000000000000000000000000000000000 PUSH1 0x20 DUP3 ADD MSTORE POP JUMP JUMPDEST PUSH0 PUSH2 0x1654 PUSH1 0x2F DUP4 PUSH2 0x10F9 JUMP JUMPDEST SWAP2 POP PUSH2 0x165F DUP3 PUSH2 0x15FA JUMP JUMPDEST PUSH1 0x40 DUP3 ADD SWAP1 POP SWAP2 SWAP1 POP JUMP JUMPDEST PUSH0 PUSH1 0x20 DUP3 ADD SWAP1 POP DUP2 DUP2 SUB PUSH0 DUP4 ADD MSTORE PUSH2 0x1681 DUP2 PUSH2 0x1648 JUMP JUMPDEST SWAP1 POP SWAP2 SWAP1 POP JUMP JUMPDEST PUSH0 PUSH2 0x1692 DUP3 PUSH2 0xE64 JUMP JUMPDEST SWAP2 POP PUSH2 0x169D DUP4 PUSH2 0xE64 JUMP JUMPDEST SWAP3 POP DUP3 DUP3 MUL PUSH2 0x16AB DUP2 PUSH2 0xE64 JUMP JUMPDEST SWAP2 POP DUP3 DUP3 DIV DUP5 EQ DUP4 ISZERO OR PUSH2 0x16C2 JUMPI PUSH2 0x16C1 PUSH2 0x1241 JUMP JUMPDEST JUMPDEST POP SWAP3 SWAP2 POP POP JUMP JUMPDEST PUSH32 0x6661696C20746F2077697468647261772066756E647300000000000000000000 PUSH0 DUP3 ADD MSTORE POP JUMP JUMPDEST PUSH0 PUSH2 0x16FD PUSH1 0x16 DUP4 PUSH2 0x10F9 JUMP JUMPDEST SWAP2 POP PUSH2 0x1708 DUP3 PUSH2 0x16C9 JUMP JUMPDEST PUSH1 0x20 DUP3 ADD SWAP1 POP SWAP2 SWAP1 POP JUMP JUMPDEST PUSH0 PUSH1 0x20 DUP3 ADD SWAP1 POP DUP2 DUP2 SUB PUSH0 DUP4 ADD MSTORE PUSH2 0x172A DUP2 PUSH2 0x16F1 JUMP JUMPDEST SWAP1 POP SWAP2 SWAP1 POP JUMP INVALID LOG2 PUSH5 0x6970667358 0x22 SLT KECCAK256 0x22 COINBASE 0x4D 0xBB 0xD9 0x4E 0xDA PUSH6 0x7E7C256B1FA3 0xD PUSH27 0x85371CC8598B2A58B9CFFEBA1206518664736F6C634300081E0033 "
				},
				"gasEstimates": {
					"creation": {
						"codeDepositCost": "1198200",
						"executionCost": "infinite",
						"totalCost": "infinite"
					},
					"external": {
						"currentRaffleId()": "2448",
						"enterRaffle()": "infinite",
						"fundPrizePool()": "infinite",
						"getContractBalance()": "2592",
						"getTotalEntries()": "4706",
						"getWinner(uint256)": "2963",
						"hasEntered(uint256,address)": "3094",
						"hasUserEntered(address)": "5092",
						"isEligible(address)": "684",
						"nftContract()": "infinite",
						"owner()": "2574",
						"ownerWithdraw(uint256)": "infinite",
						"prizePool()": "2447",
						"raffleAddress(uint256)": "5011",
						"raffleEndTime()": "2448",
						"raffleEntries(uint256,uint256)": "infinite",
						"raffleWinners(uint256)": "2895",
						"selectWinner()": "infinite"
					}
				},
				"methodIdentifiers": {
					"currentRaffleId()": "65df169e",
					"enterRaffle()": "2cfcc539",
					"fundPrizePool()": "88b2f7c3",
					"getContractBalance()": "6f9fb98a",
					"getTotalEntries()": "12d491c9",
					"getWinner(uint256)": "4129b2c9",
					"hasEntered(uint256,address)": "073c74f3",
					"hasUserEntered(address)": "0e27b8b3",
					"isEligible(address)": "66e305fd",
					"nftContract()": "d56d229d",
					"owner()": "8da5cb5b",
					"ownerWithdraw(uint256)": "33f707d1",
					"prizePool()": "719ce73e",
					"raffleAddress(uint256)": "6e60e3c6",
					"raffleEndTime()": "18a32e70",
					"raffleEntries(uint256,uint256)": "8e36b513",
					"raffleWinners(uint256)": "11e5b16a",
					"selectWinner()": "33a99e04"
				}
			},
			"storageLayout": {
				"storage": [
					{
						"astId": 12,
						"contract": "src/Raffle.sol:Raffle",
						"label": "nftContract",
						"offset": 0,
						"slot": "0",
						"type": "t_contract(ERC721i)9"
					},
					{
						"astId": 14,
						"contract": "src/Raffle.sol:Raffle",
						"label": "owner",
						"offset": 0,
						"slot": "1",
						"type": "t_address"
					},
					{
						"astId": 16,
						"contract": "src/Raffle.sol:Raffle",
						"label": "currentRaffleId",
						"offset": 0,
						"slot": "2",
						"type": "t_uint256"
					},
					{
						"astId": 18,
						"contract": "src/Raffle.sol:Raffle",
						"label": "prizePool",
						"offset": 0,
						"slot": "3",
						"type": "t_uint256"
					},
					{
						"astId": 20,
						"contract": "src/Raffle.sol:Raffle",
						"label": "raffleEndTime",
						"offset": 0,
						"slot": "4",
						"type": "t_uint256"
					},
					{
						"astId": 23,
						"contract": "src/Raffle.sol:Raffle",
						"label": "raffleAddress",
						"offset": 0,
						"slot": "5",
						"type": "t_array(t_address)dyn_storage"
					},
					{
						"astId": 42,
						"contract": "src/Raffle.sol:Raffle",
						"label": "raffleEntries",
						"offset": 0,
						"slot": "6",
						"type": "t_mapping(t_uint256,t_array(t_address)dyn_storage)"
					},
					{
						"astId": 48,
						"contract": "src/Raffle.sol:Raffle",
						"label": "hasEntered",
						"offset": 0,
						"slot": "7",
						"type": "t_mapping(t_uint256,t_mapping(t_address,t_bool))"
					},
					{
						"astId": 52,
						"contract": "src/Raffle.sol:Raffle",
						"label": "raffleWinners",
						"offset": 0,
						"slot": "8",
						"type": "t_mapping(t_uint256,t_address)"
					}
				],
				"types": {
					"t_address": {
						"encoding": "inplace",
						"label": "address",
						"numberOfBytes": "20"
					},
					"t_array(t_address)dyn_storage": {
						"base": "t_address",
						"encoding": "dynamic_array",
						"label": "address[]",
						"numberOfBytes": "32"
					},
					"t_bool": {
						"encoding": "inplace",
						"label": "bool",
						"numberOfBytes": "1"
					},
					"t_contract(ERC721i)9": {
						"encoding": "inplace",
						"label": "contract ERC721i",
						"numberOfBytes": "20"
					},
					"t_mapping(t_address,t_bool)": {
						"encoding": "mapping",
						"key": "t_address",
						"label": "mapping(address => bool)",
						"numberOfBytes": "32",
						"value": "t_bool"
					},
					"t_mapping(t_uint256,t_address)": {
						"encoding": "mapping",
						"key": "t_uint256",
						"label": "mapping(uint256 => address)",
						"numberOfBytes": "32",
						"value": "t_address"
					},
					"t_mapping(t_uint256,t_array(t_address)dyn_storage)": {
						"encoding": "mapping",
						"key": "t_uint256",
						"label": "mapping(uint256 => address[])",
						"numberOfBytes": "32",
						"value": "t_array(t_address)dyn_storage"
					},
					"t_mapping(t_uint256,t_mapping(t_address,t_bool))": {
						"encoding": "mapping",
						"key": "t_uint256",
						"label": "mapping(uint256 => mapping(address => bool))",
						"numberOfBytes": "32",
						"value": "t_mapping(t_address,t_bool)"
					},
					"t_uint256": {
						"encoding": "inplace",
						"label": "uint256",
						"numberOfBytes": "32"
					}
				}
			},
			"userdoc": {
				"kind": "user",
				"methods": {},
				"version": 1
			}
		}
	}
}