{
	"data": {
		"bytecode": {
			"linkReferences": {},
			"object": "60806040525f600660146101000a81548160ff0219169083600381111561002957610028610246565b5b02179055505f60075534801561003d575f5ffd5b50604051614bc0380380614bc0833981810160405281019061005f91906103c0565b336040518060400160405280600781526020017f55464f4e414453000000000000000000000000000000000000000000000000008152506040518060400160405280600381526020017f55464f0000000000000000000000000000000000000000000000000000000000815250815f90816100da9190610617565b5080600190816100ea9190610617565b5050505f73ffffffffffffffffffffffffffffffffffffffff168173ffffffffffffffffffffffffffffffffffffffff160361015d575f6040517f1e4fbdf70000000000000000000000000000000000000000000000000000000081526004016101549190610725565b60405180910390fd5b61016c8161018360201b60201c565b50806009908161017c9190610617565b505061073e565b5f60065f9054906101000a900473ffffffffffffffffffffffffffffffffffffffff1690508160065f6101000a81548173ffffffffffffffffffffffffffffffffffffffff021916908373ffffffffffffffffffffffffffffffffffffffff1602179055508173ffffffffffffffffffffffffffffffffffffffff168173ffffffffffffffffffffffffffffffffffffffff167f8be0079c531659141344cd1fd0a4f28419497f9722a3daafe3b4186f6b6457e060405160405180910390a35050565b7f4e487b71000000000000000000000000000000000000000000000000000000005f52602160045260245ffd5b5f604051905090565b5f5ffd5b5f5ffd5b5f5ffd5b5f5ffd5b5f601f19601f8301169050919050565b7f4e487b71000000000000000000000000000000000000000000000000000000005f52604160045260245ffd5b6102d28261028c565b810181811067ffffffffffffffff821117156102f1576102f061029c565b5b80604052505050565b5f610303610273565b905061030f82826102c9565b919050565b5f67ffffffffffffffff82111561032e5761032d61029c565b5b6103378261028c565b9050602081019050919050565b8281835e5f83830152505050565b5f61036461035f84610314565b6102fa565b9050828152602081018484840111156103805761037f610288565b5b61038b848285610344565b509392505050565b5f82601f8301126103a7576103a6610284565b5b81516103b7848260208601610352565b91505092915050565b5f602082840312156103d5576103d461027c565b5b5f82015167ffffffffffffffff8111156103f2576103f1610280565b5b6103fe84828501610393565b91505092915050565b5f81519050919050565b7f4e487b71000000000000000000000000000000000000000000000000000000005f52602260045260245ffd5b5f600282049050600182168061045557607f821691505b60208210810361046857610467610411565b5b50919050565b5f819050815f5260205f209050919050565b5f6020601f8301049050919050565b5f82821b905092915050565b5f600883026104ca7fffffffffffffffffffffffffffffffffffffffffffffffffffffffffffffffff8261048f565b6104d4868361048f565b95508019841693508086168417925050509392505050565b5f819050919050565b5f819050919050565b5f61051861051361050e846104ec565b6104f5565b6104ec565b9050919050565b5f819050919050565b610531836104fe565b61054561053d8261051f565b84845461049b565b825550505050565b5f5f905090565b61055c61054d565b610567818484610528565b505050565b5b8181101561058a5761057f5f82610554565b60018101905061056d565b5050565b601f8211156105cf576105a08161046e565b6105a984610480565b810160208510156105b8578190505b6105cc6105c485610480565b83018261056c565b50505b505050565b5f82821c905092915050565b5f6105ef5f19846008026105d4565b1980831691505092915050565b5f61060783836105e0565b9150826002028217905092915050565b61062082610407565b67ffffffffffffffff8111156106395761063861029c565b5b610643825461043e565b61064e82828561058e565b5f60209050601f83116001811461067f575f841561066d578287015190505b61067785826105fc565b8655506106de565b601f19841661068d8661046e565b5f5b828110156106b45784890151825560018201915060208501945060208101905061068f565b868310156106d157848901516106cd601f8916826105e0565b8355505b6001600288020188555050505b505050505050565b5f73ffffffffffffffffffffffffffffffffffffffff82169050919050565b5f61070f826106e6565b9050919050565b61071f81610705565b82525050565b5f6020820190506107385f830184610716565b92915050565b6144758061074b5f395ff3fe608060405260043610610245575f3560e01c80638da5cb5b11610138578063b88d4fde116100b5578063d7ba706b11610079578063d7ba706b14610886578063e985e9c5146108ae578063f1bb4728146108ea578063f2fde38b14610914578063fa120dd41461093c578063fbb340891461096457610245565b8063b88d4fde146107a6578063c002d23d146107ce578063c03afb59146107f8578063c87b56dd14610820578063d547cfb71461085c57610245565b8063a22cb465116100fc578063a22cb465146106c4578063a2309ff8146106ec578063a3a40ea514610716578063a67d9c5e14610740578063a74736b21461076a57610245565b80638da5cb5b146105f057806391b7f5ed1461061a57806395d89b411461064257806397d6696b1461066c578063a0712d68146106a857610245565b80633af32abf116101c65780636352211e1161018a5780636352211e146104fc57806370a0823114610538578063715018a61461057457806375794a3c1461058a5780637fa803c3146105b457610245565b80633af32abf1461042f5780633ccfd60b1461046c57806342842e0e14610482578063541399d7146104aa57806355f804b3146104d457610245565b8063125eeafd1161020d578063125eeafd1461033d5780631baf89ac1461037957806323b872dd146103a157806332cb6b0c146103c95780633a602b4d146103f357610245565b806301ffc9a714610249578063055ad42e1461028557806306fdde03146102af578063081812fc146102d9578063095ea7b314610315575b5f5ffd5b348015610254575f5ffd5b5061026f600480360381019061026a9190612fee565b61098c565b60405161027c9190613033565b60405180910390f35b348015610290575f5ffd5b50610299610a6d565b6040516102a691906130bf565b60405180910390f35b3480156102ba575f5ffd5b506102c3610a80565b6040516102d09190613148565b60405180910390f35b3480156102e4575f5ffd5b506102ff60048036038101906102fa919061319b565b610b0f565b60405161030c9190613205565b60405180910390f35b348015610320575f5ffd5b5061033b60048036038101906103369190613248565b610b2a565b005b348015610348575f5ffd5b50610363600480360381019061035e9190613286565b610b40565b6040516103709190613033565b60405180910390f35b348015610384575f5ffd5b5061039f600480360381019061039a9190613286565b610b5d565b005b3480156103ac575f5ffd5b506103c760048036038101906103c291906132b1565b610bbc565b005b3480156103d4575f5ffd5b506103dd610cbb565b6040516103ea9190613310565b60405180910390f35b3480156103fe575f5ffd5b5061041960048036038101906104149190613286565b610cc0565b6040516104269190613310565b60405180910390f35b34801561043a575f5ffd5b5061045560048036038101906104509190613286565b610cd5565b604051610463929190613329565b60405180910390f35b348015610477575f5ffd5b50610480610d74565b005b34801561048d575f5ffd5b506104a860048036038101906104a391906132b1565b610e75565b005b3480156104b5575f5ffd5b506104be610e94565b6040516104cb9190613310565b60405180910390f35b3480156104df575f5ffd5b506104fa60048036038101906104f5919061347c565b610e99565b005b348015610507575f5ffd5b50610522600480360381019061051d919061319b565b610eb4565b60405161052f9190613205565b60405180910390f35b348015610543575f5ffd5b5061055e60048036038101906105599190613286565b610ec5565b60405161056b9190613310565b60405180910390f35b34801561057f575f5ffd5b50610588610f7b565b005b348015610595575f5ffd5b5061059e610f8e565b6040516105ab9190613310565b60405180910390f35b3480156105bf575f5ffd5b506105da60048036038101906105d59190613286565b610f94565b6040516105e79190613310565b60405180910390f35b3480156105fb575f5ffd5b506106046111e7565b6040516106119190613205565b60405180910390f35b348015610625575f5ffd5b50610640600480360381019061063b919061319b565b61120f565b005b34801561064d575f5ffd5b50610656611221565b6040516106639190613148565b60405180910390f35b348015610677575f5ffd5b50610692600480360381019061068d9190613286565b6112b1565b60405161069f9190613310565b60405180910390f35b6106c260048036038101906106bd919061319b565b6112f7565b005b3480156106cf575f5ffd5b506106ea60048036038101906106e591906134ed565b611905565b005b3480156106f7575f5ffd5b5061070061191b565b60405161070d9190613310565b60405180910390f35b348015610721575f5ffd5b5061072a611924565b6040516107379190613148565b60405180910390f35b34801561074b575f5ffd5b50610754611b40565b6040516107619190613310565b60405180910390f35b348015610775575f5ffd5b50610790600480360381019061078b9190613286565b611b45565b60405161079d9190613033565b60405180910390f35b3480156107b1575f5ffd5b506107cc60048036038101906107c791906135c9565b611b62565b005b3480156107d9575f5ffd5b506107e2611b87565b6040516107ef9190613310565b60405180910390f35b348015610803575f5ffd5b5061081e6004803603810190610819919061366c565b611b8d565b005b34801561082b575f5ffd5b506108466004803603810190610841919061319b565b611d1b565b6040516108539190613148565b60405180910390f35b348015610867575f5ffd5b50610870611dc5565b60405161087d9190613148565b60405180910390f35b348015610891575f5ffd5b506108ac60048036038101906108a791906136f4565b611e51565b005b3480156108b9575f5ffd5b506108d460048036038101906108cf919061373f565b611ef8565b6040516108e19190613033565b60405180910390f35b3480156108f5575f5ffd5b506108fe611f86565b60405161090b9190613310565b60405180910390f35b34801561091f575f5ffd5b5061093a60048036038101906109359190613286565b611f8b565b005b348015610947575f5ffd5b50610962600480360381019061095d9190613286565b61200f565b005b34801561096f575f5ffd5b5061098a600480360381019061098591906136f4565b61206e565b005b5f7f80ac58cd000000000000000000000000000000000000000000000000000000007bffffffffffffffffffffffffffffffffffffffffffffffffffffffff1916827bffffffffffffffffffffffffffffffffffffffffffffffffffffffff19161480610a5657507f5b5e139f000000000000000000000000000000000000000000000000000000007bffffffffffffffffffffffffffffffffffffffffffffffffffffffff1916827bffffffffffffffffffffffffffffffffffffffffffffffffffffffff1916145b80610a665750610a6582612114565b5b9050919050565b600660149054906101000a900460ff1681565b60605f8054610a8e906137aa565b80601f0160208091040260200160405190810160405280929190818152602001828054610aba906137aa565b8015610b055780601f10610adc57610100808354040283529160200191610b05565b820191905f5260205f20905b815481529060010190602001808311610ae857829003601f168201915b5050505050905090565b5f610b198261217d565b50610b2382612203565b9050919050565b610b3c8282610b3761223c565b612243565b5050565b600b602052805f5260405f205f915054906101000a900460ff1681565b610b65612255565b5f600a5f8373ffffffffffffffffffffffffffffffffffffffff1673ffffffffffffffffffffffffffffffffffffffff1681526020019081526020015f205f6101000a81548160ff02191690831515021790555050565b5f73ffffffffffffffffffffffffffffffffffffffff168273ffffffffffffffffffffffffffffffffffffffff1603610c2c575f6040517f64a0ae92000000000000000000000000000000000000000000000000000000008152600401610c239190613205565b60405180910390fd5b5f610c3f8383610c3a61223c565b6122dc565b90508373ffffffffffffffffffffffffffffffffffffffff168173ffffffffffffffffffffffffffffffffffffffff1614610cb5578382826040517f64283d7b000000000000000000000000000000000000000000000000000000008152600401610cac939291906137da565b60405180910390fd5b50505050565b600a81565b600c602052805f5260405f205f915090505481565b5f5f600a5f8473ffffffffffffffffffffffffffffffffffffffff1673ffffffffffffffffffffffffffffffffffffffff1681526020019081526020015f205f9054906101000a900460ff16600b5f8573ffffffffffffffffffffffffffffffffffffffff1673ffffffffffffffffffffffffffffffffffffffff1681526020019081526020015f205f9054906101000a900460ff1691509150915091565b610d7c612255565b5f4790505f8111610dc2576040517f08c379a0000000000000000000000000000000000000000000000000000000008152600401610db990613859565b60405180910390fd5b5f610dcb6111e7565b73ffffffffffffffffffffffffffffffffffffffff1682604051610dee906138a4565b5f6040518083038185875af1925050503d805f8114610e28576040519150601f19603f3d011682016040523d82523d5f602084013e610e2d565b606091505b5050905080610e71576040517f08c379a0000000000000000000000000000000000000000000000000000000008152600401610e6890613902565b60405180910390fd5b5050565b610e8f83838360405180602001604052805f815250611b62565b505050565b600281565b610ea1612255565b8060099081610eb09190613ac0565b5050565b5f610ebe8261217d565b9050919050565b5f5f73ffffffffffffffffffffffffffffffffffffffff168273ffffffffffffffffffffffffffffffffffffffff1603610f36575f6040517f89c62b64000000000000000000000000000000000000000000000000000000008152600401610f2d9190613205565b60405180910390fd5b60035f8373ffffffffffffffffffffffffffffffffffffffff1673ffffffffffffffffffffffffffffffffffffffff1681526020019081526020015f20549050919050565b610f83612255565b610f8c5f6124e7565b565b60085481565b5f60016003811115610fa957610fa861304c565b5b600660149054906101000a900460ff166003811115610fcb57610fca61304c565b5b14801561101e5750600a5f8373ffffffffffffffffffffffffffffffffffffffff1673ffffffffffffffffffffffffffffffffffffffff1681526020019081526020015f205f9054906101000a900460ff165b1561107457600c5f8373ffffffffffffffffffffffffffffffffffffffff1673ffffffffffffffffffffffffffffffffffffffff1681526020019081526020015f2054600261106d9190613bbc565b90506111e2565b600260038111156110885761108761304c565b5b600660149054906101000a900460ff1660038111156110aa576110a961304c565b5b1480156110fd5750600b5f8373ffffffffffffffffffffffffffffffffffffffff1673ffffffffffffffffffffffffffffffffffffffff1681526020019081526020015f205f9054906101000a900460ff165b1561115357600c5f8373ffffffffffffffffffffffffffffffffffffffff1673ffffffffffffffffffffffffffffffffffffffff1681526020019081526020015f2054600161114c9190613bbc565b90506111e2565b6003808111156111665761116561304c565b5b600660149054906101000a900460ff1660038111156111885761118761304c565b5b036111de57600c5f8373ffffffffffffffffffffffffffffffffffffffff1673ffffffffffffffffffffffffffffffffffffffff1681526020019081526020015f205460056111d79190613bbc565b90506111e2565b5f90505b919050565b5f60065f9054906101000a900473ffffffffffffffffffffffffffffffffffffffff16905090565b611217612255565b8060078190555050565b606060018054611230906137aa565b80601f016020809104026020016040519081016040528092919081815260200182805461125c906137aa565b80156112a75780601f1061127e576101008083540402835291602001916112a7565b820191905f5260205f20905b81548152906001019060200180831161128a57829003601f168201915b5050505050905090565b5f600c5f8373ffffffffffffffffffffffffffffffffffffffff1673ffffffffffffffffffffffffffffffffffffffff1681526020019081526020015f20549050919050565b5f61130133610ec5565b1115611342576040517f08c379a000000000000000000000000000000000000000000000000000000000815260040161133990613c39565b60405180910390fd5b5f8111611384576040517f08c379a000000000000000000000000000000000000000000000000000000000815260040161137b90613ca1565b60405180910390fd5b600281106113c7576040517f08c379a00000000000000000000000000000000000000000000000000000000081526004016113be90613d09565b60405180910390fd5b600a816008546113d79190613d27565b1115611418576040517f08c379a000000000000000000000000000000000000000000000000000000000815260040161140f90613da4565b60405180910390fd5b806007546114269190613dc2565b341015611468576040517f08c379a000000000000000000000000000000000000000000000000000000000815260040161145f90613e4d565b60405180910390fd5b6001600381111561147c5761147b61304c565b5b600660149054906101000a900460ff16600381111561149e5761149d61304c565b5b036115bd57600a5f3373ffffffffffffffffffffffffffffffffffffffff1673ffffffffffffffffffffffffffffffffffffffff1681526020019081526020015f205f9054906101000a900460ff1661152c576040517f08c379a000000000000000000000000000000000000000000000000000000000815260040161152390613eb5565b60405180910390fd5b600281600c5f3373ffffffffffffffffffffffffffffffffffffffff1673ffffffffffffffffffffffffffffffffffffffff1681526020019081526020015f20546115779190613d27565b11156115b8576040517f08c379a00000000000000000000000000000000000000000000000000000000081526004016115af90613f1d565b60405180910390fd5b61181a565b600260038111156115d1576115d061304c565b5b600660149054906101000a900460ff1660038111156115f3576115f261304c565b5b0361171257600b5f3373ffffffffffffffffffffffffffffffffffffffff1673ffffffffffffffffffffffffffffffffffffffff1681526020019081526020015f205f9054906101000a900460ff16611681576040517f08c379a000000000000000000000000000000000000000000000000000000000815260040161167890613f85565b60405180910390fd5b600181600c5f3373ffffffffffffffffffffffffffffffffffffffff1673ffffffffffffffffffffffffffffffffffffffff1681526020019081526020015f20546116cc9190613d27565b111561170d576040517f08c379a000000000000000000000000000000000000000000000000000000000815260040161170490613fed565b60405180910390fd5b611819565b6003808111156117255761172461304c565b5b600660149054906101000a900460ff1660038111156117475761174661304c565b5b036117dd57600581600c5f3373ffffffffffffffffffffffffffffffffffffffff1673ffffffffffffffffffffffffffffffffffffffff1681526020019081526020015f20546117979190613d27565b11156117d8576040517f08c379a00000000000000000000000000000000000000000000000000000000081526004016117cf90614055565b60405180910390fd5b611818565b6040517f08c379a000000000000000000000000000000000000000000000000000000000815260040161180f906140bd565b60405180910390fd5b5b5b5f60085490505f5f90505b8281101561185d57611839336008546125aa565b60085f81548092919061184b906140db565b91905055508080600101915050611825565b5081600c5f3373ffffffffffffffffffffffffffffffffffffffff1673ffffffffffffffffffffffffffffffffffffffff1681526020019081526020015f205f8282546118aa9190613d27565b925050819055503373ffffffffffffffffffffffffffffffffffffffff167f25b428dfde728ccfaddad7e29e4ac23c24ed7fd1a6e3e3f91894a9a073f5dfff83836040516118f9929190614122565b60405180910390a25050565b61191761191061223c565b83836125c7565b5050565b5f600854905090565b60605f60038111156119395761193861304c565b5b600660149054906101000a900460ff16600381111561195b5761195a61304c565b5b0361199d576040518060400160405280600b81526020017f4e6f7420537461727465640000000000000000000000000000000000000000008152509050611b3d565b600160038111156119b1576119b061304c565b5b600660149054906101000a900460ff1660038111156119d3576119d261304c565b5b03611a15576040518060400160405280600d81526020017f4754442057686974656c697374000000000000000000000000000000000000008152509050611b3d565b60026003811115611a2957611a2861304c565b5b600660149054906101000a900460ff166003811115611a4b57611a4a61304c565b5b03611a8d576040518060400160405280600e81526020017f464346532057686974656c6973740000000000000000000000000000000000008152509050611b3d565b600380811115611aa057611a9f61304c565b5b600660149054906101000a900460ff166003811115611ac257611ac161304c565b5b03611b04576040518060400160405280600b81526020017f5075626c6963204d696e740000000000000000000000000000000000000000008152509050611b3d565b6040518060400160405280600781526020017f556e6b6e6f776e0000000000000000000000000000000000000000000000000081525090505b90565b600581565b600a602052805f5260405f205f915054906101000a900460ff1681565b611b6d848484610bbc565b611b81611b7861223c565b85858585612730565b50505050565b60075481565b611b95612255565b80600660146101000a81548160ff02191690836003811115611bba57611bb961304c565b5b02179055505f6003811115611bd257611bd161304c565b5b600660149054906101000a900460ff166003811115611bf457611bf361304c565b5b03611c01575f6007819055505b60016003811115611c1557611c1461304c565b5b600660149054906101000a900460ff166003811115611c3757611c3661304c565b5b03611c4c576702c68af0bb1400006007819055505b60026003811115611c6057611c5f61304c565b5b600660149054906101000a900460ff166003811115611c8257611c8161304c565b5b03611c97576706f05b59d3b200006007819055505b600380811115611caa57611ca961304c565b5b600660149054906101000a900460ff166003811115611ccc57611ccb61304c565b5b03611ce157670de0b6b3a76400006007819055505b7fa6dcc92f45df25789d5639b7a0c97ba1edf3bb1c0b5dd3376fd96a0db87c464281604051611d1091906130bf565b60405180910390a150565b60605f73ffffffffffffffffffffffffffffffffffffffff16611d3d83610eb4565b73ffffffffffffffffffffffffffffffffffffffff1603611d93576040517f08c379a0000000000000000000000000000000000000000000000000000000008152600401611d8a90614193565b60405180910390fd5b6009611d9e836128dc565b604051602001611daf9291906142b5565b6040516020818303038152906040529050919050565b60098054611dd2906137aa565b80601f0160208091040260200160405190810160405280929190818152602001828054611dfe906137aa565b8015611e495780601f10611e2057610100808354040283529160200191611e49565b820191905f5260205f20905b815481529060010190602001808311611e2c57829003601f168201915b505050505081565b611e59612255565b5f600190505b82829050811015611ef3576001600a5f858585818110611e8257611e816142e3565b5b9050602002016020810190611e979190613286565b73ffffffffffffffffffffffffffffffffffffffff1673ffffffffffffffffffffffffffffffffffffffff1681526020019081526020015f205f6101000a81548160ff0219169083151502179055508080600101915050611e5f565b505050565b5f60055f8473ffffffffffffffffffffffffffffffffffffffff1673ffffffffffffffffffffffffffffffffffffffff1681526020019081526020015f205f8373ffffffffffffffffffffffffffffffffffffffff1673ffffffffffffffffffffffffffffffffffffffff1681526020019081526020015f205f9054906101000a900460ff16905092915050565b600181565b611f93612255565b5f73ffffffffffffffffffffffffffffffffffffffff168173ffffffffffffffffffffffffffffffffffffffff1603612003575f6040517f1e4fbdf7000000000000000000000000000000000000000000000000000000008152600401611ffa9190613205565b60405180910390fd5b61200c816124e7565b50565b612017612255565b5f600b5f8373ffffffffffffffffffffffffffffffffffffffff1673ffffffffffffffffffffffffffffffffffffffff1681526020019081526020015f205f6101000a81548160ff02191690831515021790555050565b612076612255565b5f5f90505b8282905081101561210f576001600b5f85858581811061209e5761209d6142e3565b5b90506020020160208101906120b39190613286565b73ffffffffffffffffffffffffffffffffffffffff1673ffffffffffffffffffffffffffffffffffffffff1681526020019081526020015f205f6101000a81548160ff021916908315150217905550808060010191505061207b565b505050565b5f7f01ffc9a7000000000000000000000000000000000000000000000000000000007bffffffffffffffffffffffffffffffffffffffffffffffffffffffff1916827bffffffffffffffffffffffffffffffffffffffffffffffffffffffff1916149050919050565b5f5f612188836129a6565b90505f73ffffffffffffffffffffffffffffffffffffffff168173ffffffffffffffffffffffffffffffffffffffff16036121fa57826040517f7e2732890000000000000000000000000000000000000000000000000000000081526004016121f19190613310565b60405180910390fd5b80915050919050565b5f60045f8381526020019081526020015f205f9054906101000a900473ffffffffffffffffffffffffffffffffffffffff169050919050565b5f33905090565b61225083838360016129df565b505050565b61225d61223c565b73ffffffffffffffffffffffffffffffffffffffff1661227b6111e7565b73ffffffffffffffffffffffffffffffffffffffff16146122da5761229e61223c565b6040517f118cdaa70000000000000000000000000000000000000000000000000000000081526004016122d19190613205565b60405180910390fd5b565b5f5f6122e7846129a6565b90505f73ffffffffffffffffffffffffffffffffffffffff168373ffffffffffffffffffffffffffffffffffffffff161461232857612327818486612b9e565b5b5f73ffffffffffffffffffffffffffffffffffffffff168173ffffffffffffffffffffffffffffffffffffffff16146123b3576123675f855f5f6129df565b600160035f8373ffffffffffffffffffffffffffffffffffffffff1673ffffffffffffffffffffffffffffffffffffffff1681526020019081526020015f205f82825403925050819055505b5f73ffffffffffffffffffffffffffffffffffffffff168573ffffffffffffffffffffffffffffffffffffffff161461243257600160035f8773ffffffffffffffffffffffffffffffffffffffff1673ffffffffffffffffffffffffffffffffffffffff1681526020019081526020015f205f82825401925050819055505b8460025f8681526020019081526020015f205f6101000a81548173ffffffffffffffffffffffffffffffffffffffff021916908373ffffffffffffffffffffffffffffffffffffffff160217905550838573ffffffffffffffffffffffffffffffffffffffff168273ffffffffffffffffffffffffffffffffffffffff167fddf252ad1be2c89b69c2b068fc378daa952ba7f163c4a11628f55a4df523b3ef60405160405180910390a4809150509392505050565b5f60065f9054906101000a900473ffffffffffffffffffffffffffffffffffffffff1690508160065f6101000a81548173ffffffffffffffffffffffffffffffffffffffff021916908373ffffffffffffffffffffffffffffffffffffffff1602179055508173ffffffffffffffffffffffffffffffffffffffff168173ffffffffffffffffffffffffffffffffffffffff167f8be0079c531659141344cd1fd0a4f28419497f9722a3daafe3b4186f6b6457e060405160405180910390a35050565b6125c3828260405180602001604052805f815250612c61565b5050565b5f73ffffffffffffffffffffffffffffffffffffffff168273ffffffffffffffffffffffffffffffffffffffff160361263757816040517f5b08ba1800000000000000000000000000000000000000000000000000000000815260040161262e9190613205565b60405180910390fd5b8060055f8573ffffffffffffffffffffffffffffffffffffffff1673ffffffffffffffffffffffffffffffffffffffff1681526020019081526020015f205f8473ffffffffffffffffffffffffffffffffffffffff1673ffffffffffffffffffffffffffffffffffffffff1681526020019081526020015f205f6101000a81548160ff0219169083151502179055508173ffffffffffffffffffffffffffffffffffffffff168373ffffffffffffffffffffffffffffffffffffffff167f17307eab39ab6107e8899845ad3d59bd9653f200f220920489ca2b5937696c31836040516127239190613033565b60405180910390a3505050565b5f8373ffffffffffffffffffffffffffffffffffffffff163b11156128d5578273ffffffffffffffffffffffffffffffffffffffff1663150b7a02868685856040518563ffffffff1660e01b815260040161278e9493929190614362565b6020604051808303815f875af19250505080156127c957506040513d601f19601f820116820180604052508101906127c691906143c0565b60015b61284a573d805f81146127f7576040519150601f19603f3d011682016040523d82523d5f602084013e6127fc565b606091505b505f81510361284257836040517f64a0ae920000000000000000000000000000000000000000000000000000000081526004016128399190613205565b60405180910390fd5b805160208201fd5b63150b7a0260e01b7bffffffffffffffffffffffffffffffffffffffffffffffffffffffff1916817bffffffffffffffffffffffffffffffffffffffffffffffffffffffff1916146128d357836040517f64a0ae920000000000000000000000000000000000000000000000000000000081526004016128ca9190613205565b60405180910390fd5b505b5050505050565b60605f60016128ea84612c84565b0190505f8167ffffffffffffffff81111561290857612907613358565b5b6040519080825280601f01601f19166020018201604052801561293a5781602001600182028036833780820191505090505b5090505f82602083010190505b60011561299b578080600190039150507f3031323334353637383961626364656600000000000000000000000000000000600a86061a8153600a85816129905761298f6143eb565b5b0494505f8503612947575b819350505050919050565b5f60025f8381526020019081526020015f205f9054906101000a900473ffffffffffffffffffffffffffffffffffffffff169050919050565b8080612a1757505f73ffffffffffffffffffffffffffffffffffffffff168273ffffffffffffffffffffffffffffffffffffffff1614155b15612b49575f612a268461217d565b90505f73ffffffffffffffffffffffffffffffffffffffff168373ffffffffffffffffffffffffffffffffffffffff1614158015612a9057508273ffffffffffffffffffffffffffffffffffffffff168173ffffffffffffffffffffffffffffffffffffffff1614155b8015612aa35750612aa18184611ef8565b155b15612ae557826040517fa9fbf51f000000000000000000000000000000000000000000000000000000008152600401612adc9190613205565b60405180910390fd5b8115612b4757838573ffffffffffffffffffffffffffffffffffffffff168273ffffffffffffffffffffffffffffffffffffffff167f8c5be1e5ebec7d5bd14f71427d1e84f3dd0314c0f7b2291e5b200ac8c7c3b92560405160405180910390a45b505b8360045f8581526020019081526020015f205f6101000a81548173ffffffffffffffffffffffffffffffffffffffff021916908373ffffffffffffffffffffffffffffffffffffffff16021790555050505050565b612ba9838383612dd5565b612c5c575f73ffffffffffffffffffffffffffffffffffffffff168373ffffffffffffffffffffffffffffffffffffffff1603612c1d57806040517f7e273289000000000000000000000000000000000000000000000000000000008152600401612c149190613310565b60405180910390fd5b81816040517f177e802f000000000000000000000000000000000000000000000000000000008152600401612c53929190614418565b60405180910390fd5b505050565b612c6b8383612e95565b612c7f612c7661223c565b5f858585612730565b505050565b5f5f5f90507a184f03e93ff9f4daa797ed6e38ed64bf6a1f0100000000000000008310612ce0577a184f03e93ff9f4daa797ed6e38ed64bf6a1f0100000000000000008381612cd657612cd56143eb565b5b0492506040810190505b6d04ee2d6d415b85acef81000000008310612d1d576d04ee2d6d415b85acef81000000008381612d1357612d126143eb565b5b0492506020810190505b662386f26fc100008310612d4c57662386f26fc100008381612d4257612d416143eb565b5b0492506010810190505b6305f5e1008310612d75576305f5e1008381612d6b57612d6a6143eb565b5b0492506008810190505b6127108310612d9a576127108381612d9057612d8f6143eb565b5b0492506004810190505b60648310612dbd5760648381612db357612db26143eb565b5b0492506002810190505b600a8310612dcc576001810190505b80915050919050565b5f5f73ffffffffffffffffffffffffffffffffffffffff168373ffffffffffffffffffffffffffffffffffffffff1614158015612e8c57508273ffffffffffffffffffffffffffffffffffffffff168473ffffffffffffffffffffffffffffffffffffffff161480612e4d5750612e4c8484611ef8565b5b80612e8b57508273ffffffffffffffffffffffffffffffffffffffff16612e7383612203565b73ffffffffffffffffffffffffffffffffffffffff16145b5b90509392505050565b5f73ffffffffffffffffffffffffffffffffffffffff168273ffffffffffffffffffffffffffffffffffffffff1603612f05575f6040517f64a0ae92000000000000000000000000000000000000000000000000000000008152600401612efc9190613205565b60405180910390fd5b5f612f1183835f6122dc565b90505f73ffffffffffffffffffffffffffffffffffffffff168173ffffffffffffffffffffffffffffffffffffffff1614612f83575f6040517f73c6ac6e000000000000000000000000000000000000000000000000000000008152600401612f7a9190613205565b60405180910390fd5b505050565b5f604051905090565b5f5ffd5b5f5ffd5b5f7fffffffff0000000000000000000000000000000000000000000000000000000082169050919050565b612fcd81612f99565b8114612fd7575f5ffd5b50565b5f81359050612fe881612fc4565b92915050565b5f6020828403121561300357613002612f91565b5b5f61301084828501612fda565b91505092915050565b5f8115159050919050565b61302d81613019565b82525050565b5f6020820190506130465f830184613024565b92915050565b7f4e487b71000000000000000000000000000000000000000000000000000000005f52602160045260245ffd5b6004811061308a5761308961304c565b5b50565b5f81905061309a82613079565b919050565b5f6130a98261308d565b9050919050565b6130b98161309f565b82525050565b5f6020820190506130d25f8301846130b0565b92915050565b5f81519050919050565b5f82825260208201905092915050565b8281835e5f83830152505050565b5f601f19601f8301169050919050565b5f61311a826130d8565b61312481856130e2565b93506131348185602086016130f2565b61313d81613100565b840191505092915050565b5f6020820190508181035f8301526131608184613110565b905092915050565b5f819050919050565b61317a81613168565b8114613184575f5ffd5b50565b5f8135905061319581613171565b92915050565b5f602082840312156131b0576131af612f91565b5b5f6131bd84828501613187565b91505092915050565b5f73ffffffffffffffffffffffffffffffffffffffff82169050919050565b5f6131ef826131c6565b9050919050565b6131ff816131e5565b82525050565b5f6020820190506132185f8301846131f6565b92915050565b613227816131e5565b8114613231575f5ffd5b50565b5f813590506132428161321e565b92915050565b5f5f6040838503121561325e5761325d612f91565b5b5f61326b85828601613234565b925050602061327c85828601613187565b9150509250929050565b5f6020828403121561329b5761329a612f91565b5b5f6132a884828501613234565b91505092915050565b5f5f5f606084860312156132c8576132c7612f91565b5b5f6132d586828701613234565b93505060206132e686828701613234565b92505060406132f786828701613187565b9150509250925092565b61330a81613168565b82525050565b5f6020820190506133235f830184613301565b92915050565b5f60408201905061333c5f830185613024565b6133496020830184613024565b9392505050565b5f5ffd5b5f5ffd5b7f4e487b71000000000000000000000000000000000000000000000000000000005f52604160045260245ffd5b61338e82613100565b810181811067ffffffffffffffff821117156133ad576133ac613358565b5b80604052505050565b5f6133bf612f88565b90506133cb8282613385565b919050565b5f67ffffffffffffffff8211156133ea576133e9613358565b5b6133f382613100565b9050602081019050919050565b828183375f83830152505050565b5f61342061341b846133d0565b6133b6565b90508281526020810184848401111561343c5761343b613354565b5b613447848285613400565b509392505050565b5f82601f83011261346357613462613350565b5b813561347384826020860161340e565b91505092915050565b5f6020828403121561349157613490612f91565b5b5f82013567ffffffffffffffff8111156134ae576134ad612f95565b5b6134ba8482850161344f565b91505092915050565b6134cc81613019565b81146134d6575f5ffd5b50565b5f813590506134e7816134c3565b92915050565b5f5f6040838503121561350357613502612f91565b5b5f61351085828601613234565b9250506020613521858286016134d9565b9150509250929050565b5f67ffffffffffffffff82111561354557613544613358565b5b61354e82613100565b9050602081019050919050565b5f61356d6135688461352b565b6133b6565b90508281526020810184848401111561358957613588613354565b5b613594848285613400565b509392505050565b5f82601f8301126135b0576135af613350565b5b81356135c084826020860161355b565b91505092915050565b5f5f5f5f608085870312156135e1576135e0612f91565b5b5f6135ee87828801613234565b94505060206135ff87828801613234565b935050604061361087828801613187565b925050606085013567ffffffffffffffff81111561363157613630612f95565b5b61363d8782880161359c565b91505092959194509250565b60048110613655575f5ffd5b50565b5f8135905061366681613649565b92915050565b5f6020828403121561368157613680612f91565b5b5f61368e84828501613658565b91505092915050565b5f5ffd5b5f5ffd5b5f5f83601f8401126136b4576136b3613350565b5b8235905067ffffffffffffffff8111156136d1576136d0613697565b5b6020830191508360208202830111156136ed576136ec61369b565b5b9250929050565b5f5f6020838503121561370a57613709612f91565b5b5f83013567ffffffffffffffff81111561372757613726612f95565b5b6137338582860161369f565b92509250509250929050565b5f5f6040838503121561375557613754612f91565b5b5f61376285828601613234565b925050602061377385828601613234565b9150509250929050565b7f4e487b71000000000000000000000000000000000000000000000000000000005f52602260045260245ffd5b5f60028204905060018216806137c157607f821691505b6020821081036137d4576137d361377d565b5b50919050565b5f6060820190506137ed5f8301866131f6565b6137fa6020830185613301565b61380760408301846131f6565b949350505050565b7f4e6f2066756e647320746f2077697468647261770000000000000000000000005f82015250565b5f6138436014836130e2565b915061384e8261380f565b602082019050919050565b5f6020820190508181035f83015261387081613837565b9050919050565b5f81905092915050565b50565b5f61388f5f83613877565b915061389a82613881565b5f82019050919050565b5f6138ae82613884565b9150819050919050565b7f5769746864726177616c206661696c65640000000000000000000000000000005f82015250565b5f6138ec6011836130e2565b91506138f7826138b8565b602082019050919050565b5f6020820190508181035f830152613919816138e0565b9050919050565b5f819050815f5260205f209050919050565b5f6020601f8301049050919050565b5f82821b905092915050565b5f6008830261397c7fffffffffffffffffffffffffffffffffffffffffffffffffffffffffffffffff82613941565b6139868683613941565b95508019841693508086168417925050509392505050565b5f819050919050565b5f6139c16139bc6139b784613168565b61399e565b613168565b9050919050565b5f819050919050565b6139da836139a7565b6139ee6139e6826139c8565b84845461394d565b825550505050565b5f5f905090565b613a056139f6565b613a108184846139d1565b505050565b5b81811015613a3357613a285f826139fd565b600181019050613a16565b5050565b601f821115613a7857613a4981613920565b613a5284613932565b81016020851015613a61578190505b613a75613a6d85613932565b830182613a15565b50505b505050565b5f82821c905092915050565b5f613a985f1984600802613a7d565b1980831691505092915050565b5f613ab08383613a89565b9150826002028217905092915050565b613ac9826130d8565b67ffffffffffffffff811115613ae257613ae1613358565b5b613aec82546137aa565b613af7828285613a37565b5f60209050601f831160018114613b28575f8415613b16578287015190505b613b208582613aa5565b865550613b87565b601f198416613b3686613920565b5f5b82811015613b5d57848901518255600182019150602085019450602081019050613b38565b86831015613b7a5784890151613b76601f891682613a89565b8355505b6001600288020188555050505b505050505050565b7f4e487b71000000000000000000000000000000000000000000000000000000005f52601160045260245ffd5b5f613bc682613168565b9150613bd183613168565b9250828203905081811115613be957613be8613b8f565b5b92915050565b7f6f6e65206d696e74207065722077616c6c6574000000000000000000000000005f82015250565b5f613c236013836130e2565b9150613c2e82613bef565b602082019050919050565b5f6020820190508181035f830152613c5081613c17565b9050919050565b7f4d757374206d696e74206174206c6561737420310000000000000000000000005f82015250565b5f613c8b6014836130e2565b9150613c9682613c57565b602082019050919050565b5f6020820190508181035f830152613cb881613c7f565b9050919050565b7f4f6e6520706572207573657200000000000000000000000000000000000000005f82015250565b5f613cf3600c836130e2565b9150613cfe82613cbf565b602082019050919050565b5f6020820190508181035f830152613d2081613ce7565b9050919050565b5f613d3182613168565b9150613d3c83613168565b9250828201905080821115613d5457613d53613b8f565b5b92915050565b7f4d617820737570706c79207265616368656400000000000000000000000000005f82015250565b5f613d8e6012836130e2565b9150613d9982613d5a565b602082019050919050565b5f6020820190508181035f830152613dbb81613d82565b9050919050565b5f613dcc82613168565b9150613dd783613168565b9250828202613de581613168565b91508282048414831517613dfc57613dfb613b8f565b5b5092915050565b7f496e73756666696369656e74207061796d656e740000000000000000000000005f82015250565b5f613e376014836130e2565b9150613e4282613e03565b602082019050919050565b5f6020820190508181035f830152613e6481613e2b565b9050919050565b7f4e6f74206f6e204754442077686974656c6973740000000000000000000000005f82015250565b5f613e9f6014836130e2565b9150613eaa82613e6b565b602082019050919050565b5f6020820190508181035f830152613ecc81613e93565b9050919050565b7f4578636565647320475444206c696d69740000000000000000000000000000005f82015250565b5f613f076011836130e2565b9150613f1282613ed3565b602082019050919050565b5f6020820190508181035f830152613f3481613efb565b9050919050565b7f4e6f74206f6e20464346532077686974656c69737400000000000000000000005f82015250565b5f613f6f6015836130e2565b9150613f7a82613f3b565b602082019050919050565b5f6020820190508181035f830152613f9c81613f63565b9050919050565b7f457863656564732046434653206c696d697400000000000000000000000000005f82015250565b5f613fd76012836130e2565b9150613fe282613fa3565b602082019050919050565b5f6020820190508181035f83015261400481613fcb565b9050919050565b7f45786365656473207075626c6963206c696d69740000000000000000000000005f82015250565b5f61403f6014836130e2565b915061404a8261400b565b602082019050919050565b5f6020820190508181035f83015261406c81614033565b9050919050565b7f4d696e74696e67206e6f742061637469766500000000000000000000000000005f82015250565b5f6140a76012836130e2565b91506140b282614073565b602082019050919050565b5f6020820190508181035f8301526140d48161409b565b9050919050565b5f6140e582613168565b91507fffffffffffffffffffffffffffffffffffffffffffffffffffffffffffffffff820361411757614116613b8f565b5b600182019050919050565b5f6040820190506141355f830185613301565b6141426020830184613301565b9392505050565b7f546f6b656e20646f6573206e6f742065786973740000000000000000000000005f82015250565b5f61417d6014836130e2565b915061418882614149565b602082019050919050565b5f6020820190508181035f8301526141aa81614171565b9050919050565b5f81905092915050565b5f81546141c7816137aa565b6141d181866141b1565b9450600182165f81146141eb576001811461420057614232565b60ff1983168652811515820286019350614232565b61420985613920565b5f5b8381101561422a5781548189015260018201915060208101905061420b565b838801955050505b50505092915050565b5f614245826130d8565b61424f81856141b1565b935061425f8185602086016130f2565b80840191505092915050565b7f2e6a736f6e0000000000000000000000000000000000000000000000000000005f82015250565b5f61429f6005836141b1565b91506142aa8261426b565b600582019050919050565b5f6142c082856141bb565b91506142cc828461423b565b91506142d782614293565b91508190509392505050565b7f4e487b71000000000000000000000000000000000000000000000000000000005f52603260045260245ffd5b5f81519050919050565b5f82825260208201905092915050565b5f61433482614310565b61433e818561431a565b935061434e8185602086016130f2565b61435781613100565b840191505092915050565b5f6080820190506143755f8301876131f6565b61438260208301866131f6565b61438f6040830185613301565b81810360608301526143a1818461432a565b905095945050505050565b5f815190506143ba81612fc4565b92915050565b5f602082840312156143d5576143d4612f91565b5b5f6143e2848285016143ac565b91505092915050565b7f4e487b71000000000000000000000000000000000000000000000000000000005f52601260045260245ffd5b5f60408201905061442b5f8301856131f6565b6144386020830184613301565b939250505056fea2646970667358221220ab87d9b252e2558dccafbd63703ca0c5bf07282212632419986bc583b447ef2b64736f6c634300081e0033",
			"opcodes": "PUSH1 0x80 PUSH1 0x40 MSTORE PUSH0 PUSH1 0x6 PUSH1 0x14 PUSH2 0x100 EXP DUP2 SLOAD DUP2 PUSH1 0xFF MUL NOT AND SWAP1 DUP4 PUSH1 0x3 DUP2 GT ISZERO PUSH2 0x29 JUMPI PUSH2 0x28 PUSH2 0x246 JUMP JUMPDEST JUMPDEST MUL OR SWAP1 SSTORE POP PUSH0 PUSH1 0x7 SSTORE CALLVALUE DUP1 ISZERO PUSH2 0x3D JUMPI PUSH0 PUSH0 REVERT JUMPDEST POP PUSH1 0x40 MLOAD PUSH2 0x4BC0 CODESIZE SUB DUP1 PUSH2 0x4BC0 DUP4 CODECOPY DUP2 DUP2 ADD PUSH1 0x40 MSTORE DUP2 ADD SWAP1 PUSH2 0x5F SWAP2 SWAP1 PUSH2 0x3C0 JUMP JUMPDEST CALLER PUSH1 0x40 MLOAD DUP1 PUSH1 0x40 ADD PUSH1 0x40 MSTORE DUP1 PUSH1 0x7 DUP2 MSTORE PUSH1 0x20 ADD PUSH32 0x55464F4E41445300000000000000000000000000000000000000000000000000 DUP2 MSTORE POP PUSH1 0x40 MLOAD DUP1 PUSH1 0x40 ADD PUSH1 0x40 MSTORE DUP1 PUSH1 0x3 DUP2 MSTORE PUSH1 0x20 ADD PUSH32 0x55464F0000000000000000000000000000000000000000000000000000000000 DUP2 MSTORE POP DUP2 PUSH0 SWAP1 DUP2 PUSH2 0xDA SWAP2 SWAP1 PUSH2 0x617 JUMP JUMPDEST POP DUP1 PUSH1 0x1 SWAP1 DUP2 PUSH2 0xEA SWAP2 SWAP1 PUSH2 0x617 JUMP JUMPDEST POP POP POP PUSH0 PUSH20 0xFFFFFFFFFFFFFFFFFFFFFFFFFFFFFFFFFFFFFFFF AND DUP2 PUSH20 0xFFFFFFFFFFFFFFFFFFFFFFFFFFFFFFFFFFFFFFFF AND SUB PUSH2 0x15D JUMPI PUSH0 PUSH1 0x40 MLOAD PUSH32 0x1E4FBDF700000000000000000000000000000000000000000000000000000000 DUP2 MSTORE PUSH1 0x4 ADD PUSH2 0x154 SWAP2 SWAP1 PUSH2 0x725 JUMP JUMPDEST PUSH1 0x40 MLOAD DUP1 SWAP2 SUB SWAP1 REVERT JUMPDEST PUSH2 0x16C DUP2 PUSH2 0x183 PUSH1 0x20 SHL PUSH1 0x20 SHR JUMP JUMPDEST POP DUP1 PUSH1 0x9 SWAP1 DUP2 PUSH2 0x17C SWAP2 SWAP1 PUSH2 0x617 JUMP JUMPDEST POP POP PUSH2 0x73E JUMP JUMPDEST PUSH0 PUSH1 0x6 PUSH0 SWAP1 SLOAD SWAP1 PUSH2 0x100 EXP SWAP1 DIV PUSH20 0xFFFFFFFFFFFFFFFFFFFFFFFFFFFFFFFFFFFFFFFF AND SWAP1 POP DUP2 PUSH1 0x6 PUSH0 PUSH2 0x100 EXP DUP2 SLOAD DUP2 PUSH20 0xFFFFFFFFFFFFFFFFFFFFFFFFFFFFFFFFFFFFFFFF MUL NOT AND SWAP1 DUP4 PUSH20 0xFFFFFFFFFFFFFFFFFFFFFFFFFFFFFFFFFFFFFFFF AND MUL OR SWAP1 SSTORE POP DUP2 PUSH20 0xFFFFFFFFFFFFFFFFFFFFFFFFFFFFFFFFFFFFFFFF AND DUP2 PUSH20 0xFFFFFFFFFFFFFFFFFFFFFFFFFFFFFFFFFFFFFFFF AND PUSH32 0x8BE0079C531659141344CD1FD0A4F28419497F9722A3DAAFE3B4186F6B6457E0 PUSH1 0x40 MLOAD PUSH1 0x40 MLOAD DUP1 SWAP2 SUB SWAP1 LOG3 POP POP JUMP JUMPDEST PUSH32 0x4E487B7100000000000000000000000000000000000000000000000000000000 PUSH0 MSTORE PUSH1 0x21 PUSH1 0x4 MSTORE PUSH1 0x24 PUSH0 REVERT JUMPDEST PUSH0 PUSH1 0x40 MLOAD SWAP1 POP SWAP1 JUMP JUMPDEST PUSH0 PUSH0 REVERT JUMPDEST PUSH0 PUSH0 REVERT JUMPDEST PUSH0 PUSH0 REVERT JUMPDEST PUSH0 PUSH0 REVERT JUMPDEST PUSH0 PUSH1 0x1F NOT PUSH1 0x1F DUP4 ADD AND SWAP1 POP SWAP2 SWAP1 POP JUMP JUMPDEST PUSH32 0x4E487B7100000000000000000000000000000000000000000000000000000000 PUSH0 MSTORE PUSH1 0x41 PUSH1 0x4 MSTORE PUSH1 0x24 PUSH0 REVERT JUMPDEST PUSH2 0x2D2 DUP3 PUSH2 0x28C JUMP JUMPDEST DUP2 ADD DUP2 DUP2 LT PUSH8 0xFFFFFFFFFFFFFFFF DUP3 GT OR ISZERO PUSH2 0x2F1 JUMPI PUSH2 0x2F0 PUSH2 0x29C JUMP JUMPDEST JUMPDEST DUP1 PUSH1 0x40 MSTORE POP POP POP JUMP JUMPDEST PUSH0 PUSH2 0x303 PUSH2 0x273 JUMP JUMPDEST SWAP1 POP PUSH2 0x30F DUP3 DUP3 PUSH2 0x2C9 JUMP JUMPDEST SWAP2 SWAP1 POP JUMP JUMPDEST PUSH0 PUSH8 0xFFFFFFFFFFFFFFFF DUP3 GT ISZERO PUSH2 0x32E JUMPI PUSH2 0x32D PUSH2 0x29C JUMP JUMPDEST JUMPDEST PUSH2 0x337 DUP3 PUSH2 0x28C JUMP JUMPDEST SWAP1 POP PUSH1 0x20 DUP2 ADD SWAP1 POP SWAP2 SWAP1 POP JUMP JUMPDEST DUP3 DUP2 DUP4 MCOPY PUSH0 DUP4 DUP4 ADD MSTORE POP POP POP JUMP JUMPDEST PUSH0 PUSH2 0x364 PUSH2 0x35F DUP5 PUSH2 0x314 JUMP JUMPDEST PUSH2 0x2FA JUMP JUMPDEST SWAP1 POP DUP3 DUP2 MSTORE PUSH1 0x20 DUP2 ADD DUP5 DUP5 DUP5 ADD GT ISZERO PUSH2 0x380 JUMPI PUSH2 0x37F PUSH2 0x288 JUMP JUMPDEST JUMPDEST PUSH2 0x38B DUP5 DUP3 DUP6 PUSH2 0x344 JUMP JUMPDEST POP SWAP4 SWAP3 POP POP POP JUMP JUMPDEST PUSH0 DUP3 PUSH1 0x1F DUP4 ADD SLT PUSH2 0x3A7 JUMPI PUSH2 0x3A6 PUSH2 0x284 JUMP JUMPDEST JUMPDEST DUP2 MLOAD PUSH2 0x3B7 DUP5 DUP3 PUSH1 0x20 DUP7 ADD PUSH2 0x352 JUMP JUMPDEST SWAP2 POP POP SWAP3 SWAP2 POP POP JUMP JUMPDEST PUSH0 PUSH1 0x20 DUP3 DUP5 SUB SLT ISZERO PUSH2 0x3D5 JUMPI PUSH2 0x3D4 PUSH2 0x27C JUMP JUMPDEST JUMPDEST PUSH0 DUP3 ADD MLOAD PUSH8 0xFFFFFFFFFFFFFFFF DUP2 GT ISZERO PUSH2 0x3F2 JUMPI PUSH2 0x3F1 PUSH2 0x280 JUMP JUMPDEST JUMPDEST PUSH2 0x3FE DUP5 DUP3 DUP6 ADD PUSH2 0x393 JUMP JUMPDEST SWAP2 POP POP SWAP3 SWAP2 POP POP JUMP JUMPDEST PUSH0 DUP2 MLOAD SWAP1 POP SWAP2 SWAP1 POP JUMP JUMPDEST PUSH32 0x4E487B7100000000000000000000000000000000000000000000000000000000 PUSH0 MSTORE PUSH1 0x22 PUSH1 0x4 MSTORE PUSH1 0x24 PUSH0 REVERT JUMPDEST PUSH0 PUSH1 0x2 DUP3 DIV SWAP1 POP PUSH1 0x1 DUP3 AND DUP1 PUSH2 0x455 JUMPI PUSH1 0x7F DUP3 AND SWAP2 POP JUMPDEST PUSH1 0x20 DUP3 LT DUP2 SUB PUSH2 0x468 JUMPI PUSH2 0x467 PUSH2 0x411 JUMP JUMPDEST JUMPDEST POP SWAP2 SWAP1 POP JUMP JUMPDEST PUSH0 DUP2 SWAP1 POP DUP2 PUSH0 MSTORE PUSH1 0x20 PUSH0 KECCAK256 SWAP1 POP SWAP2 SWAP1 POP JUMP JUMPDEST PUSH0 PUSH1 0x20 PUSH1 0x1F DUP4 ADD DIV SWAP1 POP SWAP2 SWAP1 POP JUMP JUMPDEST PUSH0 DUP3 DUP3 SHL SWAP1 POP SWAP3 SWAP2 POP POP JUMP JUMPDEST PUSH0 PUSH1 0x8 DUP4 MUL PUSH2 0x4CA PUSH32 0xFFFFFFFFFFFFFFFFFFFFFFFFFFFFFFFFFFFFFFFFFFFFFFFFFFFFFFFFFFFFFFFF DUP3 PUSH2 0x48F JUMP JUMPDEST PUSH2 0x4D4 DUP7 DUP4 PUSH2 0x48F JUMP JUMPDEST SWAP6 POP DUP1 NOT DUP5 AND SWAP4 POP DUP1 DUP7 AND DUP5 OR SWAP3 POP POP POP SWAP4 SWAP3 POP POP POP JUMP JUMPDEST PUSH0 DUP2 SWAP1 POP SWAP2 SWAP1 POP JUMP JUMPDEST PUSH0 DUP2 SWAP1 POP SWAP2 SWAP1 POP JUMP JUMPDEST PUSH0 PUSH2 0x518 PUSH2 0x513 PUSH2 0x50E DUP5 PUSH2 0x4EC JUMP JUMPDEST PUSH2 0x4F5 JUMP JUMPDEST PUSH2 0x4EC JUMP JUMPDEST SWAP1 POP SWAP2 SWAP1 POP JUMP JUMPDEST PUSH0 DUP2 SWAP1 POP SWAP2 SWAP1 POP JUMP JUMPDEST PUSH2 0x531 DUP4 PUSH2 0x4FE JUMP JUMPDEST PUSH2 0x545 PUSH2 0x53D DUP3 PUSH2 0x51F JUMP JUMPDEST DUP5 DUP5 SLOAD PUSH2 0x49B JUMP JUMPDEST DUP3 SSTORE POP POP POP POP JUMP JUMPDEST PUSH0 PUSH0 SWAP1 POP SWAP1 JUMP JUMPDEST PUSH2 0x55C PUSH2 0x54D JUMP JUMPDEST PUSH2 0x567 DUP2 DUP5 DUP5 PUSH2 0x528 JUMP JUMPDEST POP POP POP JUMP JUMPDEST JUMPDEST DUP2 DUP2 LT ISZERO PUSH2 0x58A JUMPI PUSH2 0x57F PUSH0 DUP3 PUSH2 0x554 JUMP JUMPDEST PUSH1 0x1 DUP2 ADD SWAP1 POP PUSH2 0x56D JUMP JUMPDEST POP POP JUMP JUMPDEST PUSH1 0x1F DUP3 GT ISZERO PUSH2 0x5CF JUMPI PUSH2 0x5A0 DUP2 PUSH2 0x46E JUMP JUMPDEST PUSH2 0x5A9 DUP5 PUSH2 0x480 JUMP JUMPDEST DUP2 ADD PUSH1 0x20 DUP6 LT ISZERO PUSH2 0x5B8 JUMPI DUP2 SWAP1 POP JUMPDEST PUSH2 0x5CC PUSH2 0x5C4 DUP6 PUSH2 0x480 JUMP JUMPDEST DUP4 ADD DUP3 PUSH2 0x56C JUMP JUMPDEST POP POP JUMPDEST POP POP POP JUMP JUMPDEST PUSH0 DUP3 DUP3 SHR SWAP1 POP SWAP3 SWAP2 POP POP JUMP JUMPDEST PUSH0 PUSH2 0x5EF PUSH0 NOT DUP5 PUSH1 0x8 MUL PUSH2 0x5D4 JUMP JUMPDEST NOT DUP1 DUP4 AND SWAP2 POP POP SWAP3 SWAP2 POP POP JUMP JUMPDEST PUSH0 PUSH2 0x607 DUP4 DUP4 PUSH2 0x5E0 JUMP JUMPDEST SWAP2 POP DUP3 PUSH1 0x2 MUL DUP3 OR SWAP1 POP SWAP3 SWAP2 POP POP JUMP JUMPDEST PUSH2 0x620 DUP3 PUSH2 0x407 JUMP JUMPDEST PUSH8 0xFFFFFFFFFFFFFFFF DUP2 GT ISZERO PUSH2 0x639 JUMPI PUSH2 0x638 PUSH2 0x29C JUMP JUMPDEST JUMPDEST PUSH2 0x643 DUP3 SLOAD PUSH2 0x43E JUMP JUMPDEST PUSH2 0x64E DUP3 DUP3 DUP6 PUSH2 0x58E JUMP JUMPDEST PUSH0 PUSH1 0x20 SWAP1 POP PUSH1 0x1F DUP4 GT PUSH1 0x1 DUP2 EQ PUSH2 0x67F JUMPI PUSH0 DUP5 ISZERO PUSH2 0x66D JUMPI DUP3 DUP8 ADD MLOAD SWAP1 POP JUMPDEST PUSH2 0x677 DUP6 DUP3 PUSH2 0x5FC JUMP JUMPDEST DUP7 SSTORE POP PUSH2 0x6DE JUMP JUMPDEST PUSH1 0x1F NOT DUP5 AND PUSH2 0x68D DUP7 PUSH2 0x46E JUMP JUMPDEST PUSH0 JUMPDEST DUP3 DUP2 LT ISZERO PUSH2 0x6B4 JUMPI DUP5 DUP10 ADD MLOAD DUP3 SSTORE PUSH1 0x1 DUP3 ADD SWAP2 POP PUSH1 0x20 DUP6 ADD SWAP5 POP PUSH1 0x20 DUP2 ADD SWAP1 POP PUSH2 0x68F JUMP JUMPDEST DUP7 DUP4 LT ISZERO PUSH2 0x6D1 JUMPI DUP5 DUP10 ADD MLOAD PUSH2 0x6CD PUSH1 0x1F DUP10 AND DUP3 PUSH2 0x5E0 JUMP JUMPDEST DUP4 SSTORE POP JUMPDEST PUSH1 0x1 PUSH1 0x2 DUP9 MUL ADD DUP9 SSTORE POP POP POP JUMPDEST POP POP POP POP POP POP JUMP JUMPDEST PUSH0 PUSH20 0xFFFFFFFFFFFFFFFFFFFFFFFFFFFFFFFFFFFFFFFF DUP3 AND SWAP1 POP SWAP2 SWAP1 POP JUMP JUMPDEST PUSH0 PUSH2 0x70F DUP3 PUSH2 0x6E6 JUMP JUMPDEST SWAP1 POP SWAP2 SWAP1 POP JUMP JUMPDEST PUSH2 0x71F DUP2 PUSH2 0x705 JUMP JUMPDEST DUP3 MSTORE POP POP JUMP JUMPDEST PUSH0 PUSH1 0x20 DUP3 ADD SWAP1 POP PUSH2 0x738 PUSH0 DUP4 ADD DUP5 PUSH2 0x716 JUMP JUMPDEST SWAP3 SWAP2 POP POP JUMP JUMPDEST PUSH2 0x4475 DUP1 PUSH2 0x74B PUSH0 CODECOPY PUSH0 RETURN INVALID PUSH1 0x80 PUSH1 0x40 MSTORE PUSH1 0x4 CALLDATASIZE LT PUSH2 0x245 JUMPI PUSH0 CALLDATALOAD PUSH1 0xE0 SHR DUP1 PUSH4 0x8DA5CB5B GT PUSH2 0x138 JUMPI DUP1 PUSH4 0xB88D4FDE GT PUSH2 0xB5 JUMPI DUP1 PUSH4 0xD7BA706B GT PUSH2 0x79 JUMPI DUP1 PUSH4 0xD7BA706B EQ PUSH2 0x886 JUMPI DUP1 PUSH4 0xE985E9C5 EQ PUSH2 0x8AE JUMPI DUP1 PUSH4 0xF1BB4728 EQ PUSH2 0x8EA JUMPI DUP1 PUSH4 0xF2FDE38B EQ PUSH2 0x914 JUMPI DUP1 PUSH4 0xFA120DD4 EQ PUSH2 0x93C JUMPI DUP1 PUSH4 0xFBB34089 EQ PUSH2 0x964 JUMPI PUSH2 0x245 JUMP JUMPDEST DUP1 PUSH4 0xB88D4FDE EQ PUSH2 0x7A6 JUMPI DUP1 PUSH4 0xC002D23D EQ PUSH2 0x7CE JUMPI DUP1 PUSH4 0xC03AFB59 EQ PUSH2 0x7F8 JUMPI DUP1 PUSH4 0xC87B56DD EQ PUSH2 0x820 JUMPI DUP1 PUSH4 0xD547CFB7 EQ PUSH2 0x85C JUMPI PUSH2 0x245 JUMP JUMPDEST DUP1 PUSH4 0xA22CB465 GT PUSH2 0xFC JUMPI DUP1 PUSH4 0xA22CB465 EQ PUSH2 0x6C4 JUMPI DUP1 PUSH4 0xA2309FF8 EQ PUSH2 0x6EC JUMPI DUP1 PUSH4 0xA3A40EA5 EQ PUSH2 0x716 JUMPI DUP1 PUSH4 0xA67D9C5E EQ PUSH2 0x740 JUMPI DUP1 PUSH4 0xA74736B2 EQ PUSH2 0x76A JUMPI PUSH2 0x245 JUMP JUMPDEST DUP1 PUSH4 0x8DA5CB5B EQ PUSH2 0x5F0 JUMPI DUP1 PUSH4 0x91B7F5ED EQ PUSH2 0x61A JUMPI DUP1 PUSH4 0x95D89B41 EQ PUSH2 0x642 JUMPI DUP1 PUSH4 0x97D6696B EQ PUSH2 0x66C JUMPI DUP1 PUSH4 0xA0712D68 EQ PUSH2 0x6A8 JUMPI PUSH2 0x245 JUMP JUMPDEST DUP1 PUSH4 0x3AF32ABF GT PUSH2 0x1C6 JUMPI DUP1 PUSH4 0x6352211E GT PUSH2 0x18A JUMPI DUP1 PUSH4 0x6352211E EQ PUSH2 0x4FC JUMPI DUP1 PUSH4 0x70A08231 EQ PUSH2 0x538 JUMPI DUP1 PUSH4 0x715018A6 EQ PUSH2 0x574 JUMPI DUP1 PUSH4 0x75794A3C EQ PUSH2 0x58A JUMPI DUP1 PUSH4 0x7FA803C3 EQ PUSH2 0x5B4 JUMPI PUSH2 0x245 JUMP JUMPDEST DUP1 PUSH4 0x3AF32ABF EQ PUSH2 0x42F JUMPI DUP1 PUSH4 0x3CCFD60B EQ PUSH2 0x46C JUMPI DUP1 PUSH4 0x42842E0E EQ PUSH2 0x482 JUMPI DUP1 PUSH4 0x541399D7 EQ PUSH2 0x4AA JUMPI DUP1 PUSH4 0x55F804B3 EQ PUSH2 0x4D4 JUMPI PUSH2 0x245 JUMP JUMPDEST DUP1 PUSH4 0x125EEAFD GT PUSH2 0x20D JUMPI DUP1 PUSH4 0x125EEAFD EQ PUSH2 0x33D JUMPI DUP1 PUSH4 0x1BAF89AC EQ PUSH2 0x379 JUMPI DUP1 PUSH4 0x23B872DD EQ PUSH2 0x3A1 JUMPI DUP1 PUSH4 0x32CB6B0C EQ PUSH2 0x3C9 JUMPI DUP1 PUSH4 0x3A602B4D EQ PUSH2 0x3F3 JUMPI PUSH2 0x245 JUMP JUMPDEST DUP1 PUSH4 0x1FFC9A7 EQ PUSH2 0x249 JUMPI DUP1 PUSH4 0x55AD42E EQ PUSH2 0x285 JUMPI DUP1 PUSH4 0x6FDDE03 EQ PUSH2 0x2AF JUMPI DUP1 PUSH4 0x81812FC EQ PUSH2 0x2D9 JUMPI DUP1 PUSH4 0x95EA7B3 EQ PUSH2 0x315 JUMPI JUMPDEST PUSH0 PUSH0 REVERT JUMPDEST CALLVALUE DUP1 ISZERO PUSH2 0x254 JUMPI PUSH0 PUSH0 REVERT JUMPDEST POP PUSH2 0x26F PUSH1 0x4 DUP1 CALLDATASIZE SUB DUP2 ADD SWAP1 PUSH2 0x26A SWAP2 SWAP1 PUSH2 0x2FEE JUMP JUMPDEST PUSH2 0x98C JUMP JUMPDEST PUSH1 0x40 MLOAD PUSH2 0x27C SWAP2 SWAP1 PUSH2 0x3033 JUMP JUMPDEST PUSH1 0x40 MLOAD DUP1 SWAP2 SUB SWAP1 RETURN JUMPDEST CALLVALUE DUP1 ISZERO PUSH2 0x290 JUMPI PUSH0 PUSH0 REVERT JUMPDEST POP PUSH2 0x299 PUSH2 0xA6D JUMP JUMPDEST PUSH1 0x40 MLOAD PUSH2 0x2A6 SWAP2 SWAP1 PUSH2 0x30BF JUMP JUMPDEST PUSH1 0x40 MLOAD DUP1 SWAP2 SUB SWAP1 RETURN JUMPDEST CALLVALUE DUP1 ISZERO PUSH2 0x2BA JUMPI PUSH0 PUSH0 REVERT JUMPDEST POP PUSH2 0x2C3 PUSH2 0xA80 JUMP JUMPDEST PUSH1 0x40 MLOAD PUSH2 0x2D0 SWAP2 SWAP1 PUSH2 0x3148 JUMP JUMPDEST PUSH1 0x40 MLOAD DUP1 SWAP2 SUB SWAP1 RETURN JUMPDEST CALLVALUE DUP1 ISZERO PUSH2 0x2E4 JUMPI PUSH0 PUSH0 REVERT JUMPDEST POP PUSH2 0x2FF PUSH1 0x4 DUP1 CALLDATASIZE SUB DUP2 ADD SWAP1 PUSH2 0x2FA SWAP2 SWAP1 PUSH2 0x319B JUMP JUMPDEST PUSH2 0xB0F JUMP JUMPDEST PUSH1 0x40 MLOAD PUSH2 0x30C SWAP2 SWAP1 PUSH2 0x3205 JUMP JUMPDEST PUSH1 0x40 MLOAD DUP1 SWAP2 SUB SWAP1 RETURN JUMPDEST CALLVALUE DUP1 ISZERO PUSH2 0x320 JUMPI PUSH0 PUSH0 REVERT JUMPDEST POP PUSH2 0x33B PUSH1 0x4 DUP1 CALLDATASIZE SUB DUP2 ADD SWAP1 PUSH2 0x336 SWAP2 SWAP1 PUSH2 0x3248 JUMP JUMPDEST PUSH2 0xB2A JUMP JUMPDEST STOP JUMPDEST CALLVALUE DUP1 ISZERO PUSH2 0x348 JUMPI PUSH0 PUSH0 REVERT JUMPDEST POP PUSH2 0x363 PUSH1 0x4 DUP1 CALLDATASIZE SUB DUP2 ADD SWAP1 PUSH2 0x35E SWAP2 SWAP1 PUSH2 0x3286 JUMP JUMPDEST PUSH2 0xB40 JUMP JUMPDEST PUSH1 0x40 MLOAD PUSH2 0x370 SWAP2 SWAP1 PUSH2 0x3033 JUMP JUMPDEST PUSH1 0x40 MLOAD DUP1 SWAP2 SUB SWAP1 RETURN JUMPDEST CALLVALUE DUP1 ISZERO PUSH2 0x384 JUMPI PUSH0 PUSH0 REVERT JUMPDEST POP PUSH2 0x39F PUSH1 0x4 DUP1 CALLDATASIZE SUB DUP2 ADD SWAP1 PUSH2 0x39A SWAP2 SWAP1 PUSH2 0x3286 JUMP JUMPDEST PUSH2 0xB5D JUMP JUMPDEST STOP JUMPDEST CALLVALUE DUP1 ISZERO PUSH2 0x3AC JUMPI PUSH0 PUSH0 REVERT JUMPDEST POP PUSH2 0x3C7 PUSH1 0x4 DUP1 CALLDATASIZE SUB DUP2 ADD SWAP1 PUSH2 0x3C2 SWAP2 SWAP1 PUSH2 0x32B1 JUMP JUMPDEST PUSH2 0xBBC JUMP JUMPDEST STOP JUMPDEST CALLVALUE DUP1 ISZERO PUSH2 0x3D4 JUMPI PUSH0 PUSH0 REVERT JUMPDEST POP PUSH2 0x3DD PUSH2 0xCBB JUMP JUMPDEST PUSH1 0x40 MLOAD PUSH2 0x3EA SWAP2 SWAP1 PUSH2 0x3310 JUMP JUMPDEST PUSH1 0x40 MLOAD DUP1 SWAP2 SUB SWAP1 RETURN JUMPDEST CALLVALUE DUP1 ISZERO PUSH2 0x3FE JUMPI PUSH0 PUSH0 REVERT JUMPDEST POP PUSH2 0x419 PUSH1 0x4 DUP1 CALLDATASIZE SUB DUP2 ADD SWAP1 PUSH2 0x414 SWAP2 SWAP1 PUSH2 0x3286 JUMP JUMPDEST PUSH2 0xCC0 JUMP JUMPDEST PUSH1 0x40 MLOAD PUSH2 0x426 SWAP2 SWAP1 PUSH2 0x3310 JUMP JUMPDEST PUSH1 0x40 MLOAD DUP1 SWAP2 SUB SWAP1 RETURN JUMPDEST CALLVALUE DUP1 ISZERO PUSH2 0x43A JUMPI PUSH0 PUSH0 REVERT JUMPDEST POP PUSH2 0x455 PUSH1 0x4 DUP1 CALLDATASIZE SUB DUP2 ADD SWAP1 PUSH2 0x450 SWAP2 SWAP1 PUSH2 0x3286 JUMP JUMPDEST PUSH2 0xCD5 JUMP JUMPDEST PUSH1 0x40 MLOAD PUSH2 0x463 SWAP3 SWAP2 SWAP1 PUSH2 0x3329 JUMP JUMPDEST PUSH1 0x40 MLOAD DUP1 SWAP2 SUB SWAP1 RETURN JUMPDEST CALLVALUE DUP1 ISZERO PUSH2 0x477 JUMPI PUSH0 PUSH0 REVERT JUMPDEST POP PUSH2 0x480 PUSH2 0xD74 JUMP JUMPDEST STOP JUMPDEST CALLVALUE DUP1 ISZERO PUSH2 0x48D JUMPI PUSH0 PUSH0 REVERT JUMPDEST POP PUSH2 0x4A8 PUSH1 0x4 DUP1 CALLDATASIZE SUB DUP2 ADD SWAP1 PUSH2 0x4A3 SWAP2 SWAP1 PUSH2 0x32B1 JUMP JUMPDEST PUSH2 0xE75 JUMP JUMPDEST STOP JUMPDEST CALLVALUE DUP1 ISZERO PUSH2 0x4B5 JUMPI PUSH0 PUSH0 REVERT JUMPDEST POP PUSH2 0x4BE PUSH2 0xE94 JUMP JUMPDEST PUSH1 0x40 MLOAD PUSH2 0x4CB SWAP2 SWAP1 PUSH2 0x3310 JUMP JUMPDEST PUSH1 0x40 MLOAD DUP1 SWAP2 SUB SWAP1 RETURN JUMPDEST CALLVALUE DUP1 ISZERO PUSH2 0x4DF JUMPI PUSH0 PUSH0 REVERT JUMPDEST POP PUSH2 0x4FA PUSH1 0x4 DUP1 CALLDATASIZE SUB DUP2 ADD SWAP1 PUSH2 0x4F5 SWAP2 SWAP1 PUSH2 0x347C JUMP JUMPDEST PUSH2 0xE99 JUMP JUMPDEST STOP JUMPDEST CALLVALUE DUP1 ISZERO PUSH2 0x507 JUMPI PUSH0 PUSH0 REVERT JUMPDEST POP PUSH2 0x522 PUSH1 0x4 DUP1 CALLDATASIZE SUB DUP2 ADD SWAP1 PUSH2 0x51D SWAP2 SWAP1 PUSH2 0x319B JUMP JUMPDEST PUSH2 0xEB4 JUMP JUMPDEST PUSH1 0x40 MLOAD PUSH2 0x52F SWAP2 SWAP1 PUSH2 0x3205 JUMP JUMPDEST PUSH1 0x40 MLOAD DUP1 SWAP2 SUB SWAP1 RETURN JUMPDEST CALLVALUE DUP1 ISZERO PUSH2 0x543 JUMPI PUSH0 PUSH0 REVERT JUMPDEST POP PUSH2 0x55E PUSH1 0x4 DUP1 CALLDATASIZE SUB DUP2 ADD SWAP1 PUSH2 0x559 SWAP2 SWAP1 PUSH2 0x3286 JUMP JUMPDEST PUSH2 0xEC5 JUMP JUMPDEST PUSH1 0x40 MLOAD PUSH2 0x56B SWAP2 SWAP1 PUSH2 0x3310 JUMP JUMPDEST PUSH1 0x40 MLOAD DUP1 SWAP2 SUB SWAP1 RETURN JUMPDEST CALLVALUE DUP1 ISZERO PUSH2 0x57F JUMPI PUSH0 PUSH0 REVERT JUMPDEST POP PUSH2 0x588 PUSH2 0xF7B JUMP JUMPDEST STOP JUMPDEST CALLVALUE DUP1 ISZERO PUSH2 0x595 JUMPI PUSH0 PUSH0 REVERT JUMPDEST POP PUSH2 0x59E PUSH2 0xF8E JUMP JUMPDEST PUSH1 0x40 MLOAD PUSH2 0x5AB SWAP2 SWAP1 PUSH2 0x3310 JUMP JUMPDEST PUSH1 0x40 MLOAD DUP1 SWAP2 SUB SWAP1 RETURN JUMPDEST CALLVALUE DUP1 ISZERO PUSH2 0x5BF JUMPI PUSH0 PUSH0 REVERT JUMPDEST POP PUSH2 0x5DA PUSH1 0x4 DUP1 CALLDATASIZE SUB DUP2 ADD SWAP1 PUSH2 0x5D5 SWAP2 SWAP1 PUSH2 0x3286 JUMP JUMPDEST PUSH2 0xF94 JUMP JUMPDEST PUSH1 0x40 MLOAD PUSH2 0x5E7 SWAP2 SWAP1 PUSH2 0x3310 JUMP JUMPDEST PUSH1 0x40 MLOAD DUP1 SWAP2 SUB SWAP1 RETURN JUMPDEST CALLVALUE DUP1 ISZERO PUSH2 0x5FB JUMPI PUSH0 PUSH0 REVERT JUMPDEST POP PUSH2 0x604 PUSH2 0x11E7 JUMP JUMPDEST PUSH1 0x40 MLOAD PUSH2 0x611 SWAP2 SWAP1 PUSH2 0x3205 JUMP JUMPDEST PUSH1 0x40 MLOAD DUP1 SWAP2 SUB SWAP1 RETURN JUMPDEST CALLVALUE DUP1 ISZERO PUSH2 0x625 JUMPI PUSH0 PUSH0 REVERT JUMPDEST POP PUSH2 0x640 PUSH1 0x4 DUP1 CALLDATASIZE SUB DUP2 ADD SWAP1 PUSH2 0x63B SWAP2 SWAP1 PUSH2 0x319B JUMP JUMPDEST PUSH2 0x120F JUMP JUMPDEST STOP JUMPDEST CALLVALUE DUP1 ISZERO PUSH2 0x64D JUMPI PUSH0 PUSH0 REVERT JUMPDEST POP PUSH2 0x656 PUSH2 0x1221 JUMP JUMPDEST PUSH1 0x40 MLOAD PUSH2 0x663 SWAP2 SWAP1 PUSH2 0x3148 JUMP JUMPDEST PUSH1 0x40 MLOAD DUP1 SWAP2 SUB SWAP1 RETURN JUMPDEST CALLVALUE DUP1 ISZERO PUSH2 0x677 JUMPI PUSH0 PUSH0 REVERT JUMPDEST POP PUSH2 0x692 PUSH1 0x4 DUP1 CALLDATASIZE SUB DUP2 ADD SWAP1 PUSH2 0x68D SWAP2 SWAP1 PUSH2 0x3286 JUMP JUMPDEST PUSH2 0x12B1 JUMP JUMPDEST PUSH1 0x40 MLOAD PUSH2 0x69F SWAP2 SWAP1 PUSH2 0x3310 JUMP JUMPDEST PUSH1 0x40 MLOAD DUP1 SWAP2 SUB SWAP1 RETURN JUMPDEST PUSH2 0x6C2 PUSH1 0x4 DUP1 CALLDATASIZE SUB DUP2 ADD SWAP1 PUSH2 0x6BD SWAP2 SWAP1 PUSH2 0x319B JUMP JUMPDEST PUSH2 0x12F7 JUMP JUMPDEST STOP JUMPDEST CALLVALUE DUP1 ISZERO PUSH2 0x6CF JUMPI PUSH0 PUSH0 REVERT JUMPDEST POP PUSH2 0x6EA PUSH1 0x4 DUP1 CALLDATASIZE SUB DUP2 ADD SWAP1 PUSH2 0x6E5 SWAP2 SWAP1 PUSH2 0x34ED JUMP JUMPDEST PUSH2 0x1905 JUMP JUMPDEST STOP JUMPDEST CALLVALUE DUP1 ISZERO PUSH2 0x6F7 JUMPI PUSH0 PUSH0 REVERT JUMPDEST POP PUSH2 0x700 PUSH2 0x191B JUMP JUMPDEST PUSH1 0x40 MLOAD PUSH2 0x70D SWAP2 SWAP1 PUSH2 0x3310 JUMP JUMPDEST PUSH1 0x40 MLOAD DUP1 SWAP2 SUB SWAP1 RETURN JUMPDEST CALLVALUE DUP1 ISZERO PUSH2 0x721 JUMPI PUSH0 PUSH0 REVERT JUMPDEST POP PUSH2 0x72A PUSH2 0x1924 JUMP JUMPDEST PUSH1 0x40 MLOAD PUSH2 0x737 SWAP2 SWAP1 PUSH2 0x3148 JUMP JUMPDEST PUSH1 0x40 MLOAD DUP1 SWAP2 SUB SWAP1 RETURN JUMPDEST CALLVALUE DUP1 ISZERO PUSH2 0x74B JUMPI PUSH0 PUSH0 REVERT JUMPDEST POP PUSH2 0x754 PUSH2 0x1B40 JUMP JUMPDEST PUSH1 0x40 MLOAD PUSH2 0x761 SWAP2 SWAP1 PUSH2 0x3310 JUMP JUMPDEST PUSH1 0x40 MLOAD DUP1 SWAP2 SUB SWAP1 RETURN JUMPDEST CALLVALUE DUP1 ISZERO PUSH2 0x775 JUMPI PUSH0 PUSH0 REVERT JUMPDEST POP PUSH2 0x790 PUSH1 0x4 DUP1 CALLDATASIZE SUB DUP2 ADD SWAP1 PUSH2 0x78B SWAP2 SWAP1 PUSH2 0x3286 JUMP JUMPDEST PUSH2 0x1B45 JUMP JUMPDEST PUSH1 0x40 MLOAD PUSH2 0x79D SWAP2 SWAP1 PUSH2 0x3033 JUMP JUMPDEST PUSH1 0x40 MLOAD DUP1 SWAP2 SUB SWAP1 RETURN JUMPDEST CALLVALUE DUP1 ISZERO PUSH2 0x7B1 JUMPI PUSH0 PUSH0 REVERT JUMPDEST POP PUSH2 0x7CC PUSH1 0x4 DUP1 CALLDATASIZE SUB DUP2 ADD SWAP1 PUSH2 0x7C7 SWAP2 SWAP1 PUSH2 0x35C9 JUMP JUMPDEST PUSH2 0x1B62 JUMP JUMPDEST STOP JUMPDEST CALLVALUE DUP1 ISZERO PUSH2 0x7D9 JUMPI PUSH0 PUSH0 REVERT JUMPDEST POP PUSH2 0x7E2 PUSH2 0x1B87 JUMP JUMPDEST PUSH1 0x40 MLOAD PUSH2 0x7EF SWAP2 SWAP1 PUSH2 0x3310 JUMP JUMPDEST PUSH1 0x40 MLOAD DUP1 SWAP2 SUB SWAP1 RETURN JUMPDEST CALLVALUE DUP1 ISZERO PUSH2 0x803 JUMPI PUSH0 PUSH0 REVERT JUMPDEST POP PUSH2 0x81E PUSH1 0x4 DUP1 CALLDATASIZE SUB DUP2 ADD SWAP1 PUSH2 0x819 SWAP2 SWAP1 PUSH2 0x366C JUMP JUMPDEST PUSH2 0x1B8D JUMP JUMPDEST STOP JUMPDEST CALLVALUE DUP1 ISZERO PUSH2 0x82B JUMPI PUSH0 PUSH0 REVERT JUMPDEST POP PUSH2 0x846 PUSH1 0x4 DUP1 CALLDATASIZE SUB DUP2 ADD SWAP1 PUSH2 0x841 SWAP2 SWAP1 PUSH2 0x319B JUMP JUMPDEST PUSH2 0x1D1B JUMP JUMPDEST PUSH1 0x40 MLOAD PUSH2 0x853 SWAP2 SWAP1 PUSH2 0x3148 JUMP JUMPDEST PUSH1 0x40 MLOAD DUP1 SWAP2 SUB SWAP1 RETURN JUMPDEST CALLVALUE DUP1 ISZERO PUSH2 0x867 JUMPI PUSH0 PUSH0 REVERT JUMPDEST POP PUSH2 0x870 PUSH2 0x1DC5 JUMP JUMPDEST PUSH1 0x40 MLOAD PUSH2 0x87D SWAP2 SWAP1 PUSH2 0x3148 JUMP JUMPDEST PUSH1 0x40 MLOAD DUP1 SWAP2 SUB SWAP1 RETURN JUMPDEST CALLVALUE DUP1 ISZERO PUSH2 0x891 JUMPI PUSH0 PUSH0 REVERT JUMPDEST POP PUSH2 0x8AC PUSH1 0x4 DUP1 CALLDATASIZE SUB DUP2 ADD SWAP1 PUSH2 0x8A7 SWAP2 SWAP1 PUSH2 0x36F4 JUMP JUMPDEST PUSH2 0x1E51 JUMP JUMPDEST STOP JUMPDEST CALLVALUE DUP1 ISZERO PUSH2 0x8B9 JUMPI PUSH0 PUSH0 REVERT JUMPDEST POP PUSH2 0x8D4 PUSH1 0x4 DUP1 CALLDATASIZE SUB DUP2 ADD SWAP1 PUSH2 0x8CF SWAP2 SWAP1 PUSH2 0x373F JUMP JUMPDEST PUSH2 0x1EF8 JUMP JUMPDEST PUSH1 0x40 MLOAD PUSH2 0x8E1 SWAP2 SWAP1 PUSH2 0x3033 JUMP JUMPDEST PUSH1 0x40 MLOAD DUP1 SWAP2 SUB SWAP1 RETURN JUMPDEST CALLVALUE DUP1 ISZERO PUSH2 0x8F5 JUMPI PUSH0 PUSH0 REVERT JUMPDEST POP PUSH2 0x8FE PUSH2 0x1F86 JUMP JUMPDEST PUSH1 0x40 MLOAD PUSH2 0x90B SWAP2 SWAP1 PUSH2 0x3310 JUMP JUMPDEST PUSH1 0x40 MLOAD DUP1 SWAP2 SUB SWAP1 RETURN JUMPDEST CALLVALUE DUP1 ISZERO PUSH2 0x91F JUMPI PUSH0 PUSH0 REVERT JUMPDEST POP PUSH2 0x93A PUSH1 0x4 DUP1 CALLDATASIZE SUB DUP2 ADD SWAP1 PUSH2 0x935 SWAP2 SWAP1 PUSH2 0x3286 JUMP JUMPDEST PUSH2 0x1F8B JUMP JUMPDEST STOP JUMPDEST CALLVALUE DUP1 ISZERO PUSH2 0x947 JUMPI PUSH0 PUSH0 REVERT JUMPDEST POP PUSH2 0x962 PUSH1 0x4 DUP1 CALLDATASIZE SUB DUP2 ADD SWAP1 PUSH2 0x95D SWAP2 SWAP1 PUSH2 0x3286 JUMP JUMPDEST PUSH2 0x200F JUMP JUMPDEST STOP JUMPDEST CALLVALUE DUP1 ISZERO PUSH2 0x96F JUMPI PUSH0 PUSH0 REVERT JUMPDEST POP PUSH2 0x98A PUSH1 0x4 DUP1 CALLDATASIZE SUB DUP2 ADD SWAP1 PUSH2 0x985 SWAP2 SWAP1 PUSH2 0x36F4 JUMP JUMPDEST PUSH2 0x206E JUMP JUMPDEST STOP JUMPDEST PUSH0 PUSH32 0x80AC58CD00000000000000000000000000000000000000000000000000000000 PUSH28 0xFFFFFFFFFFFFFFFFFFFFFFFFFFFFFFFFFFFFFFFFFFFFFFFFFFFFFFFF NOT AND DUP3 PUSH28 0xFFFFFFFFFFFFFFFFFFFFFFFFFFFFFFFFFFFFFFFFFFFFFFFFFFFFFFFF NOT AND EQ DUP1 PUSH2 0xA56 JUMPI POP PUSH32 0x5B5E139F00000000000000000000000000000000000000000000000000000000 PUSH28 0xFFFFFFFFFFFFFFFFFFFFFFFFFFFFFFFFFFFFFFFFFFFFFFFFFFFFFFFF NOT AND DUP3 PUSH28 0xFFFFFFFFFFFFFFFFFFFFFFFFFFFFFFFFFFFFFFFFFFFFFFFFFFFFFFFF NOT AND EQ JUMPDEST DUP1 PUSH2 0xA66 JUMPI POP PUSH2 0xA65 DUP3 PUSH2 0x2114 JUMP JUMPDEST JUMPDEST SWAP1 POP SWAP2 SWAP1 POP JUMP JUMPDEST PUSH1 0x6 PUSH1 0x14 SWAP1 SLOAD SWAP1 PUSH2 0x100 EXP SWAP1 DIV PUSH1 0xFF AND DUP2 JUMP JUMPDEST PUSH1 0x60 PUSH0 DUP1 SLOAD PUSH2 0xA8E SWAP1 PUSH2 0x37AA JUMP JUMPDEST DUP1 PUSH1 0x1F ADD PUSH1 0x20 DUP1 SWAP2 DIV MUL PUSH1 0x20 ADD PUSH1 0x40 MLOAD SWAP1 DUP2 ADD PUSH1 0x40 MSTORE DUP1 SWAP3 SWAP2 SWAP1 DUP2 DUP2 MSTORE PUSH1 0x20 ADD DUP3 DUP1 SLOAD PUSH2 0xABA SWAP1 PUSH2 0x37AA JUMP JUMPDEST DUP1 ISZERO PUSH2 0xB05 JUMPI DUP1 PUSH1 0x1F LT PUSH2 0xADC JUMPI PUSH2 0x100 DUP1 DUP4 SLOAD DIV MUL DUP4 MSTORE SWAP2 PUSH1 0x20 ADD SWAP2 PUSH2 0xB05 JUMP JUMPDEST DUP3 ADD SWAP2 SWAP1 PUSH0 MSTORE PUSH1 0x20 PUSH0 KECCAK256 SWAP1 JUMPDEST DUP2 SLOAD DUP2 MSTORE SWAP1 PUSH1 0x1 ADD SWAP1 PUSH1 0x20 ADD DUP1 DUP4 GT PUSH2 0xAE8 JUMPI DUP3 SWAP1 SUB PUSH1 0x1F AND DUP3 ADD SWAP2 JUMPDEST POP POP POP POP POP SWAP1 POP SWAP1 JUMP JUMPDEST PUSH0 PUSH2 0xB19 DUP3 PUSH2 0x217D JUMP JUMPDEST POP PUSH2 0xB23 DUP3 PUSH2 0x2203 JUMP JUMPDEST SWAP1 POP SWAP2 SWAP1 POP JUMP JUMPDEST PUSH2 0xB3C DUP3 DUP3 PUSH2 0xB37 PUSH2 0x223C JUMP JUMPDEST PUSH2 0x2243 JUMP JUMPDEST POP POP JUMP JUMPDEST PUSH1 0xB PUSH1 0x20 MSTORE DUP1 PUSH0 MSTORE PUSH1 0x40 PUSH0 KECCAK256 PUSH0 SWAP2 POP SLOAD SWAP1 PUSH2 0x100 EXP SWAP1 DIV PUSH1 0xFF AND DUP2 JUMP JUMPDEST PUSH2 0xB65 PUSH2 0x2255 JUMP JUMPDEST PUSH0 PUSH1 0xA PUSH0 DUP4 PUSH20 0xFFFFFFFFFFFFFFFFFFFFFFFFFFFFFFFFFFFFFFFF AND PUSH20 0xFFFFFFFFFFFFFFFFFFFFFFFFFFFFFFFFFFFFFFFF AND DUP2 MSTORE PUSH1 0x20 ADD SWAP1 DUP2 MSTORE PUSH1 0x20 ADD PUSH0 KECCAK256 PUSH0 PUSH2 0x100 EXP DUP2 SLOAD DUP2 PUSH1 0xFF MUL NOT AND SWAP1 DUP4 ISZERO ISZERO MUL OR SWAP1 SSTORE POP POP JUMP JUMPDEST PUSH0 PUSH20 0xFFFFFFFFFFFFFFFFFFFFFFFFFFFFFFFFFFFFFFFF AND DUP3 PUSH20 0xFFFFFFFFFFFFFFFFFFFFFFFFFFFFFFFFFFFFFFFF AND SUB PUSH2 0xC2C JUMPI PUSH0 PUSH1 0x40 MLOAD PUSH32 0x64A0AE9200000000000000000000000000000000000000000000000000000000 DUP2 MSTORE PUSH1 0x4 ADD PUSH2 0xC23 SWAP2 SWAP1 PUSH2 0x3205 JUMP JUMPDEST PUSH1 0x40 MLOAD DUP1 SWAP2 SUB SWAP1 REVERT JUMPDEST PUSH0 PUSH2 0xC3F DUP4 DUP4 PUSH2 0xC3A PUSH2 0x223C JUMP JUMPDEST PUSH2 0x22DC JUMP JUMPDEST SWAP1 POP DUP4 PUSH20 0xFFFFFFFFFFFFFFFFFFFFFFFFFFFFFFFFFFFFFFFF AND DUP2 PUSH20 0xFFFFFFFFFFFFFFFFFFFFFFFFFFFFFFFFFFFFFFFF AND EQ PUSH2 0xCB5 JUMPI DUP4 DUP3 DUP3 PUSH1 0x40 MLOAD PUSH32 0x64283D7B00000000000000000000000000000000000000000000000000000000 DUP2 MSTORE PUSH1 0x4 ADD PUSH2 0xCAC SWAP4 SWAP3 SWAP2 SWAP1 PUSH2 0x37DA JUMP JUMPDEST PUSH1 0x40 MLOAD DUP1 SWAP2 SUB SWAP1 REVERT JUMPDEST POP POP POP POP JUMP JUMPDEST PUSH1 0xA DUP2 JUMP JUMPDEST PUSH1 0xC PUSH1 0x20 MSTORE DUP1 PUSH0 MSTORE PUSH1 0x40 PUSH0 KECCAK256 PUSH0 SWAP2 POP SWAP1 POP SLOAD DUP2 JUMP JUMPDEST PUSH0 PUSH0 PUSH1 0xA PUSH0 DUP5 PUSH20 0xFFFFFFFFFFFFFFFFFFFFFFFFFFFFFFFFFFFFFFFF AND PUSH20 0xFFFFFFFFFFFFFFFFFFFFFFFFFFFFFFFFFFFFFFFF AND DUP2 MSTORE PUSH1 0x20 ADD SWAP1 DUP2 MSTORE PUSH1 0x20 ADD PUSH0 KECCAK256 PUSH0 SWAP1 SLOAD SWAP1 PUSH2 0x100 EXP SWAP1 DIV PUSH1 0xFF AND PUSH1 0xB PUSH0 DUP6 PUSH20 0xFFFFFFFFFFFFFFFFFFFFFFFFFFFFFFFFFFFFFFFF AND PUSH20 0xFFFFFFFFFFFFFFFFFFFFFFFFFFFFFFFFFFFFFFFF AND DUP2 MSTORE PUSH1 0x20 ADD SWAP1 DUP2 MSTORE PUSH1 0x20 ADD PUSH0 KECCAK256 PUSH0 SWAP1 SLOAD SWAP1 PUSH2 0x100 EXP SWAP1 DIV PUSH1 0xFF AND SWAP2 POP SWAP2 POP SWAP2 POP SWAP2 JUMP JUMPDEST PUSH2 0xD7C PUSH2 0x2255 JUMP JUMPDEST PUSH0 SELFBALANCE SWAP1 POP PUSH0 DUP2 GT PUSH2 0xDC2 JUMPI PUSH1 0x40 MLOAD PUSH32 0x8C379A000000000000000000000000000000000000000000000000000000000 DUP2 MSTORE PUSH1 0x4 ADD PUSH2 0xDB9 SWAP1 PUSH2 0x3859 JUMP JUMPDEST PUSH1 0x40 MLOAD DUP1 SWAP2 SUB SWAP1 REVERT JUMPDEST PUSH0 PUSH2 0xDCB PUSH2 0x11E7 JUMP JUMPDEST PUSH20 0xFFFFFFFFFFFFFFFFFFFFFFFFFFFFFFFFFFFFFFFF AND DUP3 PUSH1 0x40 MLOAD PUSH2 0xDEE SWAP1 PUSH2 0x38A4 JUMP JUMPDEST PUSH0 PUSH1 0x40 MLOAD DUP1 DUP4 SUB DUP2 DUP6 DUP8 GAS CALL SWAP3 POP POP POP RETURNDATASIZE DUP1 PUSH0 DUP2 EQ PUSH2 0xE28 JUMPI PUSH1 0x40 MLOAD SWAP2 POP PUSH1 0x1F NOT PUSH1 0x3F RETURNDATASIZE ADD AND DUP3 ADD PUSH1 0x40 MSTORE RETURNDATASIZE DUP3 MSTORE RETURNDATASIZE PUSH0 PUSH1 0x20 DUP5 ADD RETURNDATACOPY PUSH2 0xE2D JUMP JUMPDEST PUSH1 0x60 SWAP2 POP JUMPDEST POP POP SWAP1 POP DUP1 PUSH2 0xE71 JUMPI PUSH1 0x40 MLOAD PUSH32 0x8C379A000000000000000000000000000000000000000000000000000000000 DUP2 MSTORE PUSH1 0x4 ADD PUSH2 0xE68 SWAP1 PUSH2 0x3902 JUMP JUMPDEST PUSH1 0x40 MLOAD DUP1 SWAP2 SUB SWAP1 REVERT JUMPDEST POP POP JUMP JUMPDEST PUSH2 0xE8F DUP4 DUP4 DUP4 PUSH1 0x40 MLOAD DUP1 PUSH1 0x20 ADD PUSH1 0x40 MSTORE DUP1 PUSH0 DUP2 MSTORE POP PUSH2 0x1B62 JUMP JUMPDEST POP POP POP JUMP JUMPDEST PUSH1 0x2 DUP2 JUMP JUMPDEST PUSH2 0xEA1 PUSH2 0x2255 JUMP JUMPDEST DUP1 PUSH1 0x9 SWAP1 DUP2 PUSH2 0xEB0 SWAP2 SWAP1 PUSH2 0x3AC0 JUMP JUMPDEST POP POP JUMP JUMPDEST PUSH0 PUSH2 0xEBE DUP3 PUSH2 0x217D JUMP JUMPDEST SWAP1 POP SWAP2 SWAP1 POP JUMP JUMPDEST PUSH0 PUSH0 PUSH20 0xFFFFFFFFFFFFFFFFFFFFFFFFFFFFFFFFFFFFFFFF AND DUP3 PUSH20 0xFFFFFFFFFFFFFFFFFFFFFFFFFFFFFFFFFFFFFFFF AND SUB PUSH2 0xF36 JUMPI PUSH0 PUSH1 0x40 MLOAD PUSH32 0x89C62B6400000000000000000000000000000000000000000000000000000000 DUP2 MSTORE PUSH1 0x4 ADD PUSH2 0xF2D SWAP2 SWAP1 PUSH2 0x3205 JUMP JUMPDEST PUSH1 0x40 MLOAD DUP1 SWAP2 SUB SWAP1 REVERT JUMPDEST PUSH1 0x3 PUSH0 DUP4 PUSH20 0xFFFFFFFFFFFFFFFFFFFFFFFFFFFFFFFFFFFFFFFF AND PUSH20 0xFFFFFFFFFFFFFFFFFFFFFFFFFFFFFFFFFFFFFFFF AND DUP2 MSTORE PUSH1 0x20 ADD SWAP1 DUP2 MSTORE PUSH1 0x20 ADD PUSH0 KECCAK256 SLOAD SWAP1 POP SWAP2 SWAP1 POP JUMP JUMPDEST PUSH2 0xF83 PUSH2 0x2255 JUMP JUMPDEST PUSH2 0xF8C PUSH0 PUSH2 0x24E7 JUMP JUMPDEST JUMP JUMPDEST PUSH1 0x8 SLOAD DUP2 JUMP JUMPDEST PUSH0 PUSH1 0x1 PUSH1 0x3 DUP2 GT ISZERO PUSH2 0xFA9 JUMPI PUSH2 0xFA8 PUSH2 0x304C JUMP JUMPDEST JUMPDEST PUSH1 0x6 PUSH1 0x14 SWAP1 SLOAD SWAP1 PUSH2 0x100 EXP SWAP1 DIV PUSH1 0xFF AND PUSH1 0x3 DUP2 GT ISZERO PUSH2 0xFCB JUMPI PUSH2 0xFCA PUSH2 0x304C JUMP JUMPDEST JUMPDEST EQ DUP1 ISZERO PUSH2 0x101E JUMPI POP PUSH1 0xA PUSH0 DUP4 PUSH20 0xFFFFFFFFFFFFFFFFFFFFFFFFFFFFFFFFFFFFFFFF AND PUSH20 0xFFFFFFFFFFFFFFFFFFFFFFFFFFFFFFFFFFFFFFFF AND DUP2 MSTORE PUSH1 0x20 ADD SWAP1 DUP2 MSTORE PUSH1 0x20 ADD PUSH0 KECCAK256 PUSH0 SWAP1 SLOAD SWAP1 PUSH2 0x100 EXP SWAP1 DIV PUSH1 0xFF AND JUMPDEST ISZERO PUSH2 0x1074 JUMPI PUSH1 0xC PUSH0 DUP4 PUSH20 0xFFFFFFFFFFFFFFFFFFFFFFFFFFFFFFFFFFFFFFFF AND PUSH20 0xFFFFFFFFFFFFFFFFFFFFFFFFFFFFFFFFFFFFFFFF AND DUP2 MSTORE PUSH1 0x20 ADD SWAP1 DUP2 MSTORE PUSH1 0x20 ADD PUSH0 KECCAK256 SLOAD PUSH1 0x2 PUSH2 0x106D SWAP2 SWAP1 PUSH2 0x3BBC JUMP JUMPDEST SWAP1 POP PUSH2 0x11E2 JUMP JUMPDEST PUSH1 0x2 PUSH1 0x3 DUP2 GT ISZERO PUSH2 0x1088 JUMPI PUSH2 0x1087 PUSH2 0x304C JUMP JUMPDEST JUMPDEST PUSH1 0x6 PUSH1 0x14 SWAP1 SLOAD SWAP1 PUSH2 0x100 EXP SWAP1 DIV PUSH1 0xFF AND PUSH1 0x3 DUP2 GT ISZERO PUSH2 0x10AA JUMPI PUSH2 0x10A9 PUSH2 0x304C JUMP JUMPDEST JUMPDEST EQ DUP1 ISZERO PUSH2 0x10FD JUMPI POP PUSH1 0xB PUSH0 DUP4 PUSH20 0xFFFFFFFFFFFFFFFFFFFFFFFFFFFFFFFFFFFFFFFF AND PUSH20 0xFFFFFFFFFFFFFFFFFFFFFFFFFFFFFFFFFFFFFFFF AND DUP2 MSTORE PUSH1 0x20 ADD SWAP1 DUP2 MSTORE PUSH1 0x20 ADD PUSH0 KECCAK256 PUSH0 SWAP1 SLOAD SWAP1 PUSH2 0x100 EXP SWAP1 DIV PUSH1 0xFF AND JUMPDEST ISZERO PUSH2 0x1153 JUMPI PUSH1 0xC PUSH0 DUP4 PUSH20 0xFFFFFFFFFFFFFFFFFFFFFFFFFFFFFFFFFFFFFFFF AND PUSH20 0xFFFFFFFFFFFFFFFFFFFFFFFFFFFFFFFFFFFFFFFF AND DUP2 MSTORE PUSH1 0x20 ADD SWAP1 DUP2 MSTORE PUSH1 0x20 ADD PUSH0 KECCAK256 SLOAD PUSH1 0x1 PUSH2 0x114C SWAP2 SWAP1 PUSH2 0x3BBC JUMP JUMPDEST SWAP1 POP PUSH2 0x11E2 JUMP JUMPDEST PUSH1 0x3 DUP1 DUP2 GT ISZERO PUSH2 0x1166 JUMPI PUSH2 0x1165 PUSH2 0x304C JUMP JUMPDEST JUMPDEST PUSH1 0x6 PUSH1 0x14 SWAP1 SLOAD SWAP1 PUSH2 0x100 EXP SWAP1 DIV PUSH1 0xFF AND PUSH1 0x3 DUP2 GT ISZERO PUSH2 0x1188 JUMPI PUSH2 0x1187 PUSH2 0x304C JUMP JUMPDEST JUMPDEST SUB PUSH2 0x11DE JUMPI PUSH1 0xC PUSH0 DUP4 PUSH20 0xFFFFFFFFFFFFFFFFFFFFFFFFFFFFFFFFFFFFFFFF AND PUSH20 0xFFFFFFFFFFFFFFFFFFFFFFFFFFFFFFFFFFFFFFFF AND DUP2 MSTORE PUSH1 0x20 ADD SWAP1 DUP2 MSTORE PUSH1 0x20 ADD PUSH0 KECCAK256 SLOAD PUSH1 0x5 PUSH2 0x11D7 SWAP2 SWAP1 PUSH2 0x3BBC JUMP JUMPDEST SWAP1 POP PUSH2 0x11E2 JUMP JUMPDEST PUSH0 SWAP1 POP JUMPDEST SWAP2 SWAP1 POP JUMP JUMPDEST PUSH0 PUSH1 0x6 PUSH0 SWAP1 SLOAD SWAP1 PUSH2 0x100 EXP SWAP1 DIV PUSH20 0xFFFFFFFFFFFFFFFFFFFFFFFFFFFFFFFFFFFFFFFF AND SWAP1 POP SWAP1 JUMP JUMPDEST PUSH2 0x1217 PUSH2 0x2255 JUMP JUMPDEST DUP1 PUSH1 0x7 DUP2 SWAP1 SSTORE POP POP JUMP JUMPDEST PUSH1 0x60 PUSH1 0x1 DUP1 SLOAD PUSH2 0x1230 SWAP1 PUSH2 0x37AA JUMP JUMPDEST DUP1 PUSH1 0x1F ADD PUSH1 0x20 DUP1 SWAP2 DIV MUL PUSH1 0x20 ADD PUSH1 0x40 MLOAD SWAP1 DUP2 ADD PUSH1 0x40 MSTORE DUP1 SWAP3 SWAP2 SWAP1 DUP2 DUP2 MSTORE PUSH1 0x20 ADD DUP3 DUP1 SLOAD PUSH2 0x125C SWAP1 PUSH2 0x37AA JUMP JUMPDEST DUP1 ISZERO PUSH2 0x12A7 JUMPI DUP1 PUSH1 0x1F LT PUSH2 0x127E JUMPI PUSH2 0x100 DUP1 DUP4 SLOAD DIV MUL DUP4 MSTORE SWAP2 PUSH1 0x20 ADD SWAP2 PUSH2 0x12A7 JUMP JUMPDEST DUP3 ADD SWAP2 SWAP1 PUSH0 MSTORE PUSH1 0x20 PUSH0 KECCAK256 SWAP1 JUMPDEST DUP2 SLOAD DUP2 MSTORE SWAP1 PUSH1 0x1 ADD SWAP1 PUSH1 0x20 ADD DUP1 DUP4 GT PUSH2 0x128A JUMPI DUP3 SWAP1 SUB PUSH1 0x1F AND DUP3 ADD SWAP2 JUMPDEST POP POP POP POP POP SWAP1 POP SWAP1 JUMP JUMPDEST PUSH0 PUSH1 0xC PUSH0 DUP4 PUSH20 0xFFFFFFFFFFFFFFFFFFFFFFFFFFFFFFFFFFFFFFFF AND PUSH20 0xFFFFFFFFFFFFFFFFFFFFFFFFFFFFFFFFFFFFFFFF AND DUP2 MSTORE PUSH1 0x20 ADD SWAP1 DUP2 MSTORE PUSH1 0x20 ADD PUSH0 KECCAK256 SLOAD SWAP1 POP SWAP2 SWAP1 POP JUMP JUMPDEST PUSH0 PUSH2 0x1301 CALLER PUSH2 0xEC5 JUMP JUMPDEST GT ISZERO PUSH2 0x1342 JUMPI PUSH1 0x40 MLOAD PUSH32 0x8C379A000000000000000000000000000000000000000000000000000000000 DUP2 MSTORE PUSH1 0x4 ADD PUSH2 0x1339 SWAP1 PUSH2 0x3C39 JUMP JUMPDEST PUSH1 0x40 MLOAD DUP1 SWAP2 SUB SWAP1 REVERT JUMPDEST PUSH0 DUP2 GT PUSH2 0x1384 JUMPI PUSH1 0x40 MLOAD PUSH32 0x8C379A000000000000000000000000000000000000000000000000000000000 DUP2 MSTORE PUSH1 0x4 ADD PUSH2 0x137B SWAP1 PUSH2 0x3CA1 JUMP JUMPDEST PUSH1 0x40 MLOAD DUP1 SWAP2 SUB SWAP1 REVERT JUMPDEST PUSH1 0x2 DUP2 LT PUSH2 0x13C7 JUMPI PUSH1 0x40 MLOAD PUSH32 0x8C379A000000000000000000000000000000000000000000000000000000000 DUP2 MSTORE PUSH1 0x4 ADD PUSH2 0x13BE SWAP1 PUSH2 0x3D09 JUMP JUMPDEST PUSH1 0x40 MLOAD DUP1 SWAP2 SUB SWAP1 REVERT JUMPDEST PUSH1 0xA DUP2 PUSH1 0x8 SLOAD PUSH2 0x13D7 SWAP2 SWAP1 PUSH2 0x3D27 JUMP JUMPDEST GT ISZERO PUSH2 0x1418 JUMPI PUSH1 0x40 MLOAD PUSH32 0x8C379A000000000000000000000000000000000000000000000000000000000 DUP2 MSTORE PUSH1 0x4 ADD PUSH2 0x140F SWAP1 PUSH2 0x3DA4 JUMP JUMPDEST PUSH1 0x40 MLOAD DUP1 SWAP2 SUB SWAP1 REVERT JUMPDEST DUP1 PUSH1 0x7 SLOAD PUSH2 0x1426 SWAP2 SWAP1 PUSH2 0x3DC2 JUMP JUMPDEST CALLVALUE LT ISZERO PUSH2 0x1468 JUMPI PUSH1 0x40 MLOAD PUSH32 0x8C379A000000000000000000000000000000000000000000000000000000000 DUP2 MSTORE PUSH1 0x4 ADD PUSH2 0x145F SWAP1 PUSH2 0x3E4D JUMP JUMPDEST PUSH1 0x40 MLOAD DUP1 SWAP2 SUB SWAP1 REVERT JUMPDEST PUSH1 0x1 PUSH1 0x3 DUP2 GT ISZERO PUSH2 0x147C JUMPI PUSH2 0x147B PUSH2 0x304C JUMP JUMPDEST JUMPDEST PUSH1 0x6 PUSH1 0x14 SWAP1 SLOAD SWAP1 PUSH2 0x100 EXP SWAP1 DIV PUSH1 0xFF AND PUSH1 0x3 DUP2 GT ISZERO PUSH2 0x149E JUMPI PUSH2 0x149D PUSH2 0x304C JUMP JUMPDEST JUMPDEST SUB PUSH2 0x15BD JUMPI PUSH1 0xA PUSH0 CALLER PUSH20 0xFFFFFFFFFFFFFFFFFFFFFFFFFFFFFFFFFFFFFFFF AND PUSH20 0xFFFFFFFFFFFFFFFFFFFFFFFFFFFFFFFFFFFFFFFF AND DUP2 MSTORE PUSH1 0x20 ADD SWAP1 DUP2 MSTORE PUSH1 0x20 ADD PUSH0 KECCAK256 PUSH0 SWAP1 SLOAD SWAP1 PUSH2 0x100 EXP SWAP1 DIV PUSH1 0xFF AND PUSH2 0x152C JUMPI PUSH1 0x40 MLOAD PUSH32 0x8C379A000000000000000000000000000000000000000000000000000000000 DUP2 MSTORE PUSH1 0x4 ADD PUSH2 0x1523 SWAP1 PUSH2 0x3EB5 JUMP JUMPDEST PUSH1 0x40 MLOAD DUP1 SWAP2 SUB SWAP1 REVERT JUMPDEST PUSH1 0x2 DUP2 PUSH1 0xC PUSH0 CALLER PUSH20 0xFFFFFFFFFFFFFFFFFFFFFFFFFFFFFFFFFFFFFFFF AND PUSH20 0xFFFFFFFFFFFFFFFFFFFFFFFFFFFFFFFFFFFFFFFF AND DUP2 MSTORE PUSH1 0x20 ADD SWAP1 DUP2 MSTORE PUSH1 0x20 ADD PUSH0 KECCAK256 SLOAD PUSH2 0x1577 SWAP2 SWAP1 PUSH2 0x3D27 JUMP JUMPDEST GT ISZERO PUSH2 0x15B8 JUMPI PUSH1 0x40 MLOAD PUSH32 0x8C379A000000000000000000000000000000000000000000000000000000000 DUP2 MSTORE PUSH1 0x4 ADD PUSH2 0x15AF SWAP1 PUSH2 0x3F1D JUMP JUMPDEST PUSH1 0x40 MLOAD DUP1 SWAP2 SUB SWAP1 REVERT JUMPDEST PUSH2 0x181A JUMP JUMPDEST PUSH1 0x2 PUSH1 0x3 DUP2 GT ISZERO PUSH2 0x15D1 JUMPI PUSH2 0x15D0 PUSH2 0x304C JUMP JUMPDEST JUMPDEST PUSH1 0x6 PUSH1 0x14 SWAP1 SLOAD SWAP1 PUSH2 0x100 EXP SWAP1 DIV PUSH1 0xFF AND PUSH1 0x3 DUP2 GT ISZERO PUSH2 0x15F3 JUMPI PUSH2 0x15F2 PUSH2 0x304C JUMP JUMPDEST JUMPDEST SUB PUSH2 0x1712 JUMPI PUSH1 0xB PUSH0 CALLER PUSH20 0xFFFFFFFFFFFFFFFFFFFFFFFFFFFFFFFFFFFFFFFF AND PUSH20 0xFFFFFFFFFFFFFFFFFFFFFFFFFFFFFFFFFFFFFFFF AND DUP2 MSTORE PUSH1 0x20 ADD SWAP1 DUP2 MSTORE PUSH1 0x20 ADD PUSH0 KECCAK256 PUSH0 SWAP1 SLOAD SWAP1 PUSH2 0x100 EXP SWAP1 DIV PUSH1 0xFF AND PUSH2 0x1681 JUMPI PUSH1 0x40 MLOAD PUSH32 0x8C379A000000000000000000000000000000000000000000000000000000000 DUP2 MSTORE PUSH1 0x4 ADD PUSH2 0x1678 SWAP1 PUSH2 0x3F85 JUMP JUMPDEST PUSH1 0x40 MLOAD DUP1 SWAP2 SUB SWAP1 REVERT JUMPDEST PUSH1 0x1 DUP2 PUSH1 0xC PUSH0 CALLER PUSH20 0xFFFFFFFFFFFFFFFFFFFFFFFFFFFFFFFFFFFFFFFF AND PUSH20 0xFFFFFFFFFFFFFFFFFFFFFFFFFFFFFFFFFFFFFFFF AND DUP2 MSTORE PUSH1 0x20 ADD SWAP1 DUP2 MSTORE PUSH1 0x20 ADD PUSH0 KECCAK256 SLOAD PUSH2 0x16CC SWAP2 SWAP1 PUSH2 0x3D27 JUMP JUMPDEST GT ISZERO PUSH2 0x170D JUMPI PUSH1 0x40 MLOAD PUSH32 0x8C379A000000000000000000000000000000000000000000000000000000000 DUP2 MSTORE PUSH1 0x4 ADD PUSH2 0x1704 SWAP1 PUSH2 0x3FED JUMP JUMPDEST PUSH1 0x40 MLOAD DUP1 SWAP2 SUB SWAP1 REVERT JUMPDEST PUSH2 0x1819 JUMP JUMPDEST PUSH1 0x3 DUP1 DUP2 GT ISZERO PUSH2 0x1725 JUMPI PUSH2 0x1724 PUSH2 0x304C JUMP JUMPDEST JUMPDEST PUSH1 0x6 PUSH1 0x14 SWAP1 SLOAD SWAP1 PUSH2 0x100 EXP SWAP1 DIV PUSH1 0xFF AND PUSH1 0x3 DUP2 GT ISZERO PUSH2 0x1747 JUMPI PUSH2 0x1746 PUSH2 0x304C JUMP JUMPDEST JUMPDEST SUB PUSH2 0x17DD JUMPI PUSH1 0x5 DUP2 PUSH1 0xC PUSH0 CALLER PUSH20 0xFFFFFFFFFFFFFFFFFFFFFFFFFFFFFFFFFFFFFFFF AND PUSH20 0xFFFFFFFFFFFFFFFFFFFFFFFFFFFFFFFFFFFFFFFF AND DUP2 MSTORE PUSH1 0x20 ADD SWAP1 DUP2 MSTORE PUSH1 0x20 ADD PUSH0 KECCAK256 SLOAD PUSH2 0x1797 SWAP2 SWAP1 PUSH2 0x3D27 JUMP JUMPDEST GT ISZERO PUSH2 0x17D8 JUMPI PUSH1 0x40 MLOAD PUSH32 0x8C379A000000000000000000000000000000000000000000000000000000000 DUP2 MSTORE PUSH1 0x4 ADD PUSH2 0x17CF SWAP1 PUSH2 0x4055 JUMP JUMPDEST PUSH1 0x40 MLOAD DUP1 SWAP2 SUB SWAP1 REVERT JUMPDEST PUSH2 0x1818 JUMP JUMPDEST PUSH1 0x40 MLOAD PUSH32 0x8C379A000000000000000000000000000000000000000000000000000000000 DUP2 MSTORE PUSH1 0x4 ADD PUSH2 0x180F SWAP1 PUSH2 0x40BD JUMP JUMPDEST PUSH1 0x40 MLOAD DUP1 SWAP2 SUB SWAP1 REVERT JUMPDEST JUMPDEST JUMPDEST PUSH0 PUSH1 0x8 SLOAD SWAP1 POP PUSH0 PUSH0 SWAP1 POP JUMPDEST DUP3 DUP2 LT ISZERO PUSH2 0x185D JUMPI PUSH2 0x1839 CALLER PUSH1 0x8 SLOAD PUSH2 0x25AA JUMP JUMPDEST PUSH1 0x8 PUSH0 DUP2 SLOAD DUP1 SWAP3 SWAP2 SWAP1 PUSH2 0x184B SWAP1 PUSH2 0x40DB JUMP JUMPDEST SWAP2 SWAP1 POP SSTORE POP DUP1 DUP1 PUSH1 0x1 ADD SWAP2 POP POP PUSH2 0x1825 JUMP JUMPDEST POP DUP2 PUSH1 0xC PUSH0 CALLER PUSH20 0xFFFFFFFFFFFFFFFFFFFFFFFFFFFFFFFFFFFFFFFF AND PUSH20 0xFFFFFFFFFFFFFFFFFFFFFFFFFFFFFFFFFFFFFFFF AND DUP2 MSTORE PUSH1 0x20 ADD SWAP1 DUP2 MSTORE PUSH1 0x20 ADD PUSH0 KECCAK256 PUSH0 DUP3 DUP3 SLOAD PUSH2 0x18AA SWAP2 SWAP1 PUSH2 0x3D27 JUMP JUMPDEST SWAP3 POP POP DUP2 SWAP1 SSTORE POP CALLER PUSH20 0xFFFFFFFFFFFFFFFFFFFFFFFFFFFFFFFFFFFFFFFF AND PUSH32 0x25B428DFDE728CCFADDAD7E29E4AC23C24ED7FD1A6E3E3F91894A9A073F5DFFF DUP4 DUP4 PUSH1 0x40 MLOAD PUSH2 0x18F9 SWAP3 SWAP2 SWAP1 PUSH2 0x4122 JUMP JUMPDEST PUSH1 0x40 MLOAD DUP1 SWAP2 SUB SWAP1 LOG2 POP POP JUMP JUMPDEST PUSH2 0x1917 PUSH2 0x1910 PUSH2 0x223C JUMP JUMPDEST DUP4 DUP4 PUSH2 0x25C7 JUMP JUMPDEST POP POP JUMP JUMPDEST PUSH0 PUSH1 0x8 SLOAD SWAP1 POP SWAP1 JUMP JUMPDEST PUSH1 0x60 PUSH0 PUSH1 0x3 DUP2 GT ISZERO PUSH2 0x1939 JUMPI PUSH2 0x1938 PUSH2 0x304C JUMP JUMPDEST JUMPDEST PUSH1 0x6 PUSH1 0x14 SWAP1 SLOAD SWAP1 PUSH2 0x100 EXP SWAP1 DIV PUSH1 0xFF AND PUSH1 0x3 DUP2 GT ISZERO PUSH2 0x195B JUMPI PUSH2 0x195A PUSH2 0x304C JUMP JUMPDEST JUMPDEST SUB PUSH2 0x199D JUMPI PUSH1 0x40 MLOAD DUP1 PUSH1 0x40 ADD PUSH1 0x40 MSTORE DUP1 PUSH1 0xB DUP2 MSTORE PUSH1 0x20 ADD PUSH32 0x4E6F742053746172746564000000000000000000000000000000000000000000 DUP2 MSTORE POP SWAP1 POP PUSH2 0x1B3D JUMP JUMPDEST PUSH1 0x1 PUSH1 0x3 DUP2 GT ISZERO PUSH2 0x19B1 JUMPI PUSH2 0x19B0 PUSH2 0x304C JUMP JUMPDEST JUMPDEST PUSH1 0x6 PUSH1 0x14 SWAP1 SLOAD SWAP1 PUSH2 0x100 EXP SWAP1 DIV PUSH1 0xFF AND PUSH1 0x3 DUP2 GT ISZERO PUSH2 0x19D3 JUMPI PUSH2 0x19D2 PUSH2 0x304C JUMP JUMPDEST JUMPDEST SUB PUSH2 0x1A15 JUMPI PUSH1 0x40 MLOAD DUP1 PUSH1 0x40 ADD PUSH1 0x40 MSTORE DUP1 PUSH1 0xD DUP2 MSTORE PUSH1 0x20 ADD PUSH32 0x4754442057686974656C69737400000000000000000000000000000000000000 DUP2 MSTORE POP SWAP1 POP PUSH2 0x1B3D JUMP JUMPDEST PUSH1 0x2 PUSH1 0x3 DUP2 GT ISZERO PUSH2 0x1A29 JUMPI PUSH2 0x1A28 PUSH2 0x304C JUMP JUMPDEST JUMPDEST PUSH1 0x6 PUSH1 0x14 SWAP1 SLOAD SWAP1 PUSH2 0x100 EXP SWAP1 DIV PUSH1 0xFF AND PUSH1 0x3 DUP2 GT ISZERO PUSH2 0x1A4B JUMPI PUSH2 0x1A4A PUSH2 0x304C JUMP JUMPDEST JUMPDEST SUB PUSH2 0x1A8D JUMPI PUSH1 0x40 MLOAD DUP1 PUSH1 0x40 ADD PUSH1 0x40 MSTORE DUP1 PUSH1 0xE DUP2 MSTORE PUSH1 0x20 ADD PUSH32 0x464346532057686974656C697374000000000000000000000000000000000000 DUP2 MSTORE POP SWAP1 POP PUSH2 0x1B3D JUMP JUMPDEST PUSH1 0x3 DUP1 DUP2 GT ISZERO PUSH2 0x1AA0 JUMPI PUSH2 0x1A9F PUSH2 0x304C JUMP JUMPDEST JUMPDEST PUSH1 0x6 PUSH1 0x14 SWAP1 SLOAD SWAP1 PUSH2 0x100 EXP SWAP1 DIV PUSH1 0xFF AND PUSH1 0x3 DUP2 GT ISZERO PUSH2 0x1AC2 JUMPI PUSH2 0x1AC1 PUSH2 0x304C JUMP JUMPDEST JUMPDEST SUB PUSH2 0x1B04 JUMPI PUSH1 0x40 MLOAD DUP1 PUSH1 0x40 ADD PUSH1 0x40 MSTORE DUP1 PUSH1 0xB DUP2 MSTORE PUSH1 0x20 ADD PUSH32 0x5075626C6963204D696E74000000000000000000000000000000000000000000 DUP2 MSTORE POP SWAP1 POP PUSH2 0x1B3D JUMP JUMPDEST PUSH1 0x40 MLOAD DUP1 PUSH1 0x40 ADD PUSH1 0x40 MSTORE DUP1 PUSH1 0x7 DUP2 MSTORE PUSH1 0x20 ADD PUSH32 0x556E6B6E6F776E00000000000000000000000000000000000000000000000000 DUP2 MSTORE POP SWAP1 POP JUMPDEST SWAP1 JUMP JUMPDEST PUSH1 0x5 DUP2 JUMP JUMPDEST PUSH1 0xA PUSH1 0x20 MSTORE DUP1 PUSH0 MSTORE PUSH1 0x40 PUSH0 KECCAK256 PUSH0 SWAP2 POP SLOAD SWAP1 PUSH2 0x100 EXP SWAP1 DIV PUSH1 0xFF AND DUP2 JUMP JUMPDEST PUSH2 0x1B6D DUP5 DUP5 DUP5 PUSH2 0xBBC JUMP JUMPDEST PUSH2 0x1B81 PUSH2 0x1B78 PUSH2 0x223C JUMP JUMPDEST DUP6 DUP6 DUP6 DUP6 PUSH2 0x2730 JUMP JUMPDEST POP POP POP POP JUMP JUMPDEST PUSH1 0x7 SLOAD DUP2 JUMP JUMPDEST PUSH2 0x1B95 PUSH2 0x2255 JUMP JUMPDEST DUP1 PUSH1 0x6 PUSH1 0x14 PUSH2 0x100 EXP DUP2 SLOAD DUP2 PUSH1 0xFF MUL NOT AND SWAP1 DUP4 PUSH1 0x3 DUP2 GT ISZERO PUSH2 0x1BBA JUMPI PUSH2 0x1BB9 PUSH2 0x304C JUMP JUMPDEST JUMPDEST MUL OR SWAP1 SSTORE POP PUSH0 PUSH1 0x3 DUP2 GT ISZERO PUSH2 0x1BD2 JUMPI PUSH2 0x1BD1 PUSH2 0x304C JUMP JUMPDEST JUMPDEST PUSH1 0x6 PUSH1 0x14 SWAP1 SLOAD SWAP1 PUSH2 0x100 EXP SWAP1 DIV PUSH1 0xFF AND PUSH1 0x3 DUP2 GT ISZERO PUSH2 0x1BF4 JUMPI PUSH2 0x1BF3 PUSH2 0x304C JUMP JUMPDEST JUMPDEST SUB PUSH2 0x1C01 JUMPI PUSH0 PUSH1 0x7 DUP2 SWAP1 SSTORE POP JUMPDEST PUSH1 0x1 PUSH1 0x3 DUP2 GT ISZERO PUSH2 0x1C15 JUMPI PUSH2 0x1C14 PUSH2 0x304C JUMP JUMPDEST JUMPDEST PUSH1 0x6 PUSH1 0x14 SWAP1 SLOAD SWAP1 PUSH2 0x100 EXP SWAP1 DIV PUSH1 0xFF AND PUSH1 0x3 DUP2 GT ISZERO PUSH2 0x1C37 JUMPI PUSH2 0x1C36 PUSH2 0x304C JUMP JUMPDEST JUMPDEST SUB PUSH2 0x1C4C JUMPI PUSH8 0x2C68AF0BB140000 PUSH1 0x7 DUP2 SWAP1 SSTORE POP JUMPDEST PUSH1 0x2 PUSH1 0x3 DUP2 GT ISZERO PUSH2 0x1C60 JUMPI PUSH2 0x1C5F PUSH2 0x304C JUMP JUMPDEST JUMPDEST PUSH1 0x6 PUSH1 0x14 SWAP1 SLOAD SWAP1 PUSH2 0x100 EXP SWAP1 DIV PUSH1 0xFF AND PUSH1 0x3 DUP2 GT ISZERO PUSH2 0x1C82 JUMPI PUSH2 0x1C81 PUSH2 0x304C JUMP JUMPDEST JUMPDEST SUB PUSH2 0x1C97 JUMPI PUSH8 0x6F05B59D3B20000 PUSH1 0x7 DUP2 SWAP1 SSTORE POP JUMPDEST PUSH1 0x3 DUP1 DUP2 GT ISZERO PUSH2 0x1CAA JUMPI PUSH2 0x1CA9 PUSH2 0x304C JUMP JUMPDEST JUMPDEST PUSH1 0x6 PUSH1 0x14 SWAP1 SLOAD SWAP1 PUSH2 0x100 EXP SWAP1 DIV PUSH1 0xFF AND PUSH1 0x3 DUP2 GT ISZERO PUSH2 0x1CCC JUMPI PUSH2 0x1CCB PUSH2 0x304C JUMP JUMPDEST JUMPDEST SUB PUSH2 0x1CE1 JUMPI PUSH8 0xDE0B6B3A7640000 PUSH1 0x7 DUP2 SWAP1 SSTORE POP JUMPDEST PUSH32 0xA6DCC92F45DF25789D5639B7A0C97BA1EDF3BB1C0B5DD3376FD96A0DB87C4642 DUP2 PUSH1 0x40 MLOAD PUSH2 0x1D10 SWAP2 SWAP1 PUSH2 0x30BF JUMP JUMPDEST PUSH1 0x40 MLOAD DUP1 SWAP2 SUB SWAP1 LOG1 POP JUMP JUMPDEST PUSH1 0x60 PUSH0 PUSH20 0xFFFFFFFFFFFFFFFFFFFFFFFFFFFFFFFFFFFFFFFF AND PUSH2 0x1D3D DUP4 PUSH2 0xEB4 JUMP JUMPDEST PUSH20 0xFFFFFFFFFFFFFFFFFFFFFFFFFFFFFFFFFFFFFFFF AND SUB PUSH2 0x1D93 JUMPI PUSH1 0x40 MLOAD PUSH32 0x8C379A000000000000000000000000000000000000000000000000000000000 DUP2 MSTORE PUSH1 0x4 ADD PUSH2 0x1D8A SWAP1 PUSH2 0x4193 JUMP JUMPDEST PUSH1 0x40 MLOAD DUP1 SWAP2 SUB SWAP1 REVERT JUMPDEST PUSH1 0x9 PUSH2 0x1D9E DUP4 PUSH2 0x28DC JUMP JUMPDEST PUSH1 0x40 MLOAD PUSH1 0x20 ADD PUSH2 0x1DAF SWAP3 SWAP2 SWAP1 PUSH2 0x42B5 JUMP JUMPDEST PUSH1 0x40 MLOAD PUSH1 0x20 DUP2 DUP4 SUB SUB DUP2 MSTORE SWAP1 PUSH1 0x40 MSTORE SWAP1 POP SWAP2 SWAP1 POP JUMP JUMPDEST PUSH1 0x9 DUP1 SLOAD PUSH2 0x1DD2 SWAP1 PUSH2 0x37AA JUMP JUMPDEST DUP1 PUSH1 0x1F ADD PUSH1 0x20 DUP1 SWAP2 DIV MUL PUSH1 0x20 ADD PUSH1 0x40 MLOAD SWAP1 DUP2 ADD PUSH1 0x40 MSTORE DUP1 SWAP3 SWAP2 SWAP1 DUP2 DUP2 MSTORE PUSH1 0x20 ADD DUP3 DUP1 SLOAD PUSH2 0x1DFE SWAP1 PUSH2 0x37AA JUMP JUMPDEST DUP1 ISZERO PUSH2 0x1E49 JUMPI DUP1 PUSH1 0x1F LT PUSH2 0x1E20 JUMPI PUSH2 0x100 DUP1 DUP4 SLOAD DIV MUL DUP4 MSTORE SWAP2 PUSH1 0x20 ADD SWAP2 PUSH2 0x1E49 JUMP JUMPDEST DUP3 ADD SWAP2 SWAP1 PUSH0 MSTORE PUSH1 0x20 PUSH0 KECCAK256 SWAP1 JUMPDEST DUP2 SLOAD DUP2 MSTORE SWAP1 PUSH1 0x1 ADD SWAP1 PUSH1 0x20 ADD DUP1 DUP4 GT PUSH2 0x1E2C JUMPI DUP3 SWAP1 SUB PUSH1 0x1F AND DUP3 ADD SWAP2 JUMPDEST POP POP POP POP POP DUP2 JUMP JUMPDEST PUSH2 0x1E59 PUSH2 0x2255 JUMP JUMPDEST PUSH0 PUSH1 0x1 SWAP1 POP JUMPDEST DUP3 DUP3 SWAP1 POP DUP2 LT ISZERO PUSH2 0x1EF3 JUMPI PUSH1 0x1 PUSH1 0xA PUSH0 DUP6 DUP6 DUP6 DUP2 DUP2 LT PUSH2 0x1E82 JUMPI PUSH2 0x1E81 PUSH2 0x42E3 JUMP JUMPDEST JUMPDEST SWAP1 POP PUSH1 0x20 MUL ADD PUSH1 0x20 DUP2 ADD SWAP1 PUSH2 0x1E97 SWAP2 SWAP1 PUSH2 0x3286 JUMP JUMPDEST PUSH20 0xFFFFFFFFFFFFFFFFFFFFFFFFFFFFFFFFFFFFFFFF AND PUSH20 0xFFFFFFFFFFFFFFFFFFFFFFFFFFFFFFFFFFFFFFFF AND DUP2 MSTORE PUSH1 0x20 ADD SWAP1 DUP2 MSTORE PUSH1 0x20 ADD PUSH0 KECCAK256 PUSH0 PUSH2 0x100 EXP DUP2 SLOAD DUP2 PUSH1 0xFF MUL NOT AND SWAP1 DUP4 ISZERO ISZERO MUL OR SWAP1 SSTORE POP DUP1 DUP1 PUSH1 0x1 ADD SWAP2 POP POP PUSH2 0x1E5F JUMP JUMPDEST POP POP POP JUMP JUMPDEST PUSH0 PUSH1 0x5 PUSH0 DUP5 PUSH20 0xFFFFFFFFFFFFFFFFFFFFFFFFFFFFFFFFFFFFFFFF AND PUSH20 0xFFFFFFFFFFFFFFFFFFFFFFFFFFFFFFFFFFFFFFFF AND DUP2 MSTORE PUSH1 0x20 ADD SWAP1 DUP2 MSTORE PUSH1 0x20 ADD PUSH0 KECCAK256 PUSH0 DUP4 PUSH20 0xFFFFFFFFFFFFFFFFFFFFFFFFFFFFFFFFFFFFFFFF AND PUSH20 0xFFFFFFFFFFFFFFFFFFFFFFFFFFFFFFFFFFFFFFFF AND DUP2 MSTORE PUSH1 0x20 ADD SWAP1 DUP2 MSTORE PUSH1 0x20 ADD PUSH0 KECCAK256 PUSH0 SWAP1 SLOAD SWAP1 PUSH2 0x100 EXP SWAP1 DIV PUSH1 0xFF AND SWAP1 POP SWAP3 SWAP2 POP POP JUMP JUMPDEST PUSH1 0x1 DUP2 JUMP JUMPDEST PUSH2 0x1F93 PUSH2 0x2255 JUMP JUMPDEST PUSH0 PUSH20 0xFFFFFFFFFFFFFFFFFFFFFFFFFFFFFFFFFFFFFFFF AND DUP2 PUSH20 0xFFFFFFFFFFFFFFFFFFFFFFFFFFFFFFFFFFFFFFFF AND SUB PUSH2 0x2003 JUMPI PUSH0 PUSH1 0x40 MLOAD PUSH32 0x1E4FBDF700000000000000000000000000000000000000000000000000000000 DUP2 MSTORE PUSH1 0x4 ADD PUSH2 0x1FFA SWAP2 SWAP1 PUSH2 0x3205 JUMP JUMPDEST PUSH1 0x40 MLOAD DUP1 SWAP2 SUB SWAP1 REVERT JUMPDEST PUSH2 0x200C DUP2 PUSH2 0x24E7 JUMP JUMPDEST POP JUMP JUMPDEST PUSH2 0x2017 PUSH2 0x2255 JUMP JUMPDEST PUSH0 PUSH1 0xB PUSH0 DUP4 PUSH20 0xFFFFFFFFFFFFFFFFFFFFFFFFFFFFFFFFFFFFFFFF AND PUSH20 0xFFFFFFFFFFFFFFFFFFFFFFFFFFFFFFFFFFFFFFFF AND DUP2 MSTORE PUSH1 0x20 ADD SWAP1 DUP2 MSTORE PUSH1 0x20 ADD PUSH0 KECCAK256 PUSH0 PUSH2 0x100 EXP DUP2 SLOAD DUP2 PUSH1 0xFF MUL NOT AND SWAP1 DUP4 ISZERO ISZERO MUL OR SWAP1 SSTORE POP POP JUMP JUMPDEST PUSH2 0x2076 PUSH2 0x2255 JUMP JUMPDEST PUSH0 PUSH0 SWAP1 POP JUMPDEST DUP3 DUP3 SWAP1 POP DUP2 LT ISZERO PUSH2 0x210F JUMPI PUSH1 0x1 PUSH1 0xB PUSH0 DUP6 DUP6 DUP6 DUP2 DUP2 LT PUSH2 0x209E JUMPI PUSH2 0x209D PUSH2 0x42E3 JUMP JUMPDEST JUMPDEST SWAP1 POP PUSH1 0x20 MUL ADD PUSH1 0x20 DUP2 ADD SWAP1 PUSH2 0x20B3 SWAP2 SWAP1 PUSH2 0x3286 JUMP JUMPDEST PUSH20 0xFFFFFFFFFFFFFFFFFFFFFFFFFFFFFFFFFFFFFFFF AND PUSH20 0xFFFFFFFFFFFFFFFFFFFFFFFFFFFFFFFFFFFFFFFF AND DUP2 MSTORE PUSH1 0x20 ADD SWAP1 DUP2 MSTORE PUSH1 0x20 ADD PUSH0 KECCAK256 PUSH0 PUSH2 0x100 EXP DUP2 SLOAD DUP2 PUSH1 0xFF MUL NOT AND SWAP1 DUP4 ISZERO ISZERO MUL OR SWAP1 SSTORE POP DUP1 DUP1 PUSH1 0x1 ADD SWAP2 POP POP PUSH2 0x207B JUMP JUMPDEST POP POP POP JUMP JUMPDEST PUSH0 PUSH32 0x1FFC9A700000000000000000000000000000000000000000000000000000000 PUSH28 0xFFFFFFFFFFFFFFFFFFFFFFFFFFFFFFFFFFFFFFFFFFFFFFFFFFFFFFFF NOT AND DUP3 PUSH28 0xFFFFFFFFFFFFFFFFFFFFFFFFFFFFFFFFFFFFFFFFFFFFFFFFFFFFFFFF NOT AND EQ SWAP1 POP SWAP2 SWAP1 POP JUMP JUMPDEST PUSH0 PUSH0 PUSH2 0x2188 DUP4 PUSH2 0x29A6 JUMP JUMPDEST SWAP1 POP PUSH0 PUSH20 0xFFFFFFFFFFFFFFFFFFFFFFFFFFFFFFFFFFFFFFFF AND DUP2 PUSH20 0xFFFFFFFFFFFFFFFFFFFFFFFFFFFFFFFFFFFFFFFF AND SUB PUSH2 0x21FA JUMPI DUP3 PUSH1 0x40 MLOAD PUSH32 0x7E27328900000000000000000000000000000000000000000000000000000000 DUP2 MSTORE PUSH1 0x4 ADD PUSH2 0x21F1 SWAP2 SWAP1 PUSH2 0x3310 JUMP JUMPDEST PUSH1 0x40 MLOAD DUP1 SWAP2 SUB SWAP1 REVERT JUMPDEST DUP1 SWAP2 POP POP SWAP2 SWAP1 POP JUMP JUMPDEST PUSH0 PUSH1 0x4 PUSH0 DUP4 DUP2 MSTORE PUSH1 0x20 ADD SWAP1 DUP2 MSTORE PUSH1 0x20 ADD PUSH0 KECCAK256 PUSH0 SWAP1 SLOAD SWAP1 PUSH2 0x100 EXP SWAP1 DIV PUSH20 0xFFFFFFFFFFFFFFFFFFFFFFFFFFFFFFFFFFFFFFFF AND SWAP1 POP SWAP2 SWAP1 POP JUMP JUMPDEST PUSH0 CALLER SWAP1 POP SWAP1 JUMP JUMPDEST PUSH2 0x2250 DUP4 DUP4 DUP4 PUSH1 0x1 PUSH2 0x29DF JUMP JUMPDEST POP POP POP JUMP JUMPDEST PUSH2 0x225D PUSH2 0x223C JUMP JUMPDEST PUSH20 0xFFFFFFFFFFFFFFFFFFFFFFFFFFFFFFFFFFFFFFFF AND PUSH2 0x227B PUSH2 0x11E7 JUMP JUMPDEST PUSH20 0xFFFFFFFFFFFFFFFFFFFFFFFFFFFFFFFFFFFFFFFF AND EQ PUSH2 0x22DA JUMPI PUSH2 0x229E PUSH2 0x223C JUMP JUMPDEST PUSH1 0x40 MLOAD PUSH32 0x118CDAA700000000000000000000000000000000000000000000000000000000 DUP2 MSTORE PUSH1 0x4 ADD PUSH2 0x22D1 SWAP2 SWAP1 PUSH2 0x3205 JUMP JUMPDEST PUSH1 0x40 MLOAD DUP1 SWAP2 SUB SWAP1 REVERT JUMPDEST JUMP JUMPDEST PUSH0 PUSH0 PUSH2 0x22E7 DUP5 PUSH2 0x29A6 JUMP JUMPDEST SWAP1 POP PUSH0 PUSH20 0xFFFFFFFFFFFFFFFFFFFFFFFFFFFFFFFFFFFFFFFF AND DUP4 PUSH20 0xFFFFFFFFFFFFFFFFFFFFFFFFFFFFFFFFFFFFFFFF AND EQ PUSH2 0x2328 JUMPI PUSH2 0x2327 DUP2 DUP5 DUP7 PUSH2 0x2B9E JUMP JUMPDEST JUMPDEST PUSH0 PUSH20 0xFFFFFFFFFFFFFFFFFFFFFFFFFFFFFFFFFFFFFFFF AND DUP2 PUSH20 0xFFFFFFFFFFFFFFFFFFFFFFFFFFFFFFFFFFFFFFFF AND EQ PUSH2 0x23B3 JUMPI PUSH2 0x2367 PUSH0 DUP6 PUSH0 PUSH0 PUSH2 0x29DF JUMP JUMPDEST PUSH1 0x1 PUSH1 0x3 PUSH0 DUP4 PUSH20 0xFFFFFFFFFFFFFFFFFFFFFFFFFFFFFFFFFFFFFFFF AND PUSH20 0xFFFFFFFFFFFFFFFFFFFFFFFFFFFFFFFFFFFFFFFF AND DUP2 MSTORE PUSH1 0x20 ADD SWAP1 DUP2 MSTORE PUSH1 0x20 ADD PUSH0 KECCAK256 PUSH0 DUP3 DUP3 SLOAD SUB SWAP3 POP POP DUP2 SWAP1 SSTORE POP JUMPDEST PUSH0 PUSH20 0xFFFFFFFFFFFFFFFFFFFFFFFFFFFFFFFFFFFFFFFF AND DUP6 PUSH20 0xFFFFFFFFFFFFFFFFFFFFFFFFFFFFFFFFFFFFFFFF AND EQ PUSH2 0x2432 JUMPI PUSH1 0x1 PUSH1 0x3 PUSH0 DUP8 PUSH20 0xFFFFFFFFFFFFFFFFFFFFFFFFFFFFFFFFFFFFFFFF AND PUSH20 0xFFFFFFFFFFFFFFFFFFFFFFFFFFFFFFFFFFFFFFFF AND DUP2 MSTORE PUSH1 0x20 ADD SWAP1 DUP2 MSTORE PUSH1 0x20 ADD PUSH0 KECCAK256 PUSH0 DUP3 DUP3 SLOAD ADD SWAP3 POP POP DUP2 SWAP1 SSTORE POP JUMPDEST DUP5 PUSH1 0x2 PUSH0 DUP7 DUP2 MSTORE PUSH1 0x20 ADD SWAP1 DUP2 MSTORE PUSH1 0x20 ADD PUSH0 KECCAK256 PUSH0 PUSH2 0x100 EXP DUP2 SLOAD DUP2 PUSH20 0xFFFFFFFFFFFFFFFFFFFFFFFFFFFFFFFFFFFFFFFF MUL NOT AND SWAP1 DUP4 PUSH20 0xFFFFFFFFFFFFFFFFFFFFFFFFFFFFFFFFFFFFFFFF AND MUL OR SWAP1 SSTORE POP DUP4 DUP6 PUSH20 0xFFFFFFFFFFFFFFFFFFFFFFFFFFFFFFFFFFFFFFFF AND DUP3 PUSH20 0xFFFFFFFFFFFFFFFFFFFFFFFFFFFFFFFFFFFFFFFF AND PUSH32 0xDDF252AD1BE2C89B69C2B068FC378DAA952BA7F163C4A11628F55A4DF523B3EF PUSH1 0x40 MLOAD PUSH1 0x40 MLOAD DUP1 SWAP2 SUB SWAP1 LOG4 DUP1 SWAP2 POP POP SWAP4 SWAP3 POP POP POP JUMP JUMPDEST PUSH0 PUSH1 0x6 PUSH0 SWAP1 SLOAD SWAP1 PUSH2 0x100 EXP SWAP1 DIV PUSH20 0xFFFFFFFFFFFFFFFFFFFFFFFFFFFFFFFFFFFFFFFF AND SWAP1 POP DUP2 PUSH1 0x6 PUSH0 PUSH2 0x100 EXP DUP2 SLOAD DUP2 PUSH20 0xFFFFFFFFFFFFFFFFFFFFFFFFFFFFFFFFFFFFFFFF MUL NOT AND SWAP1 DUP4 PUSH20 0xFFFFFFFFFFFFFFFFFFFFFFFFFFFFFFFFFFFFFFFF AND MUL OR SWAP1 SSTORE POP DUP2 PUSH20 0xFFFFFFFFFFFFFFFFFFFFFFFFFFFFFFFFFFFFFFFF AND DUP2 PUSH20 0xFFFFFFFFFFFFFFFFFFFFFFFFFFFFFFFFFFFFFFFF AND PUSH32 0x8BE0079C531659141344CD1FD0A4F28419497F9722A3DAAFE3B4186F6B6457E0 PUSH1 0x40 MLOAD PUSH1 0x40 MLOAD DUP1 SWAP2 SUB SWAP1 LOG3 POP POP JUMP JUMPDEST PUSH2 0x25C3 DUP3 DUP3 PUSH1 0x40 MLOAD DUP1 PUSH1 0x20 ADD PUSH1 0x40 MSTORE DUP1 PUSH0 DUP2 MSTORE POP PUSH2 0x2C61 JUMP JUMPDEST POP POP JUMP JUMPDEST PUSH0 PUSH20 0xFFFFFFFFFFFFFFFFFFFFFFFFFFFFFFFFFFFFFFFF AND DUP3 PUSH20 0xFFFFFFFFFFFFFFFFFFFFFFFFFFFFFFFFFFFFFFFF AND SUB PUSH2 0x2637 JUMPI DUP2 PUSH1 0x40 MLOAD PUSH32 0x5B08BA1800000000000000000000000000000000000000000000000000000000 DUP2 MSTORE PUSH1 0x4 ADD PUSH2 0x262E SWAP2 SWAP1 PUSH2 0x3205 JUMP JUMPDEST PUSH1 0x40 MLOAD DUP1 SWAP2 SUB SWAP1 REVERT JUMPDEST DUP1 PUSH1 0x5 PUSH0 DUP6 PUSH20 0xFFFFFFFFFFFFFFFFFFFFFFFFFFFFFFFFFFFFFFFF AND PUSH20 0xFFFFFFFFFFFFFFFFFFFFFFFFFFFFFFFFFFFFFFFF AND DUP2 MSTORE PUSH1 0x20 ADD SWAP1 DUP2 MSTORE PUSH1 0x20 ADD PUSH0 KECCAK256 PUSH0 DUP5 PUSH20 0xFFFFFFFFFFFFFFFFFFFFFFFFFFFFFFFFFFFFFFFF AND PUSH20 0xFFFFFFFFFFFFFFFFFFFFFFFFFFFFFFFFFFFFFFFF AND DUP2 MSTORE PUSH1 0x20 ADD SWAP1 DUP2 MSTORE PUSH1 0x20 ADD PUSH0 KECCAK256 PUSH0 PUSH2 0x100 EXP DUP2 SLOAD DUP2 PUSH1 0xFF MUL NOT AND SWAP1 DUP4 ISZERO ISZERO MUL OR SWAP1 SSTORE POP DUP2 PUSH20 0xFFFFFFFFFFFFFFFFFFFFFFFFFFFFFFFFFFFFFFFF AND DUP4 PUSH20 0xFFFFFFFFFFFFFFFFFFFFFFFFFFFFFFFFFFFFFFFF AND PUSH32 0x17307EAB39AB6107E8899845AD3D59BD9653F200F220920489CA2B5937696C31 DUP4 PUSH1 0x40 MLOAD PUSH2 0x2723 SWAP2 SWAP1 PUSH2 0x3033 JUMP JUMPDEST PUSH1 0x40 MLOAD DUP1 SWAP2 SUB SWAP1 LOG3 POP POP POP JUMP JUMPDEST PUSH0 DUP4 PUSH20 0xFFFFFFFFFFFFFFFFFFFFFFFFFFFFFFFFFFFFFFFF AND EXTCODESIZE GT ISZERO PUSH2 0x28D5 JUMPI DUP3 PUSH20 0xFFFFFFFFFFFFFFFFFFFFFFFFFFFFFFFFFFFFFFFF AND PUSH4 0x150B7A02 DUP7 DUP7 DUP6 DUP6 PUSH1 0x40 MLOAD DUP6 PUSH4 0xFFFFFFFF AND PUSH1 0xE0 SHL DUP2 MSTORE PUSH1 0x4 ADD PUSH2 0x278E SWAP5 SWAP4 SWAP3 SWAP2 SWAP1 PUSH2 0x4362 JUMP JUMPDEST PUSH1 0x20 PUSH1 0x40 MLOAD DUP1 DUP4 SUB DUP2 PUSH0 DUP8 GAS CALL SWAP3 POP POP POP DUP1 ISZERO PUSH2 0x27C9 JUMPI POP PUSH1 0x40 MLOAD RETURNDATASIZE PUSH1 0x1F NOT PUSH1 0x1F DUP3 ADD AND DUP3 ADD DUP1 PUSH1 0x40 MSTORE POP DUP2 ADD SWAP1 PUSH2 0x27C6 SWAP2 SWAP1 PUSH2 0x43C0 JUMP JUMPDEST PUSH1 0x1 JUMPDEST PUSH2 0x284A JUMPI RETURNDATASIZE DUP1 PUSH0 DUP2 EQ PUSH2 0x27F7 JUMPI PUSH1 0x40 MLOAD SWAP2 POP PUSH1 0x1F NOT PUSH1 0x3F RETURNDATASIZE ADD AND DUP3 ADD PUSH1 0x40 MSTORE RETURNDATASIZE DUP3 MSTORE RETURNDATASIZE PUSH0 PUSH1 0x20 DUP5 ADD RETURNDATACOPY PUSH2 0x27FC JUMP JUMPDEST PUSH1 0x60 SWAP2 POP JUMPDEST POP PUSH0 DUP2 MLOAD SUB PUSH2 0x2842 JUMPI DUP4 PUSH1 0x40 MLOAD PUSH32 0x64A0AE9200000000000000000000000000000000000000000000000000000000 DUP2 MSTORE PUSH1 0x4 ADD PUSH2 0x2839 SWAP2 SWAP1 PUSH2 0x3205 JUMP JUMPDEST PUSH1 0x40 MLOAD DUP1 SWAP2 SUB SWAP1 REVERT JUMPDEST DUP1 MLOAD PUSH1 0x20 DUP3 ADD REVERT JUMPDEST PUSH4 0x150B7A02 PUSH1 0xE0 SHL PUSH28 0xFFFFFFFFFFFFFFFFFFFFFFFFFFFFFFFFFFFFFFFFFFFFFFFFFFFFFFFF NOT AND DUP2 PUSH28 0xFFFFFFFFFFFFFFFFFFFFFFFFFFFFFFFFFFFFFFFFFFFFFFFFFFFFFFFF NOT AND EQ PUSH2 0x28D3 JUMPI DUP4 PUSH1 0x40 MLOAD PUSH32 0x64A0AE9200000000000000000000000000000000000000000000000000000000 DUP2 MSTORE PUSH1 0x4 ADD PUSH2 0x28CA SWAP2 SWAP1 PUSH2 0x3205 JUMP JUMPDEST PUSH1 0x40 MLOAD DUP1 SWAP2 SUB SWAP1 REVERT JUMPDEST POP JUMPDEST POP POP POP POP POP JUMP JUMPDEST PUSH1 0x60 PUSH0 PUSH1 0x1 PUSH2 0x28EA DUP5 PUSH2 0x2C84 JUMP JUMPDEST ADD SWAP1 POP PUSH0 DUP2 PUSH8 0xFFFFFFFFFFFFFFFF DUP2 GT ISZERO PUSH2 0x2908 JUMPI PUSH2 0x2907 PUSH2 0x3358 JUMP JUMPDEST JUMPDEST PUSH1 0x40 MLOAD SWAP1 DUP1 DUP3 MSTORE DUP1 PUSH1 0x1F ADD PUSH1 0x1F NOT AND PUSH1 0x20 ADD DUP3 ADD PUSH1 0x40 MSTORE DUP1 ISZERO PUSH2 0x293A JUMPI DUP2 PUSH1 0x20 ADD PUSH1 0x1 DUP3 MUL DUP1 CALLDATASIZE DUP4 CALLDATACOPY DUP1 DUP3 ADD SWAP2 POP POP SWAP1 POP JUMPDEST POP SWAP1 POP PUSH0 DUP3 PUSH1 0x20 DUP4 ADD ADD SWAP1 POP JUMPDEST PUSH1 0x1 ISZERO PUSH2 0x299B JUMPI DUP1 DUP1 PUSH1 0x1 SWAP1 SUB SWAP2 POP POP PUSH32 0x3031323334353637383961626364656600000000000000000000000000000000 PUSH1 0xA DUP7 MOD BYTE DUP2 MSTORE8 PUSH1 0xA DUP6 DUP2 PUSH2 0x2990 JUMPI PUSH2 0x298F PUSH2 0x43EB JUMP JUMPDEST JUMPDEST DIV SWAP5 POP PUSH0 DUP6 SUB PUSH2 0x2947 JUMPI JUMPDEST DUP2 SWAP4 POP POP POP POP SWAP2 SWAP1 POP JUMP JUMPDEST PUSH0 PUSH1 0x2 PUSH0 DUP4 DUP2 MSTORE PUSH1 0x20 ADD SWAP1 DUP2 MSTORE PUSH1 0x20 ADD PUSH0 KECCAK256 PUSH0 SWAP1 SLOAD SWAP1 PUSH2 0x100 EXP SWAP1 DIV PUSH20 0xFFFFFFFFFFFFFFFFFFFFFFFFFFFFFFFFFFFFFFFF AND SWAP1 POP SWAP2 SWAP1 POP JUMP JUMPDEST DUP1 DUP1 PUSH2 0x2A17 JUMPI POP PUSH0 PUSH20 0xFFFFFFFFFFFFFFFFFFFFFFFFFFFFFFFFFFFFFFFF AND DUP3 PUSH20 0xFFFFFFFFFFFFFFFFFFFFFFFFFFFFFFFFFFFFFFFF AND EQ ISZERO JUMPDEST ISZERO PUSH2 0x2B49 JUMPI PUSH0 PUSH2 0x2A26 DUP5 PUSH2 0x217D JUMP JUMPDEST SWAP1 POP PUSH0 PUSH20 0xFFFFFFFFFFFFFFFFFFFFFFFFFFFFFFFFFFFFFFFF AND DUP4 PUSH20 0xFFFFFFFFFFFFFFFFFFFFFFFFFFFFFFFFFFFFFFFF AND EQ ISZERO DUP1 ISZERO PUSH2 0x2A90 JUMPI POP DUP3 PUSH20 0xFFFFFFFFFFFFFFFFFFFFFFFFFFFFFFFFFFFFFFFF AND DUP2 PUSH20 0xFFFFFFFFFFFFFFFFFFFFFFFFFFFFFFFFFFFFFFFF AND EQ ISZERO JUMPDEST DUP1 ISZERO PUSH2 0x2AA3 JUMPI POP PUSH2 0x2AA1 DUP2 DUP5 PUSH2 0x1EF8 JUMP JUMPDEST ISZERO JUMPDEST ISZERO PUSH2 0x2AE5 JUMPI DUP3 PUSH1 0x40 MLOAD PUSH32 0xA9FBF51F00000000000000000000000000000000000000000000000000000000 DUP2 MSTORE PUSH1 0x4 ADD PUSH2 0x2ADC SWAP2 SWAP1 PUSH2 0x3205 JUMP JUMPDEST PUSH1 0x40 MLOAD DUP1 SWAP2 SUB SWAP1 REVERT JUMPDEST DUP2 ISZERO PUSH2 0x2B47 JUMPI DUP4 DUP6 PUSH20 0xFFFFFFFFFFFFFFFFFFFFFFFFFFFFFFFFFFFFFFFF AND DUP3 PUSH20 0xFFFFFFFFFFFFFFFFFFFFFFFFFFFFFFFFFFFFFFFF AND PUSH32 0x8C5BE1E5EBEC7D5BD14F71427D1E84F3DD0314C0F7B2291E5B200AC8C7C3B925 PUSH1 0x40 MLOAD PUSH1 0x40 MLOAD DUP1 SWAP2 SUB SWAP1 LOG4 JUMPDEST POP JUMPDEST DUP4 PUSH1 0x4 PUSH0 DUP6 DUP2 MSTORE PUSH1 0x20 ADD SWAP1 DUP2 MSTORE PUSH1 0x20 ADD PUSH0 KECCAK256 PUSH0 PUSH2 0x100 EXP DUP2 SLOAD DUP2 PUSH20 0xFFFFFFFFFFFFFFFFFFFFFFFFFFFFFFFFFFFFFFFF MUL NOT AND SWAP1 DUP4 PUSH20 0xFFFFFFFFFFFFFFFFFFFFFFFFFFFFFFFFFFFFFFFF AND MUL OR SWAP1 SSTORE POP POP POP POP POP JUMP JUMPDEST PUSH2 0x2BA9 DUP4 DUP4 DUP4 PUSH2 0x2DD5 JUMP JUMPDEST PUSH2 0x2C5C JUMPI PUSH0 PUSH20 0xFFFFFFFFFFFFFFFFFFFFFFFFFFFFFFFFFFFFFFFF AND DUP4 PUSH20 0xFFFFFFFFFFFFFFFFFFFFFFFFFFFFFFFFFFFFFFFF AND SUB PUSH2 0x2C1D JUMPI DUP1 PUSH1 0x40 MLOAD PUSH32 0x7E27328900000000000000000000000000000000000000000000000000000000 DUP2 MSTORE PUSH1 0x4 ADD PUSH2 0x2C14 SWAP2 SWAP1 PUSH2 0x3310 JUMP JUMPDEST PUSH1 0x40 MLOAD DUP1 SWAP2 SUB SWAP1 REVERT JUMPDEST DUP2 DUP2 PUSH1 0x40 MLOAD PUSH32 0x177E802F00000000000000000000000000000000000000000000000000000000 DUP2 MSTORE PUSH1 0x4 ADD PUSH2 0x2C53 SWAP3 SWAP2 SWAP1 PUSH2 0x4418 JUMP JUMPDEST PUSH1 0x40 MLOAD DUP1 SWAP2 SUB SWAP1 REVERT JUMPDEST POP POP POP JUMP JUMPDEST PUSH2 0x2C6B DUP4 DUP4 PUSH2 0x2E95 JUMP JUMPDEST PUSH2 0x2C7F PUSH2 0x2C76 PUSH2 0x223C JUMP JUMPDEST PUSH0 DUP6 DUP6 DUP6 PUSH2 0x2730 JUMP JUMPDEST POP POP POP JUMP JUMPDEST PUSH0 PUSH0 PUSH0 SWAP1 POP PUSH27 0x184F03E93FF9F4DAA797ED6E38ED64BF6A1F010000000000000000 DUP4 LT PUSH2 0x2CE0 JUMPI PUSH27 0x184F03E93FF9F4DAA797ED6E38ED64BF6A1F010000000000000000 DUP4 DUP2 PUSH2 0x2CD6 JUMPI PUSH2 0x2CD5 PUSH2 0x43EB JUMP JUMPDEST JUMPDEST DIV SWAP3 POP PUSH1 0x40 DUP2 ADD SWAP1 POP JUMPDEST PUSH14 0x4EE2D6D415B85ACEF8100000000 DUP4 LT PUSH2 0x2D1D JUMPI PUSH14 0x4EE2D6D415B85ACEF8100000000 DUP4 DUP2 PUSH2 0x2D13 JUMPI PUSH2 0x2D12 PUSH2 0x43EB JUMP JUMPDEST JUMPDEST DIV SWAP3 POP PUSH1 0x20 DUP2 ADD SWAP1 POP JUMPDEST PUSH7 0x2386F26FC10000 DUP4 LT PUSH2 0x2D4C JUMPI PUSH7 0x2386F26FC10000 DUP4 DUP2 PUSH2 0x2D42 JUMPI PUSH2 0x2D41 PUSH2 0x43EB JUMP JUMPDEST JUMPDEST DIV SWAP3 POP PUSH1 0x10 DUP2 ADD SWAP1 POP JUMPDEST PUSH4 0x5F5E100 DUP4 LT PUSH2 0x2D75 JUMPI PUSH4 0x5F5E100 DUP4 DUP2 PUSH2 0x2D6B JUMPI PUSH2 0x2D6A PUSH2 0x43EB JUMP JUMPDEST JUMPDEST DIV SWAP3 POP PUSH1 0x8 DUP2 ADD SWAP1 POP JUMPDEST PUSH2 0x2710 DUP4 LT PUSH2 0x2D9A JUMPI PUSH2 0x2710 DUP4 DUP2 PUSH2 0x2D90 JUMPI PUSH2 0x2D8F PUSH2 0x43EB JUMP JUMPDEST JUMPDEST DIV SWAP3 POP PUSH1 0x4 DUP2 ADD SWAP1 POP JUMPDEST PUSH1 0x64 DUP4 LT PUSH2 0x2DBD JUMPI PUSH1 0x64 DUP4 DUP2 PUSH2 0x2DB3 JUMPI PUSH2 0x2DB2 PUSH2 0x43EB JUMP JUMPDEST JUMPDEST DIV SWAP3 POP PUSH1 0x2 DUP2 ADD SWAP1 POP JUMPDEST PUSH1 0xA DUP4 LT PUSH2 0x2DCC JUMPI PUSH1 0x1 DUP2 ADD SWAP1 POP JUMPDEST DUP1 SWAP2 POP POP SWAP2 SWAP1 POP JUMP JUMPDEST PUSH0 PUSH0 PUSH20 0xFFFFFFFFFFFFFFFFFFFFFFFFFFFFFFFFFFFFFFFF AND DUP4 PUSH20 0xFFFFFFFFFFFFFFFFFFFFFFFFFFFFFFFFFFFFFFFF AND EQ ISZERO DUP1 ISZERO PUSH2 0x2E8C JUMPI POP DUP3 PUSH20 0xFFFFFFFFFFFFFFFFFFFFFFFFFFFFFFFFFFFFFFFF AND DUP5 PUSH20 0xFFFFFFFFFFFFFFFFFFFFFFFFFFFFFFFFFFFFFFFF AND EQ DUP1 PUSH2 0x2E4D JUMPI POP PUSH2 0x2E4C DUP5 DUP5 PUSH2 0x1EF8 JUMP JUMPDEST JUMPDEST DUP1 PUSH2 0x2E8B JUMPI POP DUP3 PUSH20 0xFFFFFFFFFFFFFFFFFFFFFFFFFFFFFFFFFFFFFFFF AND PUSH2 0x2E73 DUP4 PUSH2 0x2203 JUMP JUMPDEST PUSH20 0xFFFFFFFFFFFFFFFFFFFFFFFFFFFFFFFFFFFFFFFF AND EQ JUMPDEST JUMPDEST SWAP1 POP SWAP4 SWAP3 POP POP POP JUMP JUMPDEST PUSH0 PUSH20 0xFFFFFFFFFFFFFFFFFFFFFFFFFFFFFFFFFFFFFFFF AND DUP3 PUSH20 0xFFFFFFFFFFFFFFFFFFFFFFFFFFFFFFFFFFFFFFFF AND SUB PUSH2 0x2F05 JUMPI PUSH0 PUSH1 0x40 MLOAD PUSH32 0x64A0AE9200000000000000000000000000000000000000000000000000000000 DUP2 MSTORE PUSH1 0x4 ADD PUSH2 0x2EFC SWAP2 SWAP1 PUSH2 0x3205 JUMP JUMPDEST PUSH1 0x40 MLOAD DUP1 SWAP2 SUB SWAP1 REVERT JUMPDEST PUSH0 PUSH2 0x2F11 DUP4 DUP4 PUSH0 PUSH2 0x22DC JUMP JUMPDEST SWAP1 POP PUSH0 PUSH20 0xFFFFFFFFFFFFFFFFFFFFFFFFFFFFFFFFFFFFFFFF AND DUP2 PUSH20 0xFFFFFFFFFFFFFFFFFFFFFFFFFFFFFFFFFFFFFFFF AND EQ PUSH2 0x2F83 JUMPI PUSH0 PUSH1 0x40 MLOAD PUSH32 0x73C6AC6E00000000000000000000000000000000000000000000000000000000 DUP2 MSTORE PUSH1 0x4 ADD PUSH2 0x2F7A SWAP2 SWAP1 PUSH2 0x3205 JUMP JUMPDEST PUSH1 0x40 MLOAD DUP1 SWAP2 SUB SWAP1 REVERT JUMPDEST POP POP POP JUMP JUMPDEST PUSH0 PUSH1 0x40 MLOAD SWAP1 POP SWAP1 JUMP JUMPDEST PUSH0 PUSH0 REVERT JUMPDEST PUSH0 PUSH0 REVERT JUMPDEST PUSH0 PUSH32 0xFFFFFFFF00000000000000000000000000000000000000000000000000000000 DUP3 AND SWAP1 POP SWAP2 SWAP1 POP JUMP JUMPDEST PUSH2 0x2FCD DUP2 PUSH2 0x2F99 JUMP JUMPDEST DUP2 EQ PUSH2 0x2FD7 JUMPI PUSH0 PUSH0 REVERT JUMPDEST POP JUMP JUMPDEST PUSH0 DUP2 CALLDATALOAD SWAP1 POP PUSH2 0x2FE8 DUP2 PUSH2 0x2FC4 JUMP JUMPDEST SWAP3 SWAP2 POP POP JUMP JUMPDEST PUSH0 PUSH1 0x20 DUP3 DUP5 SUB SLT ISZERO PUSH2 0x3003 JUMPI PUSH2 0x3002 PUSH2 0x2F91 JUMP JUMPDEST JUMPDEST PUSH0 PUSH2 0x3010 DUP5 DUP3 DUP6 ADD PUSH2 0x2FDA JUMP JUMPDEST SWAP2 POP POP SWAP3 SWAP2 POP POP JUMP JUMPDEST PUSH0 DUP2 ISZERO ISZERO SWAP1 POP SWAP2 SWAP1 POP JUMP JUMPDEST PUSH2 0x302D DUP2 PUSH2 0x3019 JUMP JUMPDEST DUP3 MSTORE POP POP JUMP JUMPDEST PUSH0 PUSH1 0x20 DUP3 ADD SWAP1 POP PUSH2 0x3046 PUSH0 DUP4 ADD DUP5 PUSH2 0x3024 JUMP JUMPDEST SWAP3 SWAP2 POP POP JUMP JUMPDEST PUSH32 0x4E487B7100000000000000000000000000000000000000000000000000000000 PUSH0 MSTORE PUSH1 0x21 PUSH1 0x4 MSTORE PUSH1 0x24 PUSH0 REVERT JUMPDEST PUSH1 0x4 DUP2 LT PUSH2 0x308A JUMPI PUSH2 0x3089 PUSH2 0x304C JUMP JUMPDEST JUMPDEST POP JUMP JUMPDEST PUSH0 DUP2 SWAP1 POP PUSH2 0x309A DUP3 PUSH2 0x3079 JUMP JUMPDEST SWAP2 SWAP1 POP JUMP JUMPDEST PUSH0 PUSH2 0x30A9 DUP3 PUSH2 0x308D JUMP JUMPDEST SWAP1 POP SWAP2 SWAP1 POP JUMP JUMPDEST PUSH2 0x30B9 DUP2 PUSH2 0x309F JUMP JUMPDEST DUP3 MSTORE POP POP JUMP JUMPDEST PUSH0 PUSH1 0x20 DUP3 ADD SWAP1 POP PUSH2 0x30D2 PUSH0 DUP4 ADD DUP5 PUSH2 0x30B0 JUMP JUMPDEST SWAP3 SWAP2 POP POP JUMP JUMPDEST PUSH0 DUP2 MLOAD SWAP1 POP SWAP2 SWAP1 POP JUMP JUMPDEST PUSH0 DUP3 DUP3 MSTORE PUSH1 0x20 DUP3 ADD SWAP1 POP SWAP3 SWAP2 POP POP JUMP JUMPDEST DUP3 DUP2 DUP4 MCOPY PUSH0 DUP4 DUP4 ADD MSTORE POP POP POP JUMP JUMPDEST PUSH0 PUSH1 0x1F NOT PUSH1 0x1F DUP4 ADD AND SWAP1 POP SWAP2 SWAP1 POP JUMP JUMPDEST PUSH0 PUSH2 0x311A DUP3 PUSH2 0x30D8 JUMP JUMPDEST PUSH2 0x3124 DUP2 DUP6 PUSH2 0x30E2 JUMP JUMPDEST SWAP4 POP PUSH2 0x3134 DUP2 DUP6 PUSH1 0x20 DUP7 ADD PUSH2 0x30F2 JUMP JUMPDEST PUSH2 0x313D DUP2 PUSH2 0x3100 JUMP JUMPDEST DUP5 ADD SWAP2 POP POP SWAP3 SWAP2 POP POP JUMP JUMPDEST PUSH0 PUSH1 0x20 DUP3 ADD SWAP1 POP DUP2 DUP2 SUB PUSH0 DUP4 ADD MSTORE PUSH2 0x3160 DUP2 DUP5 PUSH2 0x3110 JUMP JUMPDEST SWAP1 POP SWAP3 SWAP2 POP POP JUMP JUMPDEST PUSH0 DUP2 SWAP1 POP SWAP2 SWAP1 POP JUMP JUMPDEST PUSH2 0x317A DUP2 PUSH2 0x3168 JUMP JUMPDEST DUP2 EQ PUSH2 0x3184 JUMPI PUSH0 PUSH0 REVERT JUMPDEST POP JUMP JUMPDEST PUSH0 DUP2 CALLDATALOAD SWAP1 POP PUSH2 0x3195 DUP2 PUSH2 0x3171 JUMP JUMPDEST SWAP3 SWAP2 POP POP JUMP JUMPDEST PUSH0 PUSH1 0x20 DUP3 DUP5 SUB SLT ISZERO PUSH2 0x31B0 JUMPI PUSH2 0x31AF PUSH2 0x2F91 JUMP JUMPDEST JUMPDEST PUSH0 PUSH2 0x31BD DUP5 DUP3 DUP6 ADD PUSH2 0x3187 JUMP JUMPDEST SWAP2 POP POP SWAP3 SWAP2 POP POP JUMP JUMPDEST PUSH0 PUSH20 0xFFFFFFFFFFFFFFFFFFFFFFFFFFFFFFFFFFFFFFFF DUP3 AND SWAP1 POP SWAP2 SWAP1 POP JUMP JUMPDEST PUSH0 PUSH2 0x31EF DUP3 PUSH2 0x31C6 JUMP JUMPDEST SWAP1 POP SWAP2 SWAP1 POP JUMP JUMPDEST PUSH2 0x31FF DUP2 PUSH2 0x31E5 JUMP JUMPDEST DUP3 MSTORE POP POP JUMP JUMPDEST PUSH0 PUSH1 0x20 DUP3 ADD SWAP1 POP PUSH2 0x3218 PUSH0 DUP4 ADD DUP5 PUSH2 0x31F6 JUMP JUMPDEST SWAP3 SWAP2 POP POP JUMP JUMPDEST PUSH2 0x3227 DUP2 PUSH2 0x31E5 JUMP JUMPDEST DUP2 EQ PUSH2 0x3231 JUMPI PUSH0 PUSH0 REVERT JUMPDEST POP JUMP JUMPDEST PUSH0 DUP2 CALLDATALOAD SWAP1 POP PUSH2 0x3242 DUP2 PUSH2 0x321E JUMP JUMPDEST SWAP3 SWAP2 POP POP JUMP JUMPDEST PUSH0 PUSH0 PUSH1 0x40 DUP4 DUP6 SUB SLT ISZERO PUSH2 0x325E JUMPI PUSH2 0x325D PUSH2 0x2F91 JUMP JUMPDEST JUMPDEST PUSH0 PUSH2 0x326B DUP6 DUP3 DUP7 ADD PUSH2 0x3234 JUMP JUMPDEST SWAP3 POP POP PUSH1 0x20 PUSH2 0x327C DUP6 DUP3 DUP7 ADD PUSH2 0x3187 JUMP JUMPDEST SWAP2 POP POP SWAP3 POP SWAP3 SWAP1 POP JUMP JUMPDEST PUSH0 PUSH1 0x20 DUP3 DUP5 SUB SLT ISZERO PUSH2 0x329B JUMPI PUSH2 0x329A PUSH2 0x2F91 JUMP JUMPDEST JUMPDEST PUSH0 PUSH2 0x32A8 DUP5 DUP3 DUP6 ADD PUSH2 0x3234 JUMP JUMPDEST SWAP2 POP POP SWAP3 SWAP2 POP POP JUMP JUMPDEST PUSH0 PUSH0 PUSH0 PUSH1 0x60 DUP5 DUP7 SUB SLT ISZERO PUSH2 0x32C8 JUMPI PUSH2 0x32C7 PUSH2 0x2F91 JUMP JUMPDEST JUMPDEST PUSH0 PUSH2 0x32D5 DUP7 DUP3 DUP8 ADD PUSH2 0x3234 JUMP JUMPDEST SWAP4 POP POP PUSH1 0x20 PUSH2 0x32E6 DUP7 DUP3 DUP8 ADD PUSH2 0x3234 JUMP JUMPDEST SWAP3 POP POP PUSH1 0x40 PUSH2 0x32F7 DUP7 DUP3 DUP8 ADD PUSH2 0x3187 JUMP JUMPDEST SWAP2 POP POP SWAP3 POP SWAP3 POP SWAP3 JUMP JUMPDEST PUSH2 0x330A DUP2 PUSH2 0x3168 JUMP JUMPDEST DUP3 MSTORE POP POP JUMP JUMPDEST PUSH0 PUSH1 0x20 DUP3 ADD SWAP1 POP PUSH2 0x3323 PUSH0 DUP4 ADD DUP5 PUSH2 0x3301 JUMP JUMPDEST SWAP3 SWAP2 POP POP JUMP JUMPDEST PUSH0 PUSH1 0x40 DUP3 ADD SWAP1 POP PUSH2 0x333C PUSH0 DUP4 ADD DUP6 PUSH2 0x3024 JUMP JUMPDEST PUSH2 0x3349 PUSH1 0x20 DUP4 ADD DUP5 PUSH2 0x3024 JUMP JUMPDEST SWAP4 SWAP3 POP POP POP JUMP JUMPDEST PUSH0 PUSH0 REVERT JUMPDEST PUSH0 PUSH0 REVERT JUMPDEST PUSH32 0x4E487B7100000000000000000000000000000000000000000000000000000000 PUSH0 MSTORE PUSH1 0x41 PUSH1 0x4 MSTORE PUSH1 0x24 PUSH0 REVERT JUMPDEST PUSH2 0x338E DUP3 PUSH2 0x3100 JUMP JUMPDEST DUP2 ADD DUP2 DUP2 LT PUSH8 0xFFFFFFFFFFFFFFFF DUP3 GT OR ISZERO PUSH2 0x33AD JUMPI PUSH2 0x33AC PUSH2 0x3358 JUMP JUMPDEST JUMPDEST DUP1 PUSH1 0x40 MSTORE POP POP POP JUMP JUMPDEST PUSH0 PUSH2 0x33BF PUSH2 0x2F88 JUMP JUMPDEST SWAP1 POP PUSH2 0x33CB DUP3 DUP3 PUSH2 0x3385 JUMP JUMPDEST SWAP2 SWAP1 POP JUMP JUMPDEST PUSH0 PUSH8 0xFFFFFFFFFFFFFFFF DUP3 GT ISZERO PUSH2 0x33EA JUMPI PUSH2 0x33E9 PUSH2 0x3358 JUMP JUMPDEST JUMPDEST PUSH2 0x33F3 DUP3 PUSH2 0x3100 JUMP JUMPDEST SWAP1 POP PUSH1 0x20 DUP2 ADD SWAP1 POP SWAP2 SWAP1 POP JUMP JUMPDEST DUP3 DUP2 DUP4 CALLDATACOPY PUSH0 DUP4 DUP4 ADD MSTORE POP POP POP JUMP JUMPDEST PUSH0 PUSH2 0x3420 PUSH2 0x341B DUP5 PUSH2 0x33D0 JUMP JUMPDEST PUSH2 0x33B6 JUMP JUMPDEST SWAP1 POP DUP3 DUP2 MSTORE PUSH1 0x20 DUP2 ADD DUP5 DUP5 DUP5 ADD GT ISZERO PUSH2 0x343C JUMPI PUSH2 0x343B PUSH2 0x3354 JUMP JUMPDEST JUMPDEST PUSH2 0x3447 DUP5 DUP3 DUP6 PUSH2 0x3400 JUMP JUMPDEST POP SWAP4 SWAP3 POP POP POP JUMP JUMPDEST PUSH0 DUP3 PUSH1 0x1F DUP4 ADD SLT PUSH2 0x3463 JUMPI PUSH2 0x3462 PUSH2 0x3350 JUMP JUMPDEST JUMPDEST DUP2 CALLDATALOAD PUSH2 0x3473 DUP5 DUP3 PUSH1 0x20 DUP7 ADD PUSH2 0x340E JUMP JUMPDEST SWAP2 POP POP SWAP3 SWAP2 POP POP JUMP JUMPDEST PUSH0 PUSH1 0x20 DUP3 DUP5 SUB SLT ISZERO PUSH2 0x3491 JUMPI PUSH2 0x3490 PUSH2 0x2F91 JUMP JUMPDEST JUMPDEST PUSH0 DUP3 ADD CALLDATALOAD PUSH8 0xFFFFFFFFFFFFFFFF DUP2 GT ISZERO PUSH2 0x34AE JUMPI PUSH2 0x34AD PUSH2 0x2F95 JUMP JUMPDEST JUMPDEST PUSH2 0x34BA DUP5 DUP3 DUP6 ADD PUSH2 0x344F JUMP JUMPDEST SWAP2 POP POP SWAP3 SWAP2 POP POP JUMP JUMPDEST PUSH2 0x34CC DUP2 PUSH2 0x3019 JUMP JUMPDEST DUP2 EQ PUSH2 0x34D6 JUMPI PUSH0 PUSH0 REVERT JUMPDEST POP JUMP JUMPDEST PUSH0 DUP2 CALLDATALOAD SWAP1 POP PUSH2 0x34E7 DUP2 PUSH2 0x34C3 JUMP JUMPDEST SWAP3 SWAP2 POP POP JUMP JUMPDEST PUSH0 PUSH0 PUSH1 0x40 DUP4 DUP6 SUB SLT ISZERO PUSH2 0x3503 JUMPI PUSH2 0x3502 PUSH2 0x2F91 JUMP JUMPDEST JUMPDEST PUSH0 PUSH2 0x3510 DUP6 DUP3 DUP7 ADD PUSH2 0x3234 JUMP JUMPDEST SWAP3 POP POP PUSH1 0x20 PUSH2 0x3521 DUP6 DUP3 DUP7 ADD PUSH2 0x34D9 JUMP JUMPDEST SWAP2 POP POP SWAP3 POP SWAP3 SWAP1 POP JUMP JUMPDEST PUSH0 PUSH8 0xFFFFFFFFFFFFFFFF DUP3 GT ISZERO PUSH2 0x3545 JUMPI PUSH2 0x3544 PUSH2 0x3358 JUMP JUMPDEST JUMPDEST PUSH2 0x354E DUP3 PUSH2 0x3100 JUMP JUMPDEST SWAP1 POP PUSH1 0x20 DUP2 ADD SWAP1 POP SWAP2 SWAP1 POP JUMP JUMPDEST PUSH0 PUSH2 0x356D PUSH2 0x3568 DUP5 PUSH2 0x352B JUMP JUMPDEST PUSH2 0x33B6 JUMP JUMPDEST SWAP1 POP DUP3 DUP2 MSTORE PUSH1 0x20 DUP2 ADD DUP5 DUP5 DUP5 ADD GT ISZERO PUSH2 0x3589 JUMPI PUSH2 0x3588 PUSH2 0x3354 JUMP JUMPDEST JUMPDEST PUSH2 0x3594 DUP5 DUP3 DUP6 PUSH2 0x3400 JUMP JUMPDEST POP SWAP4 SWAP3 POP POP POP JUMP JUMPDEST PUSH0 DUP3 PUSH1 0x1F DUP4 ADD SLT PUSH2 0x35B0 JUMPI PUSH2 0x35AF PUSH2 0x3350 JUMP JUMPDEST JUMPDEST DUP2 CALLDATALOAD PUSH2 0x35C0 DUP5 DUP3 PUSH1 0x20 DUP7 ADD PUSH2 0x355B JUMP JUMPDEST SWAP2 POP POP SWAP3 SWAP2 POP POP JUMP JUMPDEST PUSH0 PUSH0 PUSH0 PUSH0 PUSH1 0x80 DUP6 DUP8 SUB SLT ISZERO PUSH2 0x35E1 JUMPI PUSH2 0x35E0 PUSH2 0x2F91 JUMP JUMPDEST JUMPDEST PUSH0 PUSH2 0x35EE DUP8 DUP3 DUP9 ADD PUSH2 0x3234 JUMP JUMPDEST SWAP5 POP POP PUSH1 0x20 PUSH2 0x35FF DUP8 DUP3 DUP9 ADD PUSH2 0x3234 JUMP JUMPDEST SWAP4 POP POP PUSH1 0x40 PUSH2 0x3610 DUP8 DUP3 DUP9 ADD PUSH2 0x3187 JUMP JUMPDEST SWAP3 POP POP PUSH1 0x60 DUP6 ADD CALLDATALOAD PUSH8 0xFFFFFFFFFFFFFFFF DUP2 GT ISZERO PUSH2 0x3631 JUMPI PUSH2 0x3630 PUSH2 0x2F95 JUMP JUMPDEST JUMPDEST PUSH2 0x363D DUP8 DUP3 DUP9 ADD PUSH2 0x359C JUMP JUMPDEST SWAP2 POP POP SWAP3 SWAP6 SWAP2 SWAP5 POP SWAP3 POP JUMP JUMPDEST PUSH1 0x4 DUP2 LT PUSH2 0x3655 JUMPI PUSH0 PUSH0 REVERT JUMPDEST POP JUMP JUMPDEST PUSH0 DUP2 CALLDATALOAD SWAP1 POP PUSH2 0x3666 DUP2 PUSH2 0x3649 JUMP JUMPDEST SWAP3 SWAP2 POP POP JUMP JUMPDEST PUSH0 PUSH1 0x20 DUP3 DUP5 SUB SLT ISZERO PUSH2 0x3681 JUMPI PUSH2 0x3680 PUSH2 0x2F91 JUMP JUMPDEST JUMPDEST PUSH0 PUSH2 0x368E DUP5 DUP3 DUP6 ADD PUSH2 0x3658 JUMP JUMPDEST SWAP2 POP POP SWAP3 SWAP2 POP POP JUMP JUMPDEST PUSH0 PUSH0 REVERT JUMPDEST PUSH0 PUSH0 REVERT JUMPDEST PUSH0 PUSH0 DUP4 PUSH1 0x1F DUP5 ADD SLT PUSH2 0x36B4 JUMPI PUSH2 0x36B3 PUSH2 0x3350 JUMP JUMPDEST JUMPDEST DUP3 CALLDATALOAD SWAP1 POP PUSH8 0xFFFFFFFFFFFFFFFF DUP2 GT ISZERO PUSH2 0x36D1 JUMPI PUSH2 0x36D0 PUSH2 0x3697 JUMP JUMPDEST JUMPDEST PUSH1 0x20 DUP4 ADD SWAP2 POP DUP4 PUSH1 0x20 DUP3 MUL DUP4 ADD GT ISZERO PUSH2 0x36ED JUMPI PUSH2 0x36EC PUSH2 0x369B JUMP JUMPDEST JUMPDEST SWAP3 POP SWAP3 SWAP1 POP JUMP JUMPDEST PUSH0 PUSH0 PUSH1 0x20 DUP4 DUP6 SUB SLT ISZERO PUSH2 0x370A JUMPI PUSH2 0x3709 PUSH2 0x2F91 JUMP JUMPDEST JUMPDEST PUSH0 DUP4 ADD CALLDATALOAD PUSH8 0xFFFFFFFFFFFFFFFF DUP2 GT ISZERO PUSH2 0x3727 JUMPI PUSH2 0x3726 PUSH2 0x2F95 JUMP JUMPDEST JUMPDEST PUSH2 0x3733 DUP6 DUP3 DUP7 ADD PUSH2 0x369F JUMP JUMPDEST SWAP3 POP SWAP3 POP POP SWAP3 POP SWAP3 SWAP1 POP JUMP JUMPDEST PUSH0 PUSH0 PUSH1 0x40 DUP4 DUP6 SUB SLT ISZERO PUSH2 0x3755 JUMPI PUSH2 0x3754 PUSH2 0x2F91 JUMP JUMPDEST JUMPDEST PUSH0 PUSH2 0x3762 DUP6 DUP3 DUP7 ADD PUSH2 0x3234 JUMP JUMPDEST SWAP3 POP POP PUSH1 0x20 PUSH2 0x3773 DUP6 DUP3 DUP7 ADD PUSH2 0x3234 JUMP JUMPDEST SWAP2 POP POP SWAP3 POP SWAP3 SWAP1 POP JUMP JUMPDEST PUSH32 0x4E487B7100000000000000000000000000000000000000000000000000000000 PUSH0 MSTORE PUSH1 0x22 PUSH1 0x4 MSTORE PUSH1 0x24 PUSH0 REVERT JUMPDEST PUSH0 PUSH1 0x2 DUP3 DIV SWAP1 POP PUSH1 0x1 DUP3 AND DUP1 PUSH2 0x37C1 JUMPI PUSH1 0x7F DUP3 AND SWAP2 POP JUMPDEST PUSH1 0x20 DUP3 LT DUP2 SUB PUSH2 0x37D4 JUMPI PUSH2 0x37D3 PUSH2 0x377D JUMP JUMPDEST JUMPDEST POP SWAP2 SWAP1 POP JUMP JUMPDEST PUSH0 PUSH1 0x60 DUP3 ADD SWAP1 POP PUSH2 0x37ED PUSH0 DUP4 ADD DUP7 PUSH2 0x31F6 JUMP JUMPDEST PUSH2 0x37FA PUSH1 0x20 DUP4 ADD DUP6 PUSH2 0x3301 JUMP JUMPDEST PUSH2 0x3807 PUSH1 0x40 DUP4 ADD DUP5 PUSH2 0x31F6 JUMP JUMPDEST SWAP5 SWAP4 POP POP POP POP JUMP JUMPDEST PUSH32 0x4E6F2066756E647320746F207769746864726177000000000000000000000000 PUSH0 DUP3 ADD MSTORE POP JUMP JUMPDEST PUSH0 PUSH2 0x3843 PUSH1 0x14 DUP4 PUSH2 0x30E2 JUMP JUMPDEST SWAP2 POP PUSH2 0x384E DUP3 PUSH2 0x380F JUMP JUMPDEST PUSH1 0x20 DUP3 ADD SWAP1 POP SWAP2 SWAP1 POP JUMP JUMPDEST PUSH0 PUSH1 0x20 DUP3 ADD SWAP1 POP DUP2 DUP2 SUB PUSH0 DUP4 ADD MSTORE PUSH2 0x3870 DUP2 PUSH2 0x3837 JUMP JUMPDEST SWAP1 POP SWAP2 SWAP1 POP JUMP JUMPDEST PUSH0 DUP2 SWAP1 POP SWAP3 SWAP2 POP POP JUMP JUMPDEST POP JUMP JUMPDEST PUSH0 PUSH2 0x388F PUSH0 DUP4 PUSH2 0x3877 JUMP JUMPDEST SWAP2 POP PUSH2 0x389A DUP3 PUSH2 0x3881 JUMP JUMPDEST PUSH0 DUP3 ADD SWAP1 POP SWAP2 SWAP1 POP JUMP JUMPDEST PUSH0 PUSH2 0x38AE DUP3 PUSH2 0x3884 JUMP JUMPDEST SWAP2 POP DUP2 SWAP1 POP SWAP2 SWAP1 POP JUMP JUMPDEST PUSH32 0x5769746864726177616C206661696C6564000000000000000000000000000000 PUSH0 DUP3 ADD MSTORE POP JUMP JUMPDEST PUSH0 PUSH2 0x38EC PUSH1 0x11 DUP4 PUSH2 0x30E2 JUMP JUMPDEST SWAP2 POP PUSH2 0x38F7 DUP3 PUSH2 0x38B8 JUMP JUMPDEST PUSH1 0x20 DUP3 ADD SWAP1 POP SWAP2 SWAP1 POP JUMP JUMPDEST PUSH0 PUSH1 0x20 DUP3 ADD SWAP1 POP DUP2 DUP2 SUB PUSH0 DUP4 ADD MSTORE PUSH2 0x3919 DUP2 PUSH2 0x38E0 JUMP JUMPDEST SWAP1 POP SWAP2 SWAP1 POP JUMP JUMPDEST PUSH0 DUP2 SWAP1 POP DUP2 PUSH0 MSTORE PUSH1 0x20 PUSH0 KECCAK256 SWAP1 POP SWAP2 SWAP1 POP JUMP JUMPDEST PUSH0 PUSH1 0x20 PUSH1 0x1F DUP4 ADD DIV SWAP1 POP SWAP2 SWAP1 POP JUMP JUMPDEST PUSH0 DUP3 DUP3 SHL SWAP1 POP SWAP3 SWAP2 POP POP JUMP JUMPDEST PUSH0 PUSH1 0x8 DUP4 MUL PUSH2 0x397C PUSH32 0xFFFFFFFFFFFFFFFFFFFFFFFFFFFFFFFFFFFFFFFFFFFFFFFFFFFFFFFFFFFFFFFF DUP3 PUSH2 0x3941 JUMP JUMPDEST PUSH2 0x3986 DUP7 DUP4 PUSH2 0x3941 JUMP JUMPDEST SWAP6 POP DUP1 NOT DUP5 AND SWAP4 POP DUP1 DUP7 AND DUP5 OR SWAP3 POP POP POP SWAP4 SWAP3 POP POP POP JUMP JUMPDEST PUSH0 DUP2 SWAP1 POP SWAP2 SWAP1 POP JUMP JUMPDEST PUSH0 PUSH2 0x39C1 PUSH2 0x39BC PUSH2 0x39B7 DUP5 PUSH2 0x3168 JUMP JUMPDEST PUSH2 0x399E JUMP JUMPDEST PUSH2 0x3168 JUMP JUMPDEST SWAP1 POP SWAP2 SWAP1 POP JUMP JUMPDEST PUSH0 DUP2 SWAP1 POP SWAP2 SWAP1 POP JUMP JUMPDEST PUSH2 0x39DA DUP4 PUSH2 0x39A7 JUMP JUMPDEST PUSH2 0x39EE PUSH2 0x39E6 DUP3 PUSH2 0x39C8 JUMP JUMPDEST DUP5 DUP5 SLOAD PUSH2 0x394D JUMP JUMPDEST DUP3 SSTORE POP POP POP POP JUMP JUMPDEST PUSH0 PUSH0 SWAP1 POP SWAP1 JUMP JUMPDEST PUSH2 0x3A05 PUSH2 0x39F6 JUMP JUMPDEST PUSH2 0x3A10 DUP2 DUP5 DUP5 PUSH2 0x39D1 JUMP JUMPDEST POP POP POP JUMP JUMPDEST JUMPDEST DUP2 DUP2 LT ISZERO PUSH2 0x3A33 JUMPI PUSH2 0x3A28 PUSH0 DUP3 PUSH2 0x39FD JUMP JUMPDEST PUSH1 0x1 DUP2 ADD SWAP1 POP PUSH2 0x3A16 JUMP JUMPDEST POP POP JUMP JUMPDEST PUSH1 0x1F DUP3 GT ISZERO PUSH2 0x3A78 JUMPI PUSH2 0x3A49 DUP2 PUSH2 0x3920 JUMP JUMPDEST PUSH2 0x3A52 DUP5 PUSH2 0x3932 JUMP JUMPDEST DUP2 ADD PUSH1 0x20 DUP6 LT ISZERO PUSH2 0x3A61 JUMPI DUP2 SWAP1 POP JUMPDEST PUSH2 0x3A75 PUSH2 0x3A6D DUP6 PUSH2 0x3932 JUMP JUMPDEST DUP4 ADD DUP3 PUSH2 0x3A15 JUMP JUMPDEST POP POP JUMPDEST POP POP POP JUMP JUMPDEST PUSH0 DUP3 DUP3 SHR SWAP1 POP SWAP3 SWAP2 POP POP JUMP JUMPDEST PUSH0 PUSH2 0x3A98 PUSH0 NOT DUP5 PUSH1 0x8 MUL PUSH2 0x3A7D JUMP JUMPDEST NOT DUP1 DUP4 AND SWAP2 POP POP SWAP3 SWAP2 POP POP JUMP JUMPDEST PUSH0 PUSH2 0x3AB0 DUP4 DUP4 PUSH2 0x3A89 JUMP JUMPDEST SWAP2 POP DUP3 PUSH1 0x2 MUL DUP3 OR SWAP1 POP SWAP3 SWAP2 POP POP JUMP JUMPDEST PUSH2 0x3AC9 DUP3 PUSH2 0x30D8 JUMP JUMPDEST PUSH8 0xFFFFFFFFFFFFFFFF DUP2 GT ISZERO PUSH2 0x3AE2 JUMPI PUSH2 0x3AE1 PUSH2 0x3358 JUMP JUMPDEST JUMPDEST PUSH2 0x3AEC DUP3 SLOAD PUSH2 0x37AA JUMP JUMPDEST PUSH2 0x3AF7 DUP3 DUP3 DUP6 PUSH2 0x3A37 JUMP JUMPDEST PUSH0 PUSH1 0x20 SWAP1 POP PUSH1 0x1F DUP4 GT PUSH1 0x1 DUP2 EQ PUSH2 0x3B28 JUMPI PUSH0 DUP5 ISZERO PUSH2 0x3B16 JUMPI DUP3 DUP8 ADD MLOAD SWAP1 POP JUMPDEST PUSH2 0x3B20 DUP6 DUP3 PUSH2 0x3AA5 JUMP JUMPDEST DUP7 SSTORE POP PUSH2 0x3B87 JUMP JUMPDEST PUSH1 0x1F NOT DUP5 AND PUSH2 0x3B36 DUP7 PUSH2 0x3920 JUMP JUMPDEST PUSH0 JUMPDEST DUP3 DUP2 LT ISZERO PUSH2 0x3B5D JUMPI DUP5 DUP10 ADD MLOAD DUP3 SSTORE PUSH1 0x1 DUP3 ADD SWAP2 POP PUSH1 0x20 DUP6 ADD SWAP5 POP PUSH1 0x20 DUP2 ADD SWAP1 POP PUSH2 0x3B38 JUMP JUMPDEST DUP7 DUP4 LT ISZERO PUSH2 0x3B7A JUMPI DUP5 DUP10 ADD MLOAD PUSH2 0x3B76 PUSH1 0x1F DUP10 AND DUP3 PUSH2 0x3A89 JUMP JUMPDEST DUP4 SSTORE POP JUMPDEST PUSH1 0x1 PUSH1 0x2 DUP9 MUL ADD DUP9 SSTORE POP POP POP JUMPDEST POP POP POP POP POP POP JUMP JUMPDEST PUSH32 0x4E487B7100000000000000000000000000000000000000000000000000000000 PUSH0 MSTORE PUSH1 0x11 PUSH1 0x4 MSTORE PUSH1 0x24 PUSH0 REVERT JUMPDEST PUSH0 PUSH2 0x3BC6 DUP3 PUSH2 0x3168 JUMP JUMPDEST SWAP2 POP PUSH2 0x3BD1 DUP4 PUSH2 0x3168 JUMP JUMPDEST SWAP3 POP DUP3 DUP3 SUB SWAP1 POP DUP2 DUP2 GT ISZERO PUSH2 0x3BE9 JUMPI PUSH2 0x3BE8 PUSH2 0x3B8F JUMP JUMPDEST JUMPDEST SWAP3 SWAP2 POP POP JUMP JUMPDEST PUSH32 0x6F6E65206D696E74207065722077616C6C657400000000000000000000000000 PUSH0 DUP3 ADD MSTORE POP JUMP JUMPDEST PUSH0 PUSH2 0x3C23 PUSH1 0x13 DUP4 PUSH2 0x30E2 JUMP JUMPDEST SWAP2 POP PUSH2 0x3C2E DUP3 PUSH2 0x3BEF JUMP JUMPDEST PUSH1 0x20 DUP3 ADD SWAP1 POP SWAP2 SWAP1 POP JUMP JUMPDEST PUSH0 PUSH1 0x20 DUP3 ADD SWAP1 POP DUP2 DUP2 SUB PUSH0 DUP4 ADD MSTORE PUSH2 0x3C50 DUP2 PUSH2 0x3C17 JUMP JUMPDEST SWAP1 POP SWAP2 SWAP1 POP JUMP JUMPDEST PUSH32 0x4D757374206D696E74206174206C656173742031000000000000000000000000 PUSH0 DUP3 ADD MSTORE POP JUMP JUMPDEST PUSH0 PUSH2 0x3C8B PUSH1 0x14 DUP4 PUSH2 0x30E2 JUMP JUMPDEST SWAP2 POP PUSH2 0x3C96 DUP3 PUSH2 0x3C57 JUMP JUMPDEST PUSH1 0x20 DUP3 ADD SWAP1 POP SWAP2 SWAP1 POP JUMP JUMPDEST PUSH0 PUSH1 0x20 DUP3 ADD SWAP1 POP DUP2 DUP2 SUB PUSH0 DUP4 ADD MSTORE PUSH2 0x3CB8 DUP2 PUSH2 0x3C7F JUMP JUMPDEST SWAP1 POP SWAP2 SWAP1 POP JUMP JUMPDEST PUSH32 0x4F6E652070657220757365720000000000000000000000000000000000000000 PUSH0 DUP3 ADD MSTORE POP JUMP JUMPDEST PUSH0 PUSH2 0x3CF3 PUSH1 0xC DUP4 PUSH2 0x30E2 JUMP JUMPDEST SWAP2 POP PUSH2 0x3CFE DUP3 PUSH2 0x3CBF JUMP JUMPDEST PUSH1 0x20 DUP3 ADD SWAP1 POP SWAP2 SWAP1 POP JUMP JUMPDEST PUSH0 PUSH1 0x20 DUP3 ADD SWAP1 POP DUP2 DUP2 SUB PUSH0 DUP4 ADD MSTORE PUSH2 0x3D20 DUP2 PUSH2 0x3CE7 JUMP JUMPDEST SWAP1 POP SWAP2 SWAP1 POP JUMP JUMPDEST PUSH0 PUSH2 0x3D31 DUP3 PUSH2 0x3168 JUMP JUMPDEST SWAP2 POP PUSH2 0x3D3C DUP4 PUSH2 0x3168 JUMP JUMPDEST SWAP3 POP DUP3 DUP3 ADD SWAP1 POP DUP1 DUP3 GT ISZERO PUSH2 0x3D54 JUMPI PUSH2 0x3D53 PUSH2 0x3B8F JUMP JUMPDEST JUMPDEST SWAP3 SWAP2 POP POP JUMP JUMPDEST PUSH32 0x4D617820737570706C7920726561636865640000000000000000000000000000 PUSH0 DUP3 ADD MSTORE POP JUMP JUMPDEST PUSH0 PUSH2 0x3D8E PUSH1 0x12 DUP4 PUSH2 0x30E2 JUMP JUMPDEST SWAP2 POP PUSH2 0x3D99 DUP3 PUSH2 0x3D5A JUMP JUMPDEST PUSH1 0x20 DUP3 ADD SWAP1 POP SWAP2 SWAP1 POP JUMP JUMPDEST PUSH0 PUSH1 0x20 DUP3 ADD SWAP1 POP DUP2 DUP2 SUB PUSH0 DUP4 ADD MSTORE PUSH2 0x3DBB DUP2 PUSH2 0x3D82 JUMP JUMPDEST SWAP1 POP SWAP2 SWAP1 POP JUMP JUMPDEST PUSH0 PUSH2 0x3DCC DUP3 PUSH2 0x3168 JUMP JUMPDEST SWAP2 POP PUSH2 0x3DD7 DUP4 PUSH2 0x3168 JUMP JUMPDEST SWAP3 POP DUP3 DUP3 MUL PUSH2 0x3DE5 DUP2 PUSH2 0x3168 JUMP JUMPDEST SWAP2 POP DUP3 DUP3 DIV DUP5 EQ DUP4 ISZERO OR PUSH2 0x3DFC JUMPI PUSH2 0x3DFB PUSH2 0x3B8F JUMP JUMPDEST JUMPDEST POP SWAP3 SWAP2 POP POP JUMP JUMPDEST PUSH32 0x496E73756666696369656E74207061796D656E74000000000000000000000000 PUSH0 DUP3 ADD MSTORE POP JUMP JUMPDEST PUSH0 PUSH2 0x3E37 PUSH1 0x14 DUP4 PUSH2 0x30E2 JUMP JUMPDEST SWAP2 POP PUSH2 0x3E42 DUP3 PUSH2 0x3E03 JUMP JUMPDEST PUSH1 0x20 DUP3 ADD SWAP1 POP SWAP2 SWAP1 POP JUMP JUMPDEST PUSH0 PUSH1 0x20 DUP3 ADD SWAP1 POP DUP2 DUP2 SUB PUSH0 DUP4 ADD MSTORE PUSH2 0x3E64 DUP2 PUSH2 0x3E2B JUMP JUMPDEST SWAP1 POP SWAP2 SWAP1 POP JUMP JUMPDEST PUSH32 0x4E6F74206F6E204754442077686974656C697374000000000000000000000000 PUSH0 DUP3 ADD MSTORE POP JUMP JUMPDEST PUSH0 PUSH2 0x3E9F PUSH1 0x14 DUP4 PUSH2 0x30E2 JUMP JUMPDEST SWAP2 POP PUSH2 0x3EAA DUP3 PUSH2 0x3E6B JUMP JUMPDEST PUSH1 0x20 DUP3 ADD SWAP1 POP SWAP2 SWAP1 POP JUMP JUMPDEST PUSH0 PUSH1 0x20 DUP3 ADD SWAP1 POP DUP2 DUP2 SUB PUSH0 DUP4 ADD MSTORE PUSH2 0x3ECC DUP2 PUSH2 0x3E93 JUMP JUMPDEST SWAP1 POP SWAP2 SWAP1 POP JUMP JUMPDEST PUSH32 0x4578636565647320475444206C696D6974000000000000000000000000000000 PUSH0 DUP3 ADD MSTORE POP JUMP JUMPDEST PUSH0 PUSH2 0x3F07 PUSH1 0x11 DUP4 PUSH2 0x30E2 JUMP JUMPDEST SWAP2 POP PUSH2 0x3F12 DUP3 PUSH2 0x3ED3 JUMP JUMPDEST PUSH1 0x20 DUP3 ADD SWAP1 POP SWAP2 SWAP1 POP JUMP JUMPDEST PUSH0 PUSH1 0x20 DUP3 ADD SWAP1 POP DUP2 DUP2 SUB PUSH0 DUP4 ADD MSTORE PUSH2 0x3F34 DUP2 PUSH2 0x3EFB JUMP JUMPDEST SWAP1 POP SWAP2 SWAP1 POP JUMP JUMPDEST PUSH32 0x4E6F74206F6E20464346532077686974656C6973740000000000000000000000 PUSH0 DUP3 ADD MSTORE POP JUMP JUMPDEST PUSH0 PUSH2 0x3F6F PUSH1 0x15 DUP4 PUSH2 0x30E2 JUMP JUMPDEST SWAP2 POP PUSH2 0x3F7A DUP3 PUSH2 0x3F3B JUMP JUMPDEST PUSH1 0x20 DUP3 ADD SWAP1 POP SWAP2 SWAP1 POP JUMP JUMPDEST PUSH0 PUSH1 0x20 DUP3 ADD SWAP1 POP DUP2 DUP2 SUB PUSH0 DUP4 ADD MSTORE PUSH2 0x3F9C DUP2 PUSH2 0x3F63 JUMP JUMPDEST SWAP1 POP SWAP2 SWAP1 POP JUMP JUMPDEST PUSH32 0x457863656564732046434653206C696D69740000000000000000000000000000 PUSH0 DUP3 ADD MSTORE POP JUMP JUMPDEST PUSH0 PUSH2 0x3FD7 PUSH1 0x12 DUP4 PUSH2 0x30E2 JUMP JUMPDEST SWAP2 POP PUSH2 0x3FE2 DUP3 PUSH2 0x3FA3 JUMP JUMPDEST PUSH1 0x20 DUP3 ADD SWAP1 POP SWAP2 SWAP1 POP JUMP JUMPDEST PUSH0 PUSH1 0x20 DUP3 ADD SWAP1 POP DUP2 DUP2 SUB PUSH0 DUP4 ADD MSTORE PUSH2 0x4004 DUP2 PUSH2 0x3FCB JUMP JUMPDEST SWAP1 POP SWAP2 SWAP1 POP JUMP JUMPDEST PUSH32 0x45786365656473207075626C6963206C696D6974000000000000000000000000 PUSH0 DUP3 ADD MSTORE POP JUMP JUMPDEST PUSH0 PUSH2 0x403F PUSH1 0x14 DUP4 PUSH2 0x30E2 JUMP JUMPDEST SWAP2 POP PUSH2 0x404A DUP3 PUSH2 0x400B JUMP JUMPDEST PUSH1 0x20 DUP3 ADD SWAP1 POP SWAP2 SWAP1 POP JUMP JUMPDEST PUSH0 PUSH1 0x20 DUP3 ADD SWAP1 POP DUP2 DUP2 SUB PUSH0 DUP4 ADD MSTORE PUSH2 0x406C DUP2 PUSH2 0x4033 JUMP JUMPDEST SWAP1 POP SWAP2 SWAP1 POP JUMP JUMPDEST PUSH32 0x4D696E74696E67206E6F74206163746976650000000000000000000000000000 PUSH0 DUP3 ADD MSTORE POP JUMP JUMPDEST PUSH0 PUSH2 0x40A7 PUSH1 0x12 DUP4 PUSH2 0x30E2 JUMP JUMPDEST SWAP2 POP PUSH2 0x40B2 DUP3 PUSH2 0x4073 JUMP JUMPDEST PUSH1 0x20 DUP3 ADD SWAP1 POP SWAP2 SWAP1 POP JUMP JUMPDEST PUSH0 PUSH1 0x20 DUP3 ADD SWAP1 POP DUP2 DUP2 SUB PUSH0 DUP4 ADD MSTORE PUSH2 0x40D4 DUP2 PUSH2 0x409B JUMP JUMPDEST SWAP1 POP SWAP2 SWAP1 POP JUMP JUMPDEST PUSH0 PUSH2 0x40E5 DUP3 PUSH2 0x3168 JUMP JUMPDEST SWAP2 POP PUSH32 0xFFFFFFFFFFFFFFFFFFFFFFFFFFFFFFFFFFFFFFFFFFFFFFFFFFFFFFFFFFFFFFFF DUP3 SUB PUSH2 0x4117 JUMPI PUSH2 0x4116 PUSH2 0x3B8F JUMP JUMPDEST JUMPDEST PUSH1 0x1 DUP3 ADD SWAP1 POP SWAP2 SWAP1 POP JUMP JUMPDEST PUSH0 PUSH1 0x40 DUP3 ADD SWAP1 POP PUSH2 0x4135 PUSH0 DUP4 ADD DUP6 PUSH2 0x3301 JUMP JUMPDEST PUSH2 0x4142 PUSH1 0x20 DUP4 ADD DUP5 PUSH2 0x3301 JUMP JUMPDEST SWAP4 SWAP3 POP POP POP JUMP JUMPDEST PUSH32 0x546F6B656E20646F6573206E6F74206578697374000000000000000000000000 PUSH0 DUP3 ADD MSTORE POP JUMP JUMPDEST PUSH0 PUSH2 0x417D PUSH1 0x14 DUP4 PUSH2 0x30E2 JUMP JUMPDEST SWAP2 POP PUSH2 0x4188 DUP3 PUSH2 0x4149 JUMP JUMPDEST PUSH1 0x20 DUP3 ADD SWAP1 POP SWAP2 SWAP1 POP JUMP JUMPDEST PUSH0 PUSH1 0x20 DUP3 ADD SWAP1 POP DUP2 DUP2 SUB PUSH0 DUP4 ADD MSTORE PUSH2 0x41AA DUP2 PUSH2 0x4171 JUMP JUMPDEST SWAP1 POP SWAP2 SWAP1 POP JUMP JUMPDEST PUSH0 DUP2 SWAP1 POP SWAP3 SWAP2 POP POP JUMP JUMPDEST PUSH0 DUP2 SLOAD PUSH2 0x41C7 DUP2 PUSH2 0x37AA JUMP JUMPDEST PUSH2 0x41D1 DUP2 DUP7 PUSH2 0x41B1 JUMP JUMPDEST SWAP5 POP PUSH1 0x1 DUP3 AND PUSH0 DUP2 EQ PUSH2 0x41EB JUMPI PUSH1 0x1 DUP2 EQ PUSH2 0x4200 JUMPI PUSH2 0x4232 JUMP JUMPDEST PUSH1 0xFF NOT DUP4 AND DUP7 MSTORE DUP2 ISZERO ISZERO DUP3 MUL DUP7 ADD SWAP4 POP PUSH2 0x4232 JUMP JUMPDEST PUSH2 0x4209 DUP6 PUSH2 0x3920 JUMP JUMPDEST PUSH0 JUMPDEST DUP4 DUP2 LT ISZERO PUSH2 0x422A JUMPI DUP2 SLOAD DUP2 DUP10 ADD MSTORE PUSH1 0x1 DUP3 ADD SWAP2 POP PUSH1 0x20 DUP2 ADD SWAP1 POP PUSH2 0x420B JUMP JUMPDEST DUP4 DUP9 ADD SWAP6 POP POP POP JUMPDEST POP POP POP SWAP3 SWAP2 POP POP JUMP JUMPDEST PUSH0 PUSH2 0x4245 DUP3 PUSH2 0x30D8 JUMP JUMPDEST PUSH2 0x424F DUP2 DUP6 PUSH2 0x41B1 JUMP JUMPDEST SWAP4 POP PUSH2 0x425F DUP2 DUP6 PUSH1 0x20 DUP7 ADD PUSH2 0x30F2 JUMP JUMPDEST DUP1 DUP5 ADD SWAP2 POP POP SWAP3 SWAP2 POP POP JUMP JUMPDEST PUSH32 0x2E6A736F6E000000000000000000000000000000000000000000000000000000 PUSH0 DUP3 ADD MSTORE POP JUMP JUMPDEST PUSH0 PUSH2 0x429F PUSH1 0x5 DUP4 PUSH2 0x41B1 JUMP JUMPDEST SWAP2 POP PUSH2 0x42AA DUP3 PUSH2 0x426B JUMP JUMPDEST PUSH1 0x5 DUP3 ADD SWAP1 POP SWAP2 SWAP1 POP JUMP JUMPDEST PUSH0 PUSH2 0x42C0 DUP3 DUP6 PUSH2 0x41BB JUMP JUMPDEST SWAP2 POP PUSH2 0x42CC DUP3 DUP5 PUSH2 0x423B JUMP JUMPDEST SWAP2 POP PUSH2 0x42D7 DUP3 PUSH2 0x4293 JUMP JUMPDEST SWAP2 POP DUP2 SWAP1 POP SWAP4 SWAP3 POP POP POP JUMP JUMPDEST PUSH32 0x4E487B7100000000000000000000000000000000000000000000000000000000 PUSH0 MSTORE PUSH1 0x32 PUSH1 0x4 MSTORE PUSH1 0x24 PUSH0 REVERT JUMPDEST PUSH0 DUP2 MLOAD SWAP1 POP SWAP2 SWAP1 POP JUMP JUMPDEST PUSH0 DUP3 DUP3 MSTORE PUSH1 0x20 DUP3 ADD SWAP1 POP SWAP3 SWAP2 POP POP JUMP JUMPDEST PUSH0 PUSH2 0x4334 DUP3 PUSH2 0x4310 JUMP JUMPDEST PUSH2 0x433E DUP2 DUP6 PUSH2 0x431A JUMP JUMPDEST SWAP4 POP PUSH2 0x434E DUP2 DUP6 PUSH1 0x20 DUP7 ADD PUSH2 0x30F2 JUMP JUMPDEST PUSH2 0x4357 DUP2 PUSH2 0x3100 JUMP JUMPDEST DUP5 ADD SWAP2 POP POP SWAP3 SWAP2 POP POP JUMP JUMPDEST PUSH0 PUSH1 0x80 DUP3 ADD SWAP1 POP PUSH2 0x4375 PUSH0 DUP4 ADD DUP8 PUSH2 0x31F6 JUMP JUMPDEST PUSH2 0x4382 PUSH1 0x20 DUP4 ADD DUP7 PUSH2 0x31F6 JUMP JUMPDEST PUSH2 0x438F PUSH1 0x40 DUP4 ADD DUP6 PUSH2 0x3301 JUMP JUMPDEST DUP2 DUP2 SUB PUSH1 0x60 DUP4 ADD MSTORE PUSH2 0x43A1 DUP2 DUP5 PUSH2 0x432A JUMP JUMPDEST SWAP1 POP SWAP6 SWAP5 POP POP POP POP POP JUMP JUMPDEST PUSH0 DUP2 MLOAD SWAP1 POP PUSH2 0x43BA DUP2 PUSH2 0x2FC4 JUMP JUMPDEST SWAP3 SWAP2 POP POP JUMP JUMPDEST PUSH0 PUSH1 0x20 DUP3 DUP5 SUB SLT ISZERO PUSH2 0x43D5 JUMPI PUSH2 0x43D4 PUSH2 0x2F91 JUMP JUMPDEST JUMPDEST PUSH0 PUSH2 0x43E2 DUP5 DUP3 DUP6 ADD PUSH2 0x43AC JUMP JUMPDEST SWAP2 POP POP SWAP3 SWAP2 POP POP JUMP JUMPDEST PUSH32 0x4E487B7100000000000000000000000000000000000000000000000000000000 PUSH0 MSTORE PUSH1 0x12 PUSH1 0x4 MSTORE PUSH1 0x24 PUSH0 REVERT JUMPDEST PUSH0 PUSH1 0x40 DUP3 ADD SWAP1 POP PUSH2 0x442B PUSH0 DUP4 ADD DUP6 PUSH2 0x31F6 JUMP JUMPDEST PUSH2 0x4438 PUSH1 0x20 DUP4 ADD DUP5 PUSH2 0x3301 JUMP JUMPDEST SWAP4 SWAP3 POP POP POP JUMP INVALID LOG2 PUSH5 0x6970667358 0x22 SLT KECCAK256 0xAB DUP8 0xD9 0xB2 MSTORE 0xE2 SSTORE DUP14 0xCC 0xAF 0xBD PUSH4 0x703CA0C5 0xBF SMOD 0x28 0x22 SLT PUSH4 0x2419986B 0xC5 DUP4 0xB4 SELFBALANCE 0xEF 0x2B PUSH5 0x736F6C6343 STOP ADDMOD 0x1E STOP CALLER "
		},
		"gasEstimates": {
			"creation": {
				"codeDepositCost": "3505000",
				"executionCost": "infinite",
				"totalCost": "infinite"
			},
			"external": {
				"FCFS_LIMIT()": "413",
				"GTD_LIMIT()": "437",
				"MAX_SUPPLY()": "437",
				"MINT_PRICE()": "2492",
				"PUBLIC_LIMIT()": "436",
				"addFCFSAddresses(address[])": "infinite",
				"addGTDAddresses(address[])": "infinite",
				"approve(address,uint256)": "infinite",
				"balanceOf(address)": "infinite",
				"baseTokenURI()": "infinite",
				"currentPhase()": "2674",
				"fcfsWhitelist(address)": "2879",
				"getApproved(uint256)": "infinite",
				"getCurrentPhase()": "infinite",
				"getMintedCount(address)": "2941",
				"getRemainingMints(address)": "infinite",
				"gtdWhitelist(address)": "2966",
				"isApprovedForAll(address,address)": "infinite",
				"isWhitelisted(address)": "infinite",
				"mint(uint256)": "infinite",
				"mintedPerWallet(address)": "2936",
				"name()": "infinite",
				"nextTokenId()": "2536",
				"owner()": "2561",
				"ownerOf(uint256)": "infinite",
				"removeFCFSAddress(address)": "infinite",
				"removeGTDAddress(address)": "infinite",
				"renounceOwnership()": "infinite",
				"safeTransferFrom(address,address,uint256)": "infinite",
				"safeTransferFrom(address,address,uint256,bytes)": "infinite",
				"setApprovalForAll(address,bool)": "infinite",
				"setBaseURI(string)": "infinite",
				"setPhase(uint8)": "infinite",
				"setPrice(uint256)": "infinite",
				"supportsInterface(bytes4)": "810",
				"symbol()": "infinite",
				"tokenURI(uint256)": "infinite",
				"totalMinted()": "2499",
				"transferFrom(address,address,uint256)": "infinite",
				"transferOwnership(address)": "infinite",
				"withdraw()": "infinite"
			}
		},
		"methodIdentifiers": {
			"FCFS_LIMIT()": "f1bb4728",
			"GTD_LIMIT()": "541399d7",
			"MAX_SUPPLY()": "32cb6b0c",
			"MINT_PRICE()": "c002d23d",
			"PUBLIC_LIMIT()": "a67d9c5e",
			"addFCFSAddresses(address[])": "fbb34089",
			"addGTDAddresses(address[])": "d7ba706b",
			"approve(address,uint256)": "095ea7b3",
			"balanceOf(address)": "70a08231",
			"baseTokenURI()": "d547cfb7",
			"currentPhase()": "055ad42e",
			"fcfsWhitelist(address)": "125eeafd",
			"getApproved(uint256)": "081812fc",
			"getCurrentPhase()": "a3a40ea5",
			"getMintedCount(address)": "97d6696b",
			"getRemainingMints(address)": "7fa803c3",
			"gtdWhitelist(address)": "a74736b2",
			"isApprovedForAll(address,address)": "e985e9c5",
			"isWhitelisted(address)": "3af32abf",
			"mint(uint256)": "a0712d68",
			"mintedPerWallet(address)": "3a602b4d",
			"name()": "06fdde03",
			"nextTokenId()": "75794a3c",
			"owner()": "8da5cb5b",
			"ownerOf(uint256)": "6352211e",
			"removeFCFSAddress(address)": "fa120dd4",
			"removeGTDAddress(address)": "1baf89ac",
			"renounceOwnership()": "715018a6",
			"safeTransferFrom(address,address,uint256)": "42842e0e",
			"safeTransferFrom(address,address,uint256,bytes)": "b88d4fde",
			"setApprovalForAll(address,bool)": "a22cb465",
			"setBaseURI(string)": "55f804b3",
			"setPhase(uint8)": "c03afb59",
			"setPrice(uint256)": "91b7f5ed",
			"supportsInterface(bytes4)": "01ffc9a7",
			"symbol()": "95d89b41",
			"tokenURI(uint256)": "c87b56dd",
			"totalMinted()": "a2309ff8",
			"transferFrom(address,address,uint256)": "23b872dd",
			"transferOwnership(address)": "f2fde38b",
			"withdraw()": "3ccfd60b"
		}
	},
	"abi": [
		{
			"inputs": [
				{
					"internalType": "string",
					"name": "_baseURI",
					"type": "string"
				}
			],
			"stateMutability": "nonpayable",
			"type": "constructor"
		},
		{
			"inputs": [
				{
					"internalType": "address",
					"name": "sender",
					"type": "address"
				},
				{
					"internalType": "uint256",
					"name": "tokenId",
					"type": "uint256"
				},
				{
					"internalType": "address",
					"name": "owner",
					"type": "address"
				}
			],
			"name": "ERC721IncorrectOwner",
			"type": "error"
		},
		{
			"inputs": [
				{
					"internalType": "address",
					"name": "operator",
					"type": "address"
				},
				{
					"internalType": "uint256",
					"name": "tokenId",
					"type": "uint256"
				}
			],
			"name": "ERC721InsufficientApproval",
			"type": "error"
		},
		{
			"inputs": [
				{
					"internalType": "address",
					"name": "approver",
					"type": "address"
				}
			],
			"name": "ERC721InvalidApprover",
			"type": "error"
		},
		{
			"inputs": [
				{
					"internalType": "address",
					"name": "operator",
					"type": "address"
				}
			],
			"name": "ERC721InvalidOperator",
			"type": "error"
		},
		{
			"inputs": [
				{
					"internalType": "address",
					"name": "owner",
					"type": "address"
				}
			],
			"name": "ERC721InvalidOwner",
			"type": "error"
		},
		{
			"inputs": [
				{
					"internalType": "address",
					"name": "receiver",
					"type": "address"
				}
			],
			"name": "ERC721InvalidReceiver",
			"type": "error"
		},
		{
			"inputs": [
				{
					"internalType": "address",
					"name": "sender",
					"type": "address"
				}
			],
			"name": "ERC721InvalidSender",
			"type": "error"
		},
		{
			"inputs": [
				{
					"internalType": "uint256",
					"name": "tokenId",
					"type": "uint256"
				}
			],
			"name": "ERC721NonexistentToken",
			"type": "error"
		},
		{
			"inputs": [
				{
					"internalType": "address",
					"name": "owner",
					"type": "address"
				}
			],
			"name": "OwnableInvalidOwner",
			"type": "error"
		},
		{
			"inputs": [
				{
					"internalType": "address",
					"name": "account",
					"type": "address"
				}
			],
			"name": "OwnableUnauthorizedAccount",
			"type": "error"
		},
		{
			"anonymous": false,
			"inputs": [
				{
					"indexed": true,
					"internalType": "address",
					"name": "owner",
					"type": "address"
				},
				{
					"indexed": true,
					"internalType": "address",
					"name": "approved",
					"type": "address"
				},
				{
					"indexed": true,
					"internalType": "uint256",
					"name": "tokenId",
					"type": "uint256"
				}
			],
			"name": "Approval",
			"type": "event"
		},
		{
			"anonymous": false,
			"inputs": [
				{
					"indexed": true,
					"internalType": "address",
					"name": "owner",
					"type": "address"
				},
				{
					"indexed": true,
					"internalType": "address",
					"name": "operator",
					"type": "address"
				},
				{
					"indexed": false,
					"internalType": "bool",
					"name": "approved",
					"type": "bool"
				}
			],
			"name": "ApprovalForAll",
			"type": "event"
		},
		{
			"anonymous": false,
			"inputs": [
				{
					"indexed": true,
					"internalType": "address",
					"name": "minter",
					"type": "address"
				},
				{
					"indexed": false,
					"internalType": "uint256",
					"name": "quantity",
					"type": "uint256"
				},
				{
					"indexed": false,
					"internalType": "uint256",
					"name": "startTokenId",
					"type": "uint256"
				}
			],
			"name": "Minted",
			"type": "event"
		},
		{
			"anonymous": false,
			"inputs": [
				{
					"indexed": true,
					"internalType": "address",
					"name": "previousOwner",
					"type": "address"
				},
				{
					"indexed": true,
					"internalType": "address",
					"name": "newOwner",
					"type": "address"
				}
			],
			"name": "OwnershipTransferred",
			"type": "event"
		},
		{
			"anonymous": false,
			"inputs": [
				{
					"indexed": false,
					"internalType": "enum UFONADS.Phase",
					"name": "newPhase",
					"type": "uint8"
				}
			],
			"name": "PhaseChanged",
			"type": "event"
		},
		{
			"anonymous": false,
			"inputs": [
				{
					"indexed": true,
					"internalType": "address",
					"name": "from",
					"type": "address"
				},
				{
					"indexed": true,
					"internalType": "address",
					"name": "to",
					"type": "address"
				},
				{
					"indexed": true,
					"internalType": "uint256",
					"name": "tokenId",
					"type": "uint256"
				}
			],
			"name": "Transfer",
			"type": "event"
		},
		{
			"inputs": [],
			"name": "FCFS_LIMIT",
			"outputs": [
				{
					"internalType": "uint256",
					"name": "",
					"type": "uint256"
				}
			],
			"stateMutability": "view",
			"type": "function"
		},
		{
			"inputs": [],
			"name": "GTD_LIMIT",
			"outputs": [
				{
					"internalType": "uint256",
					"name": "",
					"type": "uint256"
				}
			],
			"stateMutability": "view",
			"type": "function"
		},
		{
			"inputs": [],
			"name": "MAX_SUPPLY",
			"outputs": [
				{
					"internalType": "uint256",
					"name": "",
					"type": "uint256"
				}
			],
			"stateMutability": "view",
			"type": "function"
		},
		{
			"inputs": [],
			"name": "MINT_PRICE",
			"outputs": [
				{
					"internalType": "uint256",
					"name": "",
					"type": "uint256"
				}
			],
			"stateMutability": "view",
			"type": "function"
		},
		{
			"inputs": [],
			"name": "PUBLIC_LIMIT",
			"outputs": [
				{
					"internalType": "uint256",
					"name": "",
					"type": "uint256"
				}
			],
			"stateMutability": "view",
			"type": "function"
		},
		{
			"inputs": [
				{
					"internalType": "address[]",
					"name": "addresses",
					"type": "address[]"
				}
			],
			"name": "addFCFSAddresses",
			"outputs": [],
			"stateMutability": "nonpayable",
			"type": "function"
		},
		{
			"inputs": [
				{
					"internalType": "address[]",
					"name": "addresses",
					"type": "address[]"
				}
			],
			"name": "addGTDAddresses",
			"outputs": [],
			"stateMutability": "nonpayable",
			"type": "function"
		},
		{
			"inputs": [
				{
					"internalType": "address",
					"name": "to",
					"type": "address"
				},
				{
					"internalType": "uint256",
					"name": "tokenId",
					"type": "uint256"
				}
			],
			"name": "approve",
			"outputs": [],
			"stateMutability": "nonpayable",
			"type": "function"
		},
		{
			"inputs": [
				{
					"internalType": "address",
					"name": "owner",
					"type": "address"
				}
			],
			"name": "balanceOf",
			"outputs": [
				{
					"internalType": "uint256",
					"name": "",
					"type": "uint256"
				}
			],
			"stateMutability": "view",
			"type": "function"
		},
		{
			"inputs": [],
			"name": "baseTokenURI",
			"outputs": [
				{
					"internalType": "string",
					"name": "",
					"type": "string"
				}
			],
			"stateMutability": "view",
			"type": "function"
		},
		{
			"inputs": [],
			"name": "currentPhase",
			"outputs": [
				{
					"internalType": "enum UFONADS.Phase",
					"name": "",
					"type": "uint8"
				}
			],
			"stateMutability": "view",
			"type": "function"
		},
		{
			"inputs": [
				{
					"internalType": "address",
					"name": "",
					"type": "address"
				}
			],
			"name": "fcfsWhitelist",
			"outputs": [
				{
					"internalType": "bool",
					"name": "",
					"type": "bool"
				}
			],
			"stateMutability": "view",
			"type": "function"
		},
		{
			"inputs": [
				{
					"internalType": "uint256",
					"name": "tokenId",
					"type": "uint256"
				}
			],
			"name": "getApproved",
			"outputs": [
				{
					"internalType": "address",
					"name": "",
					"type": "address"
				}
			],
			"stateMutability": "view",
			"type": "function"
		},
		{
			"inputs": [],
			"name": "getCurrentPhase",
			"outputs": [
				{
					"internalType": "string",
					"name": "",
					"type": "string"
				}
			],
			"stateMutability": "view",
			"type": "function"
		},
		{
			"inputs": [
				{
					"internalType": "address",
					"name": "addr",
					"type": "address"
				}
			],
			"name": "getMintedCount",
			"outputs": [
				{
					"internalType": "uint256",
					"name": "",
					"type": "uint256"
				}
			],
			"stateMutability": "view",
			"type": "function"
		},
		{
			"inputs": [
				{
					"internalType": "address",
					"name": "addr",
					"type": "address"
				}
			],
			"name": "getRemainingMints",
			"outputs": [
				{
					"internalType": "uint256",
					"name": "",
					"type": "uint256"
				}
			],
			"stateMutability": "view",
			"type": "function"
		},
		{
			"inputs": [
				{
					"internalType": "address",
					"name": "",
					"type": "address"
				}
			],
			"name": "gtdWhitelist",
			"outputs": [
				{
					"internalType": "bool",
					"name": "",
					"type": "bool"
				}
			],
			"stateMutability": "view",
			"type": "function"
		},
		{
			"inputs": [
				{
					"internalType": "address",
					"name": "owner",
					"type": "address"
				},
				{
					"internalType": "address",
					"name": "operator",
					"type": "address"
				}
			],
			"name": "isApprovedForAll",
			"outputs": [
				{
					"internalType": "bool",
					"name": "",
					"type": "bool"
				}
			],
			"stateMutability": "view",
			"type": "function"
		},
		{
			"inputs": [
				{
					"internalType": "address",
					"name": "addr",
					"type": "address"
				}
			],
			"name": "isWhitelisted",
			"outputs": [
				{
					"internalType": "bool",
					"name": "gtd",
					"type": "bool"
				},
				{
					"internalType": "bool",
					"name": "fcfs",
					"type": "bool"
				}
			],
			"stateMutability": "view",
			"type": "function"
		},
		{
			"inputs": [
				{
					"internalType": "uint256",
					"name": "quantity",
					"type": "uint256"
				}
			],
			"name": "mint",
			"outputs": [],
			"stateMutability": "payable",
			"type": "function"
		},
		{
			"inputs": [
				{
					"internalType": "address",
					"name": "",
					"type": "address"
				}
			],
			"name": "mintedPerWallet",
			"outputs": [
				{
					"internalType": "uint256",
					"name": "",
					"type": "uint256"
				}
			],
			"stateMutability": "view",
			"type": "function"
		},
		{
			"inputs": [],
			"name": "name",
			"outputs": [
				{
					"internalType": "string",
					"name": "",
					"type": "string"
				}
			],
			"stateMutability": "view",
			"type": "function"
		},
		{
			"inputs": [],
			"name": "nextTokenId",
			"outputs": [
				{
					"internalType": "uint256",
					"name": "",
					"type": "uint256"
				}
			],
			"stateMutability": "view",
			"type": "function"
		},
		{
			"inputs": [],
			"name": "owner",
			"outputs": [
				{
					"internalType": "address",
					"name": "",
					"type": "address"
				}
			],
			"stateMutability": "view",
			"type": "function"
		},
		{
			"inputs": [
				{
					"internalType": "uint256",
					"name": "tokenId",
					"type": "uint256"
				}
			],
			"name": "ownerOf",
			"outputs": [
				{
					"internalType": "address",
					"name": "",
					"type": "address"
				}
			],
			"stateMutability": "view",
			"type": "function"
		},
		{
			"inputs": [
				{
					"internalType": "address",
					"name": "addr",
					"type": "address"
				}
			],
			"name": "removeFCFSAddress",
			"outputs": [],
			"stateMutability": "nonpayable",
			"type": "function"
		},
		{
			"inputs": [
				{
					"internalType": "address",
					"name": "addr",
					"type": "address"
				}
			],
			"name": "removeGTDAddress",
			"outputs": [],
			"stateMutability": "nonpayable",
			"type": "function"
		},
		{
			"inputs": [],
			"name": "renounceOwnership",
			"outputs": [],
			"stateMutability": "nonpayable",
			"type": "function"
		},
		{
			"inputs": [
				{
					"internalType": "address",
					"name": "from",
					"type": "address"
				},
				{
					"internalType": "address",
					"name": "to",
					"type": "address"
				},
				{
					"internalType": "uint256",
					"name": "tokenId",
					"type": "uint256"
				}
			],
			"name": "safeTransferFrom",
			"outputs": [],
			"stateMutability": "nonpayable",
			"type": "function"
		},
		{
			"inputs": [
				{
					"internalType": "address",
					"name": "from",
					"type": "address"
				},
				{
					"internalType": "address",
					"name": "to",
					"type": "address"
				},
				{
					"internalType": "uint256",
					"name": "tokenId",
					"type": "uint256"
				},
				{
					"internalType": "bytes",
					"name": "data",
					"type": "bytes"
				}
			],
			"name": "safeTransferFrom",
			"outputs": [],
			"stateMutability": "nonpayable",
			"type": "function"
		},
		{
			"inputs": [
				{
					"internalType": "address",
					"name": "operator",
					"type": "address"
				},
				{
					"internalType": "bool",
					"name": "approved",
					"type": "bool"
				}
			],
			"name": "setApprovalForAll",
			"outputs": [],
			"stateMutability": "nonpayable",
			"type": "function"
		},
		{
			"inputs": [
				{
					"internalType": "string",
					"name": "_baseURI",
					"type": "string"
				}
			],
			"name": "setBaseURI",
			"outputs": [],
			"stateMutability": "nonpayable",
			"type": "function"
		},
		{
			"inputs": [
				{
					"internalType": "enum UFONADS.Phase",
					"name": "_phase",
					"type": "uint8"
				}
			],
			"name": "setPhase",
			"outputs": [],
			"stateMutability": "nonpayable",
			"type": "function"
		},
		{
			"inputs": [
				{
					"internalType": "uint256",
					"name": "_price",
					"type": "uint256"
				}
			],
			"name": "setPrice",
			"outputs": [],
			"stateMutability": "nonpayable",
			"type": "function"
		},
		{
			"inputs": [
				{
					"internalType": "bytes4",
					"name": "interfaceId",
					"type": "bytes4"
				}
			],
			"name": "supportsInterface",
			"outputs": [
				{
					"internalType": "bool",
					"name": "",
					"type": "bool"
				}
			],
			"stateMutability": "view",
			"type": "function"
		},
		{
			"inputs": [],
			"name": "symbol",
			"outputs": [
				{
					"internalType": "string",
					"name": "",
					"type": "string"
				}
			],
			"stateMutability": "view",
			"type": "function"
		},
		{
			"inputs": [
				{
					"internalType": "uint256",
					"name": "tokenId",
					"type": "uint256"
				}
			],
			"name": "tokenURI",
			"outputs": [
				{
					"internalType": "string",
					"name": "",
					"type": "string"
				}
			],
			"stateMutability": "view",
			"type": "function"
		},
		{
			"inputs": [],
			"name": "totalMinted",
			"outputs": [
				{
					"internalType": "uint256",
					"name": "",
					"type": "uint256"
				}
			],
			"stateMutability": "view",
			"type": "function"
		},
		{
			"inputs": [
				{
					"internalType": "address",
					"name": "from",
					"type": "address"
				},
				{
					"internalType": "address",
					"name": "to",
					"type": "address"
				},
				{
					"internalType": "uint256",
					"name": "tokenId",
					"type": "uint256"
				}
			],
			"name": "transferFrom",
			"outputs": [],
			"stateMutability": "nonpayable",
			"type": "function"
		},
		{
			"inputs": [
				{
					"internalType": "address",
					"name": "newOwner",
					"type": "address"
				}
			],
			"name": "transferOwnership",
			"outputs": [],
			"stateMutability": "nonpayable",
			"type": "function"
		},
		{
			"inputs": [],
			"name": "withdraw",
			"outputs": [],
			"stateMutability": "nonpayable",
			"type": "function"
		}
	]
}